:020000040800F2
:1000000090080020750400087702000879020008B3
:100010007D0200088102000885020008000000003F
:10002000000000000000000000000000890200083D
:100030008B020008000000008B0400088D020008FD
:100040008F0400088F0400088F0400089102000844
:100050008F0400088F0400088F0200088F04000836
:100060008F0400088F0400088F0400088F04000824
:100070008F0400088F0400088F0400088F04000814
:100080008F0400088F0400088F0400088F04000804
:100090008F0400088F0400088F0400088F040008F4
:1000A0008F0400088F0400088F0400088F040008E4
:1000B0008F0400088F0400088F0400088F040008D4
:1000C0008F0400088F0400088F0400088F040008C4
:1000D0008F0400089B1700088F0400088F04000895
:1000E0008F0400088F0400088F0400088F040008A4
:1000F0008F0400088F0400088F0400088F04000894
:100100008F0400088F0400088F0400088F04000883
:100110008F0400088F0400088F0400088F04000873
:100120008F0400088F0400088F0400088F04000863
:1001300000F002F800F090F80AA090E8000C824469
:100140008344AAF10107DA4501D100F085F8AFF246
:10015000090EBAE80F0013F0010F18BFFB1A43F0A5
:1001600001031847DC3D0000FC3D0000103A24BFAD
:1001700078C878C1FAD8520724BF30C830C144BF0C
:1001800004680C607047000000230024002500264E
:10019000103A28BF78C1FBD8520728BF30C148BFEA
:1001A0000B6070476E2901F03985702901F079865E
:1001B000662903F05686652903F05386672903F004
:1001C00050866129AFF3008003681B0A28BF41F005
:1001D0008001692901F0E884642901F0E58475292A
:1001E00001F0E2846F2901F00786782901F0458645
:1001F000E92901F0A385E42901F0A085F52901F0A2
:100200009D85EF2901F00486F82901F044860368F2
:10021000DB0928BF41F08001632902F0C481732902
:1002200002F0C981E32902F0D481F32902F0D981D7
:10023000002070471FB502F025FA040000200021BD
:1002400002F00EFF401C60600020002102F0F2FE70
:10025000E0601FBD10B510BD02F0E7F91146FFF7D1
:10026000E9FF01F0E3FB02F0BDFA03B4FFF7F2FF90
:1002700003BC02F001FB704700BFFEE700BFFEE7D2
:1002800000BFFEE700BFFEE770477047704770474A
:10029000704700000CB50020019000906C48006889
:1002A00040F480306A49086000BF6948006800F483
:1002B000003000900198401C0190009818B90198F6
:1002C000B0F5A06FF1D16248006800F4003010B1C1
:1002D0000120009001E0002000900098012843D107
:1002E0005C48006840F010005A4908600846006801
:1002F00020F0030008600846006840F00200086033
:10030000534840685249486008464068486008467B
:10031000406840F4806048600846406820F47C10E3
:1003200048600846406840F4E810486008460068A5
:1003300040F08070086000BF4548006800F0007021
:100340000028F9D04248406820F003004049486046
:100350000846406840F00200486000BF3C484068E2
:1003600000F00C000828F9D10CBD10B5FFF792FF82
:1003700010BD10B53648006840F0010034490860EF
:1003800008464068344908403149486008460068DA
:10039000324908402E4908600846006820F4802051
:1003A00008600846406820F4FE0048604FF41F00D3
:1003B0008860FFF7DAFF4FF000602949086010BD40
:1003C00010B5002100200022214B5B6803F00C01D6
:1003D00021B1042906D0082928D107E0214B224C5D
:1003E000236027E01F4B204C236023E0184B5B6801
:1003F00003F47010164B5B6803F48032022303EBA6
:10040000904022B9194B4343174C23600DE0104B29
:100410005B6803F4003323B1144B4343124C236055
:1004200003E0104B4343104C236003E00D4B0E4C94
:10043000236000BF00BF064B5B68C3F303130C4C83
:10044000E15C094B1B68CB40074C236010BD0000EA
:1004500000100240002002400000FFF8FFFFF6FEFF
:1004600008ED00E000127A000000002000093D00C5
:10047000040000200948804709480047FEE7FEE7DE
:10048000FEE7FEE7FEE7FEE7FEE7FEE7FEE7FEE744
:1004900004480549054A064B7047000073030008ED
:1004A00031010008900000209008002090040020F6
:1004B0009004002031490143314A1160704770B502
:1004C000002100230F22C47804B32D4C246804F4C7
:1004D000E064C4F5E064210AC1F10403CA40447831
:1004E00004FA03F18478144021430901254C06786D
:1004F000A155047804F01F050124AC4005786D1166
:10050000AD0005F1E025C5F8004109E0047804F0EC
:100510001F050124AC401C4D0678761145F8264095
:1005200070BD1A4A0A400243154B1B1F1A607047E0
:1005300039B1134A121D12680243114B1B1D1A6078
:1005400006E00F4A121D126882430D4B1B1D1A60F4
:100550007047042808D14FF0E021096941F00401F7
:100560004FF0E022116107E04FF0E021096921F02E
:1005700004014FF0E0221161704700000000FA050D
:100580000CED00E000E400E080E100E080FFFF1FF0
:1005900010B50446CC48844208D10121042000F063
:1005A0002DFB0021042000F029FB46E0C7488442CF
:1005B00008D10121082000F021FB0021082000F0D3
:1005C0001DFB3AE0C248844208D10121102000F00E
:1005D00015FB0021102000F011FB2EE0BD488442E5
:1005E00008D10121202000F009FB0021202000F08B
:1005F00005FB22E0B848844208D10121402000F0E8
:10060000FDFA0021402000F0F9FA16E0B3488442D8
:1006100008D10121802000F0F1FA0021802000F0B3
:10062000EDFA0AE0AE48844207D10121801500F0BE
:10063000E5FA0021A01500F0E1FA10BD10B5012186
:10064000084600F0DBFA0021012000F0D7FA10BDC7
:100650002DE9F04102460025002600200023002459
:10066000002791F803C00CF00F0591F803C00CF0BF
:10067000100CBCF1000F03D091F802C04CEA050544
:1006800091F800C0BCF1000F31D0146800202BE0BD
:100690004FF0010C0CFA00F3B1F800C00CEA0306AD
:1006A0009E4220D183004FF00F0C0CFA03F7BC439D
:1006B00005FA03FC4CEA040491F803C0BCF1280FCE
:1006C00006D14FF0010C0CFA00FCC2F814C00AE08D
:1006D00091F803C0BCF1480F05D14FF0010C0CFAA2
:1006E00000FCC2F810C0401C0828D1D31460B1F837
:1006F00000C0BCF1FF0F34DD546800202EE000F193
:10070000080C4FF0010808FA0CF3B1F800C00CEA2D
:1007100003069E4221D183004FF00F0C0CFA03F721
:10072000BC4305FA03FC4CEA040491F803C0BCF195
:10073000280F05D100F1080C08FA0CF8C2F8148053
:1007400091F803C0BCF1480F07D100F1080C4FF03D
:10075000010808FA0CF8C2F81080401C0828CED313
:100760005460BDE8F0814FF6FF7101800221817075
:100770000421C17070470246002093680B400BB102
:10078000012000E0002070470146886880B2704771
:1007900002460020D3680B400BB1012000E000208E
:1007A00070470146C86880B2704701617047416177
:1007B00070470AB1016100E041617047C160704754
:1007C0004FF480320A438261816182618269826969
:1007D000704702460020434B18684FF6807318405C
:1007E00040EA021008433F4B186070473E49C86119
:1007F0007047F0B50A46002300240021002500F0D0
:100800000046B6F1004F02D1364EF16901E0354E97
:100810007168C0F3034583B200F44016B6F5401F7B
:1008200008D121F070612F4E766826F070662D4F4A
:100830007E6012E000F48016B6F5801F06D1032614
:1008400006FA05F4A14341F0706106E0460D360159
:1008500003FA06F6B14341F0706122B1460D36014C
:1008600003FA06F6314300F00046B6F1004F02D11C
:100870001C4EF16101E01B4E7160F0BD30B50022ED
:100880008B071C0F0F2303FA04F2164B08338C104E
:1008900053F824309343134C08348D1044F825301A
:1008A00023468C1053F824308C07240F00FA04F4EC
:1008B00023430C4C08348D1044F8253030BD0A49D0
:1008C000DC3108607047000000080140000C014066
:1008D000001001400014014000180140001C0140BC
:1008E000002001400000014000002042DF48006875
:1008F00040F00100DD49086008464068DC490840D6
:10090000DA49486008460068DA490840D749086073
:100910000846006820F4802008600846406820F4FB
:10092000FE0048604FF41F0088607047CF49096897
:1009300021F48031CD4A11601146096821F48021EB
:100940001160B0F5803F03D0B0F5802F0ED106E0E6
:10095000C649096841F48031C44A116007E0C349BF
:10096000096841F4A021C14A116000E000BF00BF46
:10097000704710B501460022002300204A11012AC9
:1009800002D1BA4C236806E0022A02D1B74C236A8E
:1009900001E0B64C636A01F01F02012494401C4040
:1009A0000CB1012000E0002010BD38B500200090FF
:1009B0000024002500BF3120FFF7DBFF054600982B
:1009C000401C00900098B0F5A06F01D0002DF2D02F
:1009D0003120FFF7CEFF08B1012400E000242046BB
:1009E00038BD01460020A14A106820F0F80040EA16
:1009F000C10010607047A04908607047024600209F
:100A00009A4B586820F47C1042EA01031843974B34
:100A10005860704798490866704701460020934A1D
:100A2000506820F003000843506070478F484068CA
:100A300000F00C007047014600208C4A506820F0FE
:100A4000F00008435060704701460020874A506814
:100A500020F4E06008435060704701460020834A5C
:100A6000506820F4605040EAC1005060704729B1DE
:100A70007E4A527A02437D4B5A7204E07B4A527A94
:100A800082437A4B5A7270477B49D831086070476D
:100A900001460020754A506820F4404008435060E9
:100AA00070470021714A20321170704A82F820107C
:100AB000012802D004280AD104E001216B4A203227
:100AC000117005E00521694A2032117000E000BF75
:100AD00000BF70476949086070476449096A01436B
:100AE000624A11627047654944390860704730B501
:100AF00000210022002400235C4D6D6805F00C01EC
:100B000021B1042905D0082923D105E05C4D0560F9
:100B100022E05B4D05601FE0544D6D6805F47012D6
:100B2000524D6D6805F48034022505EB92421CB9E4
:100B3000544D554305600BE04C4D6D6805F4003590
:100B40001DB1504D5543056002E04D4D55430560C4
:100B500002E04B4D056000BF00BF444D6D6805F0DD
:100B6000F0010909484D6B5C0568DD4045603F4D6B
:100B70006D6805F4E061090A434D6B5C4568DD4032
:100B800085603A4D6D6805F46051C90A3E4D6B5C55
:100B90004568DD40C560354D6D6805F44041890B01
:100BA0003A4D6B5CC568B5FBF3F5056130BD29B105
:100BB0002E4A526902432D4B5A6104E02B4A526976
:100BC00082432A4B5A61704729B1284A92690243ED
:100BD000264B9A6104E0254A92698243234B9A612D
:100BE000704729B1214AD2690243204BDA6104E0FF
:100BF0001E4AD26982431D4BDA61704729B11B4AF4
:100C0000D2680243194BDA6004E0184AD268824382
:100C1000164BDA60704729B1144A12690243134B2C
:100C20001A6104E0114A12698243104B1A6170473D
:100C300012494039086070470F49C86470470B4932
:100C4000C87170470948406A40F08070074948629F
:100C5000704701460020054A92680A400AB1012007
:100C600000E0002070470149887270470010024080
:100C70000000FFF8FFFFF6FE0000424280044242FF
:100C800000127A0000093D0014000020240000201A
:100C900010B50446FB48844209D101218803FFF7BF
:100CA000ADFF00214FF48040FFF7A8FF32E0F64887
:100CB000844209D101214804FFF7ADFF00214FF420
:100CC0000030FFF7A8FF25E0F048844209D1012158
:100CD0008804FFF7A0FF00214FF48020FFF79BFF5F
:100CE00018E0EB48844209D10121C804FFF793FFC3
:100CF00000214FF40020FFF78EFF0BE0E54884420F
:100D000008D101210805FFF786FF00214FF480106C
:100D1000FFF781FF10BD2DE9F04786B005460E466E
:100D20000024A24600BFA1460027B08900B100BF41
:100D30002F462C8A4CF6FF700440F08804432C8226
:100D4000AC894EF6F3100440B088318908437189AC
:100D500008430443AC81AC8A4FF6FF400440B0899D
:100D60000443AC8201A8FFF7C2FEC648874202D105
:100D7000DDF810A001E0DDF80CA0A88900F4004027
:100D800040B10AEBCA0000EB0A1031684900B0FB21
:100D9000F1F807E00AEBCA0000EB0A10316889009D
:100DA000B0FBF1F86420B8FBF0F0040120096421E5
:100DB00001FB1089A88900F4004040B1322000EB0B
:100DC000C900B0FBF1F000F00700044308E0322056
:100DD00000EB09106421B0FBF1F000F00F000443B8
:100DE0002C8106B0BDE8F0874FF416510160002158
:100DF0008180C18001810C21418100218181704766
:100E000010B502460020108A4FF2FF0318400B88ED
:100E10004C8823438C882343CC8823431843108277
:100E200010BD0021018041808180C180704721B1C7
:100E3000828942F40052828104E082894DF6FF7378
:100E40001A4082817047F0B5034600240026002531
:100E5000002040F66A17B94200D100BF1846C1F31E
:100E6000421401F01F06012707FA06F5012C01D1F3
:100E70000C3004E0022C01D1103000E014301AB123
:100E800007682F43076002E00768AF430760F0BDC3
:100E90001AB1838A0B43838202E0838A8B43838265
:100EA0007047028A4FF6F0731A400282028A0A43A0
:100EB0000282704782894FF2FF731A4082818289D1
:100EC0000A438281704721B1828942F00202828105
:100ED00004E082894FF6FD731A4082817047028ACE
:100EE0004FF6DF731A400282028A0A430282704779
:100EF00021B1028A42F48042028204E0028A4BF667
:100F0000FF731A4002827047C1F308028280704763
:100F100001468888C0F308007047818941F00101CB
:100F200081817047028BD2B20283028B42EA012296
:100F300002837047028B02F47F420283028B0A43D2
:100F40000283704721B1828A42F02002828204E04B
:100F5000828A4FF6DF731A408282704721B1828AFB
:100F600042F01002828204E0828A4FF6EF731A4048
:100F70008282704721B1828A42F00802828204E0B4
:100F8000828A4FF6F7731A408282704721B18289B4
:100F900042F40042828103E08289C2F30E02828120
:100FA000704721B1828A42F40062828204E0828A20
:100FB0004FF2FF731A4082827047828A4FF6FB73AA
:100FC0001A408282828A0A438282704721B1828AD1
:100FD00042F00202828204E0828A4FF6FD731A40D8
:100FE0008282704702460020B1F5007F00D100BF29
:100FF00013880B400BB1012000E00020704701F482
:101000000072B2F5007F00D100BFCA430280704772
:1010100070B50246002400230025002040F66A1621
:10102000B14200D100BFC1F3421501F01F030126F8
:1010300006FA03F3012D02D19689334006E0022D12
:1010400002D1168A334001E0968A33400C12012601
:1010500006FA04F41688344013B10CB1012000E004
:10106000002070BD10B50022002340F66A14A14292
:1010700000D100BF0A1201249440A3B2DC430480D3
:1010800010BD00000038014000440040004800400E
:10109000004C00400050004010B50446FA4884421D
:1010A00008D101214015FFF7A9FD00216015FFF7C8
:1010B000A5FD17E0F548844208D101210015FFF78E
:1010C0009DFD00212015FFF799FD0BE0F0488442BB
:1010D00008D10121C803FFF791FD00214FF4004022
:1010E000FFF78CFD10BD30B502460020002350688C
:1010F000E84C20400D790C6844EA052420435060F8
:101100009068E54C2040D1E902542C434D7944EAE3
:10111000450420439060D06A20F470000C7C641E6B
:10112000E4B2234340EA0350D06230BD00210160A5
:10113000017141718160C16001210174704721B169
:10114000826842F00102826003E0826822F00102BC
:101150008260704721B1826842F48072826003E04D
:10116000826822F480728260704710B50023CBB28F
:101170001AB144681C43446002E044689C434460E4
:1011800010BD816841F00801816070470146002070
:101190008A6802F008020AB1012000E000207047CE
:1011A000816841F0040181607047014600208A682F
:1011B00002F004020AB1012000E00020704721B1D2
:1011C000826842F4A002826003E0826822F4A002F6
:1011D00082607047014600208A6802F480020AB1EA
:1011E000012000E00020704710B50A4600210023CE
:1011F000416821F46041531E41EA4331416010BD12
:1012000021B1426842F40062426003E0426822F485
:10121000006242607047F0B504460D460020002190
:10122000092D11DDE068A5F10A0606EB4607072641
:1012300006FA07F18843A5F10A0606EB460603FA0B
:1012400006F10843E0600CE0206905EB450707263E
:1012500006FA07F1884305EB450603FA06F1084351
:101260002061072A0FDA606B561E06EB86071F26E1
:1012700006FA07F18843561E06EB860605FA06F1C4
:101280000843606322E00D2A0FDA206BD61F06EBBD
:1012900086071F2606FA07F18843D61F06EB860647
:1012A00005FA06F10843206310E0E06AA2F10D069A
:1012B00006EB86071F2606FA07F18843A2F10D0602
:1012C00006EB860605FA06F10843E062F0BD21B19F
:1012D000826842F48012826003E0826822F4801205
:1012E000826070470146C86C80B2704766484C30D7
:1012F0000068704721B1426842F48062426003E0B6
:10130000426822F480624260704721B1426842F430
:101310008052426003E0426822F48052426070478B
:101320000A460021816821F4E04111438160704741
:1013300021B1826842F40042826003E0826822F4B4
:1013400000428260704721B1826842F402128260DA
:1013500003E0826822F40212826070470146002096
:101360008A6802F400120AB1012000E000207047F0
:10137000F0B504461546002000220026092911DD9B
:10138000E068A1F10A0707EB470C072707FA0CF200
:101390009043A1F10A0707EB470703FA07F210434E
:1013A000E0600CE0206901EB410C072707FA0CF222
:1013B000904301EB410703FA07F210432061A06B51
:1013C000C0F30156EF1C06F1010CA7EB0C0707EB6D
:1013D000870C1F2707FA0CF29043EF1C06F1010C53
:1013E000A7EB0C0707EB870701FA07F21043A0638E
:1013F000F0BD10B50A4600210023816B21F4401195
:10140000531E41EA0351816310BD08B500230093C8
:101410000090009B0B440093009B1A6008BD08B528
:10142000024600200090009201F12800009B184421
:1014300000900098006880B208BD0A46002141680B
:10144000164B1940114341607047416282627047F8
:101450000A460021416821F01F0111434160704795
:1014600040B109490831096841F40001064A0832CF
:10147000116007E004490831096821F40001024ABB
:10148000083211607047000000240140002801402C
:10149000003C0140FFFEF0FFFDF7F1FFFFFD3FFFC5
:1014A0000246002013680B400BB1012000E0002031
:1014B0007047CA430260704770B50246002000239F
:1014C00000240B125568CEB205EA060415681D40CB
:1014D00015B10CB1012000E0002070BD00220A12FD
:1014E000D3430360704700004FF0E020006920F014
:1014F00004004FF0E02108610920364908700846D1
:10150000007800EB4001C1EBC0104FF6FF7101EA1B
:10151000C000314908807047002120F07F402D4AEB
:10152000127842434FF0E0235A6100229A6101226F
:101530001A6100BF4FF0E022116901F001021AB1F7
:1015400001F48032002AF5D000224FF0E0231A6126
:101550009A617047002100B9704720F07F401E4A11
:10156000128842434FF0E0235A6100229A6101221F
:101570001A6100BF4FF0E022116901F001021AB1B7
:1015800001F48032002AF5D000224FF0E0231A61E6
:101590009A6100BFE0E770B50446002600254FF4CD
:1015A000FA7094FBF0F0C6B24FF4FA7094FBF0F1CD
:1015B00000FB114085B205E04FF4FA70FFF7CAFF57
:1015C000701EC6B2002EF7D115B12846FFF7C2FF34
:1015D00070BD0000280000202A00002010B586B051
:1015E000044601210420FFF7EFFA01218803FFF7E9
:1015F000EBFA18208DF817004FF40070ADF81400C6
:1016000003208DF8160005A96A48FFF721F8042089
:101610008DF817000002ADF8140003208DF81600B5
:1016200005A96448FFF714F801940020ADF81000F4
:101630000C20ADF80E000020ADF80C00ADF80A004B
:10164000ADF8080001A95C48FFF765FB01215A4885
:10165000FFF7EDFB012240F225515748FFF7F3FB5E
:1016600025208DF8000001208DF8030000208DF862
:10167000010002208DF802006846FEF720FF06B048
:1016800010BD10B586B0044601210420FFF79CFA76
:1016900001214804FFF7A5FA18208DF8170004204F
:1016A000ADF8140003208DF8160005A94148FEF797
:1016B000CFFF04208DF817000820ADF81400032098
:1016C0008DF8160005A93B48FEF7C2FF01940020E3
:1016D000ADF810000C20ADF80E000020ADF80C00A5
:1016E000ADF80A00ADF8080001A93448FFF713FB74
:1016F00001213248FFF79BFB012240F225512F4880
:10170000FFF7A1FB26208DF8000001208DF80300D3
:1017100000208DF801008DF802006846FEF7CFFE2C
:1017200006B010BD2DE9F04107460C4615460026CF
:101730000DE014F8011B3846FFF7E6FB00BF40211F
:101740003846FFF74FFC0028F9D0701C86B2AE4235
:10175000EFDBBDE8F0810FB430B5CBB0054601AC8E
:1017600050A8009001A8009A4F9900F0A5F9002018
:1017700000900BE014F8011B2846FFF7C5FB00BFE3
:1017800040212846FFF72EFC0028F9D020780028B9
:10179000F0D14BB030BC5DF814FB10B540F22551D0
:1017A0000548FFF735FC18B120210348FFF727FC57
:1017B00010BD000000080140003801400044004016
:1017C00030B585B004460D467148844204D10121EC
:1017D0004015FFF7F9F90BE06E48844204D101216E
:1017E0000015FFF7F1F903E00121C803FFF7ECF959
:1017F0004FF40040FFF74CF92046FFF74DFC002066
:101800008DF8050003904FF46020029000200090B6
:1018100001208DF8100000208DF804006946204654
:10182000FFF761FC5A48844203D115B10120FFF74C
:1018300017FE01212046FFF782FC2046FFF7A1FC9E
:1018400000BF2046FFF7A2FC0028FAD12046FFF790
:10185000A7FC00BF2046FFF7A8FC0028FAD105B07E
:1018600030BD70B504460D460723012229462046A7
:10187000FFF7D1FC01212046FFF7A1FC00BF0221A8
:101880002046FFF70DFE0028F9D02046FFF72AFD7D
:1018900070BD2DE9F047074688461446002500260E
:1018A00010E041463846FFF7DCFF824602F084F93B
:1018B0008146294602F03CF805460520FFF74AFE1E
:1018C000701CC6B2A642ECDB204602F075F98246D7
:1018D0005146284602F08EF8814602F04DF980B25A
:1018E000BDE8F0872DE9FC5F0446894692465246E2
:1018F00049462046FFF7CDFF0190019802F05CF9C0
:101900004FF08B41009002F075F8834601F0E4FF40
:1019100007464FF06632204B01F0EAFD054601F024
:10192000B5FBBDE8FC9F2DE9F84F0A2210211848AD
:10193000FFF7AFFF044602F03FF90090009801F076
:10194000CBFF80464FF06632134B01F0D1FD0646C7
:101950000022124B01F074FC044601F097FB00904A
:10196000009801F0B9FF06460D4A0E4B01F0BEFE8D
:1019700080460D4A0D4B01F063FC044600220C4BDF
:1019800001F0B6FB824601F081FBBDE8F88F000054
:10199000002401400028014066660A400000B04073
:1019A000E17A14AE47E1F63F22FDF675E09C713F07
:1019B0000000394008B501210820FFF705F9002093
:1019C0008DF803000220ADF8000003208DF802001E
:1019D00069460848FEF73CFE00210748FFF7F0FE85
:1019E00008BD10B50A2209210348FFF77BFF034910
:1019F000086010BD000C0140002401402C000020B4
:101A000010B54FF4A060FEF755FDFFF76DFD4FF4E4
:101A1000E130FFF7E3FDFFF7CDFF10A11548FFF719
:101A20009AFE15A11348FFF796FE10BDFFF7E8FFD9
:101A300013E0FFF7D6FF1C4908681C4902F0D0F8F4
:101A4000064601F049FF044622460B4618A1094804
:101A5000FFF781FE0A20FFF79EFDEAE70D0AF7E88F
:101A6000F7EBD7F9BFAAB7A2B0E52D56322E320D4B
:101A70000A00000000380140BBB6D3ADB5C7C2BDF7
:101A8000D6D0D2C6CEEFC1AAB9D9B7BDCDF8D5BE92
:101A9000A3BA6F70656E2E696F742E313030383690
:101AA0002E636E0D0A0000002C0000200000C842CA
:101AB00025660D0A000000001CB50C46064B7B4451
:101AC00069460090204600F0C2F8044600206946AE
:101AD00000F0D0F820461CBDB301000070477047ED
:101AE000704770B5044685690068C10601D5302687
:101AF00000E02026C00707D070BDD4E901213046A0
:101B00009047206A401C20626D1EF6D570BD70B5EE
:101B1000044685690078C00707D170BDD4E901216A
:101B200020209047206A401C20626D1EF6D570BDB3
:101B300009684A0501D540B27047C905FCD500B215
:101B4000704709684A0501D5C0B27047C905FCD580
:101B500080B2704770B50C460546012A05D028783A
:101B6000800600D5EA69002302E0012305E05B1C42
:101B7000934202D2E05C0028F9D1A869E618C01AA5
:101B8000A861286A184428622846FFF7AAFF04E0E3
:101B9000D5E9012114F8010B9047B442F8D3284647
:101BA000FFF7B5FF70BD00002DE9F04106460024A7
:101BB00010687529314615A510D0FFF7B9FF002828
:101BC00002DA404212A507E031688A0701D511A563
:101BD00002E0490704D510A5012401E0FFF7B1FF99
:101BE00000210A2306F1240707E0B0FBF3F203FB10
:101BF0001200303078541046491C0028F5D1234695
:101C00002A463046BDE8F04100F05FBA000000000F
:101C10002D0000002B000000200000001168026869
:101C2000006A530501D508700AE0D30501D5088084
:101C300006E0130603D5C217C1E9000200E0086000
:101C40000120704701694A1C02610878704700B59D
:101C50008FB0CDE901310021059105497944CDE9E5
:101C600003101146684600F027F90FB000BD0000D0
:101C7000E5FFFFFF0A6802F8010B0A6070470000E9
:101C80002DE9FF5F15468A460446DFF8AC80F8442C
:101C90000027D8E900103E46CDE9001010E03AF8E0
:101CA00016106A4602A800F0A0FC411C07D021785B
:101CB000890603D5E269391891420DD80744761C8C
:101CC0002078800602D5E069B84205DDAE42E6DB49
:101CD0003AF816000028E2D1A069C01BA061204696
:101CE000FFF7FFFED8E90010CDE90010002017E053
:101CF0003AF818106A4602A800F077FCB0F1FF3FEE
:101D000081460BD000250DF1080B05E0D4E9012137
:101D10001BF8050090476D1C4D45F7D308F10100F5
:101D2000B0428046E4DB206A384420622046FFF758
:101D3000EEFEBDE8FF9F0000D62100002DE9F04136
:101D40008046D21D22F007020025D2E90002F529C3
:101D500014A612D0002A06DA0023D0EB030063EBAE
:101D6000020211A608E0D8F800108B0701D50FA6D3
:101D700002E0490701D50EA601251146002408F10D
:101D8000240704E000F05CF930323A55641C50EA54
:101D90000102F7D12B46324621464046BDE8F041CC
:101DA00000F093B9000000002D0000002B0000009F
:101DB0002000000030B4002100F1240408E002F00B
:101DC0000705D208303542EA4372DB086554491CE6
:101DD00052EA0305F3D10468002310A2250708D5B1
:101DE00004F020040C4304D0C46901230CA2641E37
:101DF000C46130BC00F069B910B5044621461068D2
:101E0000FFF79FFE02462046BDE810400023D1E7C1
:101E1000D21D22F00701D1E90023CBE7000000002A
:101E200030000000F0B40D460188090502D5214CB0
:101E30007C4402E01F4C7C440E34002100F1240657
:101E400008E002F00F071209E75D42EA03721B097E
:101E50007754491C52EA0307F3D102780023120792
:101E600004D5702D06D009B1022311342246F0BCEE
:101E700000F02BB901231034F8E770B504460D4685
:101E800021461068FFF75DFE024629462046BDE860
:101E900070400023C6E7D21D22F00703D3E90023D8
:101EA000C0E70368126843F0200303600823C3619E
:101EB0000023B7E73C2000002DE9F05F8946044687
:101EC0004FF0000ADFF874B1FB44C0F820A02046B0
:101ED000E1688847002874D0252806D0D4E901217C
:101EE0009047206A401C2062F1E700265F462046AA
:101EF000E16888472028054607DB312D05D278198F
:101F000010F8200C08B10643F1E7B00701D526F020
:101F10000406C4F81CA00027C4F818A02A2D09D074
:101F2000284601F07FF838B304EB8708303DC8F845
:101F3000185019E059F8041B204604EB8702916100
:101F4000E1688847012F054618D1E069002820DAAA
:101F500026F020061DE0D8F8180000EB800005EB05
:101F600040003038C8F818002046E1688847054628
:101F700001F058F80028EED1012F0AD02E2D08D1FB
:101F80002046E16888477F1C0546022F46F0200660
:101F9000C4DBA069002803DA404246F00106A061D4
:101FA000F00701D026F010066C2D0BD0682D09D05B
:101FB0004C2D39D06A2D35D0742D35D07A2D33D0B3
:101FC00016E038E0E1682F4620468847B8420546CB
:101FD00009D16C2F26D04FF48060E168064320467B
:101FE0008847054604E06C2F1AD04FF480700643F2
:101FF0000DB3A5F14100192802D8203546F400663A
:102000004A462946204626604E46FEF7CBF880B168
:1020100001280BD0F61D26F0070000F1080956E74D
:102020004020E4E78020D8E70020D6E706F1040945
:102030004DE7284652E7206ABDE8F09FCC1F00001C
:1020400030B5B0F10A024FEA900E71F100034EEA8A
:10205000817EB0EB0E0061EB91014FEA101E4EEA5B
:10206000017E10EB0E0041EB11114FEA102E4EEAEB
:10207000016E10EB0E0041EB11214FEA104E4EEABB
:10208000014E10EB0E0041EB1141401841F10001EF
:102090004FEAD00040EA41704FEAD10110EB8005D1
:1020A0004FEA810444EA907444EB01046D1944EB57
:1020B0000404521BA3414FF0000348BF0A3200D56D
:1020C00030BD401C41F1000130BD2DE9F0470D4607
:1020D00099469246044600F124080168880604D512
:1020E000E06921F01001216000E00120A84201DD3B
:1020F000471B00E00027A1697A1902EB0900081AC2
:10210000A0612078C00602D42046FFF7EAFC002632
:1021100008E0D4E901211AF806009047206A401C23
:10212000761C20624E45F4DB2078C0060AD5204696
:10213000FFF7D7FC06E0D4E9012130209047206A60
:10214000401C2062381EA7F10107F4DC07E0D4E947
:10215000012118F805009047206A401C2062281EC3
:10216000A5F10105F3DC2046FFF7D1FC207800063D
:1021700002D50220BDE8F0870120FBE770472DE97A
:10218000FF4F0C461E464FF0FF378BB0D2E90001DF
:10219000DDF860800A908A46C1F30A5505B93D46CC
:1021A000002108464FF00000BAF1000F00F4400093
:1021B00005DA00EB80004FF4400101EA50004FEADD
:1021C0009059B9F1010F00DDB9460A9850EA4A006A
:1021D0000ED044F61050A5F2FF3545432F14B8F148
:1021E000000F1ED07542291E1EDDC9F100021CE041
:1021F000B8F1010F4FF0000001D0302103E0F243AD
:1022000005E02154401CB042FBDB30460022002197
:1022100021540B99C1F80880C1E900200FB0BDE836
:10222000F08FBD1B6D1CDEE74A4600DA694206A846
:1022300000F06CFA06AB93E8070003AB83E80700F5
:1022400050460A9900F01FFB8DE80700A0F50050EA
:102250001F3800900398002D09DD42F21F014A4605
:10226000084403A90390684600F07EFD08E0A0F54D
:1022700000504A461F3803A90390684600F088FDC5
:102280008DE807000004000C03D04FF0FF30410838
:1022900000E01046B8F1000F03D00022009215466E
:1022A0001EE0751E05D4FFF7CBFE303262556D1E61
:1022B000F9D5B3460122084302D000227F1C04E076
:1022C0002078302801D100227F1E002A099786D06D
:1022D0001DE0112D07DAFFF7B3FE303262556D1C99
:1022E00050EA0102F5D1084302D00098C8B10EE0CF
:1022F0000021681E05E0235C625C63542254401E8A
:10230000491C8142F7DBAB46A81B401E0990002008
:1023100004F80B000B98099AC0F80880C0E9002B5C
:102320007CE711264FF0000859E72DE9F04F884669
:102330000446D21D22F0070191B0D1E90001CDE998
:102340000A0100F05BFE02460B98C00F01D02D2061
:1023500007E02068810701D52B2002E0202101EA57
:10236000C000032A099001D0072A05DB0346414635
:10237000204600F08BF909E12078800601D5E0695C
:1023800000E00620B8F1650F814606D0B8F1660F6F
:1023900018D0B8F1670F70D131E00020B9F1110FFA
:1023A000009001DB112301E009F101030AAA01A950
:1023B0000CA8FFF7E4FEDDE90C70002609F1010529
:1023C000834647E001204B4600904FF000470AAAA1
:1023D00001A90CA8FFF7D3FEDDE90DB00C995D460D
:1023E000002610B909F101000D18B9EB050003D45E
:1023F000C0F1FF3609F10105A5EB09002BE0B9F1A9
:10240000010F01DA4FF001090020B9F1110F00901E
:10241000484601DD112300E003460AAA01A90CA8E1
:10242000FFF7ADFEDDE90C704D46002683462078AF
:1024300000070AD4AB4500DA5D4601A8012D04DD92
:10244000411911F8011C302907D04F4502DA17F164
:10245000040F04DA012082460FE06D1EEEE7002F24
:1024600002DCED1B3E4403E0781CA84200DD7D1C2D
:10247000B81B00F1010A4FF000472078000703D491
:10248000AA4501DB4FF0FF3A0021B7F1004F0DF1F3
:1024900043088DF8431022D002202B23002F01DAAD
:1024A0007F422D234FF00A0C011EA0F1010000DC39
:1024B00047B197FBFCF10CFB11720F46303208F864
:1024C000012DF1E7A8F1010003702188090501D56C
:1024D000452100E06521A0F1010800F8011C0998E0
:1024E0000FA9A1EB0807FF1D00B10120411901EB65
:1024F000EA70A1693844081A401EA0612078C0061D
:1025000002D42046FFF7EDFA099828B1D4E9012159
:102510009047206A401C20622078C00622D52046C1
:10252000FFF7DFFA1EE0002E04DBB34502DD01A851
:10253000805D00E03020D4E901219047206A401CF2
:102540002062761CAAF101005FEA000A0AD100F0BD
:1025500099F8C0680168405CD4E901219047206A7D
:10256000401C2062281EA5F10105DCDC07E0D4E94F
:10257000012118F8010B9047206A401C2062381E88
:10258000A7F10107F3DC2046FFF7C1FA022011B0E2
:1025900045E610B5436913B1AFF3008001E0FFF7E2
:1025A000D9FA012010BD127800F124010A7000222E
:1025B0004A700122EDE711684FF0FF32E9E710B5EC
:1025C000436913B1AFF3008001E0FFF759FB01202D
:1025D00010BD128800F1240182840022C2840122ED
:1025E000EDE711684FF0FF32E9E770B516460C468B
:1025F000054600F03FF8036893F80101012806D072
:10260000FF2C0FD8185D68B101202C7070BDD3F875
:1026100007013246214603442846BDE8704003F2D4
:10262000071318474FF0FF3070BD754600F0E0F813
:10263000AE4605006946534620F00700854618B0AF
:1026400020B5FDF725FFBDE820404FF000064FF014
:1026500000074FF000084FF0000B21F00701AC46D7
:10266000ACE8C009ACE8C009ACE8C009ACE8C009F6
:102670008D46704710B500F005F8001D10BD00BF75
:10268000E109000000487047500000202DE9F041AA
:102690001F46044603260168072A01F4006004DB94
:1026A00008B116A505E016A503E008B115A500E0E0
:1026B00015A521F010002060A069C01EA0610FB117
:1026C000401EA0612046FFF70CFA4FB1D4E901216A
:1026D00038469047206A401C2062C01C206206E0F9
:1026E000206AFAE7D4E9012115F8010B9047761E1C
:1026F000F8D22046FFF70BFABDE8F0814E414E00BC
:102700006E616E00494E4600696E66002DE9F04725
:10271000814616468AB0324878440DC88DE80D00CF
:102720002F487844801C03AC0DC884E80D0041F6A6
:102730009B303722014491FBF2F0A0F1800502FBAF
:1027400010141B3C02D56442012000E00020DFF899
:1027500090A080460027FA44AAF1BA0A0DE0E007EB
:1027600009D03246684607EB47010AEB810100F0C9
:102770000FFB8DE8070064107F1C002CEFD1184F71
:102780007F44A83F18E0E80714D007EB04100DF1D0
:10279000180A90E80E008AE80E00C068F04201D1E5
:1027A00098190890324606A903A800F0F1FA03AB85
:1027B00083E807006D10641C002DE4D132466946A1
:1027C000B8F1000F03A802D000F0CEFA01E000F04B
:1027D000DFFAC9E90001C9F808200AB0BDE8F087AE
:1027E0000C1800000446AFF300802046FDF73DFDC5
:1027F00000487047300000204FF0013C50F8042B97
:1028000051F8043B9A4221D1A2EB0C03934313EA03
:10281000CC1317D150F8042B51F8043B9A4215D130
:10282000A2EB0C03934313EACC130BD150F8042B07
:1028300051F8043B9A4209D1A2EB0C03934313EAEB
:10284000CC13DBD04FF00000704700BFD01A01BAA4
:10285000B1FA81F101F0180122FA01F0CB40C1F187
:102860002001DBB2C0B2C01A2CFA01F3D11A914395
:1028700011EAC311E6D1704701491820ABBEFEE74B
:102880002600020070475FEA400C08BF91F0000F7D
:102890004FEA8C234FEAC12243EA51514FEA1C50C0
:1028A00018BF00F5F0404FEA300018BF41F000417A
:1028B0005FEA6C5C00F02980BCF1FF3F08BF40F08C
:1028C00080407047130C06BF12044FF0100C4FF0FD
:1028D000000C130E04BF12020CF1080C130F04BFFE
:1028E00012010CF1040C930F04BF92000CF1020CC6
:1028F000D30F04BF52000CF1010C11464FF000023F
:10290000A0F11F00A0EB0C00704711F0004F08BFB2
:10291000704731F000413FF4D5AF0B0C06BF0904FE
:102920004FF0100C4FF0000C0B0E04BF09020CF11D
:10293000080C0B0F04BF09010CF1040C8B0F04BF32
:1029400089000CF1020CCB0F04BF49000CF1010C03
:10295000CCF12003A0EB0C0022FA03F302FA0CF2F4
:1029600041EA030100F10100704720F07F4C80EA4A
:10297000030023F07F47ACEB070303F57C5300F023
:10298000004003F1FF032DE980494FEA154B09B4DC
:102990004FEA144325EA0B4E24EA03480FF20426BB
:1029A00006EB132749083E785FEA320203FB06670D
:1029B000C7F5000707FB06F64FEA54374FEAD6463D
:1029C00006F1020607FB066CCCF1005C4FEA1C47DF
:1029D0002CEA074C07FB06F40CFB06F504EB154646
:1029E0004FEA961634BF00204FF000404FEAD1372F
:1029F00006FB07FC4FEA1C4C0CFB0BF7D21B03FB3E
:102A00000CF761EB07010CFB0EF7B0EB074072EB24
:102A100017420CFB08F734BFA2EB0742B2EB0742A8
:102A200061EB17414FEA0C444FEA910706FB07FCA4
:102A30004FEA1C4C0CFB0BF7B0EBC74072EB573264
:102A400003FB0CF734BFA2EBC742B2EBC74261EB0A
:102A500057310CFB0EF7B0EBC70072EB57720CFB53
:102A600008F734BFA2EBC702B2EBC70261EB5771A4
:102A7000039F4FEA816141EA921104EBCC044FEAD3
:102A8000D1374FEA826206FB07FC42EA90124FEA16
:102A900080604FEA1C4C0CFB0BF7D21B03FB0CF7BE
:102AA00061EB07010CFB0EF7B0EB074072EB17422E
:102AB0000CFB08F734BFA2EB0742B2EB074261EB15
:102AC00017414FEA8C554FEA910704EB9C2406FB13
:102AD00007FC4FEA1C4C0CFB0BF7B0EBC74072EB4A
:102AE000573203FB0CF734BFA2EBC742B2EBC7422D
:102AF00061EB57310CFB0EF7B0EBC70072EB57726E
:102B00000CFB08F734BFA2EBC702B2EBC70261EBC4
:102B1000577115EB4C254FEA816141EA92114FEA5A
:102B200082624FEAD13742EA901206FB07FC44F179
:102B300000044FEA80604FEA1C4C0CFB0BF7D21BE1
:102B400003FB0CF761EB07010CFB0EF7B0EB074042
:102B500072EB17420CFB08F734BFA2EB0742B2EB53
:102B6000074261EB174115EB1C154FEA813141EA31
:102B700092414FEA823242EA90424FEA80304FEA75
:102B80000C7644F1000448EA03434EEA0B484FF048
:102B9000000EB2EB080C71EB030724BF6246394606
:102BA0004EEB0E0E4FF0000B0018524149414BEB1B
:102BB0000B0BB2EB080C71EB03077BF1000B24BF8E
:102BC000624639464EEB0E0E4FF0000B0018524194
:102BD00049414BEB0B0BB2EB080C71EB03077BF19C
:102BE000000B24BF624639464EEB0E0E51EA020737
:102BF00018BF46F0010616EB0E7655F1000254F1AF
:102C0000000103D5BDE88901BDE80088BDE8890160
:102C1000B619BDE80048524141EB0101A3F101039F
:102C2000704780807F7E7D7C7B7A79787776767539
:102C30007473727171706F6E6E6D6C6C6B6A6A69B1
:102C40006868676666656464636362616160605F4B
:102C50005F5E5E5D5D5C5C5B5B5A5A5959585857C4
:102C6000575656555555545453535252525151502C
:102C700050504F4F4F4E4E4D4D4D4C4C4C4B4B4B7F
:102C80004A4A4A49494948484847474747464646C5
:102C90004545454444444443434343424242424100
:102CA0004141002B26D4770021D01CB54FEA3707CD
:102CB00003B44FF010004FF010014FF000000FBCB4
:102CC0000BF1010BBDE81040BBF1010F08BF5FEA3B
:102CD000170722BF12F1010211F101014FF000416B
:102CE00043F1000300F0004043EA00007047F9D3CD
:102CF0005708DAE746EA064613F1400F4FEA164650
:102D00001FDD13F1200FDFBF16430A4600212033D9
:102D10005B42C8D0C3F1200746EA064602FA07F72D
:102D20004FEA164646EA0706C3F1200722FA03F2E5
:102D300001FA07F721FA03F14FF0000342EA070214
:102D4000B1E746EA020646EA06464FEA164646EA72
:102D50000106BCBF46EA0646360C4FF000034FF0B2
:102D600000024FF000019EE72DE9C048934630B4C1
:102D700091E8380007C831EA400C48BF34EA430CF8
:102D800003D5FFF7F2FDFFF78CFFF0BCBDE800882C
:102D90002DE9C048934630B491E8380007C810F0D8
:102DA000804F08BF13F0804F03D100F005F8FFF704
:102DB00078FFF0BCBDE8008820F07F4780EA030080
:102DC00023F07F4C07EB0C03A3F57C5300F000408D
:102DD000A3F1FE0392F0000F00F0B38095F0000F16
:102DE00000F077802DE901494FEA11404FEA14467F
:102DF00021EA004800FB06FC24EA064708FB06F629
:102E000007FB08F800FB07F718EB06484CEB164CDD
:102E10004FEA124B18EB07484FEA15464CEB1740A8
:102E200022EA0B4E0BFB06FC25EA06470EFB06F6D4
:102E300007FB0EFE0BFB07F71EEB064E4CEB164C8A
:102E40004FF000061EEB074E4CEB174B18EB0B0830
:102E500040F1000018EB0E0B58EB000840F10000A9
:102E60008F1A4FF000013CBFC943661B14BFB5EB7E
:102E7000040C00213CBFC943F61B4FEA17444EEA3D
:102E80008E0E27EA04454FEA1C4704FB07622CEA32
:102E9000074C05FB07F70CFB05F604FB0CFC16EBD7
:102EA000074642EB174216EB0C4642EB1C421BEB6B
:102EB000060658EB0202414146EA9E0601D5BDE8EE
:102EC0000189B619524141EB0101A3F10103BDE8AB
:102ED00001894FEA14454FEA114724EA054621EAE1
:102EE000074C05FB07F406FB07F70CFB06F105FB97
:102EF0000CFC11EB074144EB17444FEA124711EB6E
:102F00000C4144EB1C4422EA074C05FB07F206FB8C
:102F100007F70CFB06F605FB0CFC16EB074642EB2D
:102F2000174216EB0C4642EB1C456A1854F100019F
:102F300048BF7047B619524141EB0101A3F10103AB
:102F4000704795F0000F37D04FEA11424FEA14470F
:102F500021EA024624EA074C02FB07F106FB07F7C9
:102F60000CFB06F402FB0CFC14EB074441EB17418D
:102F70004FEA154714EB0C4441EB1C4125EA074C82
:102F800002FB07F506FB07F70CFB06F602FB0CFC41
:102F900016EB074645EB174516EB0C4645EB1C4276
:102FA000121951F1000148BF7047B619524141EB67
:102FB0000101A3F1010370474FEA14454FEA11479D
:102FC00024EA054621EA074C05FB07F106FB07F753
:102FD0000CFB06F24FF0000605FB0CFC12EB07425F
:102FE00041EB174112EB0C4251EB1C4148BF7047BB
:102FF000921841EB0101A3F101037047490050EA27
:10300000C12018BF04204A0D18BF40F0010040F253
:10301000FF72B2EB515F08BF40F00200012808BF09
:103020000520704730380A2801D20120704700205F
:103030007047000010B500290AD00878002807D092
:1030400005487844FFF7D8FB002801D0002010BDC8
:103050000248784410BD00001E0F0000160F00004B
:1030600010B500290AD00878002807D00548784410
:10307000FFF7C2FB002801D0002010BD02487844B1
:1030800010BD00000E0F0000060F000021F00042EE
:10309000A2F16052B2F5801F01F0004328BFD2F1C7
:1030A0007F6C0BD95FEA001C43EAC20242EB50700E
:1030B00018BF704728BF20F001007047B2F5801F8D
:1030C000BCBF184670474FEA410C1CF5001F02D2E6
:1030D000084600F04CBE70B500F0B4FA000000895C
:1030E000FFF7F6BF4FF00040A0F5800070470000EA
:1030F00010B591EA030F48BF83F0004300F10A8343
:10310000841A71EB030C05D2121943EB0C03001B5C
:1031100061EB0C01DFF824E14FEA1154A4EB135CDE
:103120001EEA430F18BF9EEA445F73D023EA0E03E2
:10313000DCF1200E21EA045143F4801332D322FA49
:103140000CFE10EB0E0023FA0CFE41EB0E01CCF14D
:10315000200E03FA0EFE10EB0E0051F10001B1F546
:10316000801FCCF1200E32D201EB045112FA0EF284
:10317000BDE8104058BF7047401C38BF5FEA4202AC
:1031800018BF7047002814BF20F0010041F1000172
:103190004FEA410313F5001F38BF7047A1F1C0414A
:1031A00000F09EBA012A43EB0302ACF1200CDCF1E3
:1031B0001F0E32BF4FF0000E23FA0CF310EB03008A
:1031C00041EB0451B4EB115FD0D0A1EB045101F5F8
:1031D000801149085FEA300001EB04510ED350F131
:1031E000000038BF12FA0EFE08D1BDE81040C9E752
:1031F000401C38BF5FEA4202CAD1C3E7BDE81040B5
:103200004FEA410313F5001F38BF7047A1F1C041D9
:1032100000F066BA9EEA445F08D011EA5E0FBDE88E
:10322000104004BF01F0004100207047BDE810408D
:1032300070B500F007FA00BF64FBBE3E0000E0FF7F
:103240002DE9C04130B4DFF8A0C23CEA111418BF28
:103250003CEA131400F0EC8081EA03051CEA111427
:1032600044EAD57418BF1CEA131500F0C780A4EB1C
:1032700005044FF0004545EAC12145EAC32341EA70
:10328000505143EA525304F17F74994204F50034DB
:103290004FEAC0204FEAC22208BF904200F09C8053
:1032A0004FEA13650FF24016765D4FEA134506FBB1
:1032B00005F7C7F1807706FB07F74FEAD737A7FB7B
:1032C00003687642C8F58038A7FB06CE38BFA8F160
:1032D000010807FB08E64FF0000EA6FB028CE6FB98
:1032E00003CEDCF1000CCEF1004E38BFAEF1010E82
:1032F000A6FB0C584FF000074FF00005E6FB0E87C9
:10330000A1FB08C6A0FB07CE16EB0E0645F1000593
:10331000E1FB076515F1E04E7EBFA4F580345FEA5E
:1033200046066D4116F1800745F100054FEA172763
:103330004FEA066647EA0567A6F1DE46B6F1805F0A
:103340004FEA15251FD9384624F0010C05EBC4714E
:10335000BCF1FE6F01EB0C1102D8F0BCBDE800819E
:1033600024425CBF01F5801E9EEAC47F02D4F0BCFB
:10337000BDE80081244238D4F0BCA1F1C041BDE8D1
:10338000004100F0ADB94FEAD22242EA43524FEA7F
:10339000D323A7FB02864FEAD02040EA415007FB27
:1033A00003661EEA0E0F4FEAD12105FB026658BFE5
:1033B000A6EB0056B6EB00564FEA520E4EEAC37E1D
:1033C00018EB0E0E56EB530EBDD518EB02085E41FE
:1033D0007F1C55F10005B6E74FF480154FF000074C
:1033E0004FF000064FF00008ADE7F0BC4FF00000D2
:1033F00001F1C04101F00041BDE8008111EA0C1F5C
:103400000CEA131500D00CE013EA0C1F00F0258025
:103410004FF00000F0BC81EA030101F00041BDE87B
:103420000081F0BC81EA0301BDE8004100F058B919
:10343000F0BCBDE8004170B500F004F9097EFC3E27
:1034400000F007B881EA03014FF0000001F00041ED
:10345000704781EA030100F043B9F0BC4FF000006F
:103460002249BDE800417047FFFDFBF9F7F5F4F292
:10347000F0EEEDEBE9E8E6E4E3E1E0DEDDDBDAD80F
:10348000D7D5D4D3D1D0CFCDCCCBCAC8C7C6C5C46D
:10349000C2C1C0BFBEBDBCBBBAB9B8B7B6B5B4B384
:1034A000B2B1B0AFAEADACABAAA9A8A8A7A6A5A46F
:1034B000A3A3A2A1A09F9F9E9D9C9C9B9A99999833
:1034C0009797969595949393929191908F8F8E8ED6
:1034D0008D8C8C8B8B8A8989888887878685858463
:1034E00084838382828181800000FF070000F87F4F
:1034F000DFF848C170B51CEA111E1EBF1CEA131587
:103500009EEA0C0F95EA0C0F00F06F8081EA03042D
:1035100023EA4C134EEAD47E21EA4C1141F4801187
:1035200043F48013AE44A1FB024CA0FB0365AEF153
:103530007F7E361955EB0C05A1FB034C4CF10003C3
:10354000A0FB021C16EB0C06654153F10003094277
:1035500018BF46F0010613F4007F0BD14FEA033188
:103560004FEA0530340341EA155140EA16506FF036
:1035700003020AE04FEAC3214FEAC520F40241EA00
:10358000555140EA56506FF0020202EB2E4201EB19
:10359000025585EACE710AD05FEA440C18BF24F0C8
:1035A000004450F1000041F1000120EAD47040F2E3
:1035B000FE7C624500D270BDA84214BF4FF080442B
:1035C0004FF04044002E08BF0024BEF1806FA8BF1A
:1035D000A1F1C041BDE8704080F282804FF0000050
:1035E00001F1C04101F0004170479EEA0C0F0CEA66
:1035F000131518BF95EA0C0F06D04FF0000081EAB2
:10360000030E0EF0004170BD00F01CF88900013E71
:1036100000F007B800F009B84FEA430C5FEA5C5CC1
:1036200008D081EA030100F05BB84FEA410C5FEA81
:103630005C5CF6D14FF00000014970470000FF07C5
:103640000000F87F0EF1020E2EF0030E5EF8046B00
:10365000364205D4012A43EB030515F5001F12D8A5
:10366000012841EB010C1CF5001F0CD80ED14FEACC
:10367000D17C15F5001F0CEB4C0C0CF1020C08BFB3
:103680004CEBD37C04E04FF0080C01E04FEAD37C14
:103690000CEB4C0526FA05F606F00706B6F1040C0D
:1036A00006D20EEB860CBDE870404CF0010C604772
:1036B000DFE80CF0090B02024FF000414FF0000070
:1036C000A1F5002170BD19461046012851EB0104F7
:1036D00018BFD4F5001484BF002001F0004170BD74
:1036E0000808A0F500114FEA3101704791EA030F75
:1036F00010B581F000413FF503AD83F0004300F0C9
:1037000009B8000010B591EA030F48BF83F00043E9
:103710003FF5F6AC841A71EB030C07D212198CF04A
:10372000004C43EB0C03001B61EB0C01DFF8A4E140
:103730004FEA1154A4EB135C1EEA430F18BF9EEA34
:10374000445F00F0B08023EA6E03524221EA045144
:10375000C3EB6E0338BF5B1EDCF1200E25D322FACB
:103760000CFE10EB0E0043FA0CFE41EB0E01CCF107
:10377000200E03FA0EFE10EB0E0051F10001CCF109
:10378000200E29D412FA0EF201EB0451BDE81040CC
:1037900058BF7047401C1CBFB2F1004F7047002853
:1037A0000CBF491C20F00100704712EB020E43EBE6
:1037B000030218BF4FF0010E4EEA4202ACF1200C9A
:1037C000DCF11E0E54D943FA0CFE10EB0E0051F141
:1037D000FF31CCF11E0ED5D50EF1010E12FA0EFE00
:1037E000404141EB010101EB445C5FEA5C5C10D9B4
:1037F00010EBDE7001EB045138BFBEF1004FBDE8A5
:10380000104018BF704700280CBF491C20F0010071
:10381000704730D24FEAD42C11F5001124F4006423
:103820001BD0B1FA81F20B3AA41AA41ED2F12003E4
:10383000914030FA03F31943904001EBCC71002C16
:1038400001EB0451BDE81040A8BF704701F1C04131
:103850004FF0000001F000417047B0FA80F310FA19
:1038600003F100D110BDE41A173C4805C90AE4E78A
:1038700001EB045110BD491001EB0451BDE81040AB
:103880004FEA300002E04FF0000170474A0008BFE5
:103890000042F8D0B2F5001F28BF704701F0004188
:1038A0004FF0000070479EEA445F07D011EA5E0FB8
:1038B000BDE8104004BF002100207047BDE8104063
:1038C00070B5FFF7BFFE00BF40DFF63E83F000415A
:1038D000104670470000E0FF43004FEAD30C4FEA68
:1038E0003C0C43401FBF40070CF1605113F0FE4FEA
:1038F00070471CF0006F03D100200CF000417047AE
:103900000CF0004343EA507010B540EACC0000F0E0
:10391000E8F900BF000000924FEA0001FFF7E0BEA7
:103920004FF000414FF00000A1F50021704700006A
:1039300090EA010F48BF81F0004100F12482421A51
:103940003CBF801A89184FEAD0524FF07F4C1CEAD6
:10395000410FA2EBD15318BF9CEA026F00F03B80ED
:103960004FF0004C4CEA00204CEA012121FA03FC04
:1039700010EB0C0C1ED202F1FF325FEA1C2040EB70
:10398000C25038BF70471CF07F0F4FEA400C18BF81
:10399000BCF17F4F38BF7047C3F12003994008BF87
:1039A00020F00100BCF17F4F38BF7047A0F1C0404C
:1039B00000F0DDB94FEA3C00000A40EBC25028BFDE
:1039C0001CF0FF0F4FEA400CE6D018BFBCF17F4F50
:1039D00038BF7047EAE79CEA026F05D010EA5C0F37
:1039E00008BF00F00040704710B500F07AF900BF42
:1039F00064FBBE3E4FF47F0C1CEAD0121EBF1CEAD3
:103A0000D11392EA0C0F93EA0C0F00F0858090EA34
:103A1000010F48BF42F4807240F4000C41F40000F2
:103A20002CF07F4120F07F4000B58142A2EB0302E1
:103A30000FF2081CACEB504EC0F100009EF800E005
:103A40004FEA4E0E00FB0EFC38BF49004FEA2C1C1B
:103A500002F5FA020CFB0EF34FEACE1E4FEA112CD0
:103A60004FEAC1210EEB635E42EB22420EFB0CFCDF
:103A70004FEA1C5300FB03114FEA112C4FEA0131AE
:103A80000EFB0CFC4FEADC4C00FB0C11C14228BFC2
:103A900009184CEB03335DF804EB10EB410143EBE9
:103AA000C250B2F57C0F38BF704729D512F0F00F25
:103AB0001CBF00F1C04000F00040704700818283CD
:103AC0008485868788898B8C8D8E8F91929395962D
:103AD00097999A9C9D9FA0A2A3A5A7A8AAACAEB0B7
:103AE000B2B3B5B7B9BCBEC0C2C5C7C9CCCED1D4BC
:103AF000D7D9DCDFE2E6E9ECF0F3F7FAFE000000EC
:103B00004FEA400C0CF1807CBCF17E4F28BF70471F
:103B1000B0F1C04000F02BB990EA010F0CEAD113CC
:103B200048BF42F48072624538BF634507D213F440
:103B30007F0F16D080EA010000F00040704710B5FA
:103B400000F0CFF8097EFC3E00F005B880EA0100E5
:103B500000F00040704780EA010000F0004000F0F3
:103B600006B912F47F0F04BF0248704780EA0100D3
:103B700000F0FDB80000C07FC10DD1F19E0206DB50
:103B80004FEA002343F0004323FA02F0704700425B
:103B900007D54FEA4001B1F1FE4F02D24FF00000CD
:103BA000704710B500F09DF84992248000207047BE
:103BB0006FEA200070470000B0FA80F310FA03F2B9
:103BC000C3F19D030AD0D90501EB1220530638BF7B
:103BD000704700F1010008BF20F0010070470000AD
:103BE0004FF47F0C1CEAD0121EBF1CEAD11392EADC
:103BF0000C0F93EA0C0F00F0478090EA010F48BFCA
:103C000042F480724FF0004C4CEA00204CEA012153
:103C100002EB0302A0FB0113A2F50002002918BF6A
:103C200043F001035B0028BF4FEA330342EB22421B
:103C30005FEA132C4CEBC2502EBFBCEB436FB2F5C6
:103C40007C0F70474FEA036CBCF1004F08BF20F0B7
:103C50000100B2F57C0F38BF70470BD582F0FF0230
:103C600012F5803FC8BF704700F1C040D8BF00F0D8
:103C70000040704700F5000C5FEA4C0C48BF7047ED
:103C8000B0F1C04000F073B890EA010F0CEAD11314
:103C900048BF42F48072624538BF634504D280EA6F
:103CA000010000F00040704710B500F01AF800BFA6
:103CB0008900013E00F007B800F009B85FEA410C46
:103CC0005FEA1C6C08D080EA010000F050B85FEA9F
:103CD000400C5FEA1C6CF6D14FF00040A0F580006C
:103CE00070470EF1020E2EF0030E5EF8044B2442D4
:103CF00004D44FEA4102B2F17F4F11D84FEA40039A
:103D0000B3F17F4F0CD80ED14FEAD07CB2F17F4F88
:103D10000CEB4C0C0CF1020C08BF4CEBD17C04E01A
:103D20004FF0080C01E04FEAD17C0CEB4C0324FA75
:103D300003F404F00704B4F1040C06D20EEB840C77
:103D4000BDE810404CF0010C6047DFE80CF00708BC
:103D500002024FF00040A0F5800010BD084642006E
:103D600018BFD2F1807288BF00F0004010BDFF2163
:103D700041EAD050C005704790EA010F48BF81F07A
:103D800000413FF5DCAD421A04D882F00042A0EBBE
:103D9000020011444FEAD0524FF07F4C1CEA410F11
:103DA000A2EBD15318BF9CEA026F4AD04FF0004CEF
:103DB0004CEA00204CEA012121FA03FCB0EB0C0C88
:103DC0000FD412F0FE0F36D05FEA4C001DD5001262
:103DD00040EBC25038BF70471CF03F0F18BF704710
:103DE0000BE0A2F101025FEA1C2040EBC25038BF99
:103DF00070471CF07F0F18BF7047C3F12003994034
:103E000014BF401E20F00100704780084FEA1223C3
:103E100008BF7047B0FA80FCA2EB0C02CCF1280C72
:103E200060FA0CF093EA122F04BF00EBC250704707
:103E30004FEAC3707047130A5FEADC1008BF70478F
:103E4000F6E79CEA026F04D010EA5C0F08BF00207E
:103E5000704710B5FFF745FF40DFF63E81F00040A8
:103E60007047FEF762BA000000000000000000008A
:103E700030313233343536373839414243444546A0
:103E8000403058003031323334353637383961629A
:103E9000636465664030780004000008000000009C
:103EA00000000002000100001000000002400000BD
:103EB000000000A00000000005400000000000C855
:103EC000000000000C4000000000409C00000000CA
:103ED000194000000020BCBE00000000344000007B
:103EE000BFC91B8E00000004B5400000504BCFD06E
:103EF0006607E2CF010000006C4100003E8251AA3B
:103F0000DFEEA73401000000D9420000DCB5A0E2DA
:103F10003A301F97FFFFFFFFB4450000FD25A0C802
:103F2000E9A3C14FFFFFFFFFFF3F0000000000803B
:103F300000000000FF3F00000000008000000000C3
:103F40008C40000800000020300000006C010008D8
:103F5000BC40000830000020600800008801000814
:103F60001C00000043000000F8FFFFFF0C000000F1
:103F70000E0000000F0000002E00000010010000E5
:103F800043000000F8FFFFFF004040404040404039
:103F9000404041414141414040404040404040401C
:103FA00040404040404040404005020202020202C0
:103FB000020202020202020202202020202020200F
:103FC0002020200202020202020290909090909023
:103FD00010101010101010101010101010101010E1
:103FE0001010101002020202020288888888888855
:103FF0000808080808080808080808080808080841
:104000000808080802020202400000000000000048
:1040100000000000000000000000000000000000A0
:104020000000000000000000000000000000000090
:104030000000000000000000000000000000000080
:104040000000000000000000000000000000000070
:104050000000000000000000000000000000000060
:104060000000000000000000000000000000000050
:104070000000000000000000000000000000000040
:1040800000000000000000000000000000A24A0440
:1040900000000000000000000102030406070809F8
:1040A00000000000010203040102030406070809DE
:0C40B000020406080000000000000000F0
:0400000508000131BD
:00000001FF
