:020000040800F2
:100000004810002001010008490F00084B0F0008AC
:100010004F0F0008530F0008570F000800000000A2
:100020000000000000000000000000005B0F00085E
:100030005D0F0008000000005F0F0008610F00085E
:100040001B0100081B0100081B0100081B01000820
:100050001B0100081B0100081B0100081B01000810
:100060001B0100081B0100081B0100081B01000800
:100070001B0100081B0100081B0100081B010008F0
:100080001B0100081B0100081B0100081B010008E0
:100090001B0100081B0100081B0100081B010008D0
:1000A0001B0100081B0100081B0100081B010008C0
:1000B0001B0100081B0100081B0100081B010008B0
:1000C0001B0100081B0100081B0100081B010008A0
:1000D0001B0100081B0100088F0F00081B0100080E
:1000E0001B0100081B0100081B010008DFF80CD0F1
:1000F00001F078FA00480047E90E00084810002097
:100100000648804706480047FEE7FEE7FEE7FEE7B1
:10011000FEE7FEE7FEE7FEE7FEE7FEE70302000874
:10012000ED0000080CB50020019000906C480068BC
:1001300040F480306A49086000BF6948006800F4F4
:10014000003000900198401C0190009818B9019867
:10015000B0F5A06FF1D16248006800F4003010B132
:100160000120009001E0002000900098012843D178
:100170005C48006840F010005A4908600846006872
:1001800020F0030008600846006840F002000860A4
:1001900053484068524948600846406848600846ED
:1001A000406840F4806048600846406820F47C1055
:1001B00048600846406840F4E81048600846006817
:1001C00040F08070086000BF4548006800F0007093
:1001D0000028F9D04248406820F0030040494860B8
:1001E0000846406840F00200486000BF3C48406854
:1001F00000F00C000828F9D10CBD10B5FFF792FFF4
:1002000010BD10B53648006840F001003449086060
:10021000084640683449084031494860084600684B
:10022000324908402E4908600846006820F48020C2
:1002300008600846406820F4FE0048604FF41F0044
:100240008860FFF7DAFF4FF000602949086010BDB1
:1002500010B5002100200022214B5B6803F00C0147
:1002600021B1042906D0082928D107E0214B224CCE
:10027000236027E01F4B204C236023E0184B5B6872
:1002800003F47010164B5B6803F48032022303EB17
:10029000904022B9194B4343174C23600DE0104B9B
:1002A0005B6803F4003323B1144B4343124C2360C7
:1002B00003E0104B4343104C236003E00D4B0E4C06
:1002C000236000BF00BF064B5B68C3F303130C4CF5
:1002D000E15C094B1B68CB40074C236010BD00005C
:1002E00000100240002002400000FFF8FFFFF6FE71
:1002F00008ED00E000127A000000002000093D0037
:100300000400002031490143314A1160704770B543
:10031000002100230F22C47804B32D4C246804F478
:10032000E064C4F5E064210AC1F10403CA404478E2
:1003300004FA03F18478144021430901254C06781E
:10034000A155047804F01F050124AC4005786D1117
:10035000AD0005F1E025C5F8004109E0047804F09E
:100360001F050124AC401C4D0678761145F8264047
:1003700070BD1A4A0A400243154B1B1F1A60704792
:1003800039B1134A121D12680243114B1B1D1A602A
:1003900006E00F4A121D126882430D4B1B1D1A60A6
:1003A0007047042808D14FF0E021096941F00401A9
:1003B0004FF0E022116107E04FF0E021096921F0E0
:1003C00004014FF0E0221161704700000000FA05BF
:1003D0000CED00E000E400E080E100E080FFFF1FA2
:1003E00010B50446CC48844208D10121042000F015
:1003F0002DFB0021042000F029FB46E0C748844281
:1004000008D10121082000F021FB0021082000F084
:100410001DFB3AE0C248844208D10121102000F0BF
:1004200015FB0021102000F011FB2EE0BD48844296
:1004300008D10121202000F009FB0021202000F03C
:1004400005FB22E0B848844208D10121402000F099
:10045000FDFA0021402000F0F9FA16E0B34884428A
:1004600008D10121802000F0F1FA0021802000F065
:10047000EDFA0AE0AE48844207D10121801500F070
:10048000E5FA0021A01500F0E1FA10BD10B5012138
:10049000084600F0DBFA0021012000F0D7FA10BD79
:1004A0002DE9F0410246002500260020002300240B
:1004B000002791F803C00CF00F0591F803C00CF071
:1004C000100CBCF1000F03D091F802C04CEA0505F6
:1004D00091F800C0BCF1000F31D0146800202BE06F
:1004E0004FF0010C0CFA00F3B1F800C00CEA03065F
:1004F0009E4220D183004FF00F0C0CFA03F7BC434F
:1005000005FA03FC4CEA040491F803C0BCF1280F7F
:1005100006D14FF0010C0CFA00FCC2F814C00AE03E
:1005200091F803C0BCF1480F05D14FF0010C0CFA53
:1005300000FCC2F810C0401C0828D1D31460B1F8E8
:1005400000C0BCF1FF0F34DD546800202EE000F144
:10055000080C4FF0010808FA0CF3B1F800C00CEADF
:1005600003069E4221D183004FF00F0C0CFA03F7D3
:10057000BC4305FA03FC4CEA040491F803C0BCF147
:10058000280F05D100F1080C08FA0CF8C2F8148005
:1005900091F803C0BCF1480F07D100F1080C4FF0EF
:1005A000010808FA0CF8C2F81080401C0828CED3C5
:1005B0005460BDE8F0814FF6FF7101800221817027
:1005C0000421C17070470246002093680B400BB1B4
:1005D000012000E0002070470146886880B2704723
:1005E00002460020D3680B400BB1012000E0002040
:1005F00070470146C86880B2704701617047416129
:1006000070470AB1016100E041617047C160704705
:100610004FF480320A43826181618261826982691A
:10062000704702460020434B18684FF6807318400D
:1006300040EA021008433F4B186070473E49C861CA
:100640007047F0B50A46002300240021002500F081
:100650000046B6F1004F02D1364EF16901E0354E49
:100660007168C0F3034583B200F44016B6F5401F2D
:1006700008D121F070612F4E766826F070662D4FFC
:100680007E6012E000F48016B6F5801F06D10326C6
:1006900006FA05F4A14341F0706106E0460D36010B
:1006A00003FA06F6B14341F0706122B1460D3601FE
:1006B00003FA06F6314300F00046B6F1004F02D1CE
:1006C0001C4EF16101E01B4E7160F0BD30B500229F
:1006D0008B071C0F0F2303FA04F2164B08338C1000
:1006E00053F824309343134C08348D1044F82530CC
:1006F00023468C1053F824308C07240F00FA04F49E
:1007000023430C4C08348D1044F8253030BD0A4981
:10071000DC3108607047000000080140000C014017
:10072000001001400014014000180140001C01406D
:10073000002001400000014000002042DF48006826
:1007400040F00100DD49086008464068DC49084087
:10075000DA49486008460068DA490840D749086025
:100760000846006820F4802008600846406820F4AD
:10077000FE0048604FF41F0088607047CF49096849
:1007800021F48031CD4A11601146096821F480219D
:100790001160B0F5803F03D0B0F5802F0ED106E098
:1007A000C649096841F48031C44A116007E0C34971
:1007B000096841F4A021C14A116000E000BF00BFF8
:1007C000704710B501460022002300204A11012A7B
:1007D00002D1BA4C236806E0022A02D1B74C236A40
:1007E00001E0B64C636A01F01F02012494401C40F2
:1007F0000CB1012000E0002010BD38B500200090B1
:100800000024002500BF3120FFF7DBFF05460098DC
:10081000401C00900098B0F5A06F01D0002DF2D0E0
:100820003120FFF7CEFF08B1012400E0002420466C
:1008300038BD01460020A14A106820F0F80040EAC7
:10084000C10010607047A049086070470246002050
:100850009A4B586820F47C1042EA01031843974BE6
:100860005860704798490866704701460020934ACF
:10087000506820F003000843506070478F4840687C
:1008800000F00C007047014600208C4A506820F0B0
:10089000F00008435060704701460020874A5068C6
:1008A00020F4E06008435060704701460020834A0E
:1008B000506820F4605040EAC1005060704729B190
:1008C0007E4A527A02437D4B5A7204E07B4A527A46
:1008D00082437A4B5A7270477B49D831086070471F
:1008E00001460020754A506820F44040084350609B
:1008F00070470021714A20321170704A82F820102E
:10090000012802D004280AD104E001216B4A2032D8
:10091000117005E00521694A2032117000E000BF26
:1009200000BF70476949086070476449096A01431C
:10093000624A11627047654944390860704730B5B2
:1009400000210022002400235C4D6D6805F00C019D
:1009500021B1042905D0082923D105E05C4D0560AB
:1009600022E05B4D05601FE0544D6D6805F4701288
:10097000524D6D6805F48034022505EB92421CB996
:10098000544D554305600BE04C4D6D6805F4003542
:100990001DB1504D5543056002E04D4D5543056076
:1009A00002E04B4D056000BF00BF444D6D6805F08F
:1009B000F0010909484D6B5C0568DD4045603F4D1D
:1009C0006D6805F4E061090A434D6B5C4568DD40E4
:1009D00085603A4D6D6805F46051C90A3E4D6B5C07
:1009E0004568DD40C560354D6D6805F44041890BB3
:1009F0003A4D6B5CC568B5FBF3F5056130BD29B1B7
:100A00002E4A526902432D4B5A6104E02B4A526927
:100A100082432A4B5A61704729B1284A926902439E
:100A2000264B9A6104E0254A92698243234B9A61DE
:100A3000704729B1214AD2690243204BDA6104E0B0
:100A40001E4AD26982431D4BDA61704729B11B4AA5
:100A5000D2680243194BDA6004E0184AD268824334
:100A6000164BDA60704729B1144A12690243134BDE
:100A70001A6104E0114A12698243104B1A617047EF
:100A800012494039086070470F49C86470470B49E4
:100A9000C87170470948406A40F080700749486251
:100AA000704701460020054A92680A400AB10120B9
:100AB00000E0002070470149887270470010024032
:100AC0000000FFF8FFFFF6FE0000424280044242B1
:100AD00000127A0000093D001400002024000020CC
:100AE00010B50446FB48844209D101218803FFF771
:100AF000ADFF00214FF48040FFF7A8FF32E0F64839
:100B0000844209D101214804FFF7ADFF00214FF4D1
:100B10000030FFF7A8FF25E0F048844209D1012109
:100B20008804FFF7A0FF00214FF48020FFF79BFF10
:100B300018E0EB48844209D10121C804FFF793FF74
:100B400000214FF40020FFF78EFF0BE0E5488442C0
:100B500008D101210805FFF786FF00214FF480101E
:100B6000FFF781FF10BD2DE9F04786B005460E4620
:100B70000024A24600BFA1460027B08900B100BFF3
:100B80002F462C8A4CF6FF700440F08804432C82D8
:100B9000AC894EF6F3100440B0883189084371895E
:100BA00008430443AC81AC8A4FF6FF400440B0894F
:100BB0000443AC8201A8FFF7C2FEC648874202D1B7
:100BC000DDF810A001E0DDF80CA0A88900F40040D9
:100BD00040B10AEBCA0000EB0A1031684900B0FBD3
:100BE000F1F807E00AEBCA0000EB0A10316889004F
:100BF000B0FBF1F86420B8FBF0F004012009642197
:100C000001FB1089A88900F4004040B1322000EBBC
:100C1000C900B0FBF1F000F00700044308E0322007
:100C200000EB09106421B0FBF1F000F00F00044369
:100C30002C8106B0BDE8F0874FF416510160002109
:100C40008180C18001810C21418100218181704717
:100C500010B502460020108A4FF2FF0318400B889F
:100C60004C8823438C882343CC8823431843108229
:100C700010BD0021018041808180C180704721B179
:100C8000828942F40052828104E082894DF6FF732A
:100C90001A4082817047F0B50346002400260025E3
:100CA000002040F66A17B94200D100BF1846C1F3D0
:100CB000421401F01F06012707FA06F5012C01D1A5
:100CC0000C3004E0022C01D1103000E014301AB1D5
:100CD00007682F43076002E00768AF430760F0BD75
:100CE0001AB1838A0B43838202E0838A8B43838217
:100CF0007047028A4FF6F0731A400282028A0A4352
:100D00000282704782894FF2FF731A408281828982
:100D10000A438281704721B1828942F002028281B6
:100D200004E082894FF6FD731A4082817047028A7F
:100D30004FF6DF731A400282028A0A43028270472A
:100D400021B1028A42F48042028204E0028A4BF618
:100D5000FF731A4002827047C1F308028280704715
:100D600001468888C0F308007047818941F001017D
:100D700081817047028BD2B20283028B42EA012248
:100D800002837047028B02F47F420283028B0A4384
:100D90000283704721B1828A42F02002828204E0FD
:100DA000828A4FF6DF731A408282704721B1828AAD
:100DB00042F01002828204E0828A4FF6EF731A40FA
:100DC0008282704721B1828A42F00802828204E066
:100DD000828A4FF6F7731A408282704721B1828966
:100DE00042F40042828103E08289C2F30E028281D2
:100DF000704721B1828A42F40062828204E0828AD2
:100E00004FF2FF731A4082827047828A4FF6FB735B
:100E10001A408282828A0A438282704721B1828A82
:100E200042F00202828204E0828A4FF6FD731A4089
:100E30008282704702460020B1F5007F00D100BFDA
:100E400013880B400BB1012000E00020704701F433
:100E50000072B2F5007F00D100BFCA430280704724
:100E600070B50246002400230025002040F66A16D3
:100E7000B14200D100BFC1F3421501F01F030126AA
:100E800006FA03F3012D02D19689334006E0022DC4
:100E900002D1168A334001E0968A33400C120126B3
:100EA00006FA04F41688344013B10CB1012000E0B6
:100EB000002070BD10B50022002340F66A14A14244
:100EC00000D100BF0A1201249440A3B2DC43048085
:100ED00010BD0000003801400044004000480040C0
:100EE000004C00400050004000F058F84FF0E02067
:100EF000006940F001004FF0E021086100F010F9B6
:100F000000F0AAF800F0D8F800F02CFA00F079F917
:100F10000BE0012105A000F047FA4FF4FA7000F051
:100F20007CF8054905A000F06FFBF2E741542B5215
:100F3000455345540D0A000044080020CFECD3A6C9
:100F4000A3BA25730A000000704700BFFEE700BF88
:100F5000FEE700BFFEE700BFFEE77047704770473F
:100F600010B500F051F800F066F800240CE00A48D3
:100F700050F8240030B1084850F82400401E0649BB
:100F800041F82400601CC4B2032CF0DB10BD10B586
:100F900000F0B9F910BD00003808002030B529482C
:100FA00000684FF47A72B0FBF2F1B1F1807F01D3A7
:100FB00001201DE021F07F40401E4FF0E0225061F3
:100FC00050170F22002807DA13071D0E1E4B00F0E2
:100FD0000F04241F1D5503E013071C0E1B4B1C544C
:100FE00000BF00204FF0E022906107201061002038
:100FF00008B100BFFEE74FF0E020006920F00100DB
:101000004FF0E021086130BD1148006820B1104860
:101010000068401E0E49086070470D49086000BF17
:101020000B4909680029FBD170470146094800684F
:1010300008600020704707480068401C05490860A8
:10104000704700000000002018ED00E000E400E020
:10105000280000202C00002008B501210820FFF7FF
:10106000DBFC2020ADF8000010208DF803000320E9
:101070008DF8020069460F48FFF712FA0120ADF81B
:10108000000069460B48FFF70BFA0220ADF800009C
:1010900069460848FFF704FA20210648FFF7ADFA31
:1010A00001210448FFF7A9FA02210248FFF7A5FA37
:1010B00008BD0000000C014008B501211420FFF715
:1010C000ABFC0120ADF8000004208DF80300694658
:1010D0001148FFF7E5F94FF40050ADF80000042087
:1010E0008DF8030069460D48FFF7DAF908BD70B5C1
:1010F00004460D4629462046FFF765FA012808D127
:1011000000BF29462046FFF75EFA0128F9D00120EA
:1011100070BD0020FCE70000000801400010014005
:1011200000B585B001210420FFF776FC012188037A
:10113000FFF772FC4FF40070ADF8100018208DF826
:10114000130003208DF8120004A92248FFF7A8F924
:101150004FF48060ADF8100004208DF8130004A94E
:101160001C48FFF79DF94FF4E13000900020ADF8E6
:101170000400ADF80600ADF80800ADF80C000C2036
:10118000ADF80A0069461448FFF7EDFC012112484A
:10119000FFF775FD05B000BD70B504460D46E1B220
:1011A0000D48FFF7D9FD00BF80210B48FFF742FE35
:1011B0000028F9D0204670BD10B5044600BF20219C
:1011C0000548FFF737FE0028F9D00348FFF7C8FDB0
:1011D00010BD0000000801400038014008B54FF480
:1011E000E060FFF78FF826208DF8000001208DF8D1
:1011F00001008DF802008DF803006846FFF787F8BC
:1012000008BD00B585B001214804FFF712FC01219B
:101210000420FFF701FC0420ADF8100018208DF821
:10122000130003208DF8120004A94A48FFF738F98B
:101230000820ADF8100004208DF8130004A94548DB
:10124000FFF72EF94FF4164000900020ADF804008F
:10125000ADF80600ADF80800ADF80C000C20ADF8B4
:101260000A0069463C48FFF77EFCFFF7B7FF012202
:1012700040F225513848FFF70EFD01213648FFF7AF
:10128000FEFC40213448FFF7E2FD05B000BD70B51B
:1012900004460D4629462046FFF75EFD00BF80212B
:1012A0002046FFF7C7FD0028F9D070BD2DE9F041B9
:1012B00007460D461646002400BF295D3846FFF755
:1012C000E6FF641CB442F8D3BDE8F08170B5064671
:1012D0000C46002500BF615D3046FFF7D8FF6D1C4E
:1012E000605D0028F7D170BD40F2014000211B4A2B
:1012F000118005E00022411E89B20846184B5A545D
:101300000028F7D1704710B514480088B0F5806FF9
:1013100012DA40F225511048FFF7A2FD98B10E48AD
:10132000FFF71EFD0E490D4A128888540B480088AD
:10133000401C0A49088006E040F225510648FFF7A4
:10134000B9FDFFF7D1FF10BD0146044800880880B1
:10135000034870470008014000440040300000206E
:101360004408002008B501210820FFF755FB4FF481
:101370000050ADF8000010208DF8030003208DF818
:10138000020069464948FFF78BF84FF48040ADF8FA
:10139000000010208DF8030003208DF8020069463C
:1013A0004248FFF77DF808BD2DE9F84304460D4695
:1013B00005274FF001094BE04FF480413B48FFF710
:1013C0001EF94FF400513948FFF719F90A20FFF7C9
:1013D00024FE21463648FFF779FF4FF000082DE044
:1013E0000A20FFF71AFE6846FFF7AEFF0646BDF873
:1013F000000000281BDD307868B100BF224656216E
:101400002CA000F001F900BF00BF3246582132A0E5
:1014100000F0FAF800BF39A1304600F0BBF848B13F
:10142000012D01D1FFF760FF0020BDE8F8836420A3
:10143000FFF7F3FD08F1010000F0FF08B8F1140F09
:10144000CEDB00BF3A466B212DA000F0DDF800BFD7
:10145000381EA7F10101CFB2AED100BF6D2135A07A
:1014600000F0D2F800BF012D01D1FFF73DFF484643
:10147000DBE7704710B5FFF775FFFFF7C2FE4FF4CB
:1014800080410A48FFF7BBF8012135A0FFF78CFF28
:10149000012139A0FFF788FF01213BA0FFF784FF5E
:1014A0004FF480410148FFF7A8F810BD000C01403F
:1014B000004400403C3C2D484330352D44454255C6
:1014C000472D3E3E205B25645D73656E6420434D71
:1014D000443A2025730A00003C3C2D484330352D0A
:1014E00044454255472D3E3E205B25645D72656351
:1014F000656976652025730A000000004F4B0000E7
:101500003C3C2D484330352D44454255472D3E3E09
:10151000205B25645D484330352073656E6420434D
:101520004D44206661696C2025642074696D657383
:101530000A0000003C3C2D484330352D44454255BF
:10154000472D3E3E205B25645D4843303520736562
:101550006E6420434D44206661696C200A000000DF
:1015600041542B4E455449443132333435363738A3
:10157000394142430D0A000041542B4E414D453143
:1015800032330D0A0000000041542B52455345549C
:101590000D0A000030B505462A460B4612F8010B2D
:1015A00013F8014B08B1A042F8D01CB1002802D0BA
:1015B0006D1CF1E7284630BD30B50B4601460020D2
:1015C0002022012409E021FA02F59D4205D303FA05
:1015D00002F5491B04FA02F52844151EA2F1010286
:1015E000F1DC30BD064C074D06E0E06840F0010339
:1015F00094E8070098471034AC42F6D3FEF77AFD22
:1016000000180008201800080FB4054B10B503A9F6
:10161000044A029800F018F810BC5DF814FB0000B2
:10162000991100083400002002E008C8121F08C108
:10163000002AFAD170477047002001E001C1121F53
:10164000002AFBD1704700002DE9FF4F8BB09A466E
:101650000F460546002606E025280BD052460D9978
:1016600090476D1C761C28780028F5D10FB03046C5
:10167000BDE8F08F0024A0460122604900E0044349
:1016800015F8013F203B02FA03F00842F7D1287811
:101690002E2817D115F8010F44F004042A280ED083
:1016A0006FF02F022878A0F1300109290AD808EB41
:1016B000880102EB410100EB01086D1CF2E757F8CD
:1016C000048B6D1C287869283ED006DC0028CDD01C
:1016D00063280BD0642804D136E0732810D0752815
:1016E0004BD052460D999047761C85E017F8040BB5
:1016F0008DF8000000208DF80100E946012003E08C
:1017000057F8049B4FF0FF3061074FF0000401D4FD
:101710000AE0641C44450DDA8442FADB19F804102F
:101720000029F6D106E0641C8442FCDB19F80410A1
:101730000029F8D1264404E019F8010B52460D990E
:101740009047641EF8D257E001CF4FF00A0B0028F3
:1017500002DA40422D2102E0210504D52B218DF82B
:101760002410012103E0E10705D02021F7E70DF166
:10177000200908910CE00021F9E701CF4FF00A0B96
:10178000F9E75946FFF718FF01F1300209F8012D7A
:101790000028F6D1ADEB090000F1200B600701D461
:1017A0004FF00108D84502DDA8EB0B0000E0002057
:1017B0008046002406E009A85246005D0D99904736
:1017C000641C761C08988442F5DB04E03020524605
:1017D0000D999047761CB8F10001A8F10108F5DCDD
:1017E00005E019F8010B52460D999047761CBBF1A4
:1017F0000001ABF1010BF4DC6D1C34E7092801009A
:1018000020180008000000203800000028160008FA
:101810005818000838000020101000003816000882
:1018200000A24A04000000000000000001020304BE
:101830000607080900000000010203040102030476
:101840000607080902040608000000000000000066
:08185000000000000000000090
:04000005080000ED02
:00000001FF
