:020000040800F2
:10000000A81E0020010100085128000853280008FC
:10001000572800085B2800085F280008000000003F
:10002000000000000000000000000000632800083D
:1000300065280008000000006728000869280008FB
:100040001B0100081B0100081B0100081B01000820
:100050001B0100081B0100081B0100081B01000810
:100060001B0100081B0100081B0100081B01000800
:100070001B0100081B0100081B0100081B010008F0
:100080001B0100081B0100081B0100081B010008E0
:100090001B0100081B0100081B0100081B010008D0
:1000A0001B0100081B0100081B0100081B010008C0
:1000B0001B010008ED4D0008C34D00081B0100089E
:1000C0001B0100081B0100081B0100081B010008A0
:1000D0001B010008314800081B01000867480008A0
:1000E0001B0100081B0100081B010008DFF80CD0F1
:1000F00005F024FC00480047A9230008A81E0020A2
:100100000648804706480047FEE7FEE7FEE7FEE7B1
:10011000FEE7FEE7FEE7FEE7FEE7FEE70302000874
:10012000ED0000080CB50020019000906C480068BC
:1001300040F480306A49086000BF6948006800F4F4
:10014000003000900198401C0190009818B9019867
:10015000B0F5A06FF1D16248006800F4003010B132
:100160000120009001E0002000900098012843D178
:100170005C48006840F010005A4908600846006872
:1001800020F0030008600846006840F002000860A4
:1001900053484068524948600846406848600846ED
:1001A000406840F4806048600846406820F47C1055
:1001B00048600846406840F4E81048600846006817
:1001C00040F08070086000BF4548006800F0007093
:1001D0000028F9D04248406820F0030040494860B8
:1001E0000846406840F00200486000BF3C48406854
:1001F00000F00C000828F9D10CBD10B5FFF792FFF4
:1002000010BD10B53648006840F001003449086060
:10021000084640683449084031494860084600684B
:10022000324908402E4908600846006820F48020C2
:1002300008600846406820F4FE0048604FF41F0044
:100240008860FFF7DAFF4FF000602949086010BDB1
:1002500010B5002100200022214B5B6803F00C0147
:1002600021B1042906D0082928D107E0214B224CCE
:10027000236027E01F4B204C236023E0184B5B6872
:1002800003F47010164B5B6803F48032022303EB17
:10029000904022B9194B4343174C23600DE0104B9B
:1002A0005B6803F4003323B1144B4343124C2360C7
:1002B00003E0104B4343104C236003E00D4B0E4C06
:1002C000236000BF00BF064B5B68C3F303130C4CF5
:1002D000E15C094B1B68CB40074C236010BD00005C
:1002E00000100240002002400000FFF8FFFFF6FE71
:1002F00008ED00E000127A000000002000093D0037
:100300000400002031490143314A1160704770B543
:10031000002100230F22C47804B32D4C246804F478
:10032000E064C4F5E064210AC1F10403CA404478E2
:1003300004FA03F18478144021430901254C06781E
:10034000A155047804F01F050124AC4005786D1117
:10035000AD0005F1E025C5F8004109E0047804F09E
:100360001F050124AC401C4D0678761145F8264047
:1003700070BD1A4A0A400243154B1B1F1A60704792
:1003800039B1134A121D12680243114B1B1D1A602A
:1003900006E00F4A121D126882430D4B1B1D1A60A6
:1003A0007047042808D14FF0E021096941F00401A9
:1003B0004FF0E022116107E04FF0E021096921F0E0
:1003C00004014FF0E0221161704700000000FA05BF
:1003D0000CED00E000E400E080E100E080FFFF1FA2
:1003E00010B50446FA48844208D10121401500F0B6
:1003F0007FFE0021601500F07BFE17E0F548844287
:1004000008D10121001500F073FE0021201500F035
:100410006FFE0BE0F048844208D10121C80300F0D0
:1004200067FE00214FF4004000F062FE10BD30B5C1
:100430000246002000235068E84C20400D790C68EB
:1004400044EA0524204350609068E54C2040D1E9FF
:1004500002542C434D7944EA450420439060D06A0D
:1004600020F470000C7C641EE4B2234340EA035085
:10047000D06230BD00210160017141718160C160B5
:1004800001210174704721B1826842F0010282604B
:1004900003E0826822F001028260704721B1826825
:1004A00042F48072826003E0826822F4807282608B
:1004B000704710B50023CBB21AB144681C434460A6
:1004C00002E044689C43446010BD816841F008012B
:1004D00081607047014600208A6802F008020AB174
:1004E000012000E000207047816841F00401816034
:1004F0007047014600208A6802F004020AB1012018
:1005000000E00020704721B1826842F4A0028260BE
:1005100003E0826822F4A002826070470146002056
:100520008A6802F480020AB1012000E000207047CE
:1005300010B50A4600210023416821F46041531E92
:1005400041EA4331416010BD21B1426842F400628A
:10055000426003E0426822F4006242607047F0B5F6
:1005600004460D4600200021092D11DDE068A5F1AB
:100570000A0606EB4607072606FA07F18843A5F1A7
:100580000A0606EB460603FA06F10843E0600CE0B3
:10059000206905EB4507072606FA07F1884305EBB6
:1005A000450603FA06F108432061072A0FDA606B5B
:1005B000561E06EB86071F2606FA07F18843561ECD
:1005C00006EB860605FA06F10843606322E00D2A71
:1005D0000FDA206BD61F06EB86071F2606FA07F1F7
:1005E0008843D61F06EB860605FA06F1084320630A
:1005F00010E0E06AA2F10D0606EB86071F2606FA58
:1006000007F18843A2F10D0606EB860605FA06F10E
:100610000843E062F0BD21B1826842F4801282603A
:1006200003E0826822F48012826070470146C86C41
:1006300080B2704766484C300068704721B142680C
:1006400042F48062426003E0426822F480624260C9
:10065000704721B1426842F48052426003E0426830
:1006600022F48052426070470A460021816821F4DA
:10067000E04111438160704721B1826842F4004239
:10068000826003E0826822F400428260704721B1F8
:10069000826842F40212826003E0826822F402124D
:1006A00082607047014600208A6802F400120AB195
:1006B000012000E000207047F0B5044615460020F8
:1006C00000220026092911DDE068A1F10A0707EBE5
:1006D000470C072707FA0CF29043A1F10A0707EB32
:1006E000470703FA07F21043E0600CE0206901EBD2
:1006F000410C072707FA0CF2904301EB410703FA7C
:1007000007F210432061A06BC0F30156EF1C06F105
:10071000010CA7EB0C0707EB870C1F2707FA0CF25D
:100720009043EF1C06F1010CA7EB0C0707EB8707C2
:1007300001FA07F21043A063F0BD10B50A4600218C
:100740000023816B21F44011531E41EA0351816360
:1007500010BD08B5002300930090009B0B4400934C
:10076000009B1A6008BD08B5024600200090009268
:1007700001F12800009B184400900098006880B2A6
:1007800008BD0A4600214168164B194011434160DB
:1007900070474162826270470A460021416821F039
:1007A0001F0111434160704740B109490831096890
:1007B00041F40001064A0832116007E0044908319B
:1007C000096821F40001024A0832116070470000F4
:1007D0000024014000280140003C0140FFFEF0FFE2
:1007E000FDF7F1FFFFFD3FFF0246002013680B40BD
:1007F0000BB1012000E000207047CA43026070473F
:1008000070B502460020002300240B125568CEB2BA
:1008100005EA060415681D4015B10CB1012000E081
:10082000002070BD00220A12D3430360704700000D
:1008300001684FF6FE7211400160002101604160C5
:100840008160C1608D49884208D18C490839496866
:1008500041F00F01894A083A51608AE08749143112
:10086000884208D185490839496841F0F001834A36
:10087000083A51607DE081492831884208D17F499A
:100880000839496841F470617C4A083A516070E067
:100890007A493C31884208D178490839496841F49D
:1008A0007041764A083A516063E074495031884299
:1008B00008D172490839496841F470216F4A083AF1
:1008C000516056E06D496431884208D16B4908395E
:1008D000496841F47001694A083A516049E0674942
:1008E0007831884208D165490839496841F070611A
:1008F000624A083A51603CE06149884206D1011FD2
:10090000096841F00F01021F116032E05C491431A7
:10091000884208D15A49091F096841F0F001584A34
:10092000121F116025E056492831884208D15449E8
:10093000091F096841F47061514A121F116018E0E3
:100940004F493C31884208D14D49091F096841F49B
:1009500070414B4A121F11600BE0494950318842E7
:1009600007D14749091F096841F47021444A121F01
:100970001160704710B50022026847F6F0739A4381
:100980000C6A8B6823430C6923434C6923438C69AD
:100990002343CC6923434C6A23438C6A23431A4381
:1009A0000260CB6843600B6883604B68C36010BD16
:1009B0000021016041608160C1600161416181612C
:1009C000C161016241628162704721B1026842F0F7
:1009D0000102026004E002684FF6FE731A400260F2
:1009E00070471AB103680B43036002E003688B434E
:1009F00003607047416070470146486880B27047A5
:100A000001460020002201F080531BB11C4B083B23
:100A10001A6802E0194B083B1A6802EA01030BB19D
:100A2000012000E00020704700F0805119B1144906
:100A3000091F086002E01149083948607047014603
:100A40000020002201F080531BB10D4B083B1A68B7
:100A500002E00A4B083B1A6802EA01030BB10120CD
:100A600000E00020704700F0805119B10449091FCF
:100A7000086002E0014908394860704708000240F8
:100A80000804024010B50446CC48844208D1012134
:100A9000042000F02DFB0021042000F029FB46E09B
:100AA000C748844208D10121082000F021FB002121
:100AB000082000F01DFB3AE0C248844208D1012121
:100AC000102000F015FB0021102000F011FB2EE09B
:100AD000BD48844208D10121202000F009FB0021FB
:100AE000202000F005FB22E0B848844208D1012113
:100AF000402000F0FDFA0021402000F0F9FA16E055
:100B0000B348844208D10121802000F0F1FA00218D
:100B1000802000F0EDFA0AE0AE48844207D10121BE
:100B2000801500F0E5FA0021A01500F0E1FA10BDF3
:100B300010B50121084600F0DBFA0021012000F089
:100B4000D7FA10BD2DE9F04102460025002600200D
:100B500000230024002791F803C00CF00F0591F842
:100B600003C00CF0100CBCF1000F03D091F802C0D0
:100B70004CEA050591F800C0BCF1000F31D01468B3
:100B800000202BE04FF0010C0CFA00F3B1F800C08C
:100B90000CEA03069E4220D183004FF00F0C0CFAA2
:100BA00003F7BC4305FA03FC4CEA040491F803C0C4
:100BB000BCF1280F06D14FF0010C0CFA00FCC2F872
:100BC00014C00AE091F803C0BCF1480F05D14FF002
:100BD000010C0CFA00FCC2F810C0401C0828D1D34C
:100BE0001460B1F800C0BCF1FF0F34DD5468002080
:100BF0002EE000F1080C4FF0010808FA0CF3B1F8F0
:100C000000C00CEA03069E4221D183004FF00F0C76
:100C10000CFA03F7BC4305FA03FC4CEA040491F810
:100C200003C0BCF1280F05D100F1080C08FA0CF83C
:100C3000C2F8148091F803C0BCF1480F07D100F14D
:100C4000080C4FF0010808FA0CF8C2F81080401C9C
:100C50000828CED35460BDE8F0814FF6FF710180C3
:100C6000022181700421C170704702460020936800
:100C70000B400BB1012000E000207047014688685E
:100C800080B2704702460020D3680B400BB10120B0
:100C900000E0002070470146C86880B270470161DB
:100CA0007047416170470AB1016100E041617047DE
:100CB000C16070474FF480320A4382618161826172
:100CC00082698269704702460020434B18684FF6DC
:100CD0008073184040EA021008433F4B1860704789
:100CE0003E49C8617047F0B50A4600230024002140
:100CF000002500F00046B6F1004F02D1364EF169F2
:100D000001E0354E7168C0F3034583B200F440162C
:100D1000B6F5401F08D121F070612F4E766826F09D
:100D200070662D4F7E6012E000F48016B6F5801FCD
:100D300006D1032606FA05F4A14341F0706106E0EE
:100D4000460D360103FA06F6B14341F0706122B157
:100D5000460D360103FA06F6314300F00046B6F1BF
:100D6000004F02D11C4EF16101E01B4E7160F0BDDD
:100D700030B500228B071C0F0F2303FA04F2164B29
:100D800008338C1053F824309343134C08348D10DF
:100D900044F8253023468C1053F824308C07240F58
:100DA00000FA04F423430C4C08348D1044F8253029
:100DB00030BD0A49DC31086070470000000801407E
:100DC000000C0140001001400014014000180140D7
:100DD000001C0140002001400000014000002042B2
:100DE000DF48006840F00100DD49086008464068BF
:100DF000DC490840DA49486008460068DA4908409A
:100E0000D74908600846006820F48020086008463A
:100E1000406820F4FE0048604FF41F00886070476F
:100E2000CF49096821F48031CD4A11601146096823
:100E300021F480211160B0F5803F03D0B0F5802F00
:100E40000ED106E0C649096841F48031C44A1160F8
:100E500007E0C349096841F4A021C14A116000E0DC
:100E600000BF00BF704710B50146002200230020DC
:100E70004A11012A02D1BA4C236806E0022A02D1A3
:100E8000B74C236A01E0B64C636A01F01F020124EB
:100E900094401C400CB1012000E0002010BD38B58A
:100EA000002000900024002500BF3120FFF7DBFF69
:100EB00005460098401C00900098B0F5A06F01D046
:100EC000002DF2D03120FFF7CEFF08B1012400E061
:100ED0000024204638BD01460020A14A106820F0B9
:100EE000F80040EAC10010607047A04908607047F0
:100EF000024600209A4B586820F47C1042EA010315
:100F00001843974B586070479849086670470146E8
:100F10000020934A506820F0030008435060704757
:100F20008F48406800F00C007047014600208C4A52
:100F3000506820F0F00008435060704701460020E0
:100F4000874A506820F4E0600843506070470146CB
:100F50000020834A506820F4605040EAC10050608D
:100F6000704729B17E4A527A02437D4B5A7204E09F
:100F70007B4A527A82437A4B5A7270477B49D83106
:100F80000860704701460020754A506820F44040D0
:100F90000843506070470021714A20321170704A36
:100FA00082F82010012802D004280AD104E001218F
:100FB0006B4A2032117005E00521694A2032117018
:100FC00000E000BF00BF704769490860704764498E
:100FD000096A0143624A11627047654944390860F1
:100FE000704730B500210022002400235C4D6D685D
:100FF00005F00C0121B1042905D0082923D105E011
:101000005C4D056022E05B4D05601FE0544D6D684E
:1010100005F47012524D6D6805F48034022505EB1D
:1010200092421CB9544D554305600BE04C4D6D6820
:1010300005F400351DB1504D5543056002E04D4D9E
:101040005543056002E04B4D056000BF00BF444DB5
:101050006D6805F0F0010909484D6B5C0568DD40DD
:1010600045603F4D6D6805F4E061090A434D6B5CD6
:101070004568DD4085603A4D6D6805F46051C90AE8
:101080003E4D6B5C4568DD40C560354D6D6805F4CF
:101090004041890B3A4D6B5CC568B5FBF3F50561C2
:1010A00030BD29B12E4A526902432D4B5A6104E0EA
:1010B0002B4A526982432A4B5A61704729B1284A08
:1010C00092690243264B9A6104E0254A9269824361
:1010D000234B9A61704729B1214AD2690243204BC0
:1010E000DA6104E01E4AD26982431D4BDA6170471F
:1010F00029B11B4AD2680243194BDA6004E0184A4E
:10110000D2688243164BDA60704729B1144A1269DB
:101110000243134B1A6104E0114A12698243104BD7
:101120001A61704712494039086070470F49C86416
:1011300070470B49C87170470948406A40F0807099
:1011400007494862704701460020054A92680A40F4
:101150000AB1012000E00020704701498872704701
:10116000001002400000FFF8FFFFF6FE00004242C0
:101170008004424200127A0000093D001400002061
:101180002400002010B50446FE48844208D1012105
:10119000C014FFF7ADFF0021E014FFF7A9FFC4E082
:1011A000B4F1804F08D101210846FFF7AEFF0021BE
:1011B0000120FFF7AAFFB8E0F348844208D10121DB
:1011C0000220FFF7A2FF00210220FFF79EFFACE004
:1011D000EE48844208D101210420FFF796FF002148
:1011E0000420FFF792FFA0E0E948844208D10121E2
:1011F0000820FFF78AFF00210820FFF786FF94E010
:10120000E448844208D101211020FFF77EFF00212D
:101210001020FFF77AFF88E0DF48844208D10121DF
:101220002020FFF772FF00212020FFF76EFF7CE0F7
:10123000DA48844208D101214014FFF759FF002108
:101240006014FFF755FF70E0D548844209D10121B1
:10125000C804FFF74DFF00214FF40020FFF748FFBF
:1012600063E0D048844209D101210805FFF740FF1F
:1012700000214FF48010FFF73BFF56E0CA4884423C
:1012800009D101214805FFF733FF00214FF4001079
:10129000FFF72EFF49E0C548844208D101214020D4
:1012A000FFF733FF00214020FFF72FFF3DE0C0484C
:1012B000844208D101218020FFF727FF00218020F0
:1012C000FFF723FF31E0BB48844208D1012180159C
:1012D000FFF71BFF0021A015FFF717FF25E0B64819
:1012E000844209D101210804FFF702FF00214FF4D5
:1012F0008030FFF7FDFE18E0B048844209D101219B
:101300004804FFF7F5FE00214FF40030FFF7F0FE30
:101310000BE0AB48844208D101218804FFF7E8FEC6
:1013200000214FF48020FFF7E3FE10BD0022028869
:10133000944B98420ED0994B98420BD0B0F1804F0D
:1013400008D0914B984205D0904B984202D0904BD8
:10135000984204D14FF68F731A404B881A438D4B35
:10136000984207D08C4B984204D04FF6FF431A4066
:10137000CB881A4302808B8883850B880385814B39
:1013800098420BD0854B984208D08B4B984205D0A1
:101390008A4B984202D08A4B984201D10B7A03863D
:1013A00001238382704770B5002400220023058C3E
:1013B0004FF6FE7635400584028C8388048B4FF609
:1013C0008F752C40B51E2C400D882C43751E2A406D
:1013D0000D892A434D882A436A4DA8420BD06F4D90
:1013E000A84208D0744DA84205D0744DA84202D03E
:1013F000734DA84213D14FF6F7752A404D892A4301
:101400004FF6FB752A408D882A434FF6FF652B4027
:101410004FF6FF552B408D892B43CD892B4383807D
:101420000483CD888586028470BD70B500240022B7
:101430000023058C4FF6EF7635400584028C8388B7
:10144000048B48F6FF752C404FF6FF452C400D8865
:101450004FF6FF7606EA05252C434FF6DF752A4046
:101460000D8906EA05152A434D8806EA05152A4323
:10147000444DA84202D0494DA8421DD14FF67F7578
:101480002A404D894FF6FF7606EA05152A434FF6A6
:10149000BF752A408D8806EA05152A434FF6FF35A9
:1014A0002B404FF2FF752B408D8906EA85052B43B3
:1014B000CD8906EA85052B4383800483CD88058783
:1014C000028470BD70B5002400220023058C4FF605
:1014D000FF6635400584028C8388848B4FF68F75B8
:1014E0002C404FF6FC752C400D882C434FF6FF55D1
:1014F0002A400D894FF6FF7606EA05252A434D88D6
:1015000006EA05252A431F4DA84202D0234DA842D2
:101510001DD14FF2FF752A404D894FF6FF7606EA3E
:1015200005252A434FF6FF352A408D8806EA052512
:101530002A434EF6FF752B404DF6FF752B408D89E3
:1015400006EA05152B43CD8906EA05152B43838052
:101550008483CD888587028470BD70B50022002306
:101560000024058C4EF6FF7635400584038C848874
:10157000828B48F6FF752A404FF6FF452A400D88BA
:1015800020E00000002C0140000400400008004062
:10159000000C0040001000400014004000340140E6
:1015A000004C014000500140005401400018004030
:1015B000001C004000200040004001400044014069
:1015C000004801404FF6FF7606EA05252A434DF60E
:1015D000FF752B400D8906EA05352B434D8806EA39
:1015E00005352B43FA4DA84202D0FA4DA84208D146
:1015F0004BF6FF752C408D894FF6FF7606EA851570
:101600002C4384808283CD88A0F84050038470BD31
:10161000828B4FF2FF331A408283828B4FF6FF7327
:1016200003EA01231A4382837047F0B50C4615463E
:10163000002200210026078C4EF6FF7C07EA0C07EB
:101640000784828B018C4FF6FF7707EA043640F659
:10165000FF473A404FF6FF7707EA05273A434FF630
:10166000FF7707EA03373A43D94FB8420ED0D94F34
:10167000B8420BD0B0F1804F08D0D74FB84205D058
:10168000D64FB84202D0D64FB84206D14DF6FF77BA
:10169000394046F48057394305E047F6FF57394053
:1016A00044F48057394382830184F0BD828B4FF626
:1016B000F3731A408283828B0A4382837047F0B5AA
:1016C0000C461546002200210026078C4FF6FF6CC1
:1016D00007EA0C070784828B018C4FF6FF7707EA35
:1016E00004264FF60C773A404FF6FF7707EA0317C8
:1016F0002F433A43B64FB8420ED0B64FB8420BD044
:10170000B0F1804F08D0B44FB84205D0B34FB842C3
:1017100002D0B34FB84206D14FF6FF57394046F4D6
:101720008077394305E04FF2FF57394044F4807722
:10173000394382830184F0BD028B4FF2FF331A409C
:101740000283028B4FF6FF7303EA01231A430283DD
:101750007047F0B50C461546002200210026078C84
:101760004FF6EF7C07EA0C070784028B018C4FF6DB
:10177000FF7707EA041640F6FF473A404FF6FF7737
:1017800007EA03373A434FF6FF7707EA05273A435C
:101790008F4FB8420ED08F4FB8420BD0B0F1804F70
:1017A00008D08D4FB84205D08C4FB84202D08C4F34
:1017B000B84206D14FF6DF77394046F0100739437B
:1017C00005E04FF65F77394044F010073943028354
:1017D0000184F0BD028B4FF6F3731A400283028B33
:1017E0000A4302837047F0B50C46154600220021DB
:1017F000068C4FF6FE773E400684028B018C4FF636
:101800000C7632407E1C06EA03162E433243704E9D
:10181000B0420ED06F4EB0420BD0B0F1804F08D026
:101820006D4EB04205D06D4EB04202D06C4EB0420B
:1018300006D14FF6FD76314044F00106314305E014
:101840004FF6F576314044F00106314302830184BE
:10185000F0BD70B505460C465D4885420ED05D482A
:1018600085420BD0B5F1804F08D05B48854205D04A
:101870005A48854202D05A48854200D100E000BF54
:10188000208850B92389A28861882846FFF7ABFFDA
:10189000E1882846FFF79EFF25E0208804280AD12A
:1018A0002389A28861882846FFF753FFE1882846EC
:1018B000FFF742FF17E0208808280AD12389A28871
:1018C00061882846FFF7FBFEE1882846FFF7EEFE19
:1018D00009E02389A28861882846FFF7A6FEE188EF
:1018E0002846FFF795FE70BD2DE9F04105460C46F0
:1018F00000260127608808B9022600E00026A0889B
:10190000012801D1022700E001272088A0B92389FE
:10191000A28861882846FFF766FFE1882846FFF71E
:1019200059FF23893A4631462846FFF712FFE188DE
:101930002846FFF701FF13E02389A2886188284623
:10194000FFF707FFE1882846FFF7F6FE23893A46AE
:1019500031462846FFF747FFE1882846FFF73AFF60
:10196000BDE8F0810A884B881A438B881A43CB88DC
:101970001A430B891A434B891A438B891A43A0F8DF
:10198000442070474FF6FF71818000210180C180A3
:101990004180017270470021018041808180C180B7
:1019A000018141818181C181704700210180418095
:1019B000012181800021C1800181704700210180C7
:1019C00041808180C1800181418181817047000017
:1019D000002C014000340140000400400008004099
:1019E000000C004021B1028842F00102028004E0B4
:1019F00002884FF6FE731A400280704731B1B0F88A
:101A0000442042F40042A0F8442005E0B0F844200D
:101A1000C2F30E02A0F8442070471AB183890B4329
:101A2000838102E083898B43838170478182704781
:101A300041EA0203A0F8483070471AB183890B438A
:101A4000838102E083898B438381704701894FF64C
:101A5000F8721140018170470A46002101894FF652
:101A60008F73194011430181704730B504460D460C
:101A700029462046FFF7F0FF208940F0070020812B
:101A800030BD2DE9F04104460D4616461F46602D37
:101A900006D13B46012231462046FFF75AFE05E0BB
:101AA0003B46012231462046FFF79DFE294620464F
:101AB000FFF7D2FF208940F007002081BDE8F081C8
:101AC00030B50C4600210189C9B24FF6FF7505EA11
:101AD0000325154325432943018130BD2DE9F041FC
:101AE00005460E4617469846002443463A46314678
:101AF0002846FFF7E5FF2C894FF6F870044044F0C4
:101B000007044FF68F70044044F070042C81BDE848
:101B1000F081F0B504460D4616461F463B46324658
:101B200029462046FFF7CCFF208940F480402081E1
:101B3000F0BD0185828270470A46002101884FF678
:101B40008F731940114301807047F0B50C4615465C
:101B50001E460021002200230189028B038C4FF6D0
:101B6000F877394021434FF6FC473A4040F20117DD
:101B70003A434FF6DD773B404FF6FF7707EA06170B
:101B80002F433B43018102830384F0BD0A460021B9
:101B9000018B4FF68F7319401143018370470A463A
:101BA0000021018B48F6FF7319404FF6FF7303EADB
:101BB00002231943018370470A460021818B4FF6A7
:101BC0008F7319401143818370470A460021818B2E
:101BD00048F6FF7319404FF6FF7303EA02231943D7
:101BE0008183704721B1028842F08002028004E0C4
:101BF00002884FF67F731A400280704721B18288B5
:101C000042F00402828004E082884FF6FB731A409F
:101C10008280704721B1828842F00802828004E00D
:101C200082884FF6F7731A408280704721B182880C
:101C300042F00102828004E082884FF6FE731A406F
:101C4000828070470A460021018B4FF6F7731940D6
:101C50001143018370470A460021018B4FF2FF7345
:101C600019404FF6FF7303EA0223194301837047BB
:101C70000A460021818B4FF6F77319401143818387
:101C800070470A460021818B4FF2FF7319404FF6CF
:101C9000FF7303EA02231943818370470A46002138
:101CA000018B4FF6FB7319401143018370470A46BD
:101CB0000021018B4FF6FF3319404FF6FF7303EA03
:101CC00002231943018370470A460021818B4FF696
:101CD000FB7319401143818370470A460021818BB1
:101CE0004FF6FF3319404FF6FF7303EA02231943FF
:101CF000818370470A460021018B4FF67F7319409C
:101D00001143018370470A460021018BC1F30E0184
:101D10004FF6FF7303EA02231943018370470A4613
:101D20000021818B4FF67F731940114381837047E7
:101D30000A460021818BC1F30E014FF6FF7303EABF
:101D400002231943818370470A460021018C4FF614
:101D5000FD7319401143018470470A460021018C2C
:101D60004FF6F77319401143018470470A4600216A
:101D7000018C4FF6DF7319404FF6FF7303EA02132D
:101D80001943018470470A460021018C4FF67F7386
:101D900019404FF6FF7303EA021319430184704799
:101DA0000A460021018C4FF6FF5319404FF6FF738E
:101DB00003EA02231943018470470A460021018C7B
:101DC0004FF2FF7319404FF6FF7303EA02231943E2
:101DD000018470470A460021018C4DF6FF731940BB
:101DE0004FF6FF7303EA023319430184704730B59D
:101DF000002301248C40A3B2048C9C430484048CF3
:101E000002FA01F5ADB22C43048430BD30B5002395
:101E100004248C40A3B2048C9C430484048C02FAF6
:101E200001F5ADB22C43048430BD70B503460020EB
:101E300000241846183001258D40ACB21D8CA543F6
:101E40001D8409B1082909D100EB6100056825F05E
:101E5000700505600568154305600EE00D1FC5F3AC
:101E60004E052844056825F4E045056005684FF6F1
:101E7000FF7606EA02263543056070BD21B102886F
:101E800042F00202028004E002884FF6FD731A401D
:101E90000280704721B1028842F00402028004E00F
:101EA00002884FF6FB731A400280704721B1828886
:101EB00042F08002828004E082884FF67F731A40ED
:101EC0008280704702884FF6F7731A4002800288BA
:101ED0000A430280704782884FF68F731A408280CF
:101EE00082880A438280704702894FF6F8731A404D
:101EF000028102890A430281704702894FF67F738B
:101F00001A40028102890A43028170478184704726
:101F10008185704781867047018770478187704748
:101F2000A0F84010704702884FF6FF431A40028025
:101F300002880A43028070470146888E7047014636
:101F4000088F70470146888F70470146B1F84000FE
:101F500070470146888C70470146088D70470246DD
:101F60000020138A0B400BB1012000E000207047D5
:101F7000CA430282704730B5024600200023002485
:101F8000158A05EA0103958905EA010413B10CB12C
:101F9000012000E0002030BDCA43028270470000EB
:101FA00010B50446FB48844209D101218803FFF79C
:101FB0009FF800214FF48040FFF79AF832E0F6488E
:101FC000844209D101214804FFF79FF800214FF412
:101FD0000030FFF79AF825E0F048844209D101214A
:101FE0008804FFF792F800214FF48020FFF78DF866
:101FF00018E0EB48844209D10121C804FFF785F8B5
:1020000000214FF40020FFF780F80BE0E548844200
:1020100008D101210805FFF778F800214FF480105E
:10202000FFF773F810BD2DE9F04786B005460E4660
:102030000024A24600BFA1460027B08900B100BF1E
:102040002F462C8A4CF6FF700440F08804432C8203
:10205000AC894EF6F3100440B08831890843718989
:1020600008430443AC81AC8A4FF6FF400440B0897A
:102070000443AC8201A8FEF7B4FFC648874202D1F0
:10208000DDF810A001E0DDF80CA0A88900F4004004
:1020900040B10AEBCA0000EB0A1031684900B0FBFE
:1020A000F1F807E00AEBCA0000EB0A10316889007A
:1020B000B0FBF1F86420B8FBF0F0040120096421C2
:1020C00001FB1089A88900F4004040B1322000EBE8
:1020D000C900B0FBF1F000F00700044308E0322033
:1020E00000EB09106421B0FBF1F000F00F00044395
:1020F0002C8106B0BDE8F0874FF416510160002135
:102100008180C18001810C21418100218181704742
:1021100010B502460020108A4FF2FF0318400B88CA
:102120004C8823438C882343CC8823431843108254
:1021300010BD0021018041808180C180704721B1A4
:10214000828942F40052828104E082894DF6FF7355
:102150001A4082817047F0B503460024002600250E
:10216000002040F66A17B94200D100BF1846C1F3FB
:10217000421401F01F06012707FA06F5012C01D1D0
:102180000C3004E0022C01D1103000E014301AB100
:1021900007682F43076002E00768AF430760F0BDA0
:1021A0001AB1838A0B43838202E0838A8B43838242
:1021B0007047028A4FF6F0731A400282028A0A437D
:1021C0000282704782894FF2FF731A4082818289AE
:1021D0000A438281704721B1828942F002028281E2
:1021E00004E082894FF6FD731A4082817047028AAB
:1021F0004FF6DF731A400282028A0A430282704756
:1022000021B1028A42F48042028204E0028A4BF643
:10221000FF731A4002827047C1F308028280704740
:1022200001468888C0F308007047818941F00101A8
:1022300081817047028BD2B20283028B42EA012273
:1022400002837047028B02F47F420283028B0A43AF
:102250000283704721B1828A42F02002828204E028
:10226000828A4FF6DF731A408282704721B1828AD8
:1022700042F01002828204E0828A4FF6EF731A4025
:102280008282704721B1828A42F00802828204E091
:10229000828A4FF6F7731A408282704721B1828991
:1022A00042F40042828103E08289C2F30E028281FD
:1022B000704721B1828A42F40062828204E0828AFD
:1022C0004FF2FF731A4082827047828A4FF6FB7387
:1022D0001A408282828A0A438282704721B1828AAE
:1022E00042F00202828204E0828A4FF6FD731A40B5
:1022F0008282704702460020B1F5007F00D100BF06
:1023000013880B400BB1012000E00020704701F45E
:102310000072B2F5007F00D100BFCA43028070474F
:1023200070B50246002400230025002040F66A16FE
:10233000B14200D100BFC1F3421501F01F030126D5
:1023400006FA03F3012D02D19689334006E0022DEF
:1023500002D1168A334001E0968A33400C120126DE
:1023600006FA04F41688344013B10CB1012000E0E1
:10237000002070BD10B50022002340F66A14A1426F
:1023800000D100BF0A1201249440A3B2DC430480B0
:1023900010BD0000003801400044004000480040EB
:1023A000004C0040005000408EB00026B24600F0C5
:1023B0005DFAE24908604FF4A060FDF7A3FF00F06A
:1023C000EDFE02F092FD4FF4614002F07BFA02F064
:1023D0000FFB02F076FB02F00DFC02F0BDFE02F0F6
:1023E00085FE00F0C4FA00F04DFB00F06EFF00F037
:1023F000ADFF02F01CFE00F0CFFBD1A20021084689
:1024000000F0AFFD00F0C8FB97E1D0A20021084624
:1024100000F0A7FDD2A20221002000F0A2FDD4A26C
:102420000421002000F09DFDD5A20621002000F02F
:1024300098FD0CA800F0E0FF012803D19DF8326060
:102440009DF830A000F052FF074603F07AF80446EA
:1024500002F0FAFD0546CF480660C0F804A084608B
:10246000C5604FF40061CC48FEF7FFFBCB49086024
:102470000221CB48FEF7F9FBCA490860C74800684B
:1024800008B1012000E00220C649096809B1032112
:1024900000E0042100FB01F94A460021C24802F095
:1024A00076FEC04800210268C04802F070FEBB48BA
:1024B00000210268BE4802F06AFEBB48006804289A
:1024C00008D1B9484068032804D1B248C069401C0B
:1024D000B049C861B4480068062810D1B2484068C5
:1024E00003280CD1AB48C069002803DC0020A949AF
:1024F000C86104E0A748C069401EA649C861002021
:1025000002F0B2FBAB4908700846007801280BD1F5
:102510000020087000F040FBA7A20221202000F05C
:1025200020FD01F01BFE7CE0A248007803280CD1BE
:102530000020A049087000F02FFB9FA2022120205C
:1025400000F00FFD01F0F4FF6BE09A4800780528D9
:102550000CD100209749087000F01EFB9AA20221BE
:10256000202000F0FEFC02F082F85AE0914800784A
:10257000042856D100208F49087000F00DFB95A269
:102580000021084600F0EDFC02232A4600212D2000
:1025900000F0BDFB94A20221002000F0E2FC5046B6
:1025A00002F0C6FF074602233A4619462D2000F0E6
:1025B000AEFB91A20421002000F0D3FC304602F0D3
:1025C000B7FF074602233A4604212D2000F09FFB67
:1025D0008DA20621002000F0C4FC02232246062121
:1025E0004D2000F094FB022000F039FE00F0D4FAF8
:1025F00088A20021084600F0B4FC6649C869C96990
:10260000491C644BD96102F093FF074602233A4606
:102610000021412000F07BFB022000F020FE00F0B2
:10262000BBFA7F49204602F0D9FF03D20120594965
:10263000086202E00020574908625648C06910B994
:102640000020544908627749284602F0D1FF03D898
:1026500001205049886102E000204E498861232E04
:1026600003DB01204B49486202E0002049494862EF
:102670004848C06930B900204649086210204649E0
:10268000103108604348406A012804D120204249A3
:102690001431086003E020203F49103108603D48B4
:1026A000006A012804D110203B491431086003E07E
:1026B000102039491031086036488069012804D15A
:1026C000B9215948FFF726FC03E0C3215648FFF71C
:1026D00021FC3048C06930B900202E490862102022
:1026E0002D49103108602B49886802F048FF0746E1
:1026F00088462849C86802F042FFCDE90A0125480A
:10270000406A2449096A234A9269224BDB69CDE970
:102710000632CDE908101F4800691E494969CDE914
:102720000278CDE90410DDE90A01CDE9000119487C
:10273000426801683DA003F053F966E6BC1600202C
:10274000B2E2CAD4B3CCD0F200000000BDCCD1A715
:10275000C2A5B9DCC0EDCFB5CDB32020000000008C
:102760004B31BCFCCCEDBCD3D6B8CEC620000000AB
:102770004B33BCFCC9BEB3FDD6B8CEC620000000AA
:102780004B35BCFCD1E9D6A4D6B8CEC6202020203B
:1027900000000000D8160020000801402C00002096
:1027A000000C0140300000205017002028170020A6
:1027B00000170020D1160020C7EBB0B4B9DCC0ED83
:1027C000D4B1D6B8CEC60000C7EBB0B4CAD6D6B81E
:1027D00000000000447573743A20202020202075EA
:1027E000672F6D3300000000CAAAB6C83A20202027
:1027F0002020202025000000CEC2B6C83A2020208C
:102800002020202043000000B9E2D5D5C7BFB6C8BC
:102810003A000000CAB5BCCAC8CBCAFD3A200000C5
:102820000000C84200004843002C014025642C25CC
:10283000642C25302E31662C25302E31662C2564F3
:102840002C25642C25642C25642C25642C256400FF
:10285000704700BFFEE700BFFEE700BFFEE700BF16
:10286000FEE770477047704770470000FC4900E082
:10287000521C11F8013B002BFAD150087047002080
:1028800001E0411CC8B20A28FBDB704710B580216B
:10289000F448FEF704FA4021F248FEF700FAFFF789
:1028A000EEFF8021EF48FEF7FCF9FFF7E8FF40213B
:1028B000EC48FEF7F6F9FFF7E2FF10BD10B58021F6
:1028C000E848FEF7EEF94021E648FEF7E8F9FFF7A1
:1028D000D6FF8021E348FEF7E2F910BD10B5802154
:1028E000E048FEF7DCF9FFF7CAFF4021DD48FEF7BC
:1028F000D6F9FFF7C4FF8021DA48FEF7B6F908B130
:10290000012400E000244021D648FEF7CAF9FFF771
:10291000B6FF204610BD10B58021D248FEF7C1F9A0
:10292000FFF7ADFF4021CF48FEF7B9F9FFF7A7FF4A
:102930004021CC48FEF7B5F9FFF7A1FF8021C94837
:10294000FEF7ADF910BD10B58021C648FEF7A7F916
:10295000FFF795FF4021C348FEF7A1F9FFF78FFF6E
:102960004021C048FEF79DF9FFF789FF10BD08B56B
:1029700001210820FEF7A2FBC020ADF800000320D3
:102980008DF8020014208DF803006946B548FEF763
:10299000D9F8FFF793FF08BD70B50446002523E082
:1029A00004F0800020B18021AE48FEF778F903E002
:1029B0008021AC48FEF775F9FFF761FF4021A94877
:1029C000FEF76DF9FFF75BFF4021A648FEF769F9B6
:1029D000072D03D18021A348FEF761F96006040E9C
:1029E000FFF74DFF681CC5B2082DD9DB70BD70B56F
:1029F0000024002516E06006040E40219948FEF7E9
:102A00004EF9FFF73CFF80219648FEF72EF908B1FA
:102A1000601CC4B240219348FEF743F9FFF72FFF33
:102A2000681CC5B2082DE6DB204670BD10B5044613
:102A3000FFF72CFF7820FFF7AFFFFFF74FFF0020D5
:102A4000FFF7AAFFFFF74AFF2046FFF7A5FFFFF7B2
:102A500045FFFFF733FF10BD10B50446FFF716FF23
:102A60007820FFF799FFFFF739FF4020FFF794FF29
:102A7000FFF734FF2046FFF78FFFFFF72FFFFFF729
:102A80001DFF10BD10B5642000F0C5FBAE20FFF7A0
:102A9000CDFF2020FFF7CAFF1020FFF7C7FFB020AF
:102AA000FFF7C4FFC820FFF7C1FF0020FFF7BEFFFC
:102AB0001020FFF7BBFF4020FFF7B8FF8120FFF792
:102AC000B5FFFF20FFF7B2FFA120FFF7AFFFA62061
:102AD000FFF7ACFFA820FFF7A9FF3F20FFF7A6FFF5
:102AE000A420FFF7A3FFD320FFF7A0FF0020FFF7EC
:102AF0009DFFD520FFF79AFFF020FFF797FFD92021
:102B0000FFF794FF2220FFF791FFDA20FFF78EFFF7
:102B10001220FFF78BFFDB20FFF788FF2020FFF755
:102B200085FF8D20FFF782FF1420FFF77FFFAF2086
:102B3000FFF77CFF10BD70B504460D4605F1B001EE
:102B4000C8B2FFF773FF102141EA1410FFF76EFFC0
:102B500004F00F0141F00100FFF768FF70BD70B590
:102B60000646002415E004F1B001C8B2FFF75EFF8D
:102B70000020FFF75BFF1020FFF758FF002504E05F
:102B80003046FFF769FF681CC5B2802DF8DB601C7A
:102B9000C4B2082CE7DB70BD10B50020FFF7DFFFE3
:102BA00010BD10B58D20FFF741FF1420FFF73EFF49
:102BB000AF20FFF73BFF10BD10B58D20FFF736FFAC
:102BC0001020FFF733FFAE20FFF730FF10BD2DE9D7
:102BD000F0470646894617469A464FF000080024FB
:102BE0000025BAF1010F03D0BAF1020F64D125E03C
:102BF00020E0785D203800F0FF087E2E04DD0026FE
:102C000009F1010000F0FF0949463046FFF793FF44
:102C1000002409E008EB4801134A02EB4101085D7A
:102C2000FFF71AFF601CC4B2062CF3DBB01DC6B25E
:102C3000681CC5B2785D0028DBD13DE038E0785DE6
:102C4000203800F0FF08782E04DD002609F101008D
:102C500000F0FF0949463046FFF76DFF00240DE004
:102C6000C8150020000C01400863000804EB08119F
:102C7000F74A505CFFF7F0FE601CC4B2082CF5DB8D
:102C800009F10100C1B23046FFF755FF002408E00A
:102C900004EB08110831EE4A505CFFF7DDFE601CC2
:102CA000C4B2082CF4DB06F10800C6B2681CC5B239
:102CB000785D0028C3D100BF00BFBDE8F0872DE9D3
:102CC000F04781460F4690461E4600244FEA4815BD
:102CD00039464846FFF72FFF00BF05E0705DFFF75C
:102CE000BBFE6D1C601CC4B2102CF7DB781CC1B29B
:102CF0004846FFF720FF002405E0705DFFF7ACFEBB
:102D00006D1C601CC4B2102CF7DBBDE8F0872DE908
:102D1000FE4F0646884691469A4600270024002525
:102D2000484602F02CFC02460B46CDE90001C9A141
:102D300002A802F065FEBAF1010F03D0BAF1020F4A
:102D40005BD124E01EE002A8405DA0F120077E2EAA
:102D500004DD002608F1010000F0FF08414630467E
:102D6000FFF7E9FE002408E007EB4701BB4A02EB4E
:102D70004101085DFFF770FE641C062CF4DBB01DFA
:102D8000C6B26D1C02A8405D0028DCD135E02FE002
:102D900002A8405DA0F12007782E04DD002608F18E
:102DA000010000F0FF0841463046FFF7C4FE002452
:102DB00006E004EB0711A64A505CFFF74DFE641CC9
:102DC000082CF6DB08F10100C1B23046FFF7B3FE74
:102DD000002407E004EB071108319D4A505CFFF71F
:102DE0003BFE641C082CF5DB06F10800C6B26D1C26
:102DF00002A8405D0028CBD100BF00BFBDE8FE8F18
:102E00002DE9F84F06468846924699460027002449
:102E10000025524692A1684602F0F2FDB9F1010F79
:102E200003D0B9F1020F5BD124E01EE01DF80500CC
:102E3000A0F120077E2E04DD002608F1010000F03D
:102E4000FF0841463046FFF776FE002408E007EB16
:102E50004701824A02EB4101085DFFF7FDFD641C5A
:102E6000062CF4DBB01DC6B26D1C1DF80500002851
:102E7000DCD135E02FE01DF80500A0F12007782E09
:102E800004DD002608F1010000F0FF08414630464D
:102E9000FFF751FE002406E004EB07116C4A505C7A
:102EA000FFF7DAFD641C082CF6DB08F10100C1B263
:102EB0003046FFF740FE002407E004EB071108311D
:102EC000634A505CFFF7C8FD641C082CF5DB06F173
:102ED0000800C6B26D1C1DF805000028CBD100BF4C
:102EE00000BFBDE8F88F10B50246012000E0504356
:102EF0000B1EA1F10104E1B2F9D110BD2DE9F041A1
:102F000007460E46904600250024A8F12000C5B2D1
:102F1000812F02DD0027B01CC6B231463846FFF7CC
:102F20000AFE002407E004EB05114E4A505CFFF74F
:102F300093FD601CC4B2082CF5DB701CC1B238468E
:102F4000FFF7F9FD002408E004EB05110831454ABC
:102F5000505CFFF781FD601CC4B2082CF4DBBDE8B7
:102F6000F0812DE9F047074688461646002594E093
:102F70003078A02843DD00253AE0702F04DD0027DB
:102F800008F1020000F0FF083078374911F81510F9
:102F900088422CD17078012101EB4501324A515C05
:102FA000884224D141463846FFF7C5FD002406E09B
:102FB00004EB45112D4A505CFFF74EFD641C102CAC
:102FC000F6D308F10100C1B23846FFF7B4FD002482
:102FD00007E004EB45111031244A505CFFF73CFD3B
:102FE000641C102CF5D307F11000C7B204E06D1C6F
:102FF0001F4800688542C0D300BFB61C4DE07A2F41
:1030000004DD002708F1020000F0FF0831781948BC
:1030100002F0F4F88146B9F1000F3DD04146384640
:10302000FFF789FD002409E099F80010203904EB2E
:1030300001110C4A505CFFF70FFD641C082CF3D300
:1030400008F10100C1B23846FFF775FD00241EE00B
:1030500030650008252E3166000000000863000876
:1030600025640000D8060020C8150020C80C0020E8
:10307000BC1600205916002099F80010203904EBE6
:1030800001110831444A505CFFF7E6FC641C082C2F
:10309000F2D307F10800C7B2761C307800287FF41D
:1030A00067AFBDE8F0872DE9F047054689469046B1
:1030B0001E46DDF820A000242FE0301B401EC1B2C8
:1030C0000A20FFF710FFB8FBF0F00A21B0FBF1F285
:1030D00001FB1207A7B9BAF1000F08D0082101FBC4
:1030E0000451C8B230224946FFF708FF07E0082123
:1030F00001FB0451C8B220224946FFF7FFFE0AE057
:1031000007F13001CAB2082101FB0451C8B2494697
:10311000FFF7F4FE00BF601CC4B2B442CDDBBDE8D3
:10312000F0872DE9F05F06460F4690461C46DDF815
:1031300028A04FF0000BE11704EB5171C910A4EB6C
:10314000C10131B92046E11704EB5171C1F3C70544
:1031500006E02046E11704EB5171C910491CCDB2BD
:103160003D4614E029463046FFF7E5FCB1460AE04B
:1031700059460BF1010B1AF80100FFF76DFC09F13C
:10318000010000F0FF09C145F2DB681CC5B2A54291
:10319000E8DBBDE8F09F0000D806002010B56FF016
:1031A0000400FDF7FEF8344800683449B0FBF1F044
:1031B000334908700846007800EB4001C1EBC010AD
:1031C0004FF6FF7101EAC0002E49088010BD01468C
:1031D0002B4A12784A434FF0E0235A6100229A6149
:1031E0001A46126942F001021A6100BF4FF0E02254
:1031F000106900F001021AB100F48032002AF5D003
:103200004FF0E022126922F001024FF0E0231A6130
:1032100000229A61704701461A4A12884A434FF0C9
:10322000E0235A6100229A611A46126942F00102B3
:103230001A6100BF4FF0E022106900F001021AB1DC
:1032400000F48032002AF5D04FF0E022126922F01B
:1032500001024FF0E0231A6100229A61704730B5F5
:103260000446002505E04FF47A70FFF7D4FF681C90
:10327000C5B2A542F7D330BD0000002000127A008D
:10328000C0160020C216002010B50446FFF7FEFA53
:103290004620FFF781FB2046FFF77EFBFFF70EFB82
:1032A00010BD10B5044600BFFFF7F0FA4620FFF747
:1032B00073FBFFF713FB0028F6D12046FFF76CFBEA
:1032C000FFF70CFBFFF7FAFA10BD10B50120FFF76E
:1032D000DBFF0120FFF7E5FF0720FFF7E2FF1120EA
:1032E000FFF7DFFFB420FFF796FF10BD10B5FFF723
:1032F000CDFA4720FFF750FBFFF7F0FAFFF777FB17
:103300000446FFF708FB4FF6FF7000EA0424FFF7BE
:103310006EFB204484B2FFF716FBFFF7CFFA20467E
:1033200010BD000008B501210820FDF7C7FE4FF4CD
:103330000050ADF8000010208DF8030003208DF838
:10334000020069465648FDF7FDFB08BD10B5FFF7C2
:10335000E9FF4FF400515248FDF7A1FC10BD08B53C
:103360004FF40050ADF8000048208DF80300694686
:103370004B48FDF7E7FB08BD08B54FF40050ADF82A
:10338000000010208DF8030003208DF8020069462C
:103390004348FDF7D7FB08BD70B50025002427E0A2
:1033A00000BF4FF400513E48FDF75FFC0028F8D005
:1033B0002820FFF70CFF4FF400513948FDF755FC6A
:1033C00001280ED100BF4FF400513548FDF74DFCE8
:1033D0000128F8D0C4F1070101208840C0B205439C
:1033E00004E0C4F10701012088408543601CC4B299
:1033F000082CD5DB284670BD10B50446FFF7BCFF8E
:103400004FF400512648FDF74CFC1220FFF703FF54
:103410004FF400512248FDF742FC1E20FFF7D7FE73
:10342000FFF79DFF4FF400511D48FDF71EFC88BBC0
:1034300000BF4FF400511A48FDF717FC0028F8D0E0
:1034400000BF4FF400511648FDF70FFC0128F8D0DB
:10345000FFF7A2FF2070FFF79FFF6070FFF79CFF50
:10346000A070FFF799FFE070FFF796FF2071FFF75C
:1034700083FF4FF400510A48FDF711FC2078617872
:103480000844A1780844E17808442179884202D1AF
:10349000012010BD01E00020FBE70020F9E700005B
:1034A000000C014000BFF749098801F040010029E4
:1034B000F9D0F449091D0880704710B5EF20FFF7D7
:1034C000F1FF0120FFF7EEFF10BD10B5EE490968CE
:1034D000080EFFF7E7FFEC480068C0F30740FFF76E
:1034E000E1FFE9480088C0F30720FFF7DBFFE6496A
:1034F0000878FFF7D7FF10BD10B504462046FFF748
:10350000D1FF10BD10B50446C4F30720FFF7CAFF72
:10351000E0B2FFF7C7FF10BD10B504462046FFF725
:10352000C1FF10BD10B504462012FFF7BBFFE0B28B
:10353000FFF7B8FF10BD7CB50546EF208DF8000001
:1035400001208DF80100D0480068000E8DF80200BF
:10355000CD480068000C8DF80300CB480088000AB5
:103560008DF80400C84800788DF8050007208DF814
:10357000060000208DF80700C449088012E00120F1
:10358000FFF749FEC148008800F4004050B1002018
:10359000BE4908806946BE4801F01EFE04460CB1D3
:1035A00020467CBD681E80B2051EE8D100BFF8E74A
:1035B00070B5FFF782FFFFF788FF0120FFF79CFF40
:1035C0000320FFF79FFF0120FFF7A6FF05263046E7
:1035D000FFF7A8FF4FF4FA60FFF7ADFF05460DB106
:1035E0006C7A00E0FF24204670BD2DE9F0410546CD
:1035F000FFF763FFFFF769FF0120FFF77DFF04205E
:10360000FFF780FF0220FFF787FF2846FFF74AFFFA
:10361000EF1D3846FFF786FF4FF4FA60FFF78BFF88
:1036200006460EB1747A00E0FF242046BDE8F08122
:1036300070B5FFF742FFFFF748FF0120FFF75CFF7F
:103640000320FFF75FFF0320FFF766FF07263046E2
:10365000FFF768FF4FF4FA60FFF76DFF05460DB105
:103660006C7A00E0FF24204670BD2DE9F0478146CA
:103670000D4616461F46FFF720FFFFF726FF0120E5
:10368000FFF73AFF0820FFF73DFF0420FFF744FF54
:103690004846FFF707FF2812FFF704FFE8B2FFF7DD
:1036A00001FF3012FFF7FEFEF0B2FFF7FBFE09F15B
:1036B0000D0000EB2520E9B2084400EB2620F1B212
:1036C00000EB010A5046FFF72DFF4FF4FA60FFF7B9
:1036D00032FF044664B194F80980E07AA17A00EBE5
:1036E00001203880607B217B00EB0120788001E0A5
:1036F0004FF0FF084046BDE8F08770B5FFF7DDFEEC
:10370000FFF7E3FE0120FFF7F7FE0320FFF7FAFEC5
:103710000520FFF701FF09263046FFF703FF4FF4AE
:10372000FA60FFF708FF05460DB16C7A00E0FF2450
:10373000204670BD2DE9F04106460C46FFF7BDFE60
:10374000FFF7C3FE0120FFF7D7FE0620FFF7DAFEE2
:103750000620FFF7E1FE3046FFF7A4FE2012FFF738
:10376000A1FEE0B2FFF79EFE06F10D0000EB242063
:10377000E1B200EB01084046FFF7D4FE4FF4FA60D7
:10378000FFF7D9FE07460FB17D7A00E0FF252846F6
:10379000BDE8F0812DE9F04104460D46FFF78DFEAE
:1037A000FFF793FE0120FFF7A7FE0720FFF7AAFE11
:1037B0000C20FFF7B1FE2012FFF774FEE0B2FFF716
:1037C00071FE2812FFF76EFEE8B2FFF76BFE1420C1
:1037D00000EB2420E1B2084400EB2520E9B200EB25
:1037E00001084046FFF79EFE4FF4FA60FFF7A3FE84
:1037F00007460FB17E7A00E0FF263046BDE8F08133
:1038000070B5FFF75AFEFFF760FE0120FFF774FE68
:103810000320FFF777FE0D20FFF77EFE11263046CE
:10382000FFF780FE4FF4FA60FFF785FE05460DB105
:103830006C7A00E0FF24204670BD0146212920D289
:10384000DFE801F011131517191B1D6E70727476E5
:103850008C8C8C8C787A8C8C8C7C8C8C7E8082840A
:10386000868C8C888A000BA07AE00FA078E013A0E9
:1038700076E017A074E01BA072E01FA070E023A008
:103880006EE06BE000480040C4160020CE16002019
:1038900082170020202020202020204F4B20202095
:1038A000202020200000000020CAFDBEDDB0FCBDAD
:1038B000D3CAD5B4EDCEF32000000000B4ABB8D02D
:1038C000C6F7C9CFC3BBD3D0CAD6D6B80000000054
:1038D000C2BCC8EBD6B8CEC6CDBCCFF1CAA7B0DC4F
:1038E0000000000020D6B8CEC6CCABB8C9BBF2CC25
:1038F000ABB5AD200000000020D6B8CEC6CCABCA18
:10390000AABBF2CCABBAFD20000000002020D6B844
:10391000CEC6CDBCCFF1CCABC2D22020000000007F
:10392000C2A01DE0C6A01BE0CAA019E0CEA017E00F
:10393000D2A000BFD6A013E0DAA011E0DEA00FE015
:10394000E2A00DE0E6A00BE0EAA009E0EEA007E0AF
:10395000F2A005E0F6A003E0FAA001E0FEA000BF9F
:1039600000BF70472DE9F04706460D46FFF7A5FD5D
:10397000FFF7ABFD0120FFF7BFFD0520FFF7C2FDFC
:103980000E20FFF7C9FD3046FFF78CFD2846FFF7F4
:1039900089FD701900F114084046FFF7C3FD4FF48C
:1039A000FA60FFF7C8FD07460FB17C7A00E0FF24FC
:1039B0001CB9EEA002F014F807E02046FFF73DFF27
:1039C00081464946EEA002F00BF82046BDE8F0879C
:1039D0002DE9F0410546FFF770FDFFF776FD012068
:1039E000FFF78AFD0320FFF78DFD0F20FFF794FD01
:1039F00013273846FFF796FD4FF47A70FFF79BFDCB
:103A00000446BCB1667AE07BA17B00EB01202880F4
:103A1000607CA870A07C0006E17C00EB0140217D69
:103A200000EB0120617D08446860E07D2872607EC3
:103A3000687200E0FF26A6B92988D3A001F0D0FF64
:103A4000A978D7A001F0CCFFD9A0696801F0C8FF20
:103A5000687A4FF4165200FB02F1D8A001F0C0FFC3
:103A600007E03046FFF7E9FE80464146C4A001F07A
:103A7000B7FF3046BDE8F0812DE9F0410446FFF77D
:103A80001CFDFFF722FD0120FFF736FD0720FFF7A1
:103A900039FD1520FFF740FD200EFFF703FDC4F3AD
:103AA0000740FFF7FFFCC4F30720FFF7FBFCE0B281
:103AB000FFF7F8FC1D2000EB1460C4F30741084435
:103AC000C4F307210844E1B247183846FFF72AFD3E
:103AD000BD4804604FF4FA60FFF72DFD06460EB1B5
:103AE000757A00E0FF25B84804601DB9B7A001F061
:103AF00077FF07E02846FFF7A0FE80464146A0A0DA
:103B000001F06EFF2846BDE8F0812DE9F0478146BF
:103B10000E46FFF7D2FCFFF7D8FC0120FFF7ECFCC4
:103B20002420FFF7EFFC1820FFF7F6FC4846FFF7CC
:103B3000B9FC002407E0305DFFF7B4FC305D384489
:103B400087B2601CC4B2202CF5DB09F13D0038447B
:103B500087B23846FFF7E6FC4FF4FA60FFF7EBFC5C
:103B6000054615B195F8098001E04FF0FF08404681
:103B7000BDE8F0872DE9F04707468846FFF79DFC32
:103B8000FFF7A3FC0120FFF7B7FC0420FFF7BAFC06
:103B90001920FFF7C1FC3846FFF784FC07F11E0926
:103BA0004846FFF7BFFC4FF4FA60FFF7C4FC064637
:103BB00066B1757A002406E004F10A00305C08F86A
:103BC0000400601CC4B2202CF6DB00E0FF25284670
:103BD000BDE8F0872DE9F04781460D4616461F46A1
:103BE000FFF76BFCFFF771FC0120FFF785FC082055
:103BF000FFF788FC1B20FFF78FFC4846FFF752FCBD
:103C00002812FFF74FFCE8B2FFF74CFC3012FFF729
:103C100049FCF0B2FFF746FC09F1240000EB252037
:103C2000E9B2084400EB2620F1B2D9E020D6B8CEA4
:103C3000C6CCD8D5F7B5E3CCABC9D920000000007D
:103C40002020D6B8CEC6B2BBC6A5C5E42020202011
:103C50000000000020C3BBD3D0CBD1CBF7B5BDD67D
:103C6000B8CEC62000000000202020CCD8D5F7BA5E
:103C7000CFB2A2CAA7B0DC2000000000B5D8D6B7EA
:103C8000D0F2BAC5B3ACB3F6B7B6CEA70000000009
:103C90002020C9BEB3FDC4A3B0E5CAA7B0DC202074
:103CA0000000000020C7E5BFD5D6B8CEC6BFE2CA27
:103CB000A7B0DC2000000000BBBAB3E5C7F8C4DA47
:103CC000CEDED3D0D0A7CDBC0000000020B6C1D03E
:103CD000B4464C415348B3F6B4ED20200000000038
:103CE000202020CEB4B6A8D2E5B4EDCEF32020201B
:103CF000000000002020CEDED0A7BCC4B4E6C6F78A
:103D0000BAC520200000000020BCC4B4E6C6F7C439
:103D1000DAC8DDB4EDCEF3200000000020BCC7CA35
:103D2000C2B1BED2B3C2EBB4EDCEF32000000000AE
:103D300020202020D6B8CEC6BFE2C2FA2020202004
:103D40000000000020202020B5D8D6B7B4EDCEF377
:103D5000202020200000000020B7B5BBD8C8B7C87D
:103D6000CFC2EBD3D0CEF320000000000D0AC9E88B
:103D7000D6C3B2CECAFDB3C9B9A6A3A10000000044
:103D80000D0A2573000000000D0AC4A3BFE9D7EE99
:103D9000B4F3D6B8CEC6C8DDC1BF3D25640000006F
:103DA0000D0AB6D4B1C8B5C8BCB63D256400000044
:103DB0000D0AB5D8D6B73D25780000000D0AB2A887
:103DC000CCD8C2CA3D256400C41600200D0AC9E83B
:103DD000D6C3B5D8D6B7B3C9B9A6A3A10000000011
:103DE00000EB010A5046FFF79DFB4FF4FA60FFF726
:103DF000A2FB044664B194F80980E07AA17A00EB52
:103E000001203880607B217B00EB0120788001E07D
:103E10004FF0FF084046BDE8F0872DE9F041064627
:103E2000FFF74BFBFFF751FB0120FFF765FB03207A
:103E3000FFF768FB1D20FFF76FFB21273846FFF7D0
:103E400071FB4FF4FA60FFF776FB044634B1657AF4
:103E5000E07AA17A00EB0120308000E0FF253DB937
:103E6000E07AA27A00EB0221FCA001F0B9FD08E0A3
:103E70002846FFF7E2FC80464146AFF2FC0001F025
:103E8000AFFD2846BDE8F08110B50446FFF715FBED
:103E9000FFF71BFB0120FFF705FB0020FFF702FBEC
:103EA0000020FFF7FFFAC820FFF7B5F9F0480088B7
:103EB00000F4004008B3EF480078EF281AD1ED482D
:103EC0004078012816D1EB488079072812D1E948BB
:103ED00080780006E749C97800EB0140E549097997
:103EE00000EB0120E3494979084420600020E049C3
:103EF000088010BD0020DE4908800120F9E77047E6
:103F0000F8B50027002525E1052F28D2DFE807F0C6
:103F100003285280A700701CC6B2D7A2022100203D
:103F2000FFF71FF8FFF744FB0446ACB90120FFF789
:103F30005CFB044664B9D5A202210020FFF711F80A
:103F4000D7A204210020FFF70CF80026012706E085
:103F50002046FFF7D4FF02E02046FFF7D0FFF1E054
:103F6000701CC6B2D3A202210020FEF7FAFFCCA239
:103F700004210020FEF7F5FFFFF71AFB0446ACB959
:103F80000220FFF732FB044664B9C0A202210020E0
:103F9000FEF7E7FFC2A204210020FEF7E2FF0026A1
:103FA000022706E02046FFF7AAFF02E02046FFF7BF
:103FB000A6FFC7E0C4A202210020FEF7D2FFB8A2EC
:103FC00004210020FEF7CDFFFFF732FB04465CB969
:103FD000C2A202210020FEF7C4FFB1A204210020EA
:103FE000FEF7BFFF03270EE0C1A202210020FEF76B
:103FF000B8FFABA204210020FEF7B3FF2046FFF775
:104000007EFF002600274FF4FA70FFF704F999E0CD
:10401000BCA202210020FEF7A4FFA1A204210020DF
:10402000FEF79FFF4FF4FA70FFF7F5F8FFF765FB17
:1040300004465CB9B8A202210020FEF792FF98A2C4
:1040400004210020FEF78DFF042703E0002720460F
:10405000FFF755FF4FF47A70FFF7DDF872E0B3A277
:1040600000210846FEF77DFFB4A202210020FEF7E2
:1040700078FFB7A204210020FEF773FF26E000209E
:1040800000F0F2FDB749087008460078052805D110
:1040900000200870002D01DD681EC5B2B14800780F
:1040A000042806D10020AF490870632D01DA681C8E
:1040B000C5B2ADA206212820FEF753FF012002233E
:1040C0002A46062100904120FEF7EDFFA548007822
:1040D0000328D4D10020A349087029460220FFF705
:1040E00029FB0446002C26D1FEF756FD9FA2022193
:1040F0000020FEF736FF6AA204210020FEF731FF00
:1041000040F2DC50FFF787F8FEF746FD9CA2002145
:104110000846FEF726FF9EA202210020FEF721FF9F
:104120009FA204210020FEF71CFFA1A2062100206F
:10413000FEF717FFF8BDFEF72FFD00272046FFF71B
:10414000DEFE00BF00BF4FF4C870FFF764F8142E06
:1041500000D100E0D8E600BF00BFEBE738B54FE084
:10416000002000F081FD7F490870FFF721FA044626
:10417000002C45D10120FFF738FA0446002C38D135
:104180006B46632200210120FFF724FD04463CBB5F
:10419000BDF800008A4908600846006890B989A205
:1041A00002210020FEF7DDFE40F2DC50FFF733F87D
:1041B000FEF7F2FC88A202212020FEF7D2FEFFF7D4
:1041C0009FFE04E087A202212020FEF7CAFE40F2F3
:1041D000DC50FFF720F840F2DC50FFF71CF808E055
:1041E00080A202212020FEF7BCFE40F2DC50FFF747
:1041F00012F8FEF7D1FC78A202212020FEF7B1FED2
:10420000584800780128ABD1FEF7C6FC5CA200211B
:104210000846FEF7A6FE5EA202210020FEF7A1FEE0
:104220005FA204210020FEF79CFE61A2062100206F
:10423000FEF797FE38BD38B500246DA20021084670
:10424000FEF78FFE6FA202210020FEF78AFE72A207
:1042500004210020FEF785FE30E100000D0AD3D0D6
:10426000D0A7D6B8CEC6B8F6CAFD3D25640000007A
:10427000CE1600208217002020202020C7EBB0B4EB
:10428000CAD6D6B820202020000000002020202000
:10429000D6B8CEC6D5FDB3A3202020200000000054
:1042A000202020202020202020202020202020200E
:1042B00000000000202020C7EBD4D9B0B4D2BBB49A
:1042C000CE202020000000002020B6D4B1C8C1BDFF
:1042D000B4CED6B8CEC6202000000000202020207A
:1042E000B6D4B1C8B3C9B9A6202020200000000070
:1042F00020202020B6D4B1C8CAA7B0DC20202020BE
:10430000000000002020C9FAB3C9D6B8CEC6C4A3A5
:10431000B0E5202000000000C9FAB3C9D6B8CEC667
:10432000C4A3B0E5B3C9B9A60000000020B0B44BE7
:1043300034BCD32CB0B44B35BCF520002020202059
:10434000B0B44B33B1A3B4E620202020000000001D
:104350002020303D3C204944203C3D39392020205C
:1043600000000000D116002049443D002020C2BCBE
:10437000C8EBD6B8CEC6B3C9B9A62020000000004D
:10438000BDCCD1A7C2A5B9DCC0EDCFB5CDB300007F
:104390004B31BCFCCCEDBCD3D6B8CEC6000000007F
:1043A0004B33BCFCC9BEB3FDD6B8CEC6000000007E
:1043B0004B35BCFCD1E9D6A4D6B8CEC6000000006F
:1043C000280000202020D6B8CEC6D1E9D6A4B3C993
:1043D000B9A6202000000000C7EBB0B4CAD6D6B8FA
:1043E00000000000D1E9D6A4CAA7B0DC000000009C
:1043F0004B34BCD3204B31BCF5204B33C8B7C8CFAE
:104400000000000020204B35C7E5BFD5D6B8CEC68A
:10441000BFE22020000000004B31B7B5BBD82030F0
:104420003D3C49443C3D393900000000002000F08B
:104430001BFCE249087008460078012805D10020DD
:104440000870002C01DD601E84B2DC48007804286E
:1044500006D10020D9490870632C01DA601C84B2AF
:10446000D6480078012800D142E0D44800780528D9
:1044700016D10020D1490870FFF7C2F905463DB9B1
:10448000FEF78AFBCEA202210020FEF76AFD02E0C1
:104490002846FFF734FD40F2DC50FEF7BCFE27E073
:1044A000AFF23C1206212820FEF75BFD012002231B
:1044B0002246062100904120FEF7F5FDBF48007816
:1044C0000328B3D101212046FFF764F905463DB921
:1044D000FEF762FBBFA202210020FEF742FD02E0D0
:1044E0002846FFF70CFD40F2DC50FEF794FE00BFBB
:1044F000FEF752FBAFF2781200210846FEF731FDBD
:10450000AFF2741202210020FEF72BFDAFF2701201
:1045100004210020FEF725FDAFF26C1206210020D9
:10452000FEF71FFD4FF44E71AF48FCF7B8FB38BDE6
:1045300038B55AE0002000F097FBA0490870FFF75B
:1045400037F80446002C50D10120FFF74EF80446FE
:10455000002C42D16B46632200210120FFF73AFB79
:1045600004467CBBBDF80000A0490860084600680E
:1045700070B9AFF2B01202210020FEF7F2FC40F257
:10458000DC50FEF748FEFEF707FBFFF754FE05E0A0
:10459000AFF2B01202212020FEF7E3FCBDF80020AC
:1045A000022304210020FEF72BFCBDF800008F49F8
:1045B000086040F2DC50FEF72EFE40F2DC50FEF7C1
:1045C0002AFE0AE0FFE7AFF2E41202212020FEF704
:1045D000C8FC40F2DC50FEF71EFEFEF7DDFAAFF23B
:1045E000082202212020FEF7BCFC74480078012834
:1045F000A0D1FEF7D1FAAFF2782200210846FEF7EB
:10460000B0FCAFF2742202210020FEF7AAFCAFF248
:10461000702204210020FEF7A4FCAFF26C220621D8
:104620000020FEF79EFC38BD70B5FEF746FFFEF792
:104630004CFF0120FEF760FF0320FEF763FF1D2003
:10464000FEF76AFF21263046FEF76CFF4FF4FA6052
:10465000FEF771FF04460CB1657A00E0FF2525B92D
:10466000E07AA17A00EB012070BD0020FCE72DE983
:10467000F043EBB000264FF4C87106A800F0A1FD8E
:10468000FFF7D2FF074661E0002000F0EDFA4B494A
:104690000870FEF78DFF0546002D57D10120FEF76B
:1046A000A4FF0546002D49D16AAB632200210120F9
:1046B000FFF790FA0546002D36D1BDF8A80106A9EE
:1046C00051F8200001280DD149A202210020FEF757
:1046D00048FC40F2DC50FEF79EFD40F2DC50FEF755
:1046E0009AFD2BE00120BDF8A81106AA42F821008E
:1046F000AFF2303202210020FEF733FCBDF8AA31C0
:10470000BDF8A8213EA101A801F07AF901AA04216F
:104710000020FEF726FC40F2DC50FEF77CFD40F264
:10472000DC50FEF778FD09E0AFF24832022120208C
:10473000FEF717FC40F2DC50FEF76DFDFEF72CFA99
:10474000AFF26C3202212020FEF70BFC1B480078F0
:10475000032899D1002406E006A850F82400012877
:1047600000D1761C641CBC42F6DBFEF715FA28A2C9
:1047700000210846FEF7F5FB384600F0D9FE8146D9
:1047800000F0E4FE80460223424619462D20FEF743
:1047900037FB22A204210020FEF7E3FB022332466E
:1047A00006212D20FEF72CFB20480761466140F2D0
:1047B000DC50FEF730FD6BB0BDE8F083D116002071
:1047C00020C7E5BFD5D6B8CEC6BFE2B3C9B9A620CB
:1047D000000000002020C9BEB3FDD6B8CEC6B3C9C4
:1047E000B9A6202000000000000C01402800002095
:1047F0002020D2D1C7A9B5BD202020202000000054
:104800002049443A256420B5C3B7D63A2564200030
:10481000D0E8C7A9B5BDC8CBCAFD0000CAB5BCCA9F
:10482000C7A9B5BDC8CBCAFD00000000D81600203E
:1048300010B540F22551E548FDF772FD90B1E3480F
:10484000FDF7EEFCC4B2012C02D10120E0498861E1
:10485000022C02D10120DE490862032C02D1012082
:10486000DB49486210BD10B540F22551D948FDF72B
:1048700057FDF8B1D748FDF7D3FCC4B2D64800883D
:1048800000F40040B0B9D4480088B0F5C87F12DA0F
:104890000021D248FDF73AFBCF48008818B9012122
:1048A000CE48FDF79FF8CC490888411CCA4A1180C0
:1048B000CB490C5405E0C848008840F40040C64984
:1048C000088010BD10B586B0044601210820FCF711
:1048D000F5FB01218804FCF7FEFBBE48FDF760FBF9
:1048E0004FF48060ADF8100003208DF812001820FE
:1048F0008DF8130004A9BB48FCF724F94FF40060BD
:10490000ADF8100004208DF8130004A9B548FCF799
:1049100019F900940020ADF80400ADF80600ADF8D8
:104920000800ADF80C000C20ADF80A006946A94853
:10493000FDF779FB0121A748FDF701FC012240F2B8
:104940002551A448FDF707FC27208DF8140002200C
:104950008DF8150003208DF8160001208DF8170042
:1049600005A8FBF7D4FC41F61F41632000F0D0F905
:1049700000209949088000219848FDF733F806B0D7
:1049800010BD0FB438B505A800909748009A049957
:1049900001F04AF800200090934800F039FC85B2FD
:1049A00000240DE000BF40218A48FDF7A3FC002849
:1049B000F9D08D48015D8748FDF72EFC601C84B25C
:1049C000AC42EFDB38BC5DF814FB08B54FF4A060D7
:1049D000FBF798FC25208DF8000001208DF80100E0
:1049E0008DF802008DF803006846FBF790FC08BDC7
:1049F00000B585B001210420FCF760FB012188038C
:104A0000FCF75CFB4FF40070ADF8100018208DF837
:104A1000130003208DF8120004A97448FCF792F8E3
:104A20004FF48060ADF8100004208DF8130004A945
:104A30006E48FCF787F84FF4E13000900020ADF8A5
:104A40000400ADF80600ADF80800ADF80C000C202D
:104A5000ADF80A0069465D48FDF7E5FAFFF7B5FFD6
:104A6000012240F225515948FDF775FB01215748B5
:104A7000FDF765FB05B000BD70B504460D46E1B21B
:104A80005248FDF7C9FB00BF80215048FDF732FCBA
:104A90000028F9D0204670BD08B54FF4A060FBF7A0
:104AA00031FC26208DF8000002208DF80100032043
:104AB0008DF8020001208DF803006846FBF727FC03
:104AC00008BD00B585B001210420FCF7F7FA0121EB
:104AD0004804FCF700FB0420ADF8100018208DF806
:104AE000130003208DF8120004A94048FCF72AF8AF
:104AF0000820ADF8100004208DF8130004A93B48ED
:104B0000FCF720F84FF4E13000900020ADF80400ED
:104B1000ADF80600ADF80800ADF80C000C20ADF8BB
:104B20000A0069463248FDF77EFAFFF7B5FF012219
:104B300040F225512E48FDF70EFB01212C48FDF7D0
:104B4000FEFA05B000BD70B504460D462946204664
:104B5000FDF762FB00BF80212046FDF7CBFB00285C
:104B6000F9D070BD70B506460C46002500BF615DEA
:104B70003046FFF7E8FF6D1C605D0028F7D100BFED
:104B800040213046FDF7B6FB0028F9D070BD2DE975
:104B9000F04105460C46260AE7B231462846FDF7A5
:104BA0003BFB00BF80212846FDF7A4FB0028F9D07D
:104BB00039462846FDF730FB00BF80212846FDF727
:104BC00099FB0028F9D0BDE8F081000000380140D1
:104BD000D816002000480040CE16002000080040F3
:104BE00082170020000C014012190020000801402B
:104BF0000044004008B501210820FCF75FFA20209E
:104C0000ADF8000048208DF8030069463D48FBF7E9
:104C100099FF0820ADF8000048208DF80300694690
:104C20003848FBF78FFF1020ADF8000048208DF8C2
:104C3000030069463348FBF785FF4FF48070ADF8F9
:104C4000000048208DF8030069462E48FBF77AFFE4
:104C50004FF40070ADF8000048208DF8030069465D
:104C60002848FBF76FFF08BD10B5044614B10120BA
:104C7000254908702448007801282BD12348006872
:104C800058B12248001F006838B120480C30006835
:104C900018B11E4810300068E0B90A20FEF7BBFAD0
:104CA0000020194908701948006808B9012010BD92
:104CB00016481030006808B90520F8E71348001FAF
:104CC000006808B90320F2E710480C30006808B902
:104CD0000420ECE70D480068012810D10B48001FA4
:104CE000006801280BD109480C300068012806D162
:104CF000064810300068012801D1034908700020DF
:104D0000D5E70000000C0140D0160020148121429C
:104D10007FB505460C4601210420FCF7DCF9ADF80F
:104D20000450ADF800400020ADF80600ADF80200D8
:104D300069463448FCF7FAFA012211463148FCF77B
:104D40006CFE01212F48FCF74DFE1E208DF80C0053
:104D500000208DF80D0002208DF80E0001208DF846
:104D60000F0003A8FBF7D3FA7FBD7FB505460C46BD
:104D700001210220FCF7AFF9ADF80850ADF804406E
:104D80000020ADF80A00ADF8060001A91E48FCF7A6
:104D9000CDFA012211461C48FCF73FFE1D208DF87C
:104DA000000000208DF8010001208DF802008DF830
:104DB00003006846FBF7ABFA01211348FCF712FE2B
:104DC0007FBD10B501210F48FDF7D5F868B10F4838
:104DD000008840F400400D49088001210948FDF792
:104DE000DBF800210748FCF7FDFD10BD10B50121DF
:104DF0000548FDF7C0F818B101210348FDF7CCF8CC
:104E000010BD00000008004000040040CE16002045
:104E100008B501210420FCF751F94FF48070ADF87A
:104E2000000018208DF8030003208DF80200694669
:104E30003148FBF787FE01210820FCF73FF94FF4CA
:104E40000050ADF8000018208DF8030003208DF805
:104E5000020069462948FBF775FE4FF48051274848
:104E6000FBF71FFF08BD00B587B00121C802FCF7A2
:104E700025F9C720ADF8140041F61F40ADF8100029
:104E80000020ADF81600ADF812008DF8180004A946
:104E90001B48FCF74BFA7020ADF800000120ADF87C
:104EA00002000420ADF80400C320ADF80600002085
:104EB000ADF80800ADF80A004FF48070ADF80C00B2
:104EC0000020ADF80E0069460D48FCF76CFA082189
:104ED0000B48FCF7B7FE01210948FCF783FD0121CF
:104EE0000748FCF78BFD07B000BD10B5FFF790FF3A
:104EF000FFF7B9FF10BD000000080140000C0140A1
:104F0000002C014008B501211020FCF7D7F84FF420
:104F10008040ADF8000010208DF8030003208DF8CC
:104F2000020069466648FBF70DFE08BD08B5012181
:104F30000420FCF7C3F80120ADF8000000208DF834
:104F4000030069465F48FBF7FDFD08BD00B591B061
:104F500001210846FCF7A5F801214802FCF7AEF84C
:104F60005948FBF765FC59480690594807900020BE
:104F700008900120099000200A900B904FF4807057
:104F80000C9080000D9020200E9000020F900020C9
:104F9000109006A94C48FBF7EDFC01214A48FBF7AD
:104FA00014FD002001908DF8080001208DF8090003
:104FB0004FF4602003900020049001208DF814002D
:104FC00001A942484C38FBF732FA4FF44040FBF756
:104FD000D9FF0723012200213C484C38FBF7BFFAD8
:104FE00001213A484C38FBF759FA012137484C382F
:104FF000FBF749FA35484C38FBF767FA00BF3348EE
:105000004C38FBF767FA0028F9D130484C38FBF7E9
:105010006BFA00BF2D484C38FBF76BFA0028F9D12A
:1050200001212A484C38FBF76EFA11B000BD10B5CB
:10503000FFF768FFFFF77AFF4FF480412048FBF746
:105040002EFEFFF783FF10BD2DE9F84F4FF480418E
:105050001B48FBF726FE4FF48C70FEF7B8F81C488F
:10506000008800F06EFA05461A4900F0D8F80446A8
:10507000194900F006F983461320FEF7A8F84FF40B
:1050800080410F48FBF70BFE42F2D050FEF79FF82D
:105090001249584600F0C3F8009000F070FA8046BC
:1050A0000F4A104B00F02BF9064600220E4B00F081
:1050B000CDF9044600F076FA82465046BDE8F88FF6
:1050C0000010014000080140080002404C2401404B
:1050D000D21600203333534000F07F45D8F0343EE1
:1050E0004D158C4AEA04C43F00408F4008B50121A9
:1050F0000C20FBF7E3FF2020ADF8000010208DF816
:10510000030003208DF8020069461148FBF71AFDE1
:105110000120ADF8000069460E48FBF713FD102092
:10512000ADF8000069460A48FBF70CFD202108484D
:10513000FBF7B5FD01210748FBF7B1FD102104483D
:10514000FBF7ADFD08BD2022014B14331A607047F8
:1051500000080140000C014008B501210C20FBF7BC
:10516000ADFF4FF40060ADF8000048208DF803005B
:1051700069460E48FBF7E6FC0220ADF80000482027
:105180008DF8030069460A48FBF7DCFC08BD10B542
:105190000B46092105E04C1E50F8244040F8214000
:1051A000491E9942F7DA40F8232010BD000801405B
:1051B000000C0140D2B201E000F8012B491EFBD2E5
:1051C00070470022F6E710B513460A460446194612
:1051D000FFF7F0FF204610BD30B505462A460B46C6
:1051E00012F8010B13F8014B08B1A042F8D01CB122
:1051F000002802D06D1CF1E7284630BDCAB2401E1F
:1052000010F8011F8A4202D00029F9D1002070470E
:10521000421C10F8011B0029FBD1801A704780EA5C
:10522000010210B502F00043400022D04A001FD016
:10523000010E01EB1261C0F35600C2F3560240F4B6
:10524000000042F40002A0FB022000047F39140495
:1052500000D0401C50EA124001D44000491EC2B2A6
:105260000C0604EBD010401C4008802A02D003E05A
:10527000002010BD20F00100002900DA00201843B2
:1052800010BD30B480EA010202F0004530F0004267
:1052900021F0004013D090B1C30DD40DC2F316011C
:1052A000C0F31600E41A41F4000140F400027D341A
:1052B000914201D3641C00E04900002C02DA30BCAA
:1052C000002070474FF400000023914201D3891A57
:1052D000034340084FEA4101F7D151B1914202D155
:1052E0004FF0004105E002D24FF0010101E06FF004
:1052F000010103EBC450284430BC00F0EBB92DE9A8
:10530000FE4F804681EA0300C00F0C46009021F05A
:10531000004123F00045B8EB0200A94105D2404608
:10532000214690461C460B46024623F0004010439F
:1053300047D0270DC7F30A00C3F30A510290401A61
:10534000019040286BDAC3F3130040F4801B0098EF
:10535000924620B10023D2EB030A63EB0B0B0198BA
:105360005946C0F14002504600F093F906460D46FA
:1053700050465946019A00F09BF910EB0800614134
:10538000002487EA115284EAE7731A4340D0009A56
:1053900062B3019A012A4FEA075215DC001B61EB48
:1053A00002014FF0004202EA0752CDE90042001C20
:1053B00041F5801132462B4600F0D2F903B0BDE82A
:1053C000F08F40462146F9E7001B61EB0201001C0B
:1053D00041F5801300185B412018A2F5001747EB38
:1053E000030140EAD570B6196D4111E06D084FEA2E
:1053F000360645EAC0754FEA0752001B61EB020111
:10540000001C41F5801149084FEA30000019514154
:1054100032462B4603B0BDE8F04F00F092B9009839
:10542000012240000023D0EB020263EBE0730098FE
:1054300021464FEAE074B8EB000061EB0401E9E7B4
:1054400083F000435BE781F0004158E72DE9FE4F10
:1054500081EA030404F0004421F0004100944FF07D
:10546000000B23F0004350EA01045ED052EA03042B
:105470005BD0C3F30A54C1F30A552C44A4F2F334AD
:105480000194A0FB0254C1F3130141F48011C3F352
:10549000130343F4801301FB024400FB034E840A10
:1054A000970A44EA815447EA8357A4FB07680295A8
:1054B0008D0A05FB07854FEA932C04FB0C54270546
:1054C000029D4FEA065847EA1637B5EB08056EEB22
:1054D000070C870E920E47EA811742EA8312A7FB58
:1054E0000201B6EB0B0164EB00042B0D43EA0C3315
:1054F0005E1844EB1C50DA465146E7FB0201C5F347
:1055000013044FEA0B3343EA14534FEA0432019C6D
:1055100043EA0603A4F10C040294009CCDE900B414
:1055200000F01EF903B0BDE8F08F00200146F9E756
:10553000C10F80EAE0700844CA079623002100F0FA
:10554000D2B896230022114600F0CDB800F00042F8
:1055500020F00040C10DC0F3160040F400007F2988
:1055600001DA00207047962903DCC1F19601C8409A
:1055700001E096398840002AF4D04042704700F09C
:10558000004230F000400AD0C10D01F56071C0F357
:10559000160042EA0151C20840071143704700203B
:1055A0000146704701F0004330B421F0004150EA59
:1055B000010206D00A0DA2F56072C1F31301002AA0
:1055C00002DC30BC00207047440F44EAC104C10033
:1055D000E01830BC00EBC25000F07CB8002801DBC2
:1055E000C0F10040002901DBC1F100418142704758
:1055F000002801DBC0F10040002901DBC1F10041BE
:105600008842704730B50B46014600202022012415
:1056100009E021FA02F59D4205D303FA02F5491B80
:1056200004FA02F52844151EA2F10102F1DC30BD96
:105630002DE9F05F0546002092469B4688460646C7
:10564000814640241BE0284641464746224600F05A
:1056500087F953465A46C01A914110D3114618464D
:10566000224600F016F82D1A67EB01084F46224635
:105670000120002100F00DF817EB00094E41201E1B
:10568000A4F10104DFDC484631462A464346BDE822
:10569000F09F202A04DB203A00FA02F10020704734
:1056A0009140C2F1200320FA03F319439040704760
:1056B000202A06DBCB17203A41FA02F043EAE073D6
:1056C00006E041FA02F3D040C2F1200291400843C3
:1056D000194670470029A8BF7047401C490008BF01
:1056E00020F00100704710B4B0FA80FC00FA0CF012
:1056F00050EA010404BF10BC704749B1CCF120044A
:1057000021FA04F411FA0CF118BF012121430843D6
:10571000A3EB0C01CB1D4FEA00614FEA102042BF02
:10572000002010BC704700EBC35010440029A4BFF8
:1057300010BC7047401C490008BF20F0010010BC9D
:10574000704710B5141E73F1000408DA401C41F1D3
:10575000000192185B411A4301D120F0010010BDF5
:105760002DE9F04D92469B4611B1B1FA81F202E06B
:10577000B0FA80F220329046FFF78BFF04460F46C6
:1057800040EA0A0041EA0B0153465A46084313D047
:10579000114653EA010019D0C8F14002504600F00A
:1057A000DFF805460E46504659464246FFF771FF60
:1057B000084305D0012004E020463946BDE8F08DBD
:1057C0000020054346EAE0762C4337430A986305F8
:1057D000E40AA0EB08000022FD0A44EA47540A301C
:1057E00002D500200146E9E7010510196941DDE90C
:1057F000084500196941BDE8F04DA2E72DE9F04DDB
:1058000081EA030404F0004B21F0004514464FF0F8
:10581000000A23F0004150EA050220D054EA0102B8
:105820001DD0C5F30A570246C5F31303C1F3130095
:10583000C1F30A5640F4801543F48013A7EB060821
:10584000101BD64608F2FD3873EB050002D308F1B1
:10585000010801E092185B41B8F1000F03DA002063
:105860000146BDE8F08D00204FF4801106468446C5
:105870000EE0171B73EB050705D3121B63EB050343
:1058800006434CEA010C49084FEA300092185B418C
:1058900050EA0107EDD152EA030012D082EA040077
:1058A00083EA0501084305D0101BAB4106D2012253
:1058B000002306E000224FF0004302E06FF00102F7
:1058C00053101AEB06004CEB085110EB0A0041EBA9
:1058D0000B01BDE8F04DFFF734BFC1F30A52C1F32D
:1058E000130140F2FF3341F480119A4202DA0020A2
:1058F0000146704740F233439A42A2F2334202DC3F
:10590000524200F02DB8FFF7C4BE000030B5041EAF
:1059100071F1000404DB4FF00044404264EB0101EC
:10592000141E73F1000405DB1C464FF00043524285
:1059300063EB0403994208BF904230BD064C074D0B
:1059400006E0E06840F0010394E80700984710344F
:10595000AC42F6D3FAF7CEFB206B0008406B000890
:10596000202A04DB203A21FA02F00021704721FAB4
:1059700002F3D040C2F1200291400843194670471B
:1059800070B58D1810F8014B14F0030201D110F816
:10599000012B231106D110F8013B03E010F8016B35
:1059A00001F8016B521EF9D1ABB110F8012B04F0D4
:1059B0000C048A1A0C2C03D0A2EB84129B1C08E066
:1059C00010F8014BA2EB0422F8E712F8014B01F8A2
:1059D000014B5B1EF9D5A942D4D3002070BD000055
:1059E0000FB4054B10B503A9044A029800F0F0F873
:1059F00010BC5DF814FB0000794A0008D4160020A2
:105A00000FB4084B10B504A902AA039800F0E0F8FF
:105A1000044602A9002000F072FC204610BC5DF88C
:105A200014FB0000FF62000837B514460846064B19
:105A30006A46214600F0CCF804466946002000F092
:105A40005EFC20463EBD0000FF62000802E008C880
:105A5000121F08C1002AFAD170477047002001E0E8
:105A600001C1121F002AFBD1704700002DE9FF5F22
:105A7000DDE90220010DDDF838B0024318D044F60C
:105A80001050A1F2FF3141430D140F98012820D08E
:105A9000A5EB0B00401C5FEA000A4FF00004474EE4
:105AA000DFF81C91A046504616D5CAF1000728E041
:105AB0000F98012443A2012808D0002100980F9BD1
:105AC000C0E90021C0E90243BDE8FF9F6FEA0B0176
:105AD000F4E7CBF10000DEE7074612E0F80707D055
