:020000040800F2
:1000000090170020010100085D0E0008190D00087E
:10001000590E00081D0B000807180008000000001A
:100020000000000000000000000000006510000853
:10003000210B0008000000000D0F000879110008D6
:100040001B0100081B0100081B0100081B01000820
:100050001B0100081B0100081B0100081B01000810
:100060001B0100081B0100081B0100081B01000800
:100070001B0100081B0100081B0100081B010008F0
:100080001B0100081B0100081B0100081B010008E0
:100090001B0100081B0100081B0100081B010008D0
:1000A0001B0100081B0100081B0100081B010008C0
:1000B0001B010008DD110008591200081B0100088F
:1000C0001B0100081B0100081B0100081B010008A0
:1000D0001B010008D9130008F91400086115000875
:1000E0001B0100081B0100081B010008DFF80CD0F1
:1000F00000F052FA00480047593D000890170020D0
:100100000648804706480047FEE7FEE7FEE7FEE7B1
:10011000FEE7FEE7FEE7FEE7FEE7FEE77D110008EB
:10012000ED00000840EA01039B0703D009E008C97D
:10013000121F08C0042AFAD203E011F8013B00F8AC
:10014000013B521EF9D27047D2B201E000F8012BF8
:10015000491EFBD270470022F6E710B513460A4647
:1001600004461946FFF7F0FF204610BD034611F87C
:10017000012B00F8012B002AF9D11846704770B501
:10018000064601F061FB046805460A22002130465C
:1001900000F0B2F82C6070BD20F00040C10DC0F33B
:1001A000160040F400007F2901DA002070479629EC
:1001B00003DCC1F19601C84070479639884070470A
:1001C00001F0004330B421F0004150EA010206D0B2
:1001D0000A0DA2F56072C1F31301002A02DC30BCE3
:1001E00000207047440F44EAC104C100E01830BC4D
:1001F00000EBC25000F0B8B82DE9F05F05460020D2
:1002000092469B4688460646814640241BE0284687
:1002100041464746224600F0E0F953465A46C01A86
:10022000914110D311461846224600F0C7F92D1A05
:1002300067EB01084F4622460120002100F0BEF97D
:1002400017EB00094E41201EA4F10104DFDC4846F3
:1002500031462A464346BDE8F09F00000FB4002314
:1002600000B589B00CA900910B996FF00042CB60EA
:100270001E4B06931E4B07930423CDE901321D4A02
:10028000089202466B46002000F046FA09B05DF87D
:1002900014FB70B586B006464FF0FF300091CDE9F3
:1002A0000101002015460C4604903246694604A818
:1002B000FFF7D4FF03460498211825B108B10A4678
:1002C00000E022462A6000280DD0002B02DD0098B5
:1002D000884208D0081B0094CDE9010432466946E3
:1002E00004A8FFF7BBFF06B070BD0000510900086D
:1002F0006F090008050600082DE9F04791460F46F2
:1003000080460446002614F8015B2DB100F076F912
:100310000068405DC007F6D12B2D02D02D2D18D0DE
:10032000641E4A463946204600F032FB27B1396840
:10033000A14201D1C7F8008071054FF002040BD52E
:100340004042002803DD01F07FFA0460A007BDE809
:10035000F08746F48066E4E70028F8DA01F074FAE2
:1003600004606FF00040F2E70029A8BF7047401C0E
:10037000490008BF20F00100704710B4B0FA80FCBB
:1003800000FA0CF050EA010404BF10BC704749B1F8
:10039000CCF1200421FA04F411FA0CF118BF012168
:1003A00021430843A3EB0C01CB1D4FEA00614FEA48
:1003B000102042BF002010BC704700EBC350104417
:1003C0000029A4BF10BC7047401C490008BF20F0A2
:1003D000010010BC70472DE9FE4F81EA030404F0D0
:1003E000004421F0004100944FF0000B23F0004343
:1003F00050EA01045ED052EA03045BD0C3F30A540E
:10040000C1F30A552C44A4F2F3340194A0FB025426
:10041000C1F3130141F48011C3F3130343F48013B8
:1004200001FB024400FB034E840A970A44EA81540C
:1004300047EA8357A4FB076802958D0A05FB0785E9
:100440004FEA932C04FB0C542705029D4FEA0658F3
:1004500047EA1637B5EB08056EEB070C870E920ED0
:1004600047EA811742EA8312A7FB0201B6EB0B01B0
:1004700064EB00042B0D43EA0C335E1844EB1C5074
:10048000DA465146E7FB0201C5F313044FEA0B338A
:1004900043EA14534FEA0432019C43EA0603A4F1F1
:1004A0000C040294009CCDE900B400F0CFFA03B034
:1004B000BDE8F08F00200146F9E72DE9F04D81EA13
:1004C000030404F0004B21F0004514464FF0000AED
:1004D00023F0004150EA050220D054EA01021DD069
:1004E000C5F30A570246C5F31303C1F31300C1F362
:1004F0000A5640F4801543F48013A7EB0608101B3E
:10050000D64608F2FD3873EB050002D308F1010866
:1005100001E092185B41B8F1000F03DA00200146B8
:10052000BDE8F08D00204FF48011064684460EE0B1
:10053000171B73EB050705D3121B63EB050306437B
:100540004CEA010C49084FEA300092185B4150EA2E
:100550000107EDD152EA030012D082EA040083EAD7
:100560000501084305D0101BAB4106D20122002330
:1005700006E000224FF0004302E06FF0010253104A
:100580001AEB06004CEB085110EB0A0041EB0B0193
:10059000BDE8F04D00F04BBA064C074D06E0E068B0
:1005A00040F0010394E8070098471034AC42F6D3BA
:1005B000FFF7A0FD7044000890440008202A04DBE7
:1005C000203A00FA02F1002070479140C2F1200366
:1005D00020FA03F3194390407047202A04DB203AA5
:1005E00021FA02F00021704721FA02F3D040C2F153
:1005F00020029140084319467047000000487047A8
:10060000E043000810B50446FFF7F8FF0068005DFE
:1006100000F0010010BD00002DE9FF4F087881B007
:100620009946FF2805D0491C2D2804D0002400231A
:1006300008E000230BE00124F9E703EB830300EB60
:100640004303491C0878FF28F7D104B15B4200201E
:100650000090147801462D2C01D02B2C04D1521C73
:100660002D2C12D00024009400251678FF2E0ED0D9
:100670000A24A0FB04C801FB0481002700FB07112A
:10068000521C16EB0C006941EFE70124EBE799449B
:1006900050EA01020ED00024AA4D2646DFF8A882B7
:1006A00000F030FA82468B46B9F1000009DAC9F150
:1006B00000071BE001980021C0E9001105B0BDE86A
:1006C000F08F074612E0F80707D022462B46304647
:1006D0004146FFF780FE0646884622462B461046D6
:1006E0001946FFF778FE04460D467F10002FEAD129
:1006F000B9F1000F324643465046594602DAFFF739
:10070000DCFE01E0FFF767FE009A0AB181F00041CC
:10071000019AC2E90001D1E72DE9FF4F1F468DB0D4
:10072000D7E901464FF0FF382E2045464FF000092B
:100730000B90B9696D1C0E988847396A82468847C4
:100740000028F6D1BAF1FF3F0AD024F4D064002E7D
:1007500011DDBAF12B0F08D0BAF12D0F0BD102E049
:10076000404611B0ABE744F48064B9696D1C0E9843
:1007700088478246761E6946600501D52D2000E037
:100780002B208DF8000001F1010B0DF1200809E08C
:10079000B9696D1C0E98884782460F9844F400741E
:1007A000761E0560002E02DDBAF1300FF0D00B99F5
:1007B0008A453ED144F0800406E00F99681CA9F1F7
:1007C000010944F400740860B9696D1C761E0E9826
:1007D000884782463028F0D02BE00B998A4505D116
:1007E000200603D444F08004761E18E0504601F041
:1007F0004BF808B30DF11301761E44F400748B45D9
:1008000008D2AAF130000BF8010B200607D5A9F198
:10081000010003E0200602D409F101008146A00591
:1008200002D50F99681C0860B9696D1C0E9888473D
:100830008246002ED1DC53E0002E51DDBAF1650F67
:1008400002D0BAF1450F4BD1A00549D5B9696D1C4D
:1008500024F44074761E0E9888478246002E0CDDE4
:100860002B2804D0BAF12D0F07D144F48074B96954
:100870006D1C0E9888478246761EE00501D52D2115
:1008800000E02B2108F8011BCDF82C8021E00DF1B0
:100890002901761E44F4007488450CD2AAF1300078
:1008A00010F0FF0088F8000002D10B99884509D9A3
:1008B00008F1010806E0E00501D5244801E042F214
:1008C0000F708146B9696D1C0E98884782460F9853
:1008D0000560002E04DD504600F0D6FF0028D6D17A
:1008E000F9690E988847FF208BF8000088F800000F
:1008F0000020069007904B466A4608A906A8FFF715
:100900008BFEA00502D46FF001002AE714F0240F3B
:100910000AD0E00714D1DDE906123868031D3B60F8
:100920000068C0E900120BE0DDE90601FFF748FCB2
:100930000146E00704D13868021D3A600068016092
:1009400028460EE7000024400000F03FF1D8FFFFEA
:10095000426842B1016811F8013B23B1521EC0E95F
:100960000012184670470121C160881E7047426816
:100970005AB1C368016843B983688B4205D0491EE8
:10098000521CC0E90012002070474FF0FF30704742
:100990002DE9F05F82460078002715468B460AF164
:1009A0000104B946302801D09DB113E014F8010BC1
:1009B0000127782803D0582801D045B10AE00DB1AD
:1009C000102D07D10027102514F8010B02E008258F
:1009D00000E00A250026B0460EE005FB080005FBF6
:1009E00006F1012701EB10461FFA80F8B6F5803FAB
:1009F00000D3B94614F8010B294600F075F8002819
:100A0000EBDABBF1000F05D00FB1641E00E05446D5
:100A1000CBF80040B9F1000F06D000F015FF02211D
:100A20000160C81EBDE8F09F48EA0640FAE710B52D
:100A3000141E73F1000408DA401C41F10001921801
:100A40005B411A4301D120F0010010BD2DE9F04DAA
:100A500092469B4611B1B1FA81F202E0B0FA80F2FF
:100A600020329046FFF7AAFD04460F4640EA0A00EE
:100A700041EA0B0153465A46084313D0114653EA44
:100A8000010019D0C8F140025046FFF7A6FD054607
:100A90000E46504659464246FFF790FD084305D0A2
:100AA000012004E020463946BDE8F08D00200543D2
:100AB00046EAE0762C4337430A986305E40AA0EB44
:100AC00008000022FD0A44EA47540A3002D50020FB
:100AD0000146E9E7010510196941DDE908450019FA
:100AE0006941BDE8F04DA2E73A2800D2303820F045
:100AF0002002412A01D3A2F13700884201D34FF0EE
:100B0000FF3070470EB540F2334202920022CDE929
:100B100000221346FFF79AFF03B000BD00BFFEE7B7
:100B20007047F0B504460D461646059F002000218B
:100B300000224FE08AB914F800C0BCF12C0F07D195
:100B4000521C4FF0000C05F801C00021401C04E0CD
:100B500014F800C005F801C0491C012A11D114F88D
:100B600000C0BCF12C0F07D1521C4FF0000C06F84E
:100B700001C00021401C04E014F800C006F801C0C8
:100B8000491C022A11D114F800C0BCF12C0F07D166
:100B9000521C4FF0000C03F801C00021401C04E07F
:100BA00014F800C003F801C0491C032A11D114F83D
:100BB00000C0BCF12C0F07D1521C4FF0000C07F8FD
:100BC00001C00021401C04E014F800C007F801C077
:100BD000491C401C14F800C0BCF1000FAAD1F0BDA4
:100BE0002DE9F041024600250026002000230024C4
:100BF000002791F803C00CF00F0591F803C00CF02A
:100C0000100CBCF1000F03D091F802C04CEA0505AE
:100C100091F800C0BCF1000F31D0146800202BE027
:100C20004FF0010C0CFA00F3B1F800C00CEA030617
:100C30009E4220D183004FF00F0C0CFA03F7BC4307
:100C400005FA03FC4CEA040491F803C0BCF1280F38
:100C500006D14FF0010C0CFA00FCC2F814C00AE0F7
:100C600091F803C0BCF1480F05D14FF0010C0CFA0C
:100C700000FCC2F810C0401C0828D1D31460B1F8A1
:100C800000C0BCF1FF0F34DD546800202EE000F1FD
:100C9000080C4FF0010808FA0CF3B1F800C00CEA98
:100CA00003069E4221D183004FF00F0C0CFA03F78C
:100CB000BC4305FA03FC4CEA040491F803C0BCF100
:100CC000280F05D100F1080C08FA0CF8C2F81480BE
:100CD00091F803C0BCF1480F07D100F1080C4FF0A8
:100CE000010808FA0CF8C2F81080401C0828CED37E
:100CF0005460BDE8F081000010B541F61F410920A5
:100D000000F07CFA1B210348FFF725FA02F0AEFE43
:100D100010BD00007C00002000BFFEE708B50121E7
:100D20000C2000F015F91020ADF8000048208DF8D7
:100D3000030069461648FFF753FF2020ADF8000076
:100D400048208DF8030069461148FFF749FF40200D
:100D5000ADF8000048208DF8030069460C48FFF705
:100D60003FFF8020ADF8000048208DF80300694661
:100D70000748FFF735FF4FF48050ADF800004820DA
:100D80008DF8030069460348FFF72AFF08BD0000FD
:100D900000080140000C014010B5044614B10120C8
:100DA0002A49087029480078002833D0284800686C
:100DB00070B12748001D006850B125480830006810
:100DC00030B123480C30006810B12248006808BBDD
:100DD0000A2001F02DF800201C4908701C4800680A
:100DE00008B9012010BD1A48001D006808B902208A
:100DF000F8E717480830006808B90320F2E71448FC
:100E00000C30006808B90420ECE712480068D0B93B
:100E10000520E7E70E480068012814D10C48001DA2
:100E2000006801280FD10A480830006801280AD15B
:100E300007480C300068012805D1064800680128E1
:100E400001D1024908700020CCE700005E000020BC
:100E5000100121423081214200BFFEE7704708B5F2
:100E60004FF4A06000F048F826208DF80000032021
:100E70008DF801008DF8020001208DF8030068460E
:100E800000F002F808BD000070B5002100230F2219
:100E9000C47804B3154C246804F4E064C4F5E06439
:100EA000210AC1F10403CA40447804FA03F18478AA
:100EB0001440214309010E4C0678A155047804F032
:100EC0001F050124AC4005786D11AD0005F1E0254A
:100ED000C5F8004109E0047804F01F050124AC4086
:100EE000044D0678761145F8264070BD0CED00E003
:100EF00000E400E080E100E002490143024A1160A1
:100F0000704700000000FA050CED00E0704700009B
:100F100029B1064AD2690243044BDA6104E0034A6C
:100F2000D2698243014BDA61704700000010024031
:100F300029B1064A12690243044B1A6104E0034ACC
:100F400012698243014B1A61704700000010024091
:100F500029B1064A92690243044B9A6104E0034AAC
:100F600092698243014B9A61704700000010024071
:100F700029B1064AD2680243044BDA6004E0034A0E
:100F8000D2688243014BDA607047000000100240D3
:100F900030B500210022002400232D4D6D6805F09E
:100FA0000C0121B1042905D0082923D105E0294DE0
:100FB000056022E0274D05601FE0254D6D6805F4B2
:100FC0007012234D6D6805F48034022505EB9242C2
:100FD0001CB9214D554305600BE01D4D6D6805F4AE
:100FE00000351DB11C4D5543056002E0194D5543B8
:100FF000056002E0174D056000BF00BF144D6D682D
:1010000005F0F0010909154D6B5C0568DD40456090
:101010000F4D6D6805F4E061090A104D6B5C456881
:10102000DD4085600A4D6D6805F46051C90A0B4DBD
:101030006B5C4568DD40C560054D6D6805F4404159
:10104000890B074D6B5CC568B5FBF3F5056130BDD9
:101050000010024000127A0000093D004A00002002
:101060005A000020704710B500F002F810BD0000D3
:101070000CB50020019000903348006840F48030A7
:101080003149086000BF3048006800F4003000902B
:101090000198401C0190009818B90198B0F5A06F14
:1010A000F1D12948006800F4003010B1012000900F
:1010B00001E0002000900098012843D123480068F7
:1010C00040F01000214908600846006820F0030045
:1010D00008600846006840F0020008601A4840684E
:1010E000194948600846406848600846406840F42E
:1010F000806048600846406820F47C1048600846DC
:10110000406840F4E81048600846006840F080708D
:10111000086000BF0C48006800F000700028F9D09B
:101120000948406820F003000749486008464068C5
:1011300040F00200486000BF0348406800F00C0027
:101140000828F9D10CBD0000001002400020024028
:10115000042808D14FF0E021096941F004014FF063
:10116000E022116107E04FF0E021096921F004015C
:101170004FF0E022116170477047000010B513482E
:10118000006840F0010011490860084640681049B5
:1011900008400E494860084600680E4908400B495F
:1011A00008600846006820F480200860084640680F
:1011B00020F4FE0048604FF41F008860FFF753FFE3
:1011C0004FF000600449086010BD000000100240AC
:1011D0000000FFF8FFFFF6FE08ED00E010B501216A
:1011E000054800F08CF828B10121034800F078F898
:1011F00002F0AAF910BD0000000400407FB50546CA
:101200000C4601210220FFF783FEADF80850ADF82F
:1012100004400020ADF80A00ADF8060001A90D4811
:1012200000F088F8012211460A4800F079F81D20E4
:101230008DF8000000208DF8010001208DF80200DB
:101240008DF803006846FFF71FFE0121014800F0FA
:101250004AF87FBD0004004010B50121064800F0A7
:101260004EF840B105480068401C0449086001215F
:10127000014800F035F810BD0008004000000020D3
:101280007FB505460C4601210420FFF741FEADF86D
:101290000450ADF800400020ADF80600ADF80200A3
:1012A00069460E4800F046F8012211460B4800F04E
:1012B00037F80121094800F016F81E208DF80C00BF
:1012C00000208DF80D0002208DF80E0001208DF811
:1012D0000F0003A8FFF7D8FD7FBD00000008004005
:1012E000CA430282704721B1028842F001020280A3
:1012F00004E002884FF6FE731A400280704730B552
:101300000246002000230024158A05EA010395897E
:1013100005EA010413B10CB1012000E0002030BD4A
:101320001AB183890B43838102E083898B438381D4
:1013300070470000002202881D4B98420ED01D4BC2
:1013400098420BD0B0F1804F08D01B4B984205D08B
:101350001A4B984202D01A4B984204D14FF68F7321
:101360001A404B881A43174B984207D0164B9842A5
:1013700004D04FF6FF431A40CB881A4302808B8873
:1013800083850B8803850A4B98420BD0094B984202
:1013900008D00E4B984205D00D4B984202D00D4B11
:1013A000984201D10B7A03860123838270470000A3
:1013B000002C0140003401400004004000080040BF
:1013C000000C0040001000400014004000400140AC
:1013D000004401400048014010B540F225511D482D
:1013E00000F04DF910B31B4800F004FAC4B21A48DB
:1013F000008800F40040C8B91748008800F4804015
:1014000060B10A2C03D000201349088020E0124864
:10141000008840F400401049088019E00D2C06D1E6
:101420000D48008840F480400B49088010E00A48CD
:101430000088C0F30D0009490C5407480088401C7F
:101440000549088008460088C72801DD002008807B
:1014500010BD000000380140480000209700002027
:1014600000B585B001210420FFF772FD0121480479
:10147000FFF74EFD0420ADF8100018208DF8130082
:1014800003208DF8120004A91948FFF7A9FB0820D2
:10149000ADF8100004208DF8130004A91448FFF7DC
:1014A0009FFB4FF4E13000900020ADF80400ADF850
:1014B0000600ADF80800ADF80C000C20ADF80A00ED
:1014C00069460C4800F02AF9FFF7C9FC012240F2F6
:1014D0002551084800F0FDF8012240F2244105485A
:1014E00000F0F7F80121034800F061F805B000BDF5
:1014F000000801400044004070B540F225511648F4
:1015000000F0BDF8B8B1144800F074F9C5B2134842
:1015100000F04FFC04466CB1A18820684554A088B7
:10152000401C80B2A080B0F5006F04DB0B4800F0D7
:101530005AFC00E070BD40F22441074800F09FF8DB
:10154000012806D1054800F04EFC034800F052F98E
:10155000C5B200BFEEE7000000440040D401002007
:1015600008B540F22551094800F089F868B140F209
:101570002551064800F00CF8044800F03BF9C0B2D1
:1015800000900121684601F099FE08BD0048004026
:1015900010B50022002340F66A14A14200D100BF1A
:1015A0000A1201249440A3B2DC43048010BD21B18F
:1015B000828942F40052828104E082894DF6FF73F1
:1015C0001A4082817047000010B5044620488442CA
:1015D00009D101218803FFF7CBFC00214FF48040A3
:1015E000FFF7C6FC32E01B48844209D101214804C0
:1015F000FFF79EFC00214FF40030FFF799FC25E037
:101600001548844209D101218804FFF791FC00218B
:101610004FF48020FFF78CFC18E01048844209D179
:101620000121C804FFF784FC00214FF40020FFF7DC
:101630007FFC0BE00A48844208D101210805FFF72E
:1016400077FC00214FF48010FFF772FC10BD000002
:10165000003801400044004000480040004C004079
:101660000050004002460020B1F5007F00D100BFCD
:1016700013880B400BB1012000E00020704770B5CB
:101680000246002400230025002040F66A16B142DD
:1016900000D100BFC1F3421501F01F03012606FA75
:1016A00003F3012D02D19689334006E0022D02D1C9
:1016B000168A334001E0968A33400C12012606FA5E
:1016C00004F41688344013B10CB1012000E000206E
:1016D00070BDF0B50346002400260025002040F62A
:1016E0006A17B94200D100BF1846C1F3421401F095
:1016F0001F06012707FA06F5012C01D10C3004E082
:10170000022C01D1103000E014301AB107682F43C9
:10171000076002E00768AF430760F0BD2DE9F047BE
:1017200086B005460E460024A24600BFA14600270B
:10173000B08900B100BF2F462C8A4CF6FF700440E0
:10174000F08804432C82AC894EF6F3100440B08834
:1017500031890843718908430443AC81AC8A4FF650
:10176000FF400440B0890443AC8201A8FFF710FC9D
:101770001F48874202D1DDF810A001E0DDF80CA07F
:10178000A88900F4004040B10AEBCA0000EB0A103F
:1017900031684900B0FBF1F807E00AEBCA0000EB42
:1017A0000A1031688900B0FBF1F86420B8FBF0F052
:1017B00004012009642101FB1089A88900F400407C
:1017C00040B1322000EBC900B0FBF1F000F007009F
:1017D000044308E0322000EB09106421B0FBF1F073
:1017E00000F00F0004432C8106B0BDE8F087000034
:1017F0000038014001468888C0F308007047C1F3F3
:1018000008028280704700BFFEE770B504460D46AF
:1018100029462046FFF7F3FF00BF80212046FFF74F
:1018200021FF0028F9D070BD0FB4054B10B503A9F6
:10183000044A029800F030F810BC5DF814FB000078
:10184000B11E0008440000200048704778000020C6
:1018500001480068704700007800002002E008C8D6
:10186000121F08C1002AFAD170477047002001E01A
:1018700001C1121F002AFBD1704700000149086016
:10188000704700007800002030380A2801D201207B
:1018900070470020704700002DE9FF4F8DB00F46C4
:1018A0000546002606E025280BD0DDE90F129047FB
:1018B0006D1C761C28780028F5D111B03046BDE8A3
:1018C000F08F0024A246A1460122EC4900E0044327
:1018D00015F8013F203B02FA03F00842F7D12878BF
:1018E0002A2810D06FF02F022878A0F130010929A2
:1018F00014D80AEB8A0102EB410144F0020400EB28
:10190000010A6D1CF0E701CF5FEA000A03D544F439
:101910000054CAF1000A44F002046D1C28782E28F5
:1019200017D115F8010F44F004042A280ED06FF0E7
:101930002F022878A0F1300109290AD809EB890182
:1019400002EB410100EB01096D1CF2E757F8049B23
:101950006D1C28786C280FD006DC4C2817D068281E
:101960000DD06A2814D104E0742810D07A280FD141
:101970000DE044F400140AE044F4801401E044F45F
:1019800040146978814202D104F580146D1C6D1CED
:101990002A786E2A1FD00CDC632A31D004DC002A9E
:1019A0008BD0582A11D1A3E0642A68D0692A0CD1BF
:1019B00065E0732A2ED004DC6F2A73D0702A04D11C
:1019C0009BE0752A6FD0782A6ED01046DDE90F12A1
:1019D0009047761C50E1C4F30250022806D0032839
:1019E00009D0042801CF09D0066045E101CFF117E5
:1019F000C0E9006140E101CF06803DE106703BE1B6
:101A000017F8040B8DF8000000208DF80100EB465C
:101A1000012003E057F804BB4FF0FF3061074FF09F
:101A2000000102D40DE008F10101884649450FDAB2
:101A30008045F8DB1BF808100029F4D108E008F114
:101A4000010188468142FADB1BF808100029F6D113
:101A5000DDE90F23AAEB08008146214600F036F9A4
:101A6000304400EB080604E0DDE90F121BF8010B1F
:101A70009047B8F10108F7D221464846F7E00A211D
:101A8000C4F302534FF0000B0891022B04D001CF96
:101A9000C117032B09D00AE0FF1D27F00707F7E85D
:101AA000020108E032E01FE020E000B2C117042B81
:101AB00001D140B2C117031E71F1000307DA4FF0E4
:101AC000000CD0EB0C006CEB01012D2302E0230590
:101AD00004D52B238DF82430012303E0E30701D044
:101AE0002023F7E7984658E00A2110E010210EE085
:101AF00010204FF0000B08900CE010214FF0000B6D
:101B000044F004044FF00809089103E008214FF065
:101B1000000B0891C4F30253022B04D001CF002123
:101B2000032B06D006E0FF1D27F00707F7E80201A8
:101B300003E080B2042B00D1C0B24FF000082307AD
:101B40002BD5702A07D0DDF820C08CF0100C5CEA91
:101B50000B0C05D00EE040238DF82430012308E063
:101B600050EA010306D030238DF824308DF825206B
:101B700002239846DDF820C08CF0080C5CEA0B0CC0
:101B80000BD150EA010301D1630706D530238DF84C
:101B900024304FF00108A9F10109582A04D038A2D5
:101BA0000B9208AA0A920BE03AA2F9E75B46089A60
:101BB000FEF722FB0B9B9B5C0A9A521E0A92137043
:101BC00050EA0102F2D10A98ADEB000000F1200BBF
:101BD000600702D524F4803401E04FF00109D945B3
:101BE00002DDA9EB0B0000E0002000EB0B014144FB
:101BF0000890AAEB010AE00306D4DDE90F23214691
:101C0000504600F063F806444FF0000908E009A9C7
:101C100011F80900DDE90F12904709F10109761C5E
:101C2000C145F4DBE0030CD5DDE90F232146504626
:101C300000F04CF8064404E0DDE90F123020904734
:101C4000761C0899481E08900029F5DC08E00A98DF
:101C50000A990078491C0A91DDE90F129047761C19
:101C6000BBF10001ABF1010BF1DC21465046DDE98F
:101C70000F2300F019F806446D1C1BE6092801002B
:101C800030313233343536373839616263646566F2
:101C900000000000303132333435363738394142B4
:101CA00043444546000000002DE9F041044600256C
:101CB0001E461746880404D405E039462020B04764
:101CC0006D1C641EF9D52846BDE8F0812DE9F04170
:101CD000044600251E469046C80301D5302700E083
:101CE0002027880404D505E041463846B0476D1CDE
:101CF000641EF9D52846BDE8F08130B583B00446AE
:101D0000FFF7A6FD05460020CDE90000024621466A
:101D10006846FEF7BEFA2846FFF7B0FDDDE9000190
:101D200003B030BD024610684000401E4B1C1840F6
:101D30007047016000224260826070470146D1E92D
:101D40000120904201D1012070470020FCE70146AC
:101D5000D1E9002050408A68904201D101207047AB
:101D60000020FCE710B504462046FFF7E7FF08B166
:101D7000002010BDE1686068884204D12046616897
:101D8000FFF7D0FFE0602168491EE068084004F1D9
:101D9000140151F82000ECE700230268521EC168CC
:101DA000114000F1140252F821108B80C16841608B
:101DB000704710B504462046FFF7C9FF08B1002060
:101DC00010BD2169A068884204D12046A168FFF7B0
:101DD000A9FF20612168491E2069084004F114010F
:101DE00051F82000ECE701698160704710B56FF091
:101DF0000400FFF7ADF90A4800680A49B0FBF1F0AA
:101E0000094908700846007800EB4001C1EBC0109A
:101E10004FF6FF7101EAC0000449088010BD0000C0
:101E20002C00002000127A00400000204200002018
:101E30000146114A12884A434FF0E0235A610022BA
:101E40009A611A46126942F001021A6100BF4FF00E
:101E5000E022106900F001021AB100F48032002A79
:101E6000F5D04FF0E022126922F001024FF0E0239A
:101E70001A6100229A6170474200002001B581B0CA
:101E800000200090694601AA5078087010784870C8
:101E9000BDF800000CBD0146080601F47F4240EA8F
:101EA000022001F47F0240EA122040EA11607047EC
:101EB00000BF054A128802F04002002AF9D0C2B2DF
:101EC000014B1B1D1A80704700380140024612B1B9
:101ED00002F0070028B9082901D800207047012026
:101EE000FCE702F00700C0F10800884201D300209F
:101EF000F4E70120F2E730B502460B46002100244A
:101F000000250AB9481E30BD002108E0545C581A6B
:101F1000401E155C5554581A401E1454491CB1EB10
:101F2000530FF3D30020EEE72DE9F04104460D46B0
:101F30000027002604B135B947A0FFF775FC4FF024
:101F4000FF30BDE8F08100F03DFA064628782178A0
:101F5000884203D04AA0FFF767FC012768786178C0
:101F6000884203D04BA0FFF75FFC0127A878A17837
:101F7000884203D04CA0FFF757FC0127D5F8030097
:101F8000D4F8031088420AD04C480068301A41F255
:101F90007071884203D34AA0FFF746FC0127D5F8A9
:101FA0000700D4F8071088420AD044480068301A65
:101FB00041F27071884203D346A0FFF735FC012738
:101FC000D5F80B00D4F80B1088420AD03B480068C3
:101FD000301A41F27071884203D343A0FFF724FC0A
:101FE0000127D5F80F00D4F80F1088420AD03348E3
:101FF0000068301A41F27071884203D340A0FFF7A5
:1020000013FC0127D5F81300D4F8131088420AD026
:102010002A480068301A41F27071884203D33EA00A
:10202000FFF702FC0127D5F81700D4F817108842F3
:102030000AD022480068301A41F27071884203D3F6
:102040003AA0FFF7F1FB0127012F03D100F0BAF905
:102050001A490860384674E767697A436865636BB4
:102060005265706F7274204572726F72202C204915
:102070006C6C6567616C20506172616D0A000000D4
:1020800076616C75654C454431204368616E6765C7
:10209000640A000076616C75654C454432204368E3
:1020A000616E6765640A000076616C7565676561DD
:1020B00072204368616E6765640A00006800002052
:1020C00076616C756574656D70204368616E6765D7
:1020D000640A000076616C756568756D69204368F7
:1020E000616E6765640A000076616C7565746F7473
:1020F000616C5F6E756D204368616E6765640A0090
:1021000076616C75657265616C5F6E756D20436894
:10211000616E6765640A000076616C75656475734D
:1021200074204368616E6765640A000076616C75AF
:10213000656C69676874204368616E6765640A004E
:10214000F8B505460C4616460DB104B12EB928A0C7
:10215000FFF76AFB4FF0FF30F8BD287800F0010070
:1021600098B111212278601C81542078401C207085
:1021700001206B1C024600210090084601F082F904
:1021800008B1012000E0002030702878C0F3400042
:1021900098B112212278601C81542078401C207054
:1021A00001206B1C024601460090002001F06AF9F4
:1021B00008B1012000E0002070702878C0F3800092
:1021C00098B113212278601C81542078401C207023
:1021D00001206B1C024602210090002001F052F900
:1021E00008B1012000E00020B0700020B4E700003A
:1021F00067697A44617461506F696E7432457665BF
:102200006E74204572726F72202C20496C6C656769
:10221000616C20506172616D0A000000F8B50446DF
:102220000D4604B12DB92CA0FFF7FEFA4FF0FF3098
:10223000F8BD00202870E41C14F8030C2B46012282
:1022400000210090084601F0DDF814F8020C2B463E
:10225000012211460090002001F0D4F814F8010C7E
:102260002B46012202210090002001F0CBF8012131
:102270002846FFF740FE22680021012001F06CF99A
:10228000687062680021012001F066F9A870A268F8
:102290000021012001F060F9E870E26800210120CE
:1022A00001F05AF9287122690021012001F054F946
:1022B00086B23046FFF7E2FDA5F805006269E41E2C
:1022C0000021012001F048F986B23046FFF7D6FD23
:1022D000A5F807000020ABE767697A446174615094
:1022E0006F696E7473325265706F72744461746199
:1022F000204572726F72202C20496C6C6567616C8E
:1023000020506172616D0A0070B5054600F05AF800
:1023100004461D492846FFF707FE012813D11BA0DC
:10232000FFF782FA184924392846FFF777FF28B9C2
:10233000092215492439042000F0FAFF1B222946FE
:102340001148FDF7EFFE1748B4FBF0F100FB114018
:10235000C8B915480068A04215D014A0FFF764FA68
:10236000094924392846FFF759FF28B909220649A7
:102370002439042000F0DCFF1B2229460248FDF727
:10238000D1FE0948046070BDD71200206368616EF9
:102390006765642C207265706F727420646174616B
:1023A0000A000000C02709006C000020496E666F1B
:1023B0003A2036303053207265706F727420646139
:1023C00074610A0001480068704700006000002046
:1023D00010B5174890F84A00012827D1144890F802
:1023E000490002281DDAFFF7EDFF1149D1F86B1003
:1023F000401AC8281AD9FFF7E5FF04460C4890F8A0
:102400004930D0F86B2021460AA0FFF70DFA00F002
:10241000ADFE074890F84900401C054981F8490085
:1024200004E0262102484930FDF795FE10BD00006A
:10243000F01100205761726E696E673A67697A50D1
:10244000726F746F636F6C526573656E6444617410
:10245000612025642025642025640A003EB50446D9
:10246000002524B913A0FFF7DFF9681E3EBD2068E0
:102470000090606801909DF80400401CC0B28DF887
:1024800004000520FFF7FAFCADF8020009216846B8
:1024900000F0AAFE8DF808000921684601F050FE00
:1024A0000546002D03DA29460DA0FFF7BDF92846A1
:1024B000DCE700004552523A2067697A50726F7427
:1024C0006F636F6C436F6D6D6F6E41636B20646102
:1024D000746120697320656D707479200A000000B2
:1024E0004552523A20756172742077726974652082
:1024F0006572726F72202564200A0000FEB50446E2
:102500000E46002524B914A0FFF78EF9681EFEBD03
:10251000684600F0D7F912208DF8040060798DF834
:1025200005000620FFF7AAFCADF802008DF8086050
:102530000A21684600F058FE8DF809000A21684615
:1025400001F0FEFD0546002D03DA29460DA0FFF738
:102550006BF92846DBE7000067697A50726F746F89
:10256000636F6C4572726F72436D64204572726F57
:1025700072202C20496C6C6567616C20506172611F
:102580006D0A00004552523A2075617274207772CC
:10259000697465206572726F72202564200A0000DC
:1025A00030B59DB0044600252CB92BA0FFF73CF9AF
:1025B000681E1DB030BD684600F084F902208DF819
:1025C000040060798DF805002FA103C9CDE902014F
:1025D00030A103C9CDE9040131A103C9CDE9080146
:1025E00032A103C9CDE90601202233A10AA8FDF7D3
:1025F00099FD202239A10DF15200FDF793FD002035
:10260000CDF84A00CDF84E009DF851008DF85100EC
:102610009DF8510040F002018DF851100020FFF7A5
:102620002DFCADF848006F20FFF728FCADF8020044
:102630007321684600F0D8FD8DF87200732168465A
:1026400001F07EFD0546002D03DA29462CA0FFF798
:10265000EBF82846ADE7000067697A50726F746F37
:10266000636F6C476574446576696365496E666F30
:10267000204572726F72202C20496C6C6567616C0A
:1026800020506172616D0A003030303030303034AB
:1026900000000000303030303030303200000000B8
:1026A00030333033303030300000000030333031E0
:1026B000303130300000000065313231656631382C
:1026C000613365623462313962373330386365347F
:1026D0003334666162373637000000003134313000
:1026E00066363065343630303436303639396165E7
:1026F0003636356265316162346232640000000052
:102700004552523A2075617274207772697465205F
:102710006572726F72202564200A00002DE9FE4F59
:1027200080460E4617464FF0000B0020029081466F
:102730008246002534460090B8F1000F01D006B162
:1027400037B950A0FFF770F84FF0FF30BDE8FE8FAB
:10275000404601F0A9FB00F0FF0ABAF1000F02D1D8
:102760004FF0FF30F2E74FF000095DE0012201A9D0
:10277000404601F0D6FB8346BBF1000F52D04D48D6
:102780000078FF281FD19DF80400FF281BD14A487C
:10279000007848B9FF202070607002204749088007
:1027A00001204549087034E044480088042830DDA1
:1027B00042480088A8422CD0FF2020706070022080
:1027C0003E49088025E03B480078FF2803D19DF86A
:1027D000040055281DD038480078012819D19DF8EB
:1027E000040036490988605434480088401C334945
:1027F00008800846008804280BDD0094009C60884F
:10280000FFF73CFB001D85B22C480088A84200D190
:102810000CE09DF804002749087029480078401C06
:102820002749087009F10109D1459FDB00BF234802
:102830000088042823DD21480088A8421FD11F48B2
:102840000188204600F0D0FC02901C480088401E01
:10285000215C029881420FD12A4621463046FDF77D
:1028600061FC3D8000201449087014490880144917
:1028700008701049087069E76FF0010066E70120F1
:1028800064E7000067697A50726F746F636F6C471A
:1028900065744F6E655061636B6574204572726F2D
:1028A00072202C20496C6C6567616C2050617261EC
:1028B0006D0A0000740000207000002072000020EB
:1028C0007500002010B504462CB907A0FEF7ACFF38
:1028D0004FF0FF3010BD002020606060FF202070AE
:1028E00060700020F6E700004552523A2067697A8E
:1028F00050726F746F636F6C48656164496E697480
:10290000206865616420697320656D707479200AA0
:10291000000000002DE9F04F91B006468B461746A7
:1029200099460020109082468046002501ACBBF1FC
:10293000000F06D131A0FEF777FF681E11B0BDE889
:10294000F08FB9F1010F06D196F8088008F1060062
:10295000384485B201E0781D85B22B46424639469F
:102960002CA0FEF761FFFF2004F8010B04F8010B17
:10297000281204F8010B04F8015B3079401C04F8BC
:10298000010B707904F8010B002004F8010B04F826
:10299000019B4FF0080AB9F1010F0DD104F8018B2A
:1029A0000AF1010A01A901EB0A00424606F10901F8
:1029B000FDF7B8FBC244444437B101A901EB0A005A
:1029C0003A465946FDF7AEFB291D01A800F00CFC64
:1029D0000146E81C01AA1154291D01A801F0B0FB11
:1029E00010901098002806DA14A01099FEF71CFF2A
:1029F0006FF00100A2E70020A0E700005B45525203
:102A00005D202064617461204973204E756C6C20D8
:102A10000A0000006C656E203D202564202C207388
:102A20004469644C656E203D202564202C646174EB
:102A3000615F6C656E203D2025640A0075617274CB
:102A4000207772697465206572726F722025642028
:102A50000A0000002DE9F04780460C4617461D4647
:102A6000089E94F800900CB105B136B932A0FEF77B
:102A7000DBFE4FF0FF30BDE8F087B8F1000F58D112
:102A800015213948FDF767FBB9F1010F06D0B9F1FF
:102A9000020F11D0B9F1050F49D128E0324A5D3259
:102AA0003149601CFFF74CFB01202F496F3908703A
:102AB0000025002030603BE02B49543101F1240017
:102AC000FFF7ACFB78B928482438816FC5F80110AE
:102AD000C16FC5F8051090F8800068720320287057
:102AE0000A20306002E04FF0FF30C4E720E07A1E99
:102AF000611C1D485038FDF715FB781E1A496F39C7
:102B0000C1F83D00102118486F3890F86F207030E0
:102B10008154703890F86F00401C13496F3981F868
:102B20006F000320087000250020306000E000BF27
:102B300000BF00209FE7000067697A50726F746FD2
:102B4000636F6C49737375656450726F63657373FB
:102B5000204572726F72202C20496C6C6567616C25
:102B600020506172616D0A005F12002070B504464A
:102B700025462CB90EA0FEF757FE4FF0FF3070BD72
:102B8000412205F108010E48FDF7CCFA0F210D484E
:102B900090F8AE20AF308154AF3890F8AE00401CB2
:102BA000084981F8AE00052008700020E7E7000022
:102BB0004E545020697320656D707479200A0000AE
:102BC000FF120020F011002010B504462CB9CAA055
:102BD000FEF72AFE4FF0FF3010BD2089FFF74EF9B7
:102BE0002081D1480078C0F38000217AC1F38001B0
:102BF000884256D0207AC0F38000002829D0207A5D
:102C000000F0010078B10021C84890F88420853098
:102C10008154853890F88400401CC44981F88400B0
:102C2000C3A0FEF701FE207AC0F34000002838D090
:102C30000121BE4890F8842085308154853890F871
:102C40008400401CB94981F88400C1A0FEF7ECFD66
:102C500027E0207A00F0010078B10021B34890F815
:102C6000842085308154853890F88400401CAF4919
:102C700081F88400AEA0FEF7D7FD207AC0F34000B3
:102C800078B10221A94890F8842085308154853894
:102C900090F88400401CA54981F88400B3A0FEF799
:102CA000C3FDA1480078C0F3C000217AC1F3C00180
:102CB00088422CD0207AC1089B48007861F3C30079
:102CC00099490870207AC0F3C00080B10321974869
:102CD00090F8842085308154853890F88400401C19
:102CE000924981F88400A8A0FEF79EFD0FE0042120
:102CF0008E4890F8842085308154853890F884007F
:102D0000401C8A4981F88400A7A0FEF78DFD864803
:102D10000078C0F30010217AC1F3001188422CD052
:102D2000207A01098048007861F304107E49087018
:102D3000207AC0F3001080B105217C4890F88420EF
:102D400085308154853890F88400401C774981F89B
:102D500084009DA0FEF768FD0FE00621734890F8FF
:102D6000842085308154853890F88400401C6F4958
:102D700081F884009CA0FEF757FD6B480078C0F3F3
:102D80004010217AC1F3401188422CD0207A4109A9
:102D90006548007861F3451063490870207AC0F3F4
:102DA000401080B10721614890F88420853081541B
:102DB000853890F88400401C5C4981F8840093A019
:102DC000FEF732FD0FE00821584890F88420853046
:102DD0008154853890F88400401C544981F884005F
:102DE00091A0FEF721FD50484078C0F3C001607A01
:102DF000C0F3C00081422CD0607AC1084A484078B4
:102E000061F3C30048494870607AC0F3C00080B1E4
:102E10000B21464890F8842085308154853890F8FD
:102E20008400401C414981F8840087A0FEF7FCFC27
:102E30000FE00C213D4890F884208530815485387E
:102E400090F88400401C394981F8840085A0FEF781
:102E5000EBFC35484078C0F30011607AC0F30010F5
:102E600081422CD0607A01092F48407861F3041028
:102E70002D494870607AC0F3001080B109212B48B9
:102E800090F8842085308154853890F88400401C67
:102E9000264981F884007BA0FEF7C6FC0FE00A21DA
:102EA000224890F8842085308154853890F8840039
:102EB000401C1E4981F8840079A0FEF7B5FC0D2165
:102EC0001A4890F8842085308154853890F8840021
:102ED000401C164981F88400607A00F0070081F8F0
:102EE0000201084690F8021174A0FEF79DFC022032
:102EF0000E49087000206FE667697A50726F746F30
:102F0000636F6C4D6F64756C655374617475732079
:102F10004572726F72202C20496C6C6567616C2061
:102F2000506172616D0A000076000020F0110020EF
:102F30004F6E426F617264696E673A20536F6674B8
:102F40004150206F7220576562206D6F64650A00E2
:102F50004F6E426F617264696E673A204169724CCC
:102F6000696E6B206D6F64650A0000004F6E426FE2
:102F7000617264696E673A2053746174696F6E2080
:102F80006D6F64650A0000005769466920737461BB
:102F90007475733A20696E2062696E64696E672089
:102FA0006D6F64650A00000057694669207374619B
:102FB0007475733A206F75742062696E64696E6708
:102FC000206D6F64650A000057694669207374615B
:102FD0007475733A20636F6E6E65637465642072F6
:102FE0006F757465720A00005769466920737461D1
:102FF0007475733A20646973636F6E6E656374658C
:103000006420726F757465720A0000005769466922
:10301000207374617475733A20636F6E6E656374A8
:103020006564206D326D0A005769466920737461CA
:103030007475733A20646973636F6E6E656374654B
:1030400064206D326D0A000057694669207374610F
:103050007475733A2061707020636F6E6E6563746F
:103060000A00000057694669207374617475733AE9
:10307000206E6F2061707020636F6E6E6563740ADE
:103080000000000057694669207374617475733AD3
:1030900020696E2074657374206D6F64650A00008A
:1030A00057694669207374617475733A206F75743B
:1030B0002074657374206D6F64650A005253534920
:1030C000206973202564200A0000000070B50446C2
:1030D00025462CB917A0FEF7A7FB4FF0FF3070BDB7
:1030E0001948A9680160E9684160298A0181A97CC1
:1030F0008172A0F20311B1F80301FEF7BFFE13497C
:10310000A1F80301D1F80B01FEF7C5FE0F49C1F884
:103110000B010E210D4890F899209A3081549A386D
:1031200090F89900401C094981F899000420087022
:103130000020D4E74552523A204E54502069732063
:10314000656D707479200A00F3120020F0110020E0
:1031500010B5FFF737F9044600BFFFF733F9001B3E
:10316000B0F5167FF9D900F071FE10BD10B500243E
:103170000E4890F84A0000B910BD0DA0FEF754FBB0
:103180000A48B0F869104B3000F0DAFF04460748EF
:10319000B0F86900A04202D00DA0FEF745FBFFF792
:1031A00011F90249C1F86B0000BFE5E7F0110020FA
:1031B0005761726E696E673A2074696D656F7574D8
:1031C0002C20726573656E642064617461200A004E
:1031D0004552523A20726573656E64206461746171
:1031E000206572726F720A0010B502460024002337
:1031F00002B109B9002010BD022303E0D05C2044D5
:10320000C4B25B1C481E9842F8D82046F3E7000081
:1032100070B504460D462CB90FA0FEF705FB4FF024
:10322000FF3070BD26211248FCF795FF2A46214643
:103230000F48801CFCF776FF0D484938A0F869500C
:10324000012180F84A10FFF7BDF809494939C1F852
:103250006B000020E5E700004552523A206461749B
:103260006120697320656D707479200A0000000088
:103270003912002070B50446094D2CB909A0FEF79B
:10328000D3FA4FF0FF3070BD2879401C2179884275
:1032900004D126210248801EFCF75DFF0020F2E7E2
:1032A0003B1200204552523A2064617461206973D8
:1032B00020656D707479200A0000000070B5044626
:1032C0000D46002624B90AA0FEF7AEFA701E70BDA6
:1032D0002A4621460E4800F075FE0646AE4205D04D
:1032E0000CA0FEF7A1FA4FF0FF30F0E73046EEE712
:1032F0004552523A2067697A50757444617461206E
:1033000062756620697320656D707479200A00000B
:10331000401300204552523A204661696C65642092
:10332000746F2072625772697465200A0000000091
:10333000F0B585B005460E46174600242EB91FA0ED
:10334000FEF772FA601E05B0F0BD6846FFF7BAFAE4
:1033500005208DF80400234890F84110D0F8410072
:10336000401C204AC2F84100C8B28DF805008DF813
:1033700008500F20FEF782FDADF802003A463146B4
:103380000DF10900FCF7CEFE13216846FFF72CFF74
:103390008DF812001321684600F0D2FE0446002C7E
:1033A00006DA214610A0FEF73FFA6FF00100CAE7E7
:1033B00013216846FFF72CFF2046C4E767697A525D
:1033C00065706F727444617461204572726F72200F
:1033D0002C20496C6C6567616C20506172616D0ACC
:1033E00000000000F01100204552523A2075617231
:1033F00074207772697465206572726F722025641B
:10340000200A00002DE9F04704460D461746089EA5
:103410004FF00009CA46C8461BB94FF0FF30BDE85F
:10342000F08739462846FEF751FD8046B8F1000F77
:1034300007D1185D05F0070106FA01F10843185598
:103440001EE0B8F1010F1BD1F0B205F00701C1F188
:10345000080140FA01F905F00700C0F10801FF205A
:10346000084100EA060A601C185C40EA0900611C79
:103470005854185D05F007010AFA01F10843185580
:103480000020CCE72DE9F04F8FB005460C461646DC
:103490009946189F4FF0000AD34600200E908046B0
:1034A000B9F1000F00D027B94FF0FF300FB0BDE8E1
:1034B000F08F3A46494601A8FCF734FE012F09D99E
:1034C000394601A8FEF717FDB0F1FF3F02D14FF0DA
:1034D000FF30EBE731462046FEF7F8FC8246BAF1B2
:1034E000000F0CD101A8405D04F007010841C6F1AE
:1034F0000802FF211141084040EA080821E0BAF122
:10350000010F1ED101A9681C085C04F00701C1F17C
:103510000801711AC1F10802FF21114100EA010BF3
:1035200001A8405D04F0070108410E9004F0070077
:10353000C0F108010BFA01F040EA08080E9848EAC9
:1035400000084046B2E7000002480068401C0149FC
:10355000086070476000002010B503460020541A30
:10356000B4FBF3F010BD00002DE9FF5F07460D46E8
:1035700093464FF000082E46A9462C46AA4607B1AE
:1035800025B94FF0FF3004B0BDE8F09F4FF00008C0
:103590006DE0781C10F80800142862D2DFE800F013
:1035A0002F3031616132333438616161613C46559D
:1035B000420A1D26307830490870084601782FA04D
:1035C000FEF732F92C480078012802D13149087001
:1035D00002E000202F49087044E0707826494870C6
:1035E000084641782CA0FEF71FF93BE0B07822494D
:1035F0008870084681782EA0FEF716F932E031E097
:1036000030E02FE02EE02DE001202F49087029E066
:1036100000202D49087025E099F800102BA0FEF736
:1036200003F91FE02CA0FEF7FFF81BE0A1796279F7
:103630002379A068CDE90032CDE90210E378A278C1
:1036400021882AA0FEF7F0F80CE033A0FEF7ECF892
:1036500036A0FEF7E9F89AF8001038A0FEF7E4F873
:1036600000E000BF00BF08F1010000F0FF0838785B
:1036700040458EDC002086E77C0000204576743AC9
:10368000204556454E545F4C454431202564200A60
:1036900000000000650000204576743A204556453C
:1036A0004E545F4C454432202564200A000000003F
:1036B0004576743A204556454E545F6765617220E1
:1036C0002564200A00000000640000205253534982
:1036D0002025640A000000005452414E53504152CC
:1036E000454E545F44415441200A00005749464921
:1036F0005F4E5450203A205B25642D25642D2564AF
:1037000020253032643A253032643A253032645D07
:103710005B25645D200A00004D4F44554C4520490F
:103720004E464F202E2E2E0A0000000057494620FC
:103730004D4F44554C45202E2E2E0A006D6F64755A
:103740006C6554797065203A205B25645D200A0021
:103750002DE9F04192B0054600260020029001902C
:1037600000248046002735B982A0FEF75DF8601E70
:1037700012B0BDE8F081FEF72BFE02AA8749884807
:10378000FEF7CCFF0646002E71D186A0FEF74CF85E
:10379000824C20790F284FD00ADC0E2873D2DFE844
:1037A00000F07216721A7272433872724472453C9B
:1037B000182852D006DC112847D0142846D01628E5
:1037C00061D134E0222854D02A285CD130E0204650
:1037D000FEF7E6FE5FE0E279A17977A0FEF724F834
:1037E00001A8009007F10900BDF808301A1A6B48CB
:1037F0000830C11903AB4046FFF72CF940B9E37913
:1038000003A92046019AFFF785F86FA0FEF70CF890
:1038100041E02046FEF722FE3DE02046FEF71EFE78
:103820002046FFF7D1F936E000BF00BF00BF00BF60
:103830002046FFF71FFD2EE02046FEF70FFE65A095
:10384000FDF7F2FFFFF784FC25E024E02046FFF7B8
:1038500011FD65A0FDF7E8FF1DE02046FFF70AFD1A
:103860002046FFF733FC68A0FDF7DEFF13E013E00E
:1038700009E02046FFF7FEFC2046FFF777F968A035
:10388000FDF7D2FF07E002212046FEF737FE6BA0CE
:10389000FDF7CAFF00BF0DE016F1020F0AD13F4C41
:1038A00001212046FEF72AFE6AA0FDF7BDFF6FF05A
:1038B00001005DE73948401E0078062853D2DFE852
:1038C00000F052031324304100203449491E08708F
:1038D0001B22CC31A1F15D00FFF746FE15212F48D8
:1038E0006E30FCF738FC3FE000202C49491E087080
:1038F000012201F58171A1F17E00FFF735FE15214E
:1039000026488330FCF727FC2EE000202349491E7F
:1039100008700846D0F83D201F316F30FFF724FEB5
:1039200022E000201D49491E08700C2201F20311FB
:10393000A1F16A00FFF718FE152118489830FCF72E
:103940000AFC11E000201549491E0870412201F2CD
:103950000F11A1F16100FFF707FE41210F48AD30C3
:10396000FCF7F9FB00E000BF00BF2846FEF7CCFCE7
:103970000020FDE647697A7769747348616E646C6C
:1039800065204572726F72202C20496C6C656761EE
:103990006C20506172616D0A00000000F11100207E
:1039A00040130020476574204F6E65205061636BA3
:1039B0006574210A00000000666C6167202578208C
:1039C0002578200A0000000041636B446174612087
:1039D0003A200A007265706F72743A4D4355207236
:1039E00065626F6F74210A0041636B2050524F442F
:1039F000554354494F4E5F4D4F44452073756363A3
:103A0000657373200A00000041636B204745545FD3
:103A10005554542073756363657373200A00000066
:103A200041636B204745545F4D6F64756C6520732F
:103A3000756363657373200A000000004552523AB3
:103A400020636D6420636F6465206572726F7221FC
:103A50000A0000004552523A20636865636B207388
:103A6000756D206572726F72210A000010B53C20DE
:103A70000A4908600A48C860084600F047FA18B9C1
:103A800008A0FDF7D1FE02E00BA0FDF7CDFE4FF43C
:103A9000A8710E48FCF75FFB10BD0000401300202A
:103AA0005013002072624372656174652053756320
:103AB00063657373200A0000726243726561746506
:103AC000204661696C64200A00000000F0110020AB
:103AD00030B587B005460024062D7CD2DFE805F01E
:103AE00003305F90BDEA01A8FEF7ECFE0B208DF8D5
:103AF00008008B4890F84110D0F84100401C884ADB
:103B0000C2F84100C8B28DF809000520FEF7B6F9E9
:103B1000ADF80600092101A8FFF766FB8DF80C003F
:103B2000092101A800F00CFB0446002C03DA214611
:103B30007CA0FDF779FE092101A8FFF769FBEAE007
:103B400004A8FEF7BFFE09208DF81400744890F811
:103B50004110D0F84100401C714AC2F84100C8B27F
:103B60008DF815008DF818500620FEF787F9ADF88E
:103B700012000A2104A8FFF737FB8DF819000A216B
:103B800004A800F0DDFA0446002C03DA214665A003
:103B9000FDF74AFE0A2104A8FFF73AFBBBE004A8A0
:103BA000FEF790FE09208DF814005D4890F8411052
:103BB000D0F84100401C5A4AC2F84100C8B28DF802
:103BC00015008DF818500620FEF758F9ADF81200D0
:103BD0000A2104A800E09AE0FFF706FB8DF819001F
:103BE0000A2104A800F0ACFA0446002C03DA2146AE
:103BF0004CA0FDF719FE0A2104A8FFF709FB8AE093
:103C000001A8FEF75FFE13208DF80800444890F8E5
:103C10004110D0F84100401C414AC2F84100C8B2EE
:103C20008DF809000520FEF729F9ADF806000921F5
:103C300001A8FFF7D9FA8DF80C00092101A800F0BE
:103C40007FFA0446002C03DA214636A0FDF7ECFD8E
:103C5000092101A8FFF7DCFA5DE001A8FEF732FEBA
:103C600015208DF808002E4890F84110D0F841003A
:103C7000401C2B4AC2F84100C8B28DF8090005204B
:103C8000FEF7FCF8ADF80600092101A8FFF7ACFA31
:103C90008DF80C00092101A800F052FA0446002C0E
:103CA00003DA21461FA0FDF7BFFD092101A8FFF798
:103CB000AFFA30E001A8FEF705FE29208DF80800D4
:103CC000174890F84110D0F84100401C144AC2F83F
:103CD0004100C8B28DF809000520FEF7CFF8ADF815
:103CE0000600092101A8FFF77FFA8DF80C000921D1
:103CF00001A800F025FA0446002C03DA214609A0A9
:103D0000FDF792FD092101A8FFF782FA03E00CA05C
:103D1000FDF78AFD00BF00BF204607B030BD0000A0
:103D2000F01100204552523A20756172742077726A
:103D3000697465206572726F72202564200A000024
:103D40004552523A204366674D6F64652065727232
:103D50006F72210A0000000008B5FDF781FB4FF4E7
:103D6000A060FDF7C9F8FEF741F84FF4E13000F02C
:103D700013FA472140F2E730FDF782FA4FF416506C
:103D800000F05AFA00F06CF9FCF7C8FFFCF7B4FF3A
:103D90001DA0FDF749FD35E000F070F81E481F4BEF
:103DA0001F4A204900902048FCF7BBFE1D48FCF745
:103DB000E6F91E4908601A48FCF7E1F91C49086059
:103DC0001648FDF79AFF0546FCF7FAF9194908600D
:103DD0001148FDF792FF0546FCF7F2F91649086015
:103DE0000020FCF7D9FF0446052C06D10024022050
:103DF000FFF76EFE11A0FDF717FD00F075FA1248EF
:103E0000FFF7A6FCC8E70000B3F5CABCBBAFCDEA1C
:103E1000B3C90D0A00000000120000200C000020B1
:103E20000800002004000020600100201C00002089
:103E3000200000202400002028000020C5E4CDF848
:103E4000CDEAB3C90D0A00007C000020012080F3F8
:103E5000138800BF00BF0748006800F4E06006490F
:103E60000843001D03490860BFF34F8F00BF00BF28
:103E7000FEE700000CED00E00000FA0510B5084870
:103E8000FDF770FF044654B10020A28821688854D1
:103E900004482168FCF76AF90148FDF77DFF10BD71
:103EA000D40100206001002000B5024612B94FF095
:103EB000FF3000BD50689168884201D10020F8E7CA
:103EC00050689168884203D290685168401AF0E7C0
:103ED000104600F014F851689368C91A401AE8E7D0
:103EE00030B5044614B94FF0FF3030BD204600F025
:103EF00006F805462046FFF7D7FF281AF5E70146E2
:103F000011B94FF0FF3070470868FCE7014611B95E
:103F10004FF0FF307047C8684860C868886000206C
:103F2000F8E72DE9F04104460F461646002514B97E
:103F3000681EBDE8F08117B94FF0FF30F9E76068FF
:103F4000A168884214D22046FFF7AEFFB04201D9E3
:103F5000304602E02046FFF7A7FF054661682A4683
:103F60003846FCF7DFF86068284460602846E0E7E0
:103F70002046FFF7C4FF6168E268891A401AB04220
:103F80000AD9354661682A463846FCF7CBF860689E
:103F9000284460602846CCE72046FFF7B0FF616800
:103FA000E268891A451A61682A463846FCF7BAF869
:103FB000E0686060721B79192046FFF7B2FF054484
:103FC0002846B6E72DE9F04104460F46154600267F
:103FD00004B11FB94FF0FF30BDE8F0812046FFF774
:103FE0007FFFA84202D86FF00100F5E76068A16882
:103FF00088422AD82046FFF782FFA168E268891A22
:10400000461AB54213D8A0682A463946FCF78AF802
:10401000A0682844A0602046FFF771FFE1680844CB
:10402000A168884201D1E068A0602846D4E7A06872
:1040300032463946FCF776F8E068A060AA1BB91949
:104040002046FFF7BFFF3044C6E7A0682A4639463E
:10405000FCF768F8A0682844A0602846BCE7000088
:1040600038B5002423480021016041608160C160AF
:1040700002212148FDF75DFE00BF20E01F4800EB54
:10408000C4201C4941F83400084600EBC4011A481A
:10409000143040F8241000BF50F82400036815487D
:1040A00050F83420C8211648FDF7BEFB00BF114967
:1040B00051F834004FF40061FCF74DF8641C022CF9
:1040C000DCD300BF0C48806800900B484368CD21CA
:1040D00002680CA0FDF7A8FB00BF00BF06480069FE
:1040E00000900548C368CD2102681448FDF79CFB89
:1040F00000BF38BDC4010020D4010020F001002021
:10410000284400083C3C2D51554555452D44454219
:1041100055472D3E3E205B25645D73697A653D30D1
:104120007825782C20726561643D25642C20777297
:104130006974653D25640A0A00000000E443000834
:1041400070B505460E4600240DB9601E70BD0024F2
:104150001BE0295D0F48FDF752FB00BF80210D4891
:10416000FDF780FA0028F9D0022C0DD3285DFF2836
:104170000AD155210748FDF742FB00BF80210548C1
:10418000FDF770FA0028F9D0641CB442E1D3304640
:10419000DCE700000048004010B586B0044601216D
:1041A00044F20400FCF7D4FE4FF40070ADF81400A4
:1041B00003208DF8160018208DF8170005A91C485B
:1041C000FCF70EFD4FF48060ADF8140004208DF86C
:1041D000170005A91648FCF703FD25208DF80000FF
:1041E00003208DF8010001208DF802008DF80300F6
:1041F0006846FCF749FE01940020ADF80800ADF8D0
:104200000A00ADF80C00ADF810000C20ADF80E005F
:1042100001A90848FDF782FA012240F2255105481C
:10422000FDF757FA01210348FDF7C1F906B010BDAB
:10423000000801400038014010B586B00446012155
:104240000820FCF785FE01218804FCF761FE244864
:10425000FDF7BAF94FF48060ADF8100003208DF837
:10426000120018208DF8130004A91E48FCF7B8FCB2
:104270004FF40060ADF8100004208DF8130004A97D
:104280001848FCF7ADFC00940020ADF80400ADF830
:104290000600ADF80800ADF80C000C20ADF80A00DF
:1042A00069460F48FDF73AFA01210D48FDF77FF9FD
:1042B000012240F225510A48FDF70BFA27208DF81C
:1042C000140002208DF8150003208DF8160001203F
:1042D0008DF8170005A8FCF7D7FD06B010BD00004B
:1042E00000480040000C014010B514480078012837
:1042F00016D1134800681349C1F80300124800683A
:10430000C1F8070011480068FBF746FF0D49C1F8E6
:1043100013000F480068FBF73FFF0A49C1F8170078
:104320000C480078012804D101210B48FDF76DFAF3
:1043300003E000210848FDF768FA10BD6400002082
:104340001C0000207C000020200000202400002011
:10435000280000206500002000440040004040404C
:104360004040404040404141414141404040404048
:1043700040404040404040404040404040050202F4
:1043800002020202020202020202020202202020B3
:10439000202020202020200202020202020290900F
:1043A000909090901010101010101010101010100D
:1043B0001010101010101010020202020202888861
:1043C000888888880808080808080808080808086D
:1043D0000808080808080808020202024000000055
:1043E0005D4300083C3C2D51554555452D44454203
:1043F00055472D3E3E205B25645D73697A653D30EF
:104400007825782C20726561645F7573696E673DED
:1044100025642C2077726974655F7573696E673DDA
:1044200025640A0A000000003C3C2D5155455545C5
:104430002D44454255472D3E3E205B25645D6E6F01
:1044400064655F646174615B695D2E686561643D8C
:10445000307825782C0D0A72785F71756575652E38
:10446000656C656D735B695D203D307825780A0069
:1044700090440008000000207C0000005C18000848
:104480000C4500087C000020141700006C18000880
:10449000000000000000000000000000000000001C
:1044A000000000000000000000000000000000000C
:1044B00000000000000000000000000000A24A040C
:1044C00000000000000000000102030406070809C4
:1044D00000000000000000000000000000000102D9
:1044E0000304010203040607080902040608010088
:1044F00000000000000000000000000000000000BC
:0C450000000000000000000000000000AF
:0400000508000101ED
:00000001FF
