:020000040800F2
:10000000C81600200101000845200008472000080C
:100010004B2000084F20000853200008000000007B
:100020000000000000000000000000005720000851
:1000300059200008000000005B2000085D20000837
:100040001B0100081B0100081B0100081B01000820
:100050001B0100081B0100081B0100081B01000810
:100060001B0100081B0100081B0100081B01000800
:100070001B0100081B0100081B0100081B010008F0
:100080001B0100081B0100081B0100081B010008E0
:100090001B0100081B0100081B0100081B010008D0
:1000A0001B0100081B0100081B0100081B010008C0
:1000B0001B0100084F1F00081B0100081B0100085E
:1000C0001B0100081B0100081B0100081B010008A0
:1000D0001B0100081B0100085F200008BD2000086C
:1000E0001B0100081B0100081B010008DFF80CD0F1
:1000F00005F0F4FA00480047591D0008C816002012
:100100000648804706480047FEE7FEE7FEE7FEE7B1
:10011000FEE7FEE7FEE7FEE7FEE7FEE70302000874
:10012000ED0000080CB50020019000906C480068BC
:1001300040F480306A49086000BF6948006800F4F4
:10014000003000900198401C0190009818B9019867
:10015000B0F5A06FF1D16248006800F4003010B132
:100160000120009001E0002000900098012843D178
:100170005C48006840F010005A4908600846006872
:1001800020F0030008600846006840F002000860A4
:1001900053484068524948600846406848600846ED
:1001A000406840F4806048600846406820F47C1055
:1001B00048600846406840F4E81048600846006817
:1001C00040F08070086000BF4548006800F0007093
:1001D0000028F9D04248406820F0030040494860B8
:1001E0000846406840F00200486000BF3C48406854
:1001F00000F00C000828F9D10CBD10B5FFF792FFF4
:1002000010BD10B53648006840F001003449086060
:10021000084640683449084031494860084600684B
:10022000324908402E4908600846006820F48020C2
:1002300008600846406820F4FE0048604FF41F0044
:100240008860FFF7DAFF4FF000602949086010BDB1
:1002500010B5002100200022214B5B6803F00C0147
:1002600021B1042906D0082928D107E0214B224CCE
:10027000236027E01F4B204C236023E0184B5B6872
:1002800003F47010164B5B6803F48032022303EB17
:10029000904022B9194B4343174C23600DE0104B9B
:1002A0005B6803F4003323B1144B4343124C2360C7
:1002B00003E0104B4343104C236003E00D4B0E4C06
:1002C000236000BF00BF064B5B68C3F303130C4CF5
:1002D000E15C094B1B68CB40074C236010BD00005C
:1002E00000100240002002400000FFF8FFFFF6FE71
:1002F00008ED00E000127A000000002000093D0037
:100300000400002031490143314A1160704770B543
:10031000002100230F22C47804B32D4C246804F478
:10032000E064C4F5E064210AC1F10403CA404478E2
:1003300004FA03F18478144021430901254C06781E
:10034000A155047804F01F050124AC4005786D1117
:10035000AD0005F1E025C5F8004109E0047804F09E
:100360001F050124AC401C4D0678761145F8264047
:1003700070BD1A4A0A400243154B1B1F1A60704792
:1003800039B1134A121D12680243114B1B1D1A602A
:1003900006E00F4A121D126882430D4B1B1D1A60A6
:1003A0007047042808D14FF0E021096941F00401A9
:1003B0004FF0E022116107E04FF0E021096921F0E0
:1003C00004014FF0E0221161704700000000FA05BF
:1003D0000CED00E000E400E080E100E080FFFF1FA2
:1003E00010B50446CC48844208D10121042000F015
:1003F0002DFB0021042000F029FB46E0C748844281
:1004000008D10121082000F021FB0021082000F084
:100410001DFB3AE0C248844208D10121102000F0BF
:1004200015FB0021102000F011FB2EE0BD48844296
:1004300008D10121202000F009FB0021202000F03C
:1004400005FB22E0B848844208D10121402000F099
:10045000FDFA0021402000F0F9FA16E0B34884428A
:1004600008D10121802000F0F1FA0021802000F065
:10047000EDFA0AE0AE48844207D10121801500F070
:10048000E5FA0021A01500F0E1FA10BD10B5012138
:10049000084600F0DBFA0021012000F0D7FA10BD79
:1004A0002DE9F0410246002500260020002300240B
:1004B000002791F803C00CF00F0591F803C00CF071
:1004C000100CBCF1000F03D091F802C04CEA0505F6
:1004D00091F800C0BCF1000F31D0146800202BE06F
:1004E0004FF0010C0CFA00F3B1F800C00CEA03065F
:1004F0009E4220D183004FF00F0C0CFA03F7BC434F
:1005000005FA03FC4CEA040491F803C0BCF1280F7F
:1005100006D14FF0010C0CFA00FCC2F814C00AE03E
:1005200091F803C0BCF1480F05D14FF0010C0CFA53
:1005300000FCC2F810C0401C0828D1D31460B1F8E8
:1005400000C0BCF1FF0F34DD546800202EE000F144
:10055000080C4FF0010808FA0CF3B1F800C00CEADF
:1005600003069E4221D183004FF00F0C0CFA03F7D3
:10057000BC4305FA03FC4CEA040491F803C0BCF147
:10058000280F05D100F1080C08FA0CF8C2F8148005
:1005900091F803C0BCF1480F07D100F1080C4FF0EF
:1005A000010808FA0CF8C2F81080401C0828CED3C5
:1005B0005460BDE8F0814FF6FF7101800221817027
:1005C0000421C17070470246002093680B400BB1B4
:1005D000012000E0002070470146886880B2704723
:1005E00002460020D3680B400BB1012000E0002040
:1005F00070470146C86880B2704701617047416129
:1006000070470AB1016100E041617047C160704705
:100610004FF480320A43826181618261826982691A
:10062000704702460020434B18684FF6807318400D
:1006300040EA021008433F4B186070473E49C861CA
:100640007047F0B50A46002300240021002500F081
:100650000046B6F1004F02D1364EF16901E0354E49
:100660007168C0F3034583B200F44016B6F5401F2D
:1006700008D121F070612F4E766826F070662D4FFC
:100680007E6012E000F48016B6F5801F06D10326C6
:1006900006FA05F4A14341F0706106E0460D36010B
:1006A00003FA06F6B14341F0706122B1460D3601FE
:1006B00003FA06F6314300F00046B6F1004F02D1CE
:1006C0001C4EF16101E01B4E7160F0BD30B500229F
:1006D0008B071C0F0F2303FA04F2164B08338C1000
:1006E00053F824309343134C08348D1044F82530CC
:1006F00023468C1053F824308C07240F00FA04F49E
:1007000023430C4C08348D1044F8253030BD0A4981
:10071000DC3108607047000000080140000C014017
:10072000001001400014014000180140001C01406D
:10073000002001400000014000002042DF48006826
:1007400040F00100DD49086008464068DC49084087
:10075000DA49486008460068DA490840D749086025
:100760000846006820F4802008600846406820F4AD
:10077000FE0048604FF41F0088607047CF49096849
:1007800021F48031CD4A11601146096821F480219D
:100790001160B0F5803F03D0B0F5802F0ED106E098
:1007A000C649096841F48031C44A116007E0C34971
:1007B000096841F4A021C14A116000E000BF00BFF8
:1007C000704710B501460022002300204A11012A7B
:1007D00002D1BA4C236806E0022A02D1B74C236A40
:1007E00001E0B64C636A01F01F02012494401C40F2
:1007F0000CB1012000E0002010BD38B500200090B1
:100800000024002500BF3120FFF7DBFF05460098DC
:10081000401C00900098B0F5A06F01D0002DF2D0E0
:100820003120FFF7CEFF08B1012400E0002420466C
:1008300038BD01460020A14A106820F0F80040EAC7
:10084000C10010607047A049086070470246002050
:100850009A4B586820F47C1042EA01031843974BE6
:100860005860704798490866704701460020934ACF
:10087000506820F003000843506070478F4840687C
:1008800000F00C007047014600208C4A506820F0B0
:10089000F00008435060704701460020874A5068C6
:1008A00020F4E06008435060704701460020834A0E
:1008B000506820F4605040EAC1005060704729B190
:1008C0007E4A527A02437D4B5A7204E07B4A527A46
:1008D00082437A4B5A7270477B49D831086070471F
:1008E00001460020754A506820F44040084350609B
:1008F00070470021714A20321170704A82F820102E
:10090000012802D004280AD104E001216B4A2032D8
:10091000117005E00521694A2032117000E000BF26
:1009200000BF70476949086070476449096A01431C
:10093000624A11627047654944390860704730B5B2
:1009400000210022002400235C4D6D6805F00C019D
:1009500021B1042905D0082923D105E05C4D0560AB
:1009600022E05B4D05601FE0544D6D6805F4701288
:10097000524D6D6805F48034022505EB92421CB996
:10098000544D554305600BE04C4D6D6805F4003542
:100990001DB1504D5543056002E04D4D5543056076
:1009A00002E04B4D056000BF00BF444D6D6805F08F
:1009B000F0010909484D6B5C0568DD4045603F4D1D
:1009C0006D6805F4E061090A434D6B5C4568DD40E4
:1009D00085603A4D6D6805F46051C90A3E4D6B5C07
:1009E0004568DD40C560354D6D6805F44041890BB3
:1009F0003A4D6B5CC568B5FBF3F5056130BD29B1B7
:100A00002E4A526902432D4B5A6104E02B4A526927
:100A100082432A4B5A61704729B1284A926902439E
:100A2000264B9A6104E0254A92698243234B9A61DE
:100A3000704729B1214AD2690243204BDA6104E0B0
:100A40001E4AD26982431D4BDA61704729B11B4AA5
:100A5000D2680243194BDA6004E0184AD268824334
:100A6000164BDA60704729B1144A12690243134BDE
:100A70001A6104E0114A12698243104B1A617047EF
:100A800012494039086070470F49C86470470B49E4
:100A9000C87170470948406A40F080700749486251
:100AA000704701460020054A92680A400AB10120B9
:100AB00000E0002070470149887270470010024032
:100AC0000000FFF8FFFFF6FE0000424280044242B1
:100AD00000127A0000093D001400002024000020CC
:100AE00010B50446FE48844208D10121C014FFF726
:100AF000ADFF0021E014FFF7A9FFC4E0B4F1804F7F
:100B000008D101210846FFF7AEFF00210120FFF7C1
:100B1000AAFFB8E0F348844208D101210220FFF780
:100B2000A2FF00210220FFF79EFFACE0EE488442C6
:100B300008D101210420FFF796FF00210420FFF7D0
:100B400092FFA0E0E948844208D101210820FFF784
:100B50008AFF00210820FFF786FF94E0E4488442E2
:100B600008D101211020FFF77EFF00211020FFF7A0
:100B70007AFF88E0DF48844208D101212020FFF776
:100B800072FF00212020FFF76EFF7CE0DA488442EC
:100B900008D101214014FFF759FF00216014FFF72D
:100BA00055FF70E0D548844209D10121C804FFF700
:100BB0004DFF00214FF40020FFF748FF63E0D048CD
:100BC000844209D101210805FFF740FF00214FF4BD
:100BD0008010FFF73BFF56E0CA48844209D101214B
:100BE0004805FFF733FF00214FF40010FFF72EFFF9
:100BF00049E0C548844208D101214020FFF733FF76
:100C000000214020FFF72FFF3DE0C048844208D17B
:100C100001218020FFF727FF00218020FFF723FF1D
:100C200031E0BB48844208D101218015FFF71BFF4A
:100C30000021A015FFF717FF25E0B648844209D12F
:100C400001210804FFF702FF00214FF48030FFF775
:100C5000FDFE18E0B048844209D101214804FFF7A5
:100C6000F5FE00214FF40030FFF7F0FE0BE0AB483B
:100C7000844208D101218804FFF7E8FE00214FF4E7
:100C80008020FFF7E3FE10BD00220288944B9842BB
:100C90000ED0994B98420BD0B0F1804F08D0914BB9
:100CA000984205D0904B984202D0904B984204D184
:100CB0004FF68F731A404B881A438D4B984207D0DA
:100CC0008C4B984204D04FF6FF431A40CB881A430E
:100CD00002808B8883850B880385814B98420BD0DB
:100CE000854B984208D08B4B984205D08A4B98424E
:100CF00002D08A4B984201D10B7A0386012383826A
:100D0000704770B5002400220023058C4FF6FE7654
:100D100035400584028C8388048B4FF68F752C40F8
:100D2000B51E2C400D882C43751E2A400D892A4380
:100D30004D882A436A4DA8420BD06F4DA84208D077
:100D4000744DA84205D0744DA84202D0734DA842FC
:100D500013D14FF6F7752A404D892A434FF6FB759C
:100D60002A408D882A434FF6FF652B404FF6FF55EA
:100D70002B408D892B43CD892B4383800483CD88E1
:100D80008586028470BD70B5002400220023058C86
:100D90004FF6EF7635400584028C8388048B48F645
:100DA000FF752C404FF6FF452C400D884FF6FF761F
:100DB00006EA05252C434FF6DF752A400D8906EA21
:100DC00005152A434D8806EA05152A43444DA842D5
:100DD00002D0494DA8421DD14FF67F752A404D895A
:100DE0004FF6FF7606EA05152A434FF6BF752A40EF
:100DF0008D8806EA05152A434FF6FF352B404FF242
:100E0000FF752B408D8906EA85052B43CD8906EABF
:100E100085052B4383800483CD880587028470BDBC
:100E200070B5002400220023058C4FF6FF66354084
:100E30000584028C8388848B4FF68F752C404FF687
:100E4000FC752C400D882C434FF6FF552A400D8928
:100E50004FF6FF7606EA05252A434D8806EA052562
:100E60002A431F4DA84202D0234DA8421DD14FF264
:100E7000FF752A404D894FF6FF7606EA05252A437D
:100E80004FF6FF352A408D8806EA05252A434EF69F
:100E9000FF752B404DF6FF752B408D8906EA051531
:100EA0002B43CD8906EA05152B4383808483CD88A7
:100EB0008587028470BD70B5002200230024058C54
:100EC0004EF6FF7635400584038C8488828B48F685
:100ED000FF752A404FF6FF452A400D8820E00000AC
:100EE000002C01400004004000080040000C0040BD
:100EF000001000400014004000340140004C01404C
:100F0000005001400054014000180040001C004007
:100F100000200040004001400044014000480140E2
:100F20004FF6FF7606EA05252A434DF6FF752B405E
:100F30000D8906EA05352B434D8806EA05352B4316
:100F4000FA4DA84202D0FA4DA84208D14BF6FF75DF
:100F50002C408D894FF6FF7606EA85152C43848058
:100F60008283CD88A0F84050038470BD828B4FF2FD
:100F7000FF331A408283828B4FF6FF7303EA01230B
:100F80001A4382837047F0B50C46154600220021B3
:100F90000026078C4EF6FF7C07EA0C070784828B3D
:100FA000018C4FF6FF7707EA043640F6FF473A40D8
:100FB0004FF6FF7707EA05273A434FF6FF7707EA30
:100FC00003373A43D94FB8420ED0D94FB8420BD06D
:100FD000B0F1804F08D0D74FB84205D0D64FB842B5
:100FE00002D0D64FB84206D14DF6FF77394046F4CD
:100FF0008057394305E047F6FF57394044F480579E
:10100000394382830184F0BD828B4FF6F3731A401B
:101010008283828B0A4382837047F0B50C46154663
:10102000002200210026078C4FF6FF6C07EA0C0710
:101030000784828B018C4FF6FF7707EA04264FF670
:101040000C773A404FF6FF7707EA03172F433A43EE
:10105000B64FB8420ED0B64FB8420BD0B0F1804F69
:1010600008D0B44FB84205D0B34FB84202D0B34F06
:10107000B84206D14FF6FF57394046F480773943DE
:1010800005E04FF2FF57394044F4807739438283BB
:101090000184F0BD028B4FF2FF331A400283028BB2
:1010A0004FF6FF7303EA01231A4302837047F0B53A
:1010B0000C461546002200210026078C4FF6EF7CD7
:1010C00007EA0C070784028B018C4FF6FF7707EACB
:1010D000041640F6FF473A404FF6FF7707EA03371A
:1010E0003A434FF6FF7707EA05273A438F4FB84256
:1010F0000ED08F4FB8420BD0B0F1804F08D08D4F3B
:10110000B84205D08C4FB84202D08C4FB84206D1BD
:101110004FF6DF77394046F01007394305E04FF6C8
:101120005F77394044F01007394302830184F0BDF2
:10113000028B4FF6F3731A400283028B0A43028339
:101140007047F0B50C46154600220021068C4FF67C
:10115000FE773E400684028B018C4FF60C763240BF
:101160007E1C06EA03162E433243704EB0420ED068
:101170006F4EB0420BD0B0F1804F08D06D4EB042F0
:1011800005D06D4EB04202D06C4EB04206D14FF643
:10119000FD76314044F00106314305E04FF6F57627
:1011A000314044F00106314302830184F0BD70B543
:1011B00005460C465D4885420ED05D4885420BD001
:1011C000B5F1804F08D05B48854205D05A4885422A
:1011D00002D05A48854200D100E000BF208850B9B3
:1011E0002389A28861882846FFF7ABFFE18828465B
:1011F000FFF79EFF25E0208804280AD12389A288D2
:1012000061882846FFF753FFE1882846FFF742FF31
:1012100017E0208808280AD12389A28861882846F7
:10122000FFF7FBFEE1882846FFF7EEFE09E0238981
:10123000A28861882846FFF7A6FEE1882846FFF7C6
:1012400095FE70BD2DE9F04105460C4600260127AC
:10125000608808B9022600E00026A088012801D194
:10126000022700E001272088A0B92389A28861888D
:101270002846FFF766FFE1882846FFF759FF2389D4
:101280003A4631462846FFF712FFE1882846FFF725
:1012900001FF13E02389A28861882846FFF707FF32
:1012A000E1882846FFF7F6FE23893A46314628466C
:1012B000FFF747FFE1882846FFF73AFFBDE8F081D6
:1012C0000A884B881A438B881A43CB881A430B89A8
:1012D0001A434B891A438B891A43A0F8442070475C
:1012E0004FF6FF71818000210180C1804180017231
:1012F00070470021018041808180C180018141814E
:101300008181C1817047002101804180012181805C
:101310000021C180018170470021018041808180CE
:10132000C18001814181818170470000002C014012
:10133000003401400004004000080040000C004060
:1013400021B1028842F00102028004E002884FF6D7
:10135000FE731A400280704731B1B0F8442042F465
:101360000042A0F8442005E0B0F84420C2F30E0289
:10137000A0F8442070471AB183890B43838102E0AF
:1013800083898B43838170478182704741EA0203DE
:10139000A0F8483070471AB183890B43838102E07B
:1013A00083898B438381704701894FF6F87211401E
:1013B000018170470A46002101894FF68F73194059
:1013C00011430181704730B504460D462946204639
:1013D000FFF7F0FF208940F00700208130BD2DE9A4
:1013E000F04104460D4616461F46602D06D13B4689
:1013F000012231462046FFF75AFE05E03B46012216
:1014000031462046FFF79DFE29462046FFF7D2FFD2
:10141000208940F007002081BDE8F08130B50C46FE
:1014200000210189C9B24FF6FF7505EA032515436E
:1014300025432943018130BD2DE9F04105460E4683
:1014400017469846002443463A4631462846FFF759
:10145000E5FF2C894FF6F870044044F007044FF67E
:101460008F70044044F070042C81BDE8F081F0B529
:1014700004460D4616461F463B4632462946204640
:10148000FFF7CCFF208940F480402081F0BD01852A
:10149000828270470A46002101884FF68F731940F7
:1014A000114301807047F0B50C4615461E460021D9
:1014B000002200230189028B038C4FF6F877394014
:1014C00021434FF6FC473A4040F201173A434FF6AA
:1014D000DD773B404FF6FF7707EA06172F433B4384
:1014E000018102830384F0BD0A460021018B4FF67F
:1014F0008F7319401143018370470A460021018B05
:1015000048F6FF7319404FF6FF7303EA02231943AD
:10151000018370470A460021818B4FF68F73194073
:101520001143818370470A460021818B48F6FF737F
:1015300019404FF6FF7303EA022319438183704772
:1015400021B1028842F08002028004E002884FF656
:101550007F731A400280704721B1828842F00402F2
:10156000828004E082884FF6FB731A4082807047C5
:1015700021B1828842F00802828004E082884FF61E
:10158000F7731A408280704721B1828842F00102CD
:10159000828004E082884FF6FE731A408280704792
:1015A0000A460021018B4FF6F7731940114301835E
:1015B00070470A460021018B4FF2FF7319404FF626
:1015C000FF7303EA02231943018370470A4600218F
:1015D000818B4FF6F77319401143818370470A4698
:1015E0000021818B4FF2FF7319404FF6FF7303EA1E
:1015F00002231943818370470A460021018B4FF66D
:10160000FB7319401143018370470A460021018B87
:101610004FF6FF3319404FF6FF7303EA02231943D5
:10162000018370470A460021818B4FF6FB731940F6
:101630001143818370470A460021818B4FF6FF33A7
:1016400019404FF6FF7303EA022319438183704761
:101650000A460021018B4FF67F7319401143018325
:1016600070470A460021018BC1F30E014FF6FF734C
:1016700003EA02231943018370470A460021818B44
:101680004FF67F7319401143818370470A4600214A
:10169000818BC1F30E014FF6FF7303EA0223194356
:1016A000818370470A460021018C4FF6FD73194073
:1016B0001143018470470A460021018C4FF6F773ED
:1016C00019401143018470470A460021018C4FF6EE
:1016D000DF7319404FF6FF7303EA021319430184C5
:1016E00070470A460021018C4FF67F7319404FF670
:1016F000FF7303EA02131943018470470A4600216D
:10170000018C4FF6FF5319404FF6FF7303EA022393
:101710001943018470470A460021018C4FF2FF7380
:1017200019404FF6FF7303EA0223194301847047FF
:101730000A460021018C4DF6FF7319404FF6FF73E6
:1017400003EA023319430184704730B500230124B2
:101750008C40A3B2048C9C430484048C02FA01F5EF
:10176000ADB22C43048430BD30B5002304248C403A
:10177000A3B2048C9C430484048C02FA01F5ADB23C
:101780002C43048430BD70B5034600200024184665
:10179000183001258D40ACB21D8CA5431D8409B1C4
:1017A000082909D100EB6100056825F07005056086
:1017B0000568154305600EE00D1FC5F34E0528446E
:1017C000056825F4E045056005684FF6FF7606EAF2
:1017D00002263543056070BD21B1028842F0020245
:1017E000028004E002884FF6FD731A4002807047C1
:1017F00021B1028842F00402028004E002884FF620
:10180000FB731A400280704721B1828842F0800247
:10181000828004E082884FF67F731A40828070478E
:1018200002884FF6F7731A40028002880A4302804A
:10183000704782884FF68F731A40828082880A43ED
:101840008280704702894FF6F8731A40028102893C
:101850000A430281704702894FF67F731A40028162
:1018600002890A43028170478184704781857047ED
:10187000818670470187704781877047A0F84010C4
:10188000704702884FF6FF431A40028002880A43DD
:10189000028070470146888E70470146088F704766
:1018A0000146888F70470146B1F8400070470146F5
:1018B000888C70470146088D704702460020138AC5
:1018C0000B400BB1012000E000207047CA430282A8
:1018D000704730B50246002000230024158A05EA2F
:1018E0000103958905EA010413B10CB1012000E060
:1018F000002030BDCA4302827047000010B5044684
:10190000FB48844209D101218803FFF79FF8002199
:101910004FF48040FFF79AF832E0F648844209D14C
:1019200001214804FFF79FF800214FF40030FFF732
:101930009AF825E0F048844209D101218804FFF794
:1019400092F800214FF48020FFF78DF818E0EB4863
:10195000844209D10121C804FFF785F800214FF422
:101960000020FFF780F80BE0E548844208D1012110
:101970000805FFF778F800214FF48010FFF773F89F
:1019800010BD2DE9F04786B005460E460024A2465C
:1019900000BFA1460027B08900B100BF2F462C8AA6
:1019A0004CF6FF700440F08804432C82AC894EF65C
:1019B000F3100440B0883189084371890843044317
:1019C000AC81AC8A4FF6FF400440B0890443AC823E
:1019D00001A8FEF7B4FFC648874202D1DDF810A087
:1019E00001E0DDF80CA0A88900F4004040B10AEB4A
:1019F000CA0000EB0A1031684900B0FBF1F807E0BB
:101A00000AEBCA0000EB0A1031688900B0FBF1F85C
:101A10006420B8FBF0F004012009642101FB108967
:101A2000A88900F4004040B1322000EBC900B0FBAF
:101A3000F1F000F00700044308E0322000EB091049
:101A40006421B0FBF1F000F00F0004432C8106B0DC
:101A5000BDE8F0874FF41651016000218180C180FC
:101A600001810C21418100218181704710B502461E
:101A70000020108A4FF2FF0318400B884C88234344
:101A80008C882343CC8823431843108210BD002147
:101A9000018041808180C180704721B1828942F4F8
:101AA0000052828104E082894DF6FF731A408281E0
:101AB0007047F0B50346002400260025002040F6BC
:101AC0006A17B94200D100BF1846C1F3421401F0B1
:101AD0001F06012707FA06F5012C01D10C3004E09E
:101AE000022C01D1103000E014301AB107682F43E6
:101AF000076002E00768AF430760F0BD1AB1838A50
:101B00000B43838202E0838A8B4383827047028A7D
:101B10004FF6F0731A400282028A0A43028270472B
:101B200082894FF2FF731A40828182890A4382813F
:101B3000704721B1828942F00202828104E08289E9
:101B40004FF6FD731A4082817047028A4FF6DF73A9
:101B50001A400282028A0A430282704721B1028A35
:101B600042F48042028204E0028A4BF6FF731A407C
:101B700002827047C1F3080282807047014688885C
:101B8000C0F308007047818941F0010181817047ED
:101B9000028BD2B20283028B42EA01220283704797
:101BA000028B02F47F420283028B0A430283704756
:101BB00021B1828A42F02002828204E0828A4FF6BA
:101BC000DF731A408282704721B1828A42F010028C
:101BD000828204E0828A4FF6EF731A408282704755
:101BE00021B1828A42F00802828204E0828A4FF6A2
:101BF000F7731A408282704721B1828942F4004211
:101C0000828103E08289C2F30E028281704721B192
:101C1000828A42F40062828204E0828A4FF2FF7379
:101C20001A4082827047828A4FF6FB731A40828282
:101C3000828A0A438282704721B1828A42F002027C
:101C4000828204E0828A4FF6FD731A4082827047D6
:101C500002460020B1F5007F00D100BF13880B4081
:101C60000BB1012000E00020704701F40072B2F5D2
:101C7000007F00D100BFCA430280704770B50246A2
:101C8000002400230025002040F66A16B14200D14E
:101C900000BFC1F3421501F01F03012606FA03F34A
:101CA000012D02D19689334006E0022D02D1168A19
:101CB000334001E0968A33400C12012606FA04F400
:101CC0001688344013B10CB1012000E0002070BD33
:101CD00010B50022002340F66A14A14200D100BFD3
:101CE0000A1201249440A3B2DC43048010BD00001A
:101CF000003801400044004000480040004C0040D3
:101D00000050004010B541F61F41092000F0F3F8E3
:101D10001B21374803F0EEF902F0D1F810BD10B5E1
:101D200034480078012816D1334800683049C1F89A
:101D3000030032480068C1F807003148006803F02A
:101D4000CEFA2B49C1F813002E48006803F0C7FAF9
:101D50002749C1F8170010BD08B500F009F900F0D7
:101D6000C5F900F057FA00F068FD00F026FB00F01E
:101D700065F800F026FCFFF7C5FF23A003F070FF15
:101D800034E000F0B7FC2448244B254A2549009054
:101D9000254800F09AFD234803F0C7F9164908606A
:101DA0001F4803F0C2F9154908601C4804F0C1F946
:101DB000044603F0A8FA12490860174804F0B9F97C
:101DC000044603F0A0FA0F4908604FF40051174889
:101DD00000F0EFF928B9022002F088F814A003F00F
:101DE0003FFFFFF79CFF024802F0F0FAC9E700004E
:101DF0007C000020600000204400002048000020FB
:101E00004C00002050000020B3F5CABCBBAFCDEAA7
:101E1000B3C90D0A000000003A0000203400002081
:101E2000300000202C00002097000020001001400E
:101E3000C5E4CDF8CDEAB3C90D0A000008B501210B
:101E40000820FEF7E9FD2020ADF8000010208DF8F5
:101E5000030003208DF8020069460F48FEF720FBBF
:101E60000120ADF8000069460B48FEF719FB02207F
:101E7000ADF8000069460848FEF712FB202106482D
:101E8000FEF7BBFB01210448FEF7B7FB0221024825
:101E9000FEF7B3FB08BD0000000C01407FB505460E
:101EA0000C4601210420FEF7C4FDADF80450ADF846
:101EB00000400020ADF80600ADF8020069462A484F
:101EC000FEF7E2FE012211462748FFF754FA0121EE
:101ED0002548FFF735FA1E208DF80C0000208DF8FC
:101EE0000D0002208DF80E0001208DF80F0003A8D0
:101EF000FEF70DFA7FBD7FB505460C460121022095
:101F0000FEF797FDADF80850ADF804400020ADF89D
:101F10000A00ADF8060001A91448FEF7B5FE01223B
:101F200011461248FFF727FA1D208DF80000002007
:101F30008DF8010001208DF802008DF8030068463D
:101F4000FEF7E5F901210948FFF7FAF97FBD10B561
:101F500001210648FFF7BDFC28B101210348FFF726
:101F6000C9FC00F099FD10BD0008004000040040CD
:101F700010B56FF00400FEF714FA2E4800682E49E1
:101F8000B0FBF1F02D4908700846007800EB4001E5
:101F9000C1EBC0104FF6FF7101EAC000284908806C
:101FA00010BD0146254A12784A434FF0E0235A619A
:101FB00000229A611A46126942F001021A6100BFBA
:101FC0004FF0E022106900F001021AB100F48032F3
:101FD000002AF5D04FF0E022126922F001024FF002
:101FE000E0231A6100229A6170470146144A128860
:101FF0004A434FF0E0235A6100229A611A4612695F
:1020000042F001021A6100BF4FF0E022106900F0B7
:1020100001021AB100F48032002AF5D04FF0E0221C
:10202000126922F001024FF0E0231A6100229A6146
:10203000704700000000002000127A0054000020C9
:1020400056000020704700BFFEE700BFFEE700BF5C
:10205000FEE700BFFEE7704770477047704770B5F6
:1020600040F225511E48FFF709FEB8B11D48FFF7A1
:1020700085FDC5B21C4800F051FA04466CB1A18838
:1020800020684554A088401C80B2A080B0F5006F45
:1020900004DB154800F05CFA00E070BD40F224411A
:1020A0000F48FFF7EBFD012806D10F4800F050FA6A
:1020B0000B48FFF763FDC5B200BFEEE708B540F27D
:1020C00025510848FFF7DAFD40B10648FFF756FDF5
:1020D000C0B200900121684600F0A2FD08BD0000DA
:1020E00000440040004800400C01002008B50121D8
:1020F0001420FEF791FC0120ADF8000004208DF8BB
:10210000030069463548FEF7CBF94FF40050ADF8AF
:10211000000004208DF8030069463148FEF7C0F93D
:1021200008BD08B501210420FEF776FC1020ADF8AB
:10213000000048208DF8030069462848FEF7B0F9F2
:102140002020ADF8000048208DF8030069462348A0
:10215000FEF7A6F908BD10B5044614B101202149C7
:10216000087020480078B8B11F48006818B11E48B0
:10217000001D006880B90A20FFF737FF00201949C9
:1021800008701948006808B9012010BD1648001DE4
:10219000006860B90220F8E713480068012806D1FA
:1021A0001148001D0068012801D10E490870002067
:1021B000EBE770B504460D4629462046FEF703FAC4
:1021C000012808D100BF29462046FEF7FCF9012866
:1021D000F9D0012070BD0020FCE70000000801409C
:1021E00000100140580000201001214208B54FF4B2
:1021F000A060FEF787F825208DF8000002208DF8FA
:10220000010001208DF802008DF803006846FEF7FA
:102210007EF808BD00B585B001210420FEF7FCFB67
:1022200001218803FEF7F8FB4FF40070ADF81000B1
:1022300018208DF8130003208DF8120004A95348CC
:10224000FEF72EF94FF48060ADF8100004208DF8F1
:10225000130004A94D48FEF723F94FF4E130009034
:102260000020ADF80400ADF80600ADF80800ADF8A8
:102270000C000C20ADF80A0069464548FFF781FBC9
:10228000FFF7B4FF012240F225514148FFF711FC4E
:1022900001213F48FFF701FC05B000BD70B50446C1
:1022A0000D4629462046FFF765FC00BF80212046E9
:1022B000FFF7CEFC0028F9D070BD2DE9F0410746AC
:1022C0000D461646002405E0295D3846FFF7E6FF77
:1022D000601CC4B2B442F7DB00BF40213846FFF7B0
:1022E000B7FC0028F9D0BDE8F08170B506460C4671
:1022F000002500BF615D3046FFF7D0FF6D1C605DBB
:102300000028F7D100BF40213046FFF7A1FC00288C
:10231000F9D070BD2DE9F04105460C46260AE7B21A
:1023200031462846FFF726FC00BF80212846FFF7EC
:102330008FFC0028F9D039462846FFF71BFC00BF68
:1023400080212846FFF784FC0028F9D0BDE8F08101
:1023500070B504460D46E1B20D48FFF70BFC00BF17
:1023600080210B48FFF774FC0028F9D0204670BD8F
:1023700010B5044600BF20210548FFF769FC00287E
:10238000F9D00348FFF7FAFB10BD00000008014038
:102390000038014008B54FF4A060FDF7B3FF2720D7
:1023A0008DF8000001208DF801008DF802008DF8F5
:1023B00003006846FDF7ABFF08BD00B585B00121FD
:1023C0000820FEF729FB01218804FEF732FB4FF4B9
:1023D0008060ADF8100018208DF8130003208DF8F0
:1023E000120004A93B48FEF75BF84FF40060ADF81B
:1023F000100004208DF8130004A93648FEF750F8A9
:102400004FF4165000900020ADF80400ADF806001F
:10241000ADF80800ADF80C000C20ADF80A006946D4
:102420002D48FFF7AEFAFFF7B5FF012240F2255124
:102430002948FFF73EFB01212748FFF72EFB012229
:1024400040F224412448FFF734FB05B000BD70B5CD
:1024500004460D4629462046FFF78CFB00BF80212D
:102460002046FFF7F5FB0028F9D070BD70B5064691
:102470000C46002500BF615D3046FFF7E8FF6D1C8C
:10248000605D0028F7D100BF40213046FFF7E0FB38
:102490000028F9D070BD2DE9F04105460C46260A0A
:1024A000E7B231462846FFF765FB00BF802128468A
:1024B000FFF7CEFB0028F9D039462846FFF75AFB34
:1024C00000BF80212846FFF7C3FB0028F9D0BDE8F4
:1024D000F0810000000C0140004800400160002233
:1024E0004260826070470146D1E9002050408A680E
:1024F000904201D1012070470020FCE70146D1E95C
:102500000120904201D1012070470020FCE70246E3
:1025100010684000401E4B1C1840704710B5044620
:102520002046FFF7E0FF08B1002010BD2169A06838
:10253000884204D12046A168FFF7E9FF20612168A5
:10254000491E2069084004F1140151F82000ECE70D
:1025500001698160704710B504462046FFF7CEFF41
:1025600008B1002010BDE1686068884204D12046AF
:102570006168FFF7CCFFE0602168491EE068084011
:1025800004F1140151F82000ECE700230268521E08
:10259000C168114000F1140252F821108B80C1680B
:1025A00041607047002000BF08E06E4951F83010CC
:1025B00019B100216B4A42F83010401C0228F4D3B4
:1025C000704738B500246748002101604160816090
:1025D000C16002216448FFF781FF00BF20E063482B
:1025E00000EBC4205F4941F83400084600EBC40109
:1025F0005D48143040F8241000BF50F824000368F0
:10260000584850F83420C821594803F029FB00BF2E
:10261000544951F834004FF4006102F06BFD641C22
:10262000022CDCD300BF5048806800904E484368BD
:10263000CD2102684FA003F013FB00BF00BF4A4842
:10264000006900904848C368CD210268574803F0EC
:1026500007FB00BF38BDF8B506460F4600252AE047
:102660004148FFF75BFF044654B1705D216848554F
:10267000A088401CA080A1884DA003F0F1FA00E0E2
:10268000F8BD00BF38488068009037484368E721AC
:10269000026838A003F0E4FA00BF00BF32480069C6
:1026A00000903148C368E7210268404803F0D8FA37
:1026B00000BF681CC5B2BD42D2DB2B48FFF748FF04
:1026C00000BF29488068009027484368ED210268D0
:1026D00028A003F0C5FA00BF00BF2348006900909E
:1026E0002148C368ED210268304803F0B9FA00BF01
:1026F00000BFC5E770B51C48FFF72DFF0446002C4E
:102700002FD00020A2882168885400BF40F2011118
:102710002CA0226803F0A4FA00BF00BF266833A0F3
:1027200003F09EFA00250EE0715D37A003F098FAE1
:10273000681C0A2190FBF1F201FB120010B931A0D4
:1027400003F08EFA6D1CA088A842EDDC2DA003F0EA
:1027500087FA00BF2E48216802F0DEFC0248FFF72E
:1027600014FF70BDFC0000200C0100202801002097
:10277000586200083C3C2D51554555452D44454275
:1027800055472D3E3E205B25645D73697A653D307B
:102790007825782C20726561643D25642C20777241
:1027A0006974653D25640A0A00000000146200088F
:1027B0000D0A646174615F702D3E6C656E203D256D
:1027C000640000003C3C2D51554555452D44454283
:1027D00055472D3E3E205B25645DBDD3CAD5B5BDB2
:1027E000B5C4CAFDBEDDA3BA25730A000A3C3C2D60
:1027F00051554555452D44454255472D415252416D
:10280000592D3E3E0A00000025303278202020005D
:102810009700002008B54FF4A060FDF773FD262057
:102820008DF8000001208DF801008DF802008DF870
:1028300003006846FDF76BFD08BD00B585B00121BA
:102840000820FEF7E9F801214804FEF7F2F8042019
:10285000ADF8100018208DF8130003208DF8120039
:1028600004A94948FDF71CFE0820ADF8100004201B
:102870008DF8130004A94448FDF712FE4FF4E1302F
:1028800000900020ADF80400ADF80600ADF8080097
:10289000ADF80C000C20ADF80A0069463B48FFF784
:1028A00070F8FFF7B7FF012240F225513748FFF7D4
:1028B00000F9012240F224413448FFF7FAF80121DF
:1028C0003248FFF7EAF805B000BDF0B504460D4602
:1028D0001646059F0020002100224FE08AB914F817
:1028E00000C0BCF12C0F07D1521C4FF0000C05F8B2
:1028F00001C00021401C04E014F800C005F801C02C
:10290000491C012A11D114F800C0BCF12C0F07D1C9
:10291000521C4FF0000C06F801C00021401C04E0DE
:1029200014F800C006F801C0491C022A11D114F89D
:1029300000C0BCF12C0F07D1521C4FF0000C03F863
:1029400001C00021401C04E014F800C003F801C0DD
:10295000491C032A11D114F800C0BCF12C0F07D177
:10296000521C4FF0000C07F801C00021401C04E08D
:1029700014F800C007F801C0491C401C14F800C03E
:10298000BCF1000FAAD1F0BD000801400044004096
:102990002DE9FF5F07460D4693464FF000082E468F
:1029A000A9462C46AA4607B125B94FF0FF3004B01E
:1029B000BDE8F09F4FF0000863E0781C10F80800B5
:1029C000142858D2DFE800F0252627575728292A4F
:1029D0002E57575757323C4B380A131C30785749FB
:1029E00008700846017856A003F03AF944E0707880
:1029F000524948700846417857A003F031F93BE04E
:102A0000B0784E4988700846817859A003F028F9BB
:102A100032E031E030E02FE02EE02DE001205A4995
:102A2000087029E000205849087025E099F8001046
:102A300056A003F015F91FE057A003F011F91BE0B1
:102A4000A17962792379A068CDE90032CDE902103D
:102A5000E378A278218855A003F002F90CE05EA08B
:102A600003F0FEF861A003F0FBF89AF8001063A0F1
:102A700003F0F6F800E000BF00BF08F1010000F02D
:102A8000FF083878404598DC002090E710B51B21FE
:102A90002A4802F02FFB10BD5D480068401C5C49CD
:102AA000086070475A4800687047012080F3138817
:102AB00000BF00BF5748006800F4E0605649084373
:102AC000001D54490860BFF34F8F00BF00BFFEE7F1
:102AD00000B5FFF7E1FF00BD08B50020009001211F
:102AE000684600F09DF808BD70B505460E46002406
:102AF0000DB9601E70BD00241BE0295D4748FFF73B
:102B000039F800BF80214548FFF7A2F80028F9D125
:102B1000022C0DD3285DFF280AD155213F48FFF72D
:102B200029F800BF80213D48FFF792F80028F9D02E
:102B3000641CB442E1D33046DCE700007C00002096
:102B40004576743A204556454E545F4C45443120F5
:102B50002564200A000000004576743A2045564559
:102B60004E545F4C454432202564200A000000008A
:102B70004576743A204556454E545F67656172202C
:102B80002564200A000000006000002052535349D1
:102B90002025640A000000005452414E5350415217
:102BA000454E545F44415441200A0000574946496C
:102BB0005F4E5450203A205B25642D25642D2564FA
:102BC00020253032643A253032643A253032645D53
:102BD0005B25645D200A00004D4F44554C4520495B
:102BE0004E464F202E2E2E0A000000005749462048
:102BF0004D4F44554C45202E2E2E0A006D6F6475A6
:102C00006C6554797065203A205B25645D200A006C
:102C10005C0000200CED00E00000FA0500480040D8
:102C200070B504460D46002624B9F2A003F018F84A
:102C3000701E70BD2A462146F64802F0EFF906469E
:102C4000AE4205D0F4A003F00BF84FF0FF30F0E7F0
:102C50003046EEE710B504462CB9F6A003F000F8B4
:102C60004FF0FF3010BD002020606060FF2020701A
:102C700060700020F6E770B504460D462CB9F8A048
:102C800002F0EEFF4FF0FF3070BD2621FA4802F04F
:102C900031FA2A462146F848801C02F012FAF6481A
:102CA0004938A0F86950012180F84A10FFF7FAFE70
:102CB000F1494939C1F86B000020E5E7F8B5054650
:102CC0000C4616460DB104B12EB9ECA002F0C8FFB7
:102CD0004FF0FF30F8BD287800F0010098B11121C5
:102CE0002278601C81542078401C207001206B1CCD
:102CF000024600210090084602F055F808B1012074
:102D000000E0002030702878C0F3400098B1122114
:102D10002278601C81542078401C207001206B1C9C
:102D2000024601460090002002F03DF808B1012063
:102D300000E0002070702878C0F3800098B1132163
:102D40002278601C81542078401C207001206B1C6C
:102D5000024602210090002002F025F808B101206F
:102D600000E00020B0700020B4E72DE9F0410446F7
:102D70000D460027002604B135B9CBA002F070FF44
:102D80004FF0FF30BDE8F081FFF78CFE0646287853
:102D90002178884203D0CEA002F062FF0127687834
:102DA0006178884203D0CFA002F05AFF0127A878AB
:102DB000A178884203D0D0A002F052FF0127D5F8B5
:102DC0000300D4F8031088420AD0D0480068301AB3
:102DD00041F27071884203D3CDA002F041FF012778
:102DE000D5F80700D4F8071088420AD0C748006811
:102DF000301A41F27071884203D3CAA002F030FF4A
:102E00000127D5F80B00D4F80B1088420AD0BF4830
:102E10000068301A41F27071884203D3C6A002F0F4
:102E20001FFF0127D5F80F00D4F80F1088420AD0F1
:102E3000B6480068301A41F27071884203D3C4A0CA
:102E400002F00EFF0127D5F81300D4F813108842C2
:102E50000AD0AE480068301A41F27071884203D33C
:102E6000C1A002F0FDFE0127D5F81700D4F8171015
:102E700088420AD0A5480068301A41F27071884231
:102E800003D3BEA002F0ECFE0127012F03D1FFF710
:102E900009FE9E490860384674E7F8B504460D46B9
:102EA00004B12DB9BAA002F0DBFE4FF0FF30F8BD3F
:102EB00000202870E41C14F8030C2B46012200218A
:102EC0000090084601F0D0FF14F8020C2B460122B6
:102ED00011460090002001F0C7FF14F8010C2B46AA
:102EE000012202210090002001F0BEFF01212846AE
:102EF00001F054FE22680021012001F068FE687094
:102F000062680021012001F062FEA870A268002121
:102F1000012001F05CFEE870E2680021012001F070
:102F200056FE287122690021012001F050FE86B270
:102F3000304601F07AFCA5F805006269E41E002124
:102F4000012001F044FE86B2304601F06EFCA5F887
:102F500007000020ABE72DE9F04780460C461746F6
:102F60001D46089E94F800900CB105B136B994A0A6
:102F700002F076FE4FF0FF30BDE8F087B8F1000FA9
:102F800035D115213C48263002F0B4F8B9F1010FD3
:102F900006D0B9F1020F12D0B9F1050F28D12BE1FB
:102FA000354A8332A2F15D01601CFFF787FE0120E4
:102FB0003149493908700025002030603CE12E4934
:102FC0007A3101F12400FFF768FF78B92A48801CA4
:102FD000816FC5F80110C16FC5F8051090F8800029
:102FE0006872032028700A20306004E100E124E1C7
:102FF00021E100004552523A2067697A50757444C5
:103000006174612062756620697320656D707479E2
:10301000200A0000781200204552523A2046616989
:103020006C656420746F2072625772697465200A3F
:10303000000000004552523A2067697A50726F745E
:103040006F636F6C48656164496E6974206865617F
:103050006420697320656D707479200A0000000097
:103060004552523A206461746120697320656D7025
:103070007479200A000000007111002067697A4409
:10308000617461506F696E74324576656E74204567
:1030900072726F72202C20496C6C6567616C2050D5
:1030A0006172616D0A00000067697A436865636B4D
:1030B0005265706F7274204572726F72202C2049B5
:1030C0006C6C6567616C20506172616D0A00000074
:1030D00076616C75654C454431204368616E676567
:1030E000640A000076616C75654C45443220436883
:1030F000616E6765640A000076616C75656765617D
:1031000072204368616E6765640A000064000020F5
:1031100076616C756574656D70204368616E676576
:10312000640A000076616C756568756D6920436896
:10313000616E6765640A000076616C7565746F7412
:10314000616C5F6E756D204368616E6765640A002F
:1031500076616C75657265616C5F6E756D20436834
:10316000616E6765640A000076616C7565647573ED
:1031700074204368616E6765640A000076616C754F
:10318000656C69676874204368616E6765640A00EE
:1031900067697A44617461506F696E747332526505
:1031A000706F727444617461204572726F72202C6A
:1031B00020496C6C6567616C20506172616D0A001A
:1031C00067697A50726F746F636F6C49737375655A
:1031D0006450726F63657373204572726F72202C36
:1031E00020496C6C6567616C20506172616D0A00EA
:1031F0004FF0FF30C0E61FE07A1E611CF64801F078
:1032000060FF781EF4491F39C1F83D001021F248D3
:103210001F3890F86F2070308154703890F86F002C
:10322000401CED491F3981F86F000320087000250C
:103230000020306000E000BF00BF00209CE62DE9C8
:10324000F04F91B006468B461746994600201090E5
:1032500082468046002501ACBBF1000F06D1DFA0FD
:1032600002F0FEFC681E11B0BDE8F08FB9F1010F4D
:1032700006D196F8088008F10600384485B201E0CE
:10328000781D85B22B4642463946DAA002F0E8FCAA
:10329000FF2004F8010B04F8010B281204F8010BBD
:1032A00004F8015B3079401C04F8010B707904F8D4
:1032B000010B002004F8010B04F8019B4FF0080AF1
:1032C000B9F1010F0DD104F8018B0AF1010A01A92E
:1032D00001EB0A00424606F1090101F0F2FEC24488
:1032E000444437B101A901EB0A003A46594601F0BE
:1032F000E8FE291D01A801F085FA0146E81C01AA93
:103300001154291D01A8FFF7EFFB10901098002819
:1033100006DAC2A0109902F0A3FC6FF00100A2E748
:103320000020A0E7F0B585B005460E4617460024FC
:103330002EB9C0A002F094FC601E05B0F0BD684636
:10334000FFF788FC05208DF80400A3481F3890F88B
:103350004110D0F84100401C9F4A1F3AC2F841007A
:10336000C8B28DF805008DF808500F2001F05DFA05
:10337000ADF802003A4631460DF1090001F0A1FE18
:103380001321684601F03EFA8DF8120013216846B9
:10339000FFF7AAFB0446002C06DA2146AFA002F094
:1033A0005FFC6FF00100C8E713216846FFF763FC7C
:1033B0002046C2E770B50546FFF774FB0446864910
:1033C000C8312846FFF7D1FC012814D1AAA002F089
:1033D00047FC8149A4312846FFF75FFD28B909223F
:1033E0007D49A4310420FFF79DFF1B2229467A481E
:1033F000C83001F066FEA648B4FBF0F100FB1140B6
:10340000D0B9A4480068A04216D0A3A002F028FCBE
:103410007149A4312846FFF740FD28B909226E49B9
:10342000A4310420FFF77EFF1B2229466A48C830DA
:1034300001F047FE9748046070BD2DE9FE4F8046BD
:103440000E4617464FF0000B002002908146824640
:10345000002534460090B8F1000F01D006B137B90D
:1034600093A002F0FDFB4FF0FF30BDE8FE8F404619
:1034700001F058FD00F0FF0ABAF1000F02D14FF041
:10348000FF30F2E74FF000095DE0012201A940465C
:1034900001F073FD8346BBF1000F52D090480078D5
:1034A000FF281FD19DF80400FF281BD18D4800780C
:1034B00048B9FF202070607002208B4908800120ED
:1034C0008849087034E088480088042830DD864840
:1034D0000088A8422CD0FF20207060700220824912
:1034E000088025E07E480078FF2803D19DF804007D
:1034F00055281DD07B480078012819D19DF804007B
:1035000079490988605478480088401C76490880C9
:103510000846008804280BDD0094009C608801F0B8
:1035200084F9001D85B270480088A84200D10CE0E3
:103530009DF804006A4908706C480078401C6B498B
:10354000087009F10109D1459FDB00BF664800887A
:10355000042823DD64480088A8421FD162480188FE
:10356000204601F04FF902905F480088401E215C20
:10357000029881420FD12A462146304601F0A1FD32
:103580003D80002057490870574908805749087006
:103590005349087069E76FF0010066E7012064E7AE
:1035A00010B500240C481F3890F84A0000B910BD2F
:1035B0004FA002F055FB08481F38B0F869104B3097
:1035C000FFF792FA044604481F38B0F86900A04299
:1035D00000D09DE09FE00000471100205B45525263
:1035E0005D202064617461204973204E756C6C20ED
:1035F0000A0000006C656E203D202564202C20739D
:103600004469644C656E203D202564202C646174FF
:10361000615F6C656E203D2025640A0075617274DF
:10362000207772697465206572726F72202564203C
:103630000A00000067697A5265706F7274446174A1
:1036400061204572726F72202C20496C6C65676135
:103650006C20506172616D0A000000004552523AC0
:103660002075617274207772697465206572726F5B
:1036700072202564200A00006368616E6765642C0F
:10368000207265706F727420646174610A000000BA
:10369000C027090068000020496E666F3A20363066
:1036A0003053207265706F727420646174610A0017
:1036B00067697A50726F746F636F6C4765744F6E91
:1036C000655061636B6574204572726F72202C20A7
:1036D000496C6C6567616C20506172616D0A000015
:1036E000700000206C0000206E000020710000209F
:1036F0005761726E696E673A2074696D656F757493
:103700002C20726573656E642064617461200A0008
:10371000ECA002F0A5FAFFF7C5F9F049C1F86B007B
:1037200000BF44E770B50446EC4D4B3534B9AFF2F9
:10373000D06002F095FA4FF0FF3070BD2879401C40
:103740002179884204D12621E448493001F0D2FC95
:103750000020F2E73EB50446002524B9E0A002F0BF
:103760007FFA681E3EBD20680090606801909DF859
:103770000400401CC0B28DF80400052001F055F88B
:10378000ADF802000921684601F03CF88DF8080008
:1037900009216846FFF7A8F90546002D04DA2946F5
:1037A000AFF2481002F05CFA2846DBE710B5CB48D0
:1037B00090F84A00012827D1C84890F8490002280B
:1037C0001DDAFFF76FF9C549D1F86B10401AC82808
:1037D0001AD9FFF767F90446C04890F84930D0F885
:1037E0006B202146C9A002F03BFAFFF7D9FEBB4887
:1037F00090F84900401CB94981F8490004E02621AD
:10380000B648493001F076FC10BD30B59DB0044695
:1038100000252CB9C7A002F023FA681E1DB030BDE8
:103820006846FFF717FA02208DF8040060798DF8DA
:103830000500CCA103C9CDE90201CDA103C9CDE9A1
:103840000401CEA103C9CDE90801CFA103C9CDE987
:1038500006012022CFA10AA801F033FC2022D6A124
:103860000DF1520001F02DFC0020CDF84A00CDF8FA
:103870004E009DF851008DF851009DF8510040F028
:1038800002018DF85110002000F0CFFFADF8480084
:103890006F2000F0CAFFADF802007321684600F007
:1038A000B1FF8DF8720073216846FFF71DF90546D8
:1038B000002D04DA2946AFF25C2002F0D1F9284647
:1038C000ACE7FEB504460E46002524B9C3A002F0BD
:1038D000C7F9681EFEBD6846FFF7BCF912208DF8D7
:1038E000040060798DF80500062000F09EFFADF819
:1038F00002008DF808600A21684600F083FF8DF809
:1039000009000A216846FFF7EFF80546002D04DAA2
:103910002946AFF2B82002F0A3F92846DAE770B5DD
:10392000044625462CB9B8A002F09AF94FF0FF30B2
:1039300070BDBA48A9680160E9684160298A0181BF
:10394000A97C81726549B1F8030100F06EFF6349FB
:10395000A1F80301D1F80B0100F074FF5F49C1F831
:103960000B010E215D4890F899209A3081549A38C5
:1039700090F89900401C594981F89900042008707A
:103980000020D5E710B5FFF78DF8044600BFFFF71C
:1039900089F8001BB0F5167FF9D9FFF786F810BD3E
:1039A00010B504462CB99EA002F05AF94FF0FF3032
:1039B00010BD208900F039FF2081A5480078C0F3B0
:1039C0008000217AC1F38001884256D0207AC0F36A
:1039D0008000002829D0207A00F0010078B1002171
:1039E0003E4890F8842085308154853890F88400D2
:1039F000401C3A4981F8840096A002F031F9207AFF
:103A0000C0F34000002838D00121344890F88420C9
:103A100085308154853890F88400401C2F4981F806
:103A2000840094A002F01CF927E0207A00F0010045
:103A300078B10021294890F8842085308154853858
:103A400090F88400401C254981F8840081A002F090
:103A500007F9207AC0F3400078B102211F4890F89E
:103A6000842085308154853890F88400401C1B499F
:103A700081F8840086A002F0F3F875480078C0F35E
:103A8000C000217AC1F3C00188421AD0207AC1084F
:103A90006F48007861F3C3006D490870207AC0F365
:103AA000C00068B103210D4890F88420853081540E
:103AB000853890F88400401C084981F88400F5E0BE
:103AC000F8E007E14552523A20726573656E642052
:103AD00064617461206572726F720A00281100209F
:103AE0004552523A2067697A50726F746F636F6CF7
:103AF000436F6D6D6F6E41636B206461746120690B
:103B00007320656D707479200A0000005761726E31
:103B1000696E673A67697A50726F746F636F6C523F
:103B20006573656E6444617461202564202564209A
:103B300025640A0067697A50726F746F636F6C470F
:103B40006574446576696365496E666F2045727277
:103B50006F72202C20496C6C6567616C205061721B
:103B6000616D0A00303030303030303400000000F9
:103B700030303030303030320000000030333033FD
:103B800030303030000000003033303130313030F0
:103B9000000000006531323165663138613365629D
:103BA00034623139623733303863653433346661B7
:103BB0006237363700000000313431306636306508
:103BC0003436303034363036393961653636356220
:103BD00065316162346232640000000067697A50C6
:103BE000726F746F636F6C4572726F72436D642095
:103BF0004572726F72202C20496C6C6567616C2075
:103C0000506172616D0A00004552523A204E545084
:103C100020697320656D707479200A002B120020D2
:103C200067697A50726F746F636F6C4D6F64756CF7
:103C300065537461747573204572726F72202C2005
:103C4000496C6C6567616C20506172616D0A00009F
:103C5000720000204F6E426F617264696E673A2095
:103C6000536F66744150206F7220576562206D6FEC
:103C700064650A004F6E426F617264696E673A2034
:103C80004169724C696E6B206D6F64650A000000BB
:103C90004F6E426F617264696E673A20537461744B
:103CA000696F6E206D6F64650A000000F5A001F079
:103CB000D7FF0FE00421FB4890F884208530815421
:103CC000853890F88400401CF64981F88400F6A0FD
:103CD00001F0C6FFFC480078C0F30010217AC1F360
:103CE000001188422CD0207A0109F748007861F34E
:103CF0000410F5490870207AC0F3001080B1052146
:103D0000E84890F8842085308154853890F8840004
:103D1000401CE44981F88400ECA001F0A1FF0FE011
:103D20000621E04890F8842085308154853890F849
:103D30008400401CDB4981F88400ECA001F090FF76
:103D4000E1480078C0F34010217AC1F34011884265
:103D50002CD0207A4109DC48007861F34510DA491B
:103D60000870207AC0F3401080B10721CD4890F848
:103D7000842085308154853890F88400401CC949DE
:103D800081F88400E2A001F06BFF0FE00821C54834
:103D900090F8842085308154853890F88400401C48
:103DA000C04981F88400E1A001F05AFFC64840787C
:103DB000C0F3C001607AC0F3C00081422CD0607AA9
:103DC000C108C148407861F3C300BF494870607AB8
:103DD000C0F3C00080B10B21B24890F88420853038
:103DE0008154853890F88400401CAE4981F88400E5
:103DF000D6A001F035FF0FE00C21AA4890F88420EE
:103E000085308154853890F88400401CA54981F89C
:103E10008400D5A001F024FFAB484078C0F3001126
:103E2000607AC0F3001081422CD0607A0109A64864
:103E3000407861F30410A4494870607AC0F3001020
:103E400080B10921974890F88420853081548538C5
:103E500090F88400401C934981F88400CAA001F0C6
:103E6000FFFE0FE00A218F4890F8842085308154AE
:103E7000853890F88400401C8A4981F88400C9A0E4
:103E800001F0EEFE0D21874890F8842085308154A2
:103E9000853890F88400401C824981F88400607A5B
:103EA00000F0070081F80201084690F80211C4A052
:103EB00001F0D6FE02207B490870002078E510B59D
:103EC0003C20C3490860C348C860084601F00CF8AC
:103ED00018B9C1A001F0C4FE02E0C4A001F0C0FE08
:103EE0004FF4A8716F4801F005F910BD30B587B0E7
:103EF00005460024062D7DD2DFE805F003316193ED
:103F0000C2C101A8FEF7A6FE0B208DF80800654887
:103F100090F84110D0F84100401C624AC2F84100BC
:103F2000C8B28DF80900052000F07FFCADF806004E
:103F3000092101A800F066FC8DF80C00092101A8F8
:103F4000FEF7D2FD0446002C04DA2146AFF6F40059
:103F500001F086FE092101A8FEF78DFEB0E104A85C
:103F6000FEF778FE09208DF814004E4890F84110B5
:103F7000D0F84100401C4B4AC2F84100C8B28DF84D
:103F800015008DF81850062000F04FFCADF8120017
:103F90000A2104A800F036FC8DF819000A2104A8B3
:103FA000FEF7A2FD0446002C04DA2146AFF65410B9
:103FB00001F056FE0A2104A8FEF75DFE80E104A888
:103FC000FEF748FE09208DF81400364890F841109D
:103FD000D0F84100401C334AC2F84100C8B28DF805
:103FE00015008DF81850062000F01FFCADF81200E7
:103FF0000A2100E060E104A800F004FC8DF819003B
:104000000A2104A8FEF770FD0446002C04DA2146BC
:10401000AFF6B81001F024FE0A2104A8FEF72BFE2B
:104020004EE101A8FEF716FE13208DF808001D488A
:1040300090F84110D0F84100401C1A4AC2F84100E3
:10404000C8B28DF80900052000F0EFFBADF80600BE
:10405000092101A800F0D6FB8DF80C00092101A868
:10406000FEF742FD0446002C04DA2146AFF6142088
:1040700001F0F6FD092101A8FEF7FDFD20E1EDE0CC
:10408000BEE0000057694669207374617475733A25
:1040900020696E2062696E64696E67206D6F646569
:1040A0000A000000281100205769466920737461D6
:1040B0007475733A206F75742062696E64696E67F7
:1040C000206D6F64650A0000720000205769466920
:1040D000207374617475733A20636F6E6E656374D8
:1040E000656420726F757465720A000057694669CD
:1040F000207374617475733A20646973636F6E6EB4
:10410000656374656420726F757465720A000000DF
:1041100057694669207374617475733A20636F6ED2
:104120006E6563746564206D326D0A005769466977
:10413000207374617475733A20646973636F6E6E73
:104140006563746564206D326D0A000057694669C5
:10415000207374617475733A2061707020636F6EA0
:104160006E6563740A0000005769466920737461C4
:104170007475733A206E6F2061707020636F6E6E7D
:104180006563740A00000000576946692073746112
:104190007475733A20696E2074657374206D6F6452
:1041A000650A000057694669207374617475733A33
:1041B000206F75742074657374206D6F64650A00D8
:1041C00052535349206973202564200A00000000DF
:1041D0007812002088120020726243726561746553
:1041E0002053756363657373200A00007262437223
:1041F00065617465204661696C64200A00000000F6
:1042000001A8FEF727FD15208DF80800F64890F864
:104210004110D0F84100401CF34AC2F84100C8B236
:104220008DF80900052000F000FBADF8060009211B
:1042300001A800F0E7FA8DF80C00092101A8FEF7AB
:1042400053FC0446002C04DA2146AFF6F03001F0AE
:1042500007FD092101A8FEF70EFD31E001A8FEF7D8
:10426000F9FC29208DF80800DF4890F84110D0F8BB
:104270004100401CDC4AC2F84100C8B28DF8090078
:10428000052000F0D2FAADF80600092101A800F0DF
:10429000B9FA8DF80C00092101A8FEF725FC0446A7
:1042A000002C04DA2146AFF64C4001F0D9FC09217C
:1042B00001A8FEF7E0FC03E0CCA001F0D1FC00BFB8
:1042C00000BF204607B030BD3EB500246846FEF76B
:1042D000C1FC17208DF80400C34890F84110D0F8B5
:1042E0004100401CC04AC2F84100C8B28DF8050028
:1042F000052000F09AFAADF802000921684600F0A6
:1043000081FA8DF8080009216846FEF7EDFB0446A6
:10431000002C03DA2146BBA001F0A2FC092168466B
:10432000FEF7A9FC3EBD3EB500246846FEF792FCB0
:1043300021208DF80400AC4890F84110D0F84100DD
:10434000401CA94AC2F84100C8B28DF805000020FF
:104350008DF80800062000F068FAADF802000A2186
:10436000684600F04FFA8DF809000A216846FEF70A
:10437000BBFB0446002C03DA2146A2A001F070FC2E
:104380000A216846FEF777FC3EBD70B50446254617
:104390002CB9A4A001F064FC4FF0FF3070BD4122A5
:1043A00005F10801A34800F08CFE0F218E4890F81B
:1043B000AE20AF308154AF3890F8AE00401C8A492F
:1043C00081F8AE00052008700020E7E72DE9F041F4
:1043D00092B00546002600200290019000248046FD
:1043E000002735B994A001F03BFC601E12B0BDE877
:1043F000F081FFF7DBF902AA7B49491C9848FFF7D7
:104400001CF80646002E72D196A001F029FC764CCD
:10441000641C20790F284FD00ADC0E2873D2DFE805
:1044200000F07216721A7272433872724472453C0E
:10443000182852D006DC112847D0142846D0162858
:1044400061D134E0222854D02A285CD130E02046C3
:10445000FFF7DBF95FE0E279A17987A001F000FCCA
:1044600001A8009007F10900BDF808301A1A5E484B
:104470000930C11903AB4046FEF76DFD40B9E37941
:1044800003A92046019AFEF7DAFE7FA001F0E8FBBF
:1044900041E02046FFF75EF93DE02046FFF75AF97C
:1044A0002046FFF77DFA36E000BF00BF00BF00BF27
:1044B0002046FFF737F92EE02046FFF74BF975A0AD
:1044C00001F0CEFBFFF75EFA25E024E02046FFF77F
:1044D00029F975A001F0C4FB1DE02046FFF722F981
:1044E0002046FFF71CFA78A001F0BAFB13E013E0B6
:1044F00009E02046FFF716F92046FFF746FF78A0AF
:1045000001F0AEFB07E002212046FFF7DAF97BA0BD
:1045100001F0A6FB00BF0EE016F1020F0BD1324CEA
:10452000641C01212046FFF7CCF97AA001F098FB2A
:104530006FF001005AE72C48007806284DD2DFE8DA
:1045400000F04C0312222D3D0020274908701B2249
:10455000CC31A1F15D00FEF71BFA152122486F3026
:1045600000F0C8FD3AE000201F490870012201F563
:104570008171A1F17E00FEF70BFA15211A488430F3
:1045800000F0B8FD2AE00020174908700846D0F86E
:104590003D201F316F30FEF7FBF91FE0002012496C
:1045A00008700C2201F20311A1F16A00FEF7F0F984
:1045B00015212048763800F09DFD0FE000200A49C3
:1045C000087041221B49A1F16100FEF7E1F9412188
:1045D0001848613800F08EFD00E000BF00BF28469B
:1045E000FEF7E8FE002001E7281100204552523A6C
:1045F000204366674D6F6465206572726F72210A91
:10460000000000004552525B4E54505D3A207561E7
:104610007274207772697465206572726F722025DA
:1046200064200A004E545020697320656D707479BF
:10463000200A00003712002047697A7769747348AE
:10464000616E646C65204572726F72202C20496C1B
:104650006C6567616C20506172616D0A000000003A
:1046600078120020476574204F6E65205061636B9F
:104670006574210A00000000666C616720257820BF
:104680002578200A0000000041636B4461746120BA
:104690003A200A007265706F72743A4D4355207269
:1046A00065626F6F74210A0041636B2050524F4462
:1046B000554354494F4E5F4D4F44452073756363D6
:1046C000657373200A00000041636B204745545F07
:1046D0005554542073756363657373200A0000009A
:1046E00041636B204745545F4D6F64756C65207363
:1046F000756363657373200A000000004552523AE7
:1047000020636D6420636F6465206572726F72212F
:104710000A0000004552523A20636865636B2073BB
:10472000756D206572726F72210A00002DE9F041EB
:1047300088B006460F464FF000086C46B81D85B29B
:104740003EB924A001F08CFA4FF0FF3008B0BDE86C
:10475000F081FF2004F8010B04F8010B281204F883
:10476000010B04F8015B052004F8010B234890F8C5
:104770004110D0F84100401C204AC2F8410004F822
:10478000011B002004F8010B04F8010B062004F8BB
:10479000010B3A4631460DF1090000F092FC291D4B
:1047A000684600F02FF80146E81C0DF80010291D9E
:1047B0006846FEF799F98046B8F1000F03DA4146E2
:1047C0000F4801F04DFA291D6846FEF754FA002003
:1047D000BCE700005B4552525D2067697A776974D7
:1047E00073506173737468726F7567684461746144
:1047F000204572726F72200A00000000281100200C
:104800005C36000810B502460024002302B109B945
:10481000002010BD022303E0D05C2044C4B25B1C26
:10482000481E9842F8D82046F3E701B581B0002031
:104830000090694601AA5078087010784870BDF859
:1048400000000CBD0146080601F47F4240EA022048
:1048500001F47F0240EA122040EA1160704710B56F
:1048600002460024302A05DB392A03DCA2F130009D
:10487000C3B20EE0412A05DB462A03DCA2F1370071
:10488000C3B206E0612A04DB662A02DCA2F157000B
:10489000C3B2302905DB392903DCA1F13000C4B2F1
:1048A0000EE0412905DB462903DCA1F13700C4B243
:1048B00006E0612904DB662902DCA1F15700C4B2DD
:1048C00004EB0310C0B210BD70B5044600250026ED
:1048D000204600F01AFC06460CB9681E70BD002583
:1048E00005E0605D302801D00020F7E76D1CB5427F
:1048F000F7D30120F2E72DE9F043034600BF00257E
:10490000002400260027012901D002290DD1A3F19E
:10491000010C4FF06408BCFBF8F4BCFBF8F908FB91
:1049200019C501F10C06174609E04FF0640CB3FB02
:10493000FCF4B3FBFCF80CFB18350E46174606F1E9
:10494000010C4FF01A080CFB08FC4FF00A08BCFBE6
:10495000F8FC05EB950808EB94084FF0020909FBF9
:104960001488C444BC44ACF10100002806DB4FF0BD
:10497000070C90FBFCF80CFB180C07E04FF0070C41
:1049800090FBFCF80CFB180C0CF1070C6046BDE822
:10499000F08301460A46C81701EB90708010A1EB26
:1049A000800070B9642091FBF0F300FB131030B964
:1049B0004FF4C87091FBF0F300FB131008B901200D
:1049C00070470020FCE710B504462046FFF7E1FFE2
:1049D00010B14FF4B77010BD40F26D10FBE72DE938
:1049E000F04190B080460E4640F2B27530226949DF
:1049F00001A800F066FB344604F5E14400BF11E075
:104A00002846FFF7E0FF074640F2A3207843B4EBC7
:104A1000C01F06D340F2A3207843A4EBC0146D1C42
:104A200000E001E0002CEBD100BFA8B2ADF83400EB
:104A3000002518E0BDF83400FFF7ABFF08B11D20DA
:104A4000029001A850F8250040F2A3214843B4EB9E
:104A5000C01F07D301A850F825004843A4EBC01499
:104A60006D1C00E001E0002CE4D100BF1C2002908E
:104A7000681CC0B28DF83600012506E04648844225
:104A800002D3241A6D1C00E001E0002CF6D100BF17
:104A9000E8B28DF837004FF46160B4FBF0F0C0B2BB
:104AA0008DF838004FF46160B4FBF0F100FB114069
:104AB0003C21B0FBF1F0C0B28DF839003C20B4FBD2
:104AC000F0F100FB11408DF83A00CDF83B600D98F5
:104AD000C8F800000E98C8F80400BDF83C00A8F81B
:104AE00008009DF83E0088F80A0010B0BDE8F0818B
:104AF0002DE9F05F80460E46914600241CE016F832
:104B000014A06000401C16F800B0504600F0D3FA24
:104B10003038C5B2092D01DDE81FC5B2584600F096
:104B2000CAFA3038C7B2092F01DDF81FC7B207EB48
:104B3000051008F80400641C4C45E0DBBDE8F09F5C
:104B4000F0B5034600201EE00E5CF71706EB177762
:104B50003F1107F130050E5CF71706EB17773F1191
:104B6000A6EB07173037FCB2392D01DDEE1DF5B28B
:104B7000392C01DDE61DF4B203F81050012606EBD6
:104B800040069C55401C9042DEDB002603F8126074
:104B9000F0BD00005C6100088051010030B50246A4
:104BA0000B460021002400250AB9481E30BD002113
:104BB00008E0545C581A401E155C5554581A401EA3
:104BC0001454491CB1EB530FF3D30020EEE710B59A
:104BD00003460020541AB4FBF3F010BD10B5034691
:104BE000002002FB031010BD2DE9F04704460E46DD
:104BF000154600273146284600F0F6FA8146214640
:104C000000F02AFB804600F06AFB07463846BDE804
:104C1000F0872DE9F04704460E4615460027284642
:104C200000F058FB8146214600F0E4FA8046314608
:104C300000F088FA07463846BDE8F087024612B110
:104C400002F0070028B9082901D800207047012088
:104C5000FCE702F00700C0F10800884201D3002001
:104C6000F4E70120F2E72DE9F047054688461446AF
:104C70001E464FF00009CA460027002314B9581EEB
:104C8000BDE8F087EB0841462846FFF7D7FF074607
:104C90003FB9E05C05F0070106FA01F10843E05472
:104CA0001DE0012F1BD1F0B205F00701C1F1080191
:104CB00040FA01F905F00700C0F10801FF200841A2
:104CC00000EA060A581C205C40EA0900591C60549E
:104CD000E05C05F007010AFA01F10843E054002006
:104CE000CEE72DE9F04F8FB004460F4690461D46A3
:104CF0000026B246B146B34600200E90B8F1000F30
:104D000000D025B94FF0FF300FB0BDE8F08F4FEA6B
:104D1000D4092A46414601A800F0D3F9012D09D94A
:104D2000294601A8FFF73AFFB0F1FF3F02D14FF04B
:104D3000FF30E9E739462046FFF780FF8246BAF1A7
:104D4000000F0CD101A810F8090004F00701084178
:104D5000C7F10802FF2111410840064321E0BAF1E2
:104D6000010F1ED101A909F10100085C04F007013F
:104D7000C1F10801791AC1F10802FF21114100EACD
:104D8000010B01A810F8090004F0070108410E907A
:104D900004F00700C0F108010BFA01F006430E9879
:104DA00006433046B0E72DE9F04F8FB005460C467C
:104DB00016469946189F4FF0000AD34600200E90E1
:104DC0008046B9F1000F00D027B94FF0FF300FB087
:104DD000BDE8F08F3A46494601A800F072F9012F6C
:104DE00009D9394601A8FFF7D9FEB0F1FF3F02D13A
:104DF0004FF0FF30EBE731462046FFF71FFF8246BA
:104E0000BAF1000F0CD101A8405D04F00701084180
:104E1000C6F10802FF211141084040EA080821E0DC
:104E2000BAF1010F1ED101A9681C085C04F007014A
:104E3000C1F10801711AC1F10802FF21114100EA14
:104E4000010B01A8405D04F0070108410E9004F039
:104E50000700C0F108010BFA01F040EA08080E98BB
:104E600048EA00084046B2E72DE9F04704460D46FF
:104E70001746089E4FF00009CA46C8461BB94FF0B6
:104E8000FF30BDE8F08739462846FFF7D7FE804659
:104E9000B8F1000F07D1185D05F0070106FA01F11E
:104EA000084318551EE0B8F1010F1BD1F0B205F010
:104EB0000701C1F1080140FA01F905F00700C0F14E
:104EC0000801FF20084100EA060A601C185C40EA5D
:104ED0000900611C5854185D05F007010AFA01F138
:104EE000084318550020CCE7014611B94FF0FF30B8
:104EF0007047C8684860C86888600020F8E70146C5
:104F000011B94FF0FF3070470020C86048608860DA
:104F1000086000BFF7E7014611B94FF0FF30704756
:104F20000868FCE700B5024612B94FF0FF3000BD3B
:104F300050689168884201D10020F8E75068916874
:104F4000884203D290685168401AF0E71046FFF794
:104F5000E2FF51689368C91A401AE8E730B5044681
:104F600014B94FF0FF3030BD2046FFF7D4FF05469F
:104F70002046FFF7D7FF281AF5E72DE9F041044650
:104F80000F461646002514B9681EBDE8F08117B912
:104F90004FF0FF30F9E76068A168884214D22046DC
:104FA000FFF7C0FFB04201D9304602E02046FFF7CC
:104FB000B9FF054661682A46384600F082F8606805
:104FC000284460602846E0E72046FFF7A4FF6168B8
:104FD000E268891A401AB0420AD9354661682A4601
:104FE000384600F06EF86068284460602846CCE7D8
:104FF0002046FFF790FF6168E268891A451A6168E8
:105000002A46384600F05DF8E0686060721B791946
:105010002046FFF7B2FF05442846B6E72DE9F041E8
:1050200004460F461546002604B11FB94FF0FF3065
:10503000BDE8F0812046FFF791FFA84202D86FF04B
:105040000100F5E76068A16888422AD82046FFF78A
:1050500062FFA168E268891A461AB54213D8A068AF
:105060002A46394600F02DF8A0682844A060204662
:10507000FFF751FFE1680844A168884201D1E06868
:10508000A0602846D4E7A0683246394600F019F8F7
:10509000E068A060AA1BB9192046FFF7BFFF3044A3
:1050A000C6E7A0682A46394600F00BF8A0682844F5
:1050B000A0602846BCE7A0F16101192900D820387A
:1050C000704740EA01039B0703D009E008C9121F9B
:1050D00008C0042AFAD203E011F8013B00F8013BB2
:1050E000521EF9D27047D2B201E000F8012B491EDE
:1050F000FBD270470022F6E710B513460A46044675
:105100001946FFF7F0FF204610BD421C10F8011BA6
:105110000029FBD1801A7047034611F8012B00F8D3
:10512000012B002AF9D11846704770B5064600F0E9
:10513000A7FD046805460A220021304600F07EF9EA
:105140002C6070BDF0B480EA0102D40F4200B2EBD3
:10515000410F02D20246084611464A0042D0C30D12
:10516000DDB2C1F3C752AD1A202D35DAC1F31601F5
:1051700041F4000204B15242C5F1200602FA06F1E0
:105180002A411044B3EBD05F23D0C4B1012DA0EB72
:10519000C35009DCF0BC4FF0004202EAC352DBB25C
:1051A00000F5000000F08BB9400000F1807000EBCA
:1051B000C350A0F1807040EAD170490009E049086D
:1051C00041EAC071A0EBC35000F50000400800EBBD
:1051D000C350F0BC00F06AB96142012202EB410108
:1051E000001BF6E7F0BC704781F00041AAE780F0B1
:1051F0000040A7E780EA010210B502F0004340003A
:1052000022D04A001FD0010E01EB1261C0F35600FC
:10521000C2F3560240F4000042F40002A0FB022058
:1052200000047F39140400D0401C50EA124001D41D
:105230004000491EC2B20C0604EBD010401C4008CE
:10524000802A02D003E0002010BD20F001000029D8
:1052500000DA0020184310BD30B480EA010202F0E9
:10526000004530F0004221F0004013D090B1C30D52
:10527000D40DC2F31601C0F31600E41A41F4000184
:1052800040F400027D34914201D3641C00E04900E7
:10529000002C02DA30BC002070474FF400000023DD
:1052A000914201D3891A034340084FEA4101F7D1E3
:1052B00051B1914202D14FF0004105E002D24FF0CE
:1052C000010101E06FF0010103EBC450284430BC40
:1052D00000F0ECB896230022114600F0F0B820F060
:1052E0000040C10DC0F3160040F400007F2901DA30
:1052F00000207047962903DCC1F19601C840704731
:1053000096398840704701F0004330B421F00041E5
:1053100050EA010206D00A0DA2F56072C1F3130132
:10532000002A02DC30BC00207047440F44EAC1046C
:10533000C100E01830BC00EBC25000F0B7B82DE956
:10534000F05F0546002092469B4688460646814609
:1053500040241BE0284641464746224600F0DFF93C
:1053600053465A46C01A914110D311461846224658
:1053700000F0C6F92D1A67EB01084F4622460120BE
:10538000002100F0BDF917EB00094E41201EA4F1E9
:105390000104DFDC484631462A464346BDE8F09F1B
:1053A0000FB4002300B589B00CA900910B996FF0E0
:1053B0000042CB601E4B06931E4B07930423CDE99E
:1053C00001321D4A089202466B46002000F046FA60
:1053D00009B05DF814FB70B586B006464FF0FF309B
:1053E0000091CDE90101002015460C46049032469B
:1053F000694604A8FFF7D4FF03460498211825B195
:1054000008B10A4600E022462A6000280DD0002B91
:1054100002DD0098884208D0081B0094CDE9010401
:105420003246694604A8FFF7BBFF06B070BD000016
:10543000955A0008B35A0008495700082DE9F0476B
:1054400091460F4680460446002614F8015B2DB1B4
:1054500000F076F90068405DC007F6D12B2D02D030
:105460002D2D18D0641E4A463946204600F032FBE6
:1054700027B13968A14201D1C7F8008071054FF00A
:1054800002040BD54042002803DD00F0F9FB046064
:10549000A007BDE8F08746F48066E4E70028F8DA64
:1054A00000F0EEFB04606FF00040F2E70029A8BFB7
:1054B0007047401C490008BF20F00100704710B43D
:1054C000B0FA80FC00FA0CF050EA010404BF10BCF2
:1054D000704749B1CCF1200421FA04F411FA0CF11F
:1054E00018BF012121430843A3EB0C01CB1D4FEA58
:1054F00000614FEA102042BF002010BC704700EB53
:10550000C35010440029A4BF10BC7047401C490080
:1055100008BF20F0010010BC70472DE9FE4F81EA62
:10552000030404F0004421F0004100944FF0000B0C
:1055300023F0004350EA01045ED052EA03045BD03A
:10554000C3F30A54C1F30A552C44A4F2F334019472
:10555000A0FB0254C1F3130141F48011C3F3130300
:1055600043F4801301FB024400FB034E840A970AB4
:1055700044EA815447EA8357A4FB076802958D0AE1
:1055800005FB07854FEA932C04FB0C542705029D6D
:105590004FEA065847EA1637B5EB08056EEB070CDD
:1055A000870E920E47EA811742EA8312A7FB020197
:1055B000B6EB0B0164EB00042B0D43EA0C335E18D1
:1055C00044EB1C50DA465146E7FB0201C5F31304D5
:1055D0004FEA0B3343EA14534FEA0432019C43EA87
:1055E0000603A4F10C040294009CCDE900B400F081
:1055F000CFFA03B0BDE8F08F00200146F9E72DE9AE
:10560000F04D81EA030404F0004B21F000451446FC
:105610004FF0000A23F0004150EA050220D054EA7E
:1056200001021DD0C5F30A570246C5F31303C1F3A7
:105630001300C1F30A5640F4801543F48013A7EB1E
:105640000608101BD64608F2FD3873EB050002D39E
:1056500008F1010801E092185B41B8F1000F03DA8C
:1056600000200146BDE8F08D00204FF48011064671
:1056700084460EE0171B73EB050705D3121B63EB83
:10568000050306434CEA010C49084FEA3000921822
:105690005B4150EA0107EDD152EA030012D082EAE1
:1056A000040083EA0501084305D0101BAB4106D274
:1056B0000122002306E000224FF0004302E06FF0D9
:1056C000010253101AEB06004CEB085110EB0A00D4
:1056D00041EB0B01BDE8F04D00F04BBA064C074D15
:1056E00006E0E06840F0010394E8070098471034B2
:1056F000AC42F6D3FAF7FEFCA0620008C0620008D4
:10570000202A04DB203A00FA02F100207047914081
:10571000C2F1200320FA03F3194390407047202A76
:1057200004DB203A21FA02F00021704721FA02F34B
:10573000D040C2F120029140084319467047000052
:10574000004870471062000810B50446FFF7F8FFE4
:105750000068005D00F0010010BD00002DE9FF4F62
:10576000087881B09946FF2805D0491C2D2804D01F
:105770000024002308E000230BE00124F9E703EBF9
:10578000830300EB4303491C0878FF28F7D104B1D9
:105790005B4200200090147801462D2C01D02B2C68
:1057A00004D1521C2D2C12D0002400940025167810
:1057B000FF2E0ED00A24A0FB04C801FB04810027A1
:1057C00000FB0711521C16EB0C006941EFE70124A6
:1057D000EBE7994450EA01020ED00024AA4D264678
:1057E000DFF8A88200F030FA82468B46B9F100005B
:1057F00009DAC9F100071BE001980021C0E9001196
:1058000005B0BDE8F08F074612E0F80707D0224642
:105810002B4630464146FFF780FE06468846224624
:105820002B4610461946FFF778FE04460D467F10BA
:10583000002FEAD1B9F1000F32464346504659468F
:1058400002DAFFF7DCFE01E0FFF767FE009A0AB11B
:1058500081F00041019AC2E90001D1E72DE9FF4F33
:105860001F468DB0D7E901464FF0FF382E20454640
:105870004FF000090B90B9696D1C0E988847396A82
:10588000824688470028F6D1BAF1FF3F0AD024F4B7
:10589000D064002E11DDBAF12B0F08D0BAF12D0F14
:1058A0000BD102E0404611B0ABE744F48064B96923
:1058B0006D1C0E9888478246761E6946600501D5A4
:1058C0002D2000E02B208DF8000001F1010B0DF1DF
:1058D000200809E0B9696D1C0E98884782460F9828
:1058E00044F40074761E0560002E02DDBAF1300F1C
:1058F000F0D00B998A453ED144F0800406E00F9920
:10590000681CA9F1010944F400740860B9696D1CB0
:10591000761E0E98884782463028F0D02BE00B99EF
:105920008A4505D1200603D444F08004761E18E091
:10593000504600F0C5F908B30DF11301761E44F48A
:1059400000748B4508D2AAF130000BF8010B200639
:1059500007D5A9F1010003E0200602D409F10100F6
:105960008146A00502D50F99681C0860B9696D1CB5
:105970000E9888478246002ED1DC53E0002E51DD80
:10598000BAF1650F02D0BAF1450F4BD1A00549D548
:10599000B9696D1C24F44074761E0E9888478246BF
:1059A000002E0CDD2B2804D0BAF12D0F07D144F4C2
:1059B0008074B9696D1C0E9888478246761EE00592
:1059C00001D52D2100E02B2108F8011BCDF82C80FA
:1059D00021E00DF12901761E44F4007488450CD2B3
:1059E000AAF1300010F0FF0088F8000002D10B99F6
:1059F000884509D908F1010806E0E00501D52448E9
:105A000001E042F20F708146B9696D1C0E9888471B
:105A100082460F980560002E04DD504600F050F9D4
:105A20000028D6D1F9690E988847FF208BF800002E
:105A300088F800000020069007904B466A4608A9A7
:105A400006A8FFF78BFEA00502D46FF001002AE73D
:105A500014F0240F0AD0E00714D1DDE906123868EB
:105A6000031D3B600068C0E900120BE0DDE90601A0
:105A7000FFF749FC0146E00704D13868021D3A608F
:105A80000068016028460EE7000024400000F03F57
:105A9000F1D8FFFF426842B1016811F8013B23B120
:105AA000521EC0E90012184670470121C160881ECD
:105AB000704742685AB1C368016843B983688B4232
:105AC00005D0491E521CC0E90012002070474FF05B
:105AD000FF3070472DE9F05F8246007800271546B9
