:020000040800F2
:100000006015002045010008B30500082904000818
:10001000AF05000897020008371100080000000033
:10002000000000000000000000000000CD0A0008F1
:10003000E10200080000000075090008FB0B000841
:100040005F0100085F0100085F0100085F01000810
:100050005F0100085F0100085F0100085F01000800
:100060005F0100085F0100085F0100085F010008F0
:100070005F0100085F0100085F0100085F010008E0
:100080005F0100085F0100085F0100085F010008D0
:100090005F0100085F0100085F0100085F010008C0
:1000A0005F0100085F0100085F0100085F010008B0
:1000B0005F0100085D0C00085F0100085F01000897
:1000C0005F0100085F0100085F0100085F01000890
:1000D0005F010008090E00085F010008910E00088A
:1000E0005F0100085F0100085F0100085F01000870
:1000F0005F0100085F0100085F0100085F01000860
:100100005F0100085F0100085F0100085F0100084F
:100110005F0100085F0100085F010008790C00081A
:100120005F0100085F0100085F0100085F0100082F
:10013000DFF80CD000F072F800480047A513000863
:10014000601500200648804706480047FEE7FEE7A6
:10015000FEE7FEE7FEE7FEE7FEE7FEE7FEE7FEE777
:10016000FD0B000831010008CAB2401E10F8011F43
:100170008A4202D00029F9D100207047962300223C
:10018000114600F01DB820F00040C10DC0F316006C
:1001900040F400007F2901DA00207047962903DC33
:1001A000C1F19601C84070479639884070470029D0
:1001B000A8BF7047401C490008BF20F001007047ED
:1001C00010B4B0FA80FC00FA0CF050EA010404BF4D
:1001D00010BC704749B1CCF1200421FA04F411FAA3
:1001E0000CF118BF012121430843A3EB0C01CB1DE7
:1001F0004FEA00614FEA102042BF002010BC704758
:1002000000EBC35010440029A4BF10BC7047401C31
:10021000490008BF20F0010010BC7047064C074D94
:1002200006E0E06840F0010394E8070098471034C6
:10023000AC42F6D3FFF780FF0C1500082C15000820
:1002400070B58C1810F8015B15F0070301D110F898
:10025000013B2A1106D110F8012B03E010F8016BC5
:1002600001F8016B5B1EF9D12B0705D40023521E48
:100270000DD401F8013BFAE710F8013BCB1A921CB0
:1002800003E013F8015B01F8015B521EF9D5A142AE
:10029000D8D3002070BD00BFFEE7000008B50121E3
:1002A000102000F089FB4FF40050ADF80000102042
:1002B0008DF8030003208DF802006946014800F024
:1002C0001DF808BD0010014010B5FFF7E7FF4FF41F
:1002D0000051024800F0A6F810BD000000100140D7
:1002E00070470000044900E0521C11F8013B002B4C
:1002F000FAD1500870470000A40C00202DE9F0410D
:10030000024600250026002000230024002791F843
:1003100003C00CF00F0591F803C00CF0100CBCF1F9
:10032000000F03D091F802C04CEA050591F800C017
:10033000BCF1000F31D0146800202BE04FF0010C0D
:100340000CFA00F3B1F800C00CEA03069E4220D17B
:1003500083004FF00F0C0CFA03F7BC4305FA03FCC3
:100360004CEA040491F803C0BCF1280F06D14FF009
:10037000010C0CFA00FCC2F814C00AE091F803C0AA
:10038000BCF1480F05D14FF0010C0CFA00FCC2F88B
:1003900010C0401C0828D1D31460B1F800C0BCF1D3
:1003A000FF0F34DD546800202EE000F1080C4FF000
:1003B000010808FA0CF3B1F800C00CEA03069E42EB
:1003C00021D183004FF00F0C0CFA03F7BC4305FA60
:1003D00003FC4CEA040491F803C0BCF1280F05D1DA
:1003E00000F1080C08FA0CF8C2F8148091F803C068
:1003F000BCF1480F07D100F1080C4FF0010808FAD2
:100400000CF8C2F81080401C0828CED35460BDE818
:10041000F0810246002093680B400BB1012000E000
:10042000002070470161704700BFFEE7002001E037
:10043000411CC8B20A28FBDB7047000008B5012147
:10044000102000F0B9FA4020ADF8000003208DF82C
:10045000020014208DF8030069460648FFF74EFF9E
:100460008020ADF8000069460248FFF747FF00F022
:100470001DF808BD0010014010B5012009490860B1
:100480000949C1F89801FFF7D1FF0020054908602C
:10049000FFF7CCFF00200449C1F89801FFF7C6FF21
:1004A00010BD00009C0122420000224210B5002035
:1004B0000549086001200549C1F89801FFF7B6FF1A
:1004C00001200149086010BD9C0122420000224227
:1004D00010B501200C490860FFF7A8FF01200B4967
:1004E000C1F89801FFF7A2FF80210948FFF791FFAB
:1004F00008B1012400E0002400200349091F08601E
:10050000FFF794FF204610BD9C01224200002242CA
:100510000010014008B50121142000F04DFA102010
:10052000ADF8000048208DF8030069461548FFF734
:10053000E5FE2020ADF8000048208DF80300694654
:100540001048FFF7DBFE4020ADF8000048208DF892
:10055000030069460B48FFF7D1FE8020ADF800008C
:1005600048208DF8030069460648FFF7C7FE1020B3
:10057000ADF8000048208DF8030069460248FFF7F7
:10058000BDFE08BD000801400010014010B501206B
:1005900000F012FB012000F053FE072000F050FE97
:1005A000112000F04DFEB42000F080FE10BD00BF11
:1005B000FEE7704770B5002100230F22C47804B312
:1005C000154C246804F4E064C4F5E064210AC1F128
:1005D0000403CA40447804FA03F1847814402143A8
:1005E00009010E4C0678A155047804F01F0501247A
:1005F000AC4005786D11AD0005F1E025C5F800416E
:1006000009E0047804F01F050124AC40044D06788D
:10061000761145F8264070BD0CED00E000E400E0E6
:1006200080E100E002490143024A11607047000086
:100630000000FA050CED00E010B5002000F001F814
:1006400010BD70B50646002415E004F1B001C8B233
:1006500000F0A0FD002000F09DFD102000F09AFDAC
:10066000002504E0304600F0ABFD681CC5B2802DCB
:10067000F8DB601CC4B2082CE7DB70BD10B5FFF7D7
:10068000DDFE642000F012FEAE2000F083FD0020AD
:1006900000F080FD102000F07DFD402000F07AFD8C
:1006A000B02000F077FD812000F074FDFF2000F005
:1006B00071FDA12000F06EFDA62000F06BFDA820CA
:1006C00000F068FD3F2000F065FDC82000F062FDED
:1006D000D32000F05FFD002000F05CFDD52000F08D
:1006E00059FD802000F056FDD82000F053FD052074
:1006F00000F050FDD92000F04DFDF12000F04AFD42
:10070000DA2000F047FD122000F044FDDB2000F06D
:1007100041FD302000F03EFD8D2000F03BFD142017
:1007200000F038FDAF2000F035FD10BD70B5044677
:100730000D4605F1B001C8B200F02CFDA11CC1F3BB
:10074000031141F0100000F025FDA11C01F00F0184
:1007500041F0010000F01EFD70BD00002DE9F047E2
:10076000074688461646002580E03078A02843DDFD
:1007700000253AE0702F04DD002708F1020000F0A8
:10078000FF0830783C4911F8151088422CD1707858
:10079000012101EB4501384A515C884224D1414690
:1007A0003846FFF7C3FF002406E004EB4511334A47
:1007B000505C00F005FD641C102CF6D308F101001C
:1007C000C1B23846FFF7B2FF002407E004EB451141
:1007D00010312A4A505C00F0F3FC641C102CF5D355
:1007E00007F11000C7B204E06D1C2548006885427F
:1007F000C0D300BFB61C39E07A2F04DD002708F112
:10080000020000F0FF0831781E48FFF7ADFC81467A
:10081000B9F1000F29D041463846FFF787FF002481
:1008200009E099F80010203904EB0111164A505CD8
:1008300000F0C6FC641C082CF3D308F10100C1B21F
:100840003846FFF773FF00240AE099F800102039BA
:1008500004EB011108310C4A505C00F0B1FC641C3F
:10086000082CF2D307F10800C7B2761C30780028B4
:100870007FF47BAFBDE8F087A40C002024060020A5
:10088000700D00200D0D0020340000202DE9F041F6
:1008900007460E46904600250024A8F12000C5B268
:1008A000812F02DD0027B01CC6B231463846FFF763
:1008B0003DFF002407E004EB05110E4A505C00F0F8
:1008C0007FFC601CC4B2082CF5DB701CC1B238463A
:1008D000FFF72CFF002408E004EB05110831054A5E
:1008E000505C00F06DFC601CC4B2082CF4DBBDE869
:1008F000F0810000340000202DE9F04705468946CC
:1009000090461E46DDF820A000242FE0301B401E3C
:10091000C1B20A2000F086FDB8FBF0F00A21B0FB5E
:10092000F1F201FB1207A7B9BAF1000F08D00821B4
:1009300001FB0451C8B230224946FFF7A7FF07E088
:10094000082101FB0451C8B220224946FFF79EFF4F
:100950000AE007F13001CAB2082101FB0451C8B214
:100960004946FFF793FF00BF601CC4B2B442CDDB21
:10097000BDE8F0877047000029B1064AD2690243FA
:10098000044BDA6104E0034AD2698243014BDA6125
:10099000704700000010024029B1064A1269024364
:1009A000044B1A6104E0034A12698243014B1A6145
:1009B000704700000010024029B1064A92690243C4
:1009C000044B9A6104E0034A92698243014B9A61A5
:1009D000704700000010024029B1064AD268024365
:1009E000044BDA6004E0034AD2688243014BDA60C8
:1009F000704700000010024030B5002100220024A2
:100A000000232D4D6D6805F00C0121B1042905D09E
:100A1000082923D105E0294D056022E0274D056016
:100A20001FE0254D6D6805F47012234D6D6805F4C7
:100A30008034022505EB92421CB9214D55430560D7
:100A40000BE01D4D6D6805F400351DB11C4D55437F
:100A5000056002E0194D5543056002E0174D056041
:100A600000BF00BF144D6D6805F0F0010909154D78
:100A70006B5C0568DD4045600F4D6D6805F4E06115
:100A8000090A104D6B5C4568DD4085600A4D6D6854
:100A900005F46051C90A0B4D6B5C4568DD40C560CB
:100AA000054D6D6805F44041890B074D6B5CC568C9
:100AB000B5FBF3F5056130BD0010024000127A006D
:100AC00000093D001E0000202E000020704710B5D8
:100AD00000F002F810BD00000CB50020019000905D
:100AE0003348006840F480303149086000BF304826
:100AF000006800F4003000900198401C01900098BC
:100B000018B90198B0F5A06FF1D12948006800F438
:100B1000003010B10120009001E00020009000980A
:100B2000012843D12348006840F0100021490860A3
:100B30000846006820F0030008600846006840F09E
:100B4000020008601A484068194948600846406831
:100B500048600846406840F4806048600846406845
:100B600020F47C1048600846406840F4E810486073
:100B70000846006840F08070086000BF0C480068BC
:100B800000F000700028F9D00948406820F0030008
:100B9000074948600846406840F00200486000BFCE
:100BA0000348406800F00C000828F9D10CBD000093
:100BB000001002400020024010B50446FFF75CFC24
:100BC000462000F0BBFA204600F0B8FAFFF76EFCB2
:100BD00010BD042808D14FF0E021096941F004015B
:100BE0004FF0E022116107E04FF0E021096921F0A8
:100BF00004014FF0E02211617047704710B51348AF
:100C0000006840F00100114908600846406810493A
:100C100008400E494860084600680E4908400B49E4
:100C200008600846006820F4802008600846406894
:100C300020F4FE0048604FF41F008860FFF747FF74
:100C40004FF000600449086010BD00000010024031
:100C50000000FFF8FFFFF6FE08ED00E010B50121EF
:100C6000044800F062F818B10121024800F04EF883
:100C700010BD00000004004010B50121094800F03B
:100C800054F868B10848008840F4004006490880DC
:100C90000121044800F03AF80021024800F039F838
:100CA00010BD000000140040740D00207FB5054603
:100CB0000C4601212020FFF75FFEADF80450ADF88F
:100CC00000400020ADF80600ADF8020069460E486D
:100CD00000F048F8012211460B4800F037F80121D6
:100CE000094800F016F837208DF80C0000208DF828
:100CF0000D0002208DF80E0001208DF80F0003A8D2
:100D0000FFF758FC7FBD000000140040CA43028278
:100D1000704721B1028842F00102028004E002889B
:100D20004FF6FE731A400280704730B5024600202D
:100D300000230024158A05EA0103958905EA0104C8
:100D400013B10CB1012000E0002030BD1AB183893D
:100D50000B43838102E083898B43838170478184C5
:100D600070470000002202881D4B98420ED01D4B98
:100D700098420BD0B0F1804F08D01B4B984205D061
:100D80001A4B984202D01A4B984204D14FF68F73F7
:100D90001A404B881A43174B984207D0164B98427B
:100DA00004D04FF6FF431A40CB881A4302808B8849
:100DB00083850B8803850A4B98420BD0094B9842D8
:100DC00008D00E4B984205D00D4B984202D00D4BE7
:100DD000984201D10B7A0386012383827047000079
:100DE000002C014000340140000400400008004095
:100DF000000C004000100040001400400040014082
:100E0000004401400048014010B540F225511D4802
:100E100000F0D0F810B31B4800F088F9C4B21A48AB
:100E2000008800F40040C8B91748008800F48040EA
:100E300060B10A2C03D000201349088020E012483A
:100E4000008840F400401049088019E00D2C06D1BC
:100E50000D48008840F480400B49088010E00A48A3
:100E60000088C0F30D0009490C5407480088401C55
:100E70000549088008460088C72801DD0020088051
:100E800010BD0000003801401C000020780D00203B
:100E900010B540F22551164800F08CF8F8B114480E
:100EA00000F044F9C4B21348008800F40040B0B91F
:100EB00010480088B0F5C87F12DA00210E48FFF70D
:100EC0004EFF0C48008818B901210B48FFF721FF9D
:100ED00008490888411C074A118008490C5405E05C
:100EE0000448008840F400400249088010BD00001A
:100EF00000480040740D002000140040400E002007
:100F000021B1828942F40052828104E082894DF647
:100F1000FF731A408281704710B50446204884420E
:100F200009D101218803FFF757FD00214FF48040CC
:100F3000FFF752FD32E01B48844209D101214804E9
:100F4000FFF72AFD00214FF40030FFF725FD25E0D3
:100F50001548844209D101218804FFF71DFD0021B5
:100F60004FF48020FFF718FD18E01048844209D1A3
:100F70000121C804FFF710FD00214FF40020FFF706
:100F80000BFD0BE00A48844208D101210805FFF758
:100F900003FD00214FF48010FFF7FEFC10BD0000A0
:100FA000003801400044004000480040004C004030
:100FB0000050004070B502460024002300250020A8
:100FC00040F66A16B14200D100BFC1F3421501F0EC
:100FD0001F03012606FA03F3012D02D1968933403F
:100FE00006E0022D02D1168A334001E0968A334092
:100FF0000C12012606FA04F41688344013B10CB121
:10100000012000E0002070BDF0B50346002400265A
:101010000025002040F66A17B94200D100BF1846EB
:10102000C1F3421401F01F06012707FA06F5012C4F
:1010300001D10C3004E0022C01D1103000E014305A
:101040001AB107682F43076002E00768AF430760E3
:10105000F0BD00002DE9F04786B005460E4600249D
:10106000A24600BFA1460027B08900B100BF2F46AD
:101070002C8A4CF6FF700440F08804432C82AC8923
:101080004EF6F3100440B088318908437189084353
:101090000443AC81AC8A4FF6FF400440B08904435E
:1010A000AC8201A8FFF7A8FC1F48874202D1DDF8F7
:1010B00010A001E0DDF80CA0A88900F4004040B1C8
:1010C0000AEBCA0000EB0A1031684900B0FBF1F8E6
:1010D00007E00AEBCA0000EB0A1031688900B0FB98
:1010E000F1F86420B8FBF0F004012009642101FB51
:1010F0001089A88900F4004040B1322000EBC900FB
:10110000B0FBF1F000F00700044308E0322000EBF0
:1011100009106421B0FBF1F000F00F0004432C81B2
:1011200006B0BDE8F087000000380140014688881D
:10113000C0F30800704700BFFEE7000070B504462A
:10114000002520E004F0800018B101200F4908605C
:1011500002E000200D490860FFF768F901200B4903
:10116000091F0860FFF762F900200949C1F89801DA
:10117000072D02D10120054908606006040EFFF723
:1011800055F9681CC5B2082DDCDB70BD9C012242FC
:101190000000224210B50446FFF76EF97820FFF7F1
:1011A000CDFFFFF795F90020FFF7C8FFFFF790F993
:1011B0002046FFF7C3FFFFF78BF9FFF777F910BD64
:1011C00010B50446FFF758F97820FFF7B7FFFFF78F
:1011D0007FF94020FFF7B2FFFFF77AF92046FFF7CB
:1011E000ADFFFFF775F9FFF761F910BD02E008C820
:1011F000121F08C1002AFAD170477047002001E091
:1012000001C1121F002AFBD1704710B5FFF734F956
:101210004720FFF793FFFFF75BF900F0A1F80446C2
:1012200000F06AF84FF6FF7000EA042400F098F826
:10123000204484B200F07CF8FFF738F9204610BD56
:1012400010B5044600BFFFF717F94620FFF776FFF9
:10125000FFF73EF90028F6D12046FFF76FFFFFF7B2
:1012600037F9FFF723F910BD10B56FF00400FFF751
:10127000B0FC0A4800680A49B0FBF1F0094908705F
:101280000846007800EB4001C1EBC0104FF6FF713B
:1012900001EAC0000449088010BD000000000020E1
:1012A00000127A0014000020160000200146114AA6
:1012B00012884A434FF0E0235A6100229A611A468D
:1012C000126942F001021A6100BF4FF0E02210697A
:1012D00000F001021AB100F48032002AF5D04FF07C
:1012E000E022126922F001024FF0E0231A6100228D
:1012F0009A6170471600002010B500200A49086066
:10130000FFF794F801200949C1F89801FFF78EF81A
:1013100000200549091F0860FFF788F801200349EC
:10132000C1F89C0110BD00009C0122420000224235
:1013300010B5012008490860FFF778F80120074937
:10134000C1F89801FFF772F800200349091F0860EF
:10135000FFF76CF810BD00009C0122420000224201
:1013600070B50024002514E06006040E01200B492E
:101370000860FFF75BF880210948FFF74AF808B1D9
:10138000601CC4B2002005490860FFF74FF8681CD4
:10139000C5B2082DE8DB204670BD0000980122424E
:1013A000001001401CB50A200190FEF79BFF19496F
:1013B00008604FF4A060FFF735F9FFF755FF4FF4D1
:1013C000614000F03BF8FFF7A5F8FEF77DFFFFF75F
:1013D000DDF8FFF753F9FFF72FF91AE0FFF715FFD4
:1013E0000546FEF7CBFE04460BA204210020FFF7C2
:1013F000B5F92046FEF7C7FE0546012002232A461E
:10140000042100904620FFF777FA4FF47A70FFF737
:101410004DFFE3E7700D0020B9E2D5D5C7BFB6C8D0
:101420003A00000010B50246012000E050430B1EB8
:10143000A1F10104E1B2F9D110BD000010B586B0F0
:10144000044601210820FFF7B7FA01218804FFF7BD
:1014500093FA2A48FFF760FD4FF48060ADF8100062
:1014600003208DF8120018208DF8130004A92448D9
:10147000FEF744FF4FF40060ADF8100004208DF833
:10148000130004A91E48FEF739FF00940020ADF8B0
:101490000400ADF80600ADF80800ADF80C000C2013
:1014A000ADF80A0069461548FFF7D4FD012113483D
:1014B000FFF726FD012240F225511048FFF7A4FD59
:1014C00027208DF8140002208DF8150003208DF8D8
:1014D000160001208DF8170005A8FFF76BF841F6FC
:1014E0001F416320FFF7E2FB00200649088000212E
:1014F0000548FFF70EFC06B010BD00000048004094
:10150000000C0140740D0020001400402C15000850
:1015100000000020780D000040020008B81E0008FE
:10152000780D0020E8070000FC1100081184A24A91
:1015300004E00901020304060708092916691A05CF
:10154000150204060872F852331C100C0603912C85
:1015500040C07803112C043F040321367088FC0836
:1015600030261820FF211E14F008F033E0184D211A
:101570001C031E11338870000C101E212324192710
:10158000211010160E45E018040225071820403DD2
:10159000020418E0692C20180707174080F08040EB
:1015A000403F0202010F0102283AF0CA1C01011F4C
:1015B00004912B80B066A9EB4901912A30A5592CE2
:1015C000146018043C6018061D1EE0100808107214
:1015D0001F0F102020100FF05310F83620203F204E
:1015E000203C700808C21E3028242221441E3008E6
:1015F000888848082E1820202011CC3BC020322794
:10160000070424243F241AF8202308084B1921201A
:1016100036E0108888184B0F11101E380808C8389B
:101620002021523F1A702E29608F1C222121221C5A
:1016300090111D31222211901961CAC0C26A80C660
:1016400059081C40201050170102040810204A407D
:1016500001114A04012119152A403219251B0402DF
:10166000F21B7048D13AF0501A360F1EC030C8280D
:10167000E87028080718272423140B6F2A387E28BF
:101680000D203C23020227382008F888889F4B2031
:101690003FF01BC0303F1B083830191019781B0869
:1016A000F80F194039201B100F103E8888E80810E9
:1016B00010AC23201810112A035E2940223829403B
:1016C0002C221E024019A41809F808203F2101010C
:1016D00021252A0852298129424149112EC08080A2
:1016E000807F0E2FF888C0281808501C0126382F3C
:1016F0002940292F29801B20301012F81AF81413C2
:10170000203F190229204B30C0601A2074123F4B31
:10171000E010B06B0F10B029D01AF0301980220100
:1017200079203F18242438504FC04C888870C0144A
:101730000C30204B7088C11738202121221C3A1808
:101740009F4A188239A049D0112A1F90121F2408DD
:1017500078881BC838151C07380E60191A1AF8202B
:101760001114033C0714073C0348140818688080D0
:1017700068180820302C03032C30200838C82F5953
:1017800050298F29102F203826212020681145FE4E
:10179000020202257F4040401A0CE0611C0106381D
:1017A0000B191D42FE191D527F1A04120211045A10
:1017B00080011930D91D3916211808192422222236
:1017C0003F20AB390F115F3F112020110E21311A3C
:1017D0000E104B2011104B88F8102A10B359401AE4
:1017E0001F3F2B22130F16F0888888181A20D02943
:1017F000D1497A21176B94949493603960190F4CF6
:10180000203F21F354809898793059121AC0271933
:10181000D1193039311F203F24022D30212A0812DE
:10182000893069D7294B2903190BC96079A019BFE1
:101830002B201FDD390F9C80FFA1E0191229D03B1E
:10184000A0FF0C3950194112208A01C01B3324011A
:101850002A190F3AE0413952290F392349603C10C7
:101860003F202C29053F010E300806017029103851
:10187000080F300C030C300F2C49A14E312E0E31C5
:10188000200C29621D818E70183059D121572130CA
:101890002C22213055807C0202443F404072FF39A7
:1018A000083C02027C8F5440403F4E020102020479
:1018B0002F4117101010FF109010093F4848444462
:1018C0004442701D0444827F662BFF490119412068
:1018D0000F2030AC63100808F8090E08F808081843
:1018E0000E2267221292804021160816214088207D
:1018F0000F1010D0FF9014E4AFA4A4A4AFE4041B15
:10190000040377100B894B2A1A0E1A2A4B88801968
:10191000F61808FF2020080808FF041AF870100FB6
:1019200030100F884821110D030D11214181151030
:1019300060028C16FE02F202FE2AF8B1100B0404BB
:101940007E018047300F10272C47807FB71342CC91
:101950002A90013EFF10111610E6100C1028603F6F
:101960001010010E3040F0172424A4FE23222B3E39
:101970002201223E1808080601FF010640BD1A7F19
:10198000043241100EFC040404141556945434140B
:1019900004041440300F1F01010141817F061B0523
:1019A0000310180EEF242480E49C105454FF547C40
:1019B000101C480E7F21512618274445455F454598
:1019C00044A0380B109252321E3252921210A011C3
:1019D000100B211840807F083004093120081010B6
:1019E00010FF1010F04AF8E01A8061191D211A7FCB
:1019F000FA19074E80FE8282FE0539E113403F3D11
:101A000020BF403F232A4F05200FFE225A86201078
:101A10002824E324281020202FFF040827110DA0DC
:101A20001A055F112B02FA3B100A4020504C434C20
:101A3000502040101008184884443F404458414EFC
:101A40006058474025404042CC2D04C40404E8427D
:101A500004180C3F1048407F40407F4141412029FD
:101A60001F1E445454547F04334440147F20101FDD
:101A7000FF15151555957E39C0100C902098888853
:101A8000E98E8888A8982C024281B64008844B28A9
:101A9000102847802A240137FC22222223222A02EE
:101AA000013C42827F082B0202111AC20819E11977
:101AB00001190F1A40795904290111301020180812
:101AC000EAACA8A8AFA8A8ACEA0828182A3E383F74
:101AD000FF020212221E501BF292012AFE051AF288
:101AE000502C0404FFC81F07040444847FD0CA801C
:101AF000010112380B020C80608040300FC8085F73
:101B0000180F02027E0180402018060106182040AE
:101B1000301708488808C8381A90E819EC211E20A8
:101B2000100C0304291B4380E8413AFEA81AFF3534
:101B30004310081C7F2020283A3FBF12781B02E286
:101B4000FA5AFE041AE2E112FF1D08060116044BC0
:101B5000024C421BF8880110090808FF08090AC84E
:101B6000081480601F100C10201F804021161826BA
:101B700041F81D080808F804497E22F0300F1030A3
:101B8000101F088848300E014080403F1C40301E26
:101B90001A291E299E11181081814121110D03015E
:101BA000030D11214181819F180902FA02FE402094
:101BB000D8173F19222F8047300F10675F1C081677
:101BC00021E019FB894019412C404042013A7F062F
:101BD00019D8171010D0FF90102008FC24E42422FC
:101BE00023E21B0403C21F83601F804126A02280C2
:101BF00014020CC02EF808484848C2128A2C02026F
:101C00007F9820091E925E20173846F1158060F8F3
:101C1000071A3EFC3422223E2201100DFF2011093A
:101C20000503FF03050911201808040484E41C07B8
:101C3000240116A4642404041B0201602F02024242
:101C4000827F0201115D80808292011DFE80808072
:101C5000A0180C22241048807F0408182422A051C8
:101C60007501E21CE037804020100C031D030C308E
:101C7000403011151088C4332BBEAA012ABEAF39DB
:101C8000605B0A126229301C9088865A1E838C1071
:101C900020402119111318072A40C541199F180D1A
:101CA0005C44C42010E82724E4342CE040180E7F64
:101CB00010103F80601F09093F49897F905342CC33
:101CC00092FF2C3F9048432B07185049203009FCC5
:101CD00024A4242222A362280E40201F205847500B
:101CE000484542454850C0500CFE0202F212121202
:101CF000F20202FE300C7F202027242424272020FB
:101D00007F151060028C1E445454547F04134440C9
:101D10001D04047E016D3E151515559520180F0CF8
:101D20004424140405060404142444140C601B40C9
:101D300041012A7F052A405F197C1E24A4643DA628
:101D400053142424041E40300F10136F1AFF044C48
:101D500012101060112BFE9201298029601E407E16
:101D600042427E024C427E4020491F7920180A449C
:101D700048507F40407F50489039602E24FC2526F3
:101D800024082960180E8F80844C55252525554C34
:101D90008080808F180C424458C0407F40C050481B
:101DA0004691378080402018071B3F40011A787BFE
:101DB00015424242FE200842A29E82A2C2BE278055
:101DC0006F080828CF4B2FC8081602E222223E20B7
:101DD0000A809E9292F292929E80100F4382423E1F
:101DE00040474444447F444454E71069D6B8CEC6C3
:101DF000C4A3BFE9B2E2CAD4B3CCD0F2BCFCCCEDF0
:101E0000BCD3C9BEB3FDD1E9D6A4C7EBB0B4CAD622
:101E1000D5FDB3A3D4D9D2BBB4CEB6D4B1C8C1BD5D
:101E2000B3C9B9A6CAA7B0DCC9FAB0E5BCF5B1A37D
:101E3000B4E6C2BCC8EBB5C3B7D6C8B7C8CFB7B550
:101E4000BBD8C7E5BFD5BFE2CEC2CAAAB6C8B9E201
:101E5000D5D5C7BFC06020212223242526272829C5
:101E60002A2B2C2D2E2F303132333435363738395A
:101E70003A3B3C3D3E3F404142434445464748494A
:101E80004A4B4C4D4E4F505152535455565758593A
:101E90005A5B5C5D5E5F606162636465666768692A
:101EA0006A6B6C6D6E6F707172737475767778791A
:081EB0007A7B7C7D7E000000BE
:0400000508000145A9
:00000001FF
