:020000040800F2
:10000000E0140020010100089D1E00089F1E00084A
:10001000A31E0008A71E0008AB1E00080000000079
:10002000000000000000000000000000AF1E0008FB
:10003000B11E000800000000B31E0008B51E000835
:100040001B0100081B0100081B0100081B01000820
:100050001B0100081B0100081B0100081B01000810
:100060001B0100081B0100081B0100081B01000800
:100070001B0100081B0100081B0100081B010008F0
:100080001B0100081B0100081B0100081B010008E0
:100090001B0100081B0100081B0100081B010008D0
:1000A0001B0100081B0100081B0100081B010008C0
:1000B0001B0100087F2500081B0100081B01000828
:1000C0001B0100081B0100081B0100081B010008A0
:1000D0001B0100081B0100081B010008B71E0008D7
:1000E0001B0100081B0100081B010008DFF80CD0F1
:1000F00002F082FD00480047991D0008E01400202E
:100100000648804706480047FEE7FEE7FEE7FEE7B1
:10011000FEE7FEE7FEE7FEE7FEE7FEE70302000874
:10012000ED0000080CB50020019000906C480068BC
:1001300040F480306A49086000BF6948006800F4F4
:10014000003000900198401C0190009818B9019867
:10015000B0F5A06FF1D16248006800F4003010B132
:100160000120009001E0002000900098012843D178
:100170005C48006840F010005A4908600846006872
:1001800020F0030008600846006840F002000860A4
:1001900053484068524948600846406848600846ED
:1001A000406840F4806048600846406820F47C1055
:1001B00048600846406840F4E81048600846006817
:1001C00040F08070086000BF4548006800F0007093
:1001D0000028F9D04248406820F0030040494860B8
:1001E0000846406840F00200486000BF3C48406854
:1001F00000F00C000828F9D10CBD10B5FFF792FFF4
:1002000010BD10B53648006840F001003449086060
:10021000084640683449084031494860084600684B
:10022000324908402E4908600846006820F48020C2
:1002300008600846406820F4FE0048604FF41F0044
:100240008860FFF7DAFF4FF000602949086010BDB1
:1002500010B5002100200022214B5B6803F00C0147
:1002600021B1042906D0082928D107E0214B224CCE
:10027000236027E01F4B204C236023E0184B5B6872
:1002800003F47010164B5B6803F48032022303EB17
:10029000904022B9194B4343174C23600DE0104B9B
:1002A0005B6803F4003323B1144B4343124C2360C7
:1002B00003E0104B4343104C236003E00D4B0E4C06
:1002C000236000BF00BF064B5B68C3F303130C4CF5
:1002D000E15C094B1B68CB40074C236010BD00005C
:1002E00000100240002002400000FFF8FFFFF6FE71
:1002F00008ED00E000127A000000002000093D0037
:100300000400002031490143314A1160704770B543
:10031000002100230F22C47804B32D4C246804F478
:10032000E064C4F5E064210AC1F10403CA404478E2
:1003300004FA03F18478144021430901254C06781E
:10034000A155047804F01F050124AC4005786D1117
:10035000AD0005F1E025C5F8004109E0047804F09E
:100360001F050124AC401C4D0678761145F8264047
:1003700070BD1A4A0A400243154B1B1F1A60704792
:1003800039B1134A121D12680243114B1B1D1A602A
:1003900006E00F4A121D126882430D4B1B1D1A60A6
:1003A0007047042808D14FF0E021096941F00401A9
:1003B0004FF0E022116107E04FF0E021096921F0E0
:1003C00004014FF0E0221161704700000000FA05BF
:1003D0000CED00E000E400E080E100E080FFFF1FA2
:1003E00010B50446CC48844208D10121042000F015
:1003F0002DFB0021042000F029FB46E0C748844281
:1004000008D10121082000F021FB0021082000F084
:100410001DFB3AE0C248844208D10121102000F0BF
:1004200015FB0021102000F011FB2EE0BD48844296
:1004300008D10121202000F009FB0021202000F03C
:1004400005FB22E0B848844208D10121402000F099
:10045000FDFA0021402000F0F9FA16E0B34884428A
:1004600008D10121802000F0F1FA0021802000F065
:10047000EDFA0AE0AE48844207D10121801500F070
:10048000E5FA0021A01500F0E1FA10BD10B5012138
:10049000084600F0DBFA0021012000F0D7FA10BD79
:1004A0002DE9F0410246002500260020002300240B
:1004B000002791F803C00CF00F0591F803C00CF071
:1004C000100CBCF1000F03D091F802C04CEA0505F6
:1004D00091F800C0BCF1000F31D0146800202BE06F
:1004E0004FF0010C0CFA00F3B1F800C00CEA03065F
:1004F0009E4220D183004FF00F0C0CFA03F7BC434F
:1005000005FA03FC4CEA040491F803C0BCF1280F7F
:1005100006D14FF0010C0CFA00FCC2F814C00AE03E
:1005200091F803C0BCF1480F05D14FF0010C0CFA53
:1005300000FCC2F810C0401C0828D1D31460B1F8E8
:1005400000C0BCF1FF0F34DD546800202EE000F144
:10055000080C4FF0010808FA0CF3B1F800C00CEADF
:1005600003069E4221D183004FF00F0C0CFA03F7D3
:10057000BC4305FA03FC4CEA040491F803C0BCF147
:10058000280F05D100F1080C08FA0CF8C2F8148005
:1005900091F803C0BCF1480F07D100F1080C4FF0EF
:1005A000010808FA0CF8C2F81080401C0828CED3C5
:1005B0005460BDE8F0814FF6FF7101800221817027
:1005C0000421C17070470246002093680B400BB1B4
:1005D000012000E0002070470146886880B2704723
:1005E00002460020D3680B400BB1012000E0002040
:1005F00070470146C86880B2704701617047416129
:1006000070470AB1016100E041617047C160704705
:100610004FF480320A43826181618261826982691A
:10062000704702460020434B18684FF6807318400D
:1006300040EA021008433F4B186070473E49C861CA
:100640007047F0B50A46002300240021002500F081
:100650000046B6F1004F02D1364EF16901E0354E49
:100660007168C0F3034583B200F44016B6F5401F2D
:1006700008D121F070612F4E766826F070662D4FFC
:100680007E6012E000F48016B6F5801F06D10326C6
:1006900006FA05F4A14341F0706106E0460D36010B
:1006A00003FA06F6B14341F0706122B1460D3601FE
:1006B00003FA06F6314300F00046B6F1004F02D1CE
:1006C0001C4EF16101E01B4E7160F0BD30B500229F
:1006D0008B071C0F0F2303FA04F2164B08338C1000
:1006E00053F824309343134C08348D1044F82530CC
:1006F00023468C1053F824308C07240F00FA04F49E
:1007000023430C4C08348D1044F8253030BD0A4981
:10071000DC3108607047000000080140000C014017
:10072000001001400014014000180140001C01406D
:10073000002001400000014000002042DF48006826
:1007400040F00100DD49086008464068DC49084087
:10075000DA49486008460068DA490840D749086025
:100760000846006820F4802008600846406820F4AD
:10077000FE0048604FF41F0088607047CF49096849
:1007800021F48031CD4A11601146096821F480219D
:100790001160B0F5803F03D0B0F5802F0ED106E098
:1007A000C649096841F48031C44A116007E0C34971
:1007B000096841F4A021C14A116000E000BF00BFF8
:1007C000704710B501460022002300204A11012A7B
:1007D00002D1BA4C236806E0022A02D1B74C236A40
:1007E00001E0B64C636A01F01F02012494401C40F2
:1007F0000CB1012000E0002010BD38B500200090B1
:100800000024002500BF3120FFF7DBFF05460098DC
:10081000401C00900098B0F5A06F01D0002DF2D0E0
:100820003120FFF7CEFF08B1012400E0002420466C
:1008300038BD01460020A14A106820F0F80040EAC7
:10084000C10010607047A049086070470246002050
:100850009A4B586820F47C1042EA01031843974BE6
:100860005860704798490866704701460020934ACF
:10087000506820F003000843506070478F4840687C
:1008800000F00C007047014600208C4A506820F0B0
:10089000F00008435060704701460020874A5068C6
:1008A00020F4E06008435060704701460020834A0E
:1008B000506820F4605040EAC1005060704729B190
:1008C0007E4A527A02437D4B5A7204E07B4A527A46
:1008D00082437A4B5A7270477B49D831086070471F
:1008E00001460020754A506820F44040084350609B
:1008F00070470021714A20321170704A82F820102E
:10090000012802D004280AD104E001216B4A2032D8
:10091000117005E00521694A2032117000E000BF26
:1009200000BF70476949086070476449096A01431C
:10093000624A11627047654944390860704730B5B2
:1009400000210022002400235C4D6D6805F00C019D
:1009500021B1042905D0082923D105E05C4D0560AB
:1009600022E05B4D05601FE0544D6D6805F4701288
:10097000524D6D6805F48034022505EB92421CB996
:10098000544D554305600BE04C4D6D6805F4003542
:100990001DB1504D5543056002E04D4D5543056076
:1009A00002E04B4D056000BF00BF444D6D6805F08F
:1009B000F0010909484D6B5C0568DD4045603F4D1D
:1009C0006D6805F4E061090A434D6B5C4568DD40E4
:1009D00085603A4D6D6805F46051C90A3E4D6B5C07
:1009E0004568DD40C560354D6D6805F44041890BB3
:1009F0003A4D6B5CC568B5FBF3F5056130BD29B1B7
:100A00002E4A526902432D4B5A6104E02B4A526927
:100A100082432A4B5A61704729B1284A926902439E
:100A2000264B9A6104E0254A92698243234B9A61DE
:100A3000704729B1214AD2690243204BDA6104E0B0
:100A40001E4AD26982431D4BDA61704729B11B4AA5
:100A5000D2680243194BDA6004E0184AD268824334
:100A6000164BDA60704729B1144A12690243134BDE
:100A70001A6104E0114A12698243104B1A617047EF
:100A800012494039086070470F49C86470470B49E4
:100A9000C87170470948406A40F080700749486251
:100AA000704701460020054A92680A400AB10120B9
:100AB00000E0002070470149887270470010024032
:100AC0000000FFF8FFFFF6FE0000424280044242B1
:100AD00000127A0000093D001400002024000020CC
:100AE00010B50446FE48844208D10121C014FFF726
:100AF000ADFF0021E014FFF7A9FFC4E0B4F1804F7F
:100B000008D101210846FFF7AEFF00210120FFF7C1
:100B1000AAFFB8E0F348844208D101210220FFF780
:100B2000A2FF00210220FFF79EFFACE0EE488442C6
:100B300008D101210420FFF796FF00210420FFF7D0
:100B400092FFA0E0E948844208D101210820FFF784
:100B50008AFF00210820FFF786FF94E0E4488442E2
:100B600008D101211020FFF77EFF00211020FFF7A0
:100B70007AFF88E0DF48844208D101212020FFF776
:100B800072FF00212020FFF76EFF7CE0DA488442EC
:100B900008D101214014FFF759FF00216014FFF72D
:100BA00055FF70E0D548844209D10121C804FFF700
:100BB0004DFF00214FF40020FFF748FF63E0D048CD
:100BC000844209D101210805FFF740FF00214FF4BD
:100BD0008010FFF73BFF56E0CA48844209D101214B
:100BE0004805FFF733FF00214FF40010FFF72EFFF9
:100BF00049E0C548844208D101214020FFF733FF76
:100C000000214020FFF72FFF3DE0C048844208D17B
:100C100001218020FFF727FF00218020FFF723FF1D
:100C200031E0BB48844208D101218015FFF71BFF4A
:100C30000021A015FFF717FF25E0B648844209D12F
:100C400001210804FFF702FF00214FF48030FFF775
:100C5000FDFE18E0B048844209D101214804FFF7A5
:100C6000F5FE00214FF40030FFF7F0FE0BE0AB483B
:100C7000844208D101218804FFF7E8FE00214FF4E7
:100C80008020FFF7E3FE10BD00220288944B9842BB
:100C90000ED0994B98420BD0B0F1804F08D0914BB9
:100CA000984205D0904B984202D0904B984204D184
:100CB0004FF68F731A404B881A438D4B984207D0DA
:100CC0008C4B984204D04FF6FF431A40CB881A430E
:100CD00002808B8883850B880385814B98420BD0DB
:100CE000854B984208D08B4B984205D08A4B98424E
:100CF00002D08A4B984201D10B7A0386012383826A
:100D0000704770B5002400220023058C4FF6FE7654
:100D100035400584028C8388048B4FF68F752C40F8
:100D2000B51E2C400D882C43751E2A400D892A4380
:100D30004D882A436A4DA8420BD06F4DA84208D077
:100D4000744DA84205D0744DA84202D0734DA842FC
:100D500013D14FF6F7752A404D892A434FF6FB759C
:100D60002A408D882A434FF6FF652B404FF6FF55EA
:100D70002B408D892B43CD892B4383800483CD88E1
:100D80008586028470BD70B5002400220023058C86
:100D90004FF6EF7635400584028C8388048B48F645
:100DA000FF752C404FF6FF452C400D884FF6FF761F
:100DB00006EA05252C434FF6DF752A400D8906EA21
:100DC00005152A434D8806EA05152A43444DA842D5
:100DD00002D0494DA8421DD14FF67F752A404D895A
:100DE0004FF6FF7606EA05152A434FF6BF752A40EF
:100DF0008D8806EA05152A434FF6FF352B404FF242
:100E0000FF752B408D8906EA85052B43CD8906EABF
:100E100085052B4383800483CD880587028470BDBC
:100E200070B5002400220023058C4FF6FF66354084
:100E30000584028C8388848B4FF68F752C404FF687
:100E4000FC752C400D882C434FF6FF552A400D8928
:100E50004FF6FF7606EA05252A434D8806EA052562
:100E60002A431F4DA84202D0234DA8421DD14FF264
:100E7000FF752A404D894FF6FF7606EA05252A437D
:100E80004FF6FF352A408D8806EA05252A434EF69F
:100E9000FF752B404DF6FF752B408D8906EA051531
:100EA0002B43CD8906EA05152B4383808483CD88A7
:100EB0008587028470BD70B5002200230024058C54
:100EC0004EF6FF7635400584038C8488828B48F685
:100ED000FF752A404FF6FF452A400D8820E00000AC
:100EE000002C01400004004000080040000C0040BD
:100EF000001000400014004000340140004C01404C
:100F0000005001400054014000180040001C004007
:100F100000200040004001400044014000480140E2
:100F20004FF6FF7606EA05252A434DF6FF752B405E
:100F30000D8906EA05352B434D8806EA05352B4316
:100F4000FA4DA84202D0FA4DA84208D14BF6FF75DF
:100F50002C408D894FF6FF7606EA85152C43848058
:100F60008283CD88A0F84050038470BD828B4FF2FD
:100F7000FF331A408283828B4FF6FF7303EA01230B
:100F80001A4382837047F0B50C46154600220021B3
:100F90000026078C4EF6FF7C07EA0C070784828B3D
:100FA000018C4FF6FF7707EA043640F6FF473A40D8
:100FB0004FF6FF7707EA05273A434FF6FF7707EA30
:100FC00003373A43D94FB8420ED0D94FB8420BD06D
:100FD000B0F1804F08D0D74FB84205D0D64FB842B5
:100FE00002D0D64FB84206D14DF6FF77394046F4CD
:100FF0008057394305E047F6FF57394044F480579E
:10100000394382830184F0BD828B4FF6F3731A401B
:101010008283828B0A4382837047F0B50C46154663
:10102000002200210026078C4FF6FF6C07EA0C0710
:101030000784828B018C4FF6FF7707EA04264FF670
:101040000C773A404FF6FF7707EA03172F433A43EE
:10105000B64FB8420ED0B64FB8420BD0B0F1804F69
:1010600008D0B44FB84205D0B34FB84202D0B34F06
:10107000B84206D14FF6FF57394046F480773943DE
:1010800005E04FF2FF57394044F4807739438283BB
:101090000184F0BD028B4FF2FF331A400283028BB2
:1010A0004FF6FF7303EA01231A4302837047F0B53A
:1010B0000C461546002200210026078C4FF6EF7CD7
:1010C00007EA0C070784028B018C4FF6FF7707EACB
:1010D000041640F6FF473A404FF6FF7707EA03371A
:1010E0003A434FF6FF7707EA05273A438F4FB84256
:1010F0000ED08F4FB8420BD0B0F1804F08D08D4F3B
:10110000B84205D08C4FB84202D08C4FB84206D1BD
:101110004FF6DF77394046F01007394305E04FF6C8
:101120005F77394044F01007394302830184F0BDF2
:10113000028B4FF6F3731A400283028B0A43028339
:101140007047F0B50C46154600220021068C4FF67C
:10115000FE773E400684028B018C4FF60C763240BF
:101160007E1C06EA03162E433243704EB0420ED068
:101170006F4EB0420BD0B0F1804F08D06D4EB042F0
:1011800005D06D4EB04202D06C4EB04206D14FF643
:10119000FD76314044F00106314305E04FF6F57627
:1011A000314044F00106314302830184F0BD70B543
:1011B00005460C465D4885420ED05D4885420BD001
:1011C000B5F1804F08D05B48854205D05A4885422A
:1011D00002D05A48854200D100E000BF208850B9B3
:1011E0002389A28861882846FFF7ABFFE18828465B
:1011F000FFF79EFF25E0208804280AD12389A288D2
:1012000061882846FFF753FFE1882846FFF742FF31
:1012100017E0208808280AD12389A28861882846F7
:10122000FFF7FBFEE1882846FFF7EEFE09E0238981
:10123000A28861882846FFF7A6FEE1882846FFF7C6
:1012400095FE70BD2DE9F04105460C4600260127AC
:10125000608808B9022600E00026A088012801D194
:10126000022700E001272088A0B92389A28861888D
:101270002846FFF766FFE1882846FFF759FF2389D4
:101280003A4631462846FFF712FFE1882846FFF725
:1012900001FF13E02389A28861882846FFF707FF32
:1012A000E1882846FFF7F6FE23893A46314628466C
:1012B000FFF747FFE1882846FFF73AFFBDE8F081D6
:1012C0000A884B881A438B881A43CB881A430B89A8
:1012D0001A434B891A438B891A43A0F8442070475C
:1012E0004FF6FF71818000210180C1804180017231
:1012F00070470021018041808180C180018141814E
:101300008181C1817047002101804180012181805C
:101310000021C180018170470021018041808180CE
:10132000C18001814181818170470000002C014012
:10133000003401400004004000080040000C004060
:1013400021B1028842F00102028004E002884FF6D7
:10135000FE731A400280704731B1B0F8442042F465
:101360000042A0F8442005E0B0F84420C2F30E0289
:10137000A0F8442070471AB183890B43838102E0AF
:1013800083898B43838170478182704741EA0203DE
:10139000A0F8483070471AB183890B43838102E07B
:1013A00083898B438381704701894FF6F87211401E
:1013B000018170470A46002101894FF68F73194059
:1013C00011430181704730B504460D462946204639
:1013D000FFF7F0FF208940F00700208130BD2DE9A4
:1013E000F04104460D4616461F46602D06D13B4689
:1013F000012231462046FFF75AFE05E03B46012216
:1014000031462046FFF79DFE29462046FFF7D2FFD2
:10141000208940F007002081BDE8F08130B50C46FE
:1014200000210189C9B24FF6FF7505EA032515436E
:1014300025432943018130BD2DE9F04105460E4683
:1014400017469846002443463A4631462846FFF759
:10145000E5FF2C894FF6F870044044F007044FF67E
:101460008F70044044F070042C81BDE8F081F0B529
:1014700004460D4616461F463B4632462946204640
:10148000FFF7CCFF208940F480402081F0BD01852A
:10149000828270470A46002101884FF68F731940F7
:1014A000114301807047F0B50C4615461E460021D9
:1014B000002200230189028B038C4FF6F877394014
:1014C00021434FF6FC473A4040F201173A434FF6AA
:1014D000DD773B404FF6FF7707EA06172F433B4384
:1014E000018102830384F0BD0A460021018B4FF67F
:1014F0008F7319401143018370470A460021018B05
:1015000048F6FF7319404FF6FF7303EA02231943AD
:10151000018370470A460021818B4FF68F73194073
:101520001143818370470A460021818B48F6FF737F
:1015300019404FF6FF7303EA022319438183704772
:1015400021B1028842F08002028004E002884FF656
:101550007F731A400280704721B1828842F00402F2
:10156000828004E082884FF6FB731A4082807047C5
:1015700021B1828842F00802828004E082884FF61E
:10158000F7731A408280704721B1828842F00102CD
:10159000828004E082884FF6FE731A408280704792
:1015A0000A460021018B4FF6F7731940114301835E
:1015B00070470A460021018B4FF2FF7319404FF626
:1015C000FF7303EA02231943018370470A4600218F
:1015D000818B4FF6F77319401143818370470A4698
:1015E0000021818B4FF2FF7319404FF6FF7303EA1E
:1015F00002231943818370470A460021018B4FF66D
:10160000FB7319401143018370470A460021018B87
:101610004FF6FF3319404FF6FF7303EA02231943D5
:10162000018370470A460021818B4FF6FB731940F6
:101630001143818370470A460021818B4FF6FF33A7
:1016400019404FF6FF7303EA022319438183704761
:101650000A460021018B4FF67F7319401143018325
:1016600070470A460021018BC1F30E014FF6FF734C
:1016700003EA02231943018370470A460021818B44
:101680004FF67F7319401143818370470A4600214A
:10169000818BC1F30E014FF6FF7303EA0223194356
:1016A000818370470A460021018C4FF6FD73194073
:1016B0001143018470470A460021018C4FF6F773ED
:1016C00019401143018470470A460021018C4FF6EE
:1016D000DF7319404FF6FF7303EA021319430184C5
:1016E00070470A460021018C4FF67F7319404FF670
:1016F000FF7303EA02131943018470470A4600216D
:10170000018C4FF6FF5319404FF6FF7303EA022393
:101710001943018470470A460021018C4FF2FF7380
:1017200019404FF6FF7303EA0223194301847047FF
:101730000A460021018C4DF6FF7319404FF6FF73E6
:1017400003EA023319430184704730B500230124B2
:101750008C40A3B2048C9C430484048C02FA01F5EF
:10176000ADB22C43048430BD30B5002304248C403A
:10177000A3B2048C9C430484048C02FA01F5ADB23C
:101780002C43048430BD70B5034600200024184665
:10179000183001258D40ACB21D8CA5431D8409B1C4
:1017A000082909D100EB6100056825F07005056086
:1017B0000568154305600EE00D1FC5F34E0528446E
:1017C000056825F4E045056005684FF6FF7606EAF2
:1017D00002263543056070BD21B1028842F0020245
:1017E000028004E002884FF6FD731A4002807047C1
:1017F00021B1028842F00402028004E002884FF620
:10180000FB731A400280704721B1828842F0800247
:10181000828004E082884FF67F731A40828070478E
:1018200002884FF6F7731A40028002880A4302804A
:10183000704782884FF68F731A40828082880A43ED
:101840008280704702894FF6F8731A40028102893C
:101850000A430281704702894FF67F731A40028162
:1018600002890A43028170478184704781857047ED
:10187000818670470187704781877047A0F84010C4
:10188000704702884FF6FF431A40028002880A43DD
:10189000028070470146888E70470146088F704766
:1018A0000146888F70470146B1F8400070470146F5
:1018B000888C70470146088D704702460020138AC5
:1018C0000B400BB1012000E000207047CA430282A8
:1018D000704730B50246002000230024158A05EA2F
:1018E0000103958905EA010413B10CB1012000E060
:1018F000002030BDCA4302827047000010B5044684
:10190000FB48844209D101218803FFF79FF8002199
:101910004FF48040FFF79AF832E0F648844209D14C
:1019200001214804FFF79FF800214FF40030FFF732
:101930009AF825E0F048844209D101218804FFF794
:1019400092F800214FF48020FFF78DF818E0EB4863
:10195000844209D10121C804FFF785F800214FF422
:101960000020FFF780F80BE0E548844208D1012110
:101970000805FFF778F800214FF48010FFF773F89F
:1019800010BD2DE9F04786B005460E460024A2465C
:1019900000BFA1460027B08900B100BF2F462C8AA6
:1019A0004CF6FF700440F08804432C82AC894EF65C
:1019B000F3100440B0883189084371890843044317
:1019C000AC81AC8A4FF6FF400440B0890443AC823E
:1019D00001A8FEF7B4FFC648874202D1DDF810A087
:1019E00001E0DDF80CA0A88900F4004040B10AEB4A
:1019F000CA0000EB0A1031684900B0FBF1F807E0BB
:101A00000AEBCA0000EB0A1031688900B0FBF1F85C
:101A10006420B8FBF0F004012009642101FB108967
:101A2000A88900F4004040B1322000EBC900B0FBAF
:101A3000F1F000F00700044308E0322000EB091049
:101A40006421B0FBF1F000F00F0004432C8106B0DC
:101A5000BDE8F0874FF41651016000218180C180FC
:101A600001810C21418100218181704710B502461E
:101A70000020108A4FF2FF0318400B884C88234344
:101A80008C882343CC8823431843108210BD002147
:101A9000018041808180C180704721B1828942F4F8
:101AA0000052828104E082894DF6FF731A408281E0
:101AB0007047F0B50346002400260025002040F6BC
:101AC0006A17B94200D100BF1846C1F3421401F0B1
:101AD0001F06012707FA06F5012C01D10C3004E09E
:101AE000022C01D1103000E014301AB107682F43E6
:101AF000076002E00768AF430760F0BD1AB1838A50
:101B00000B43838202E0838A8B4383827047028A7D
:101B10004FF6F0731A400282028A0A43028270472B
:101B200082894FF2FF731A40828182890A4382813F
:101B3000704721B1828942F00202828104E08289E9
:101B40004FF6FD731A4082817047028A4FF6DF73A9
:101B50001A400282028A0A430282704721B1028A35
:101B600042F48042028204E0028A4BF6FF731A407C
:101B700002827047C1F3080282807047014688885C
:101B8000C0F308007047818941F0010181817047ED
:101B9000028BD2B20283028B42EA01220283704797
:101BA000028B02F47F420283028B0A430283704756
:101BB00021B1828A42F02002828204E0828A4FF6BA
:101BC000DF731A408282704721B1828A42F010028C
:101BD000828204E0828A4FF6EF731A408282704755
:101BE00021B1828A42F00802828204E0828A4FF6A2
:101BF000F7731A408282704721B1828942F4004211
:101C0000828103E08289C2F30E028281704721B192
:101C1000828A42F40062828204E0828A4FF2FF7379
:101C20001A4082827047828A4FF6FB731A40828282
:101C3000828A0A438282704721B1828A42F002027C
:101C4000828204E0828A4FF6FD731A4082827047D6
:101C500002460020B1F5007F00D100BF13880B4081
:101C60000BB1012000E00020704701F40072B2F5D2
:101C7000007F00D100BFCA430280704770B50246A2
:101C8000002400230025002040F66A16B14200D14E
:101C900000BFC1F3421501F01F03012606FA03F34A
:101CA000012D02D19689334006E0022D02D1168A19
:101CB000334001E0968A33400C12012606FA04F400
:101CC0001688344013B10CB1012000E0002070BD33
:101CD00010B50022002340F66A14A14200D100BFD3
:101CE0000A1201249440A3B2DC43048010BD00001A
:101CF000003801400044004000480040004C0040D3
:101D00000050004030B502460020002100233FE093
:101D10006BB9145C2C2C06D15B1C0024464D6C5412
:101D20000021401C03E0145C434D6C54491C012B02
:101D30000DD1145C2C2C06D15B1C00243F4D6C543F
:101D40000021401C03E0145C3C4D6C54491C022BE8
:101D50000DD1145C2C2C06D15B1C0024384D6C5426
:101D60000021401C03E0145C354D6C54491C032BCE
:101D70000DD1145C2C2C06D15B1C0024314D6C540D
:101D80000021401C03E0145C2E4D6C54491C401C87
:101D9000145C002CBCD130BD86B014222AA101A84D
:101DA00000F004FC00F0CFF800F02AF9472140F2DF
:101DB000E73000F0B8FB00F060FA3CE000F0F6FA23
:101DC0002648FFF79FFF1C4800F01DFC80461B487B
:101DD00000F019FC81461A4801F063FE064600F047
:101DE00032FC0446174801F05CFE064600F02BFC6E
:101DF00005461B480068B0F57A7F1CD100201849C1
:101E00000860414617A001F0CBF9494618A001F03F
:101E1000C7F9204600F004FC064632460B4617A0E0
:101E200001F0BEF9284600F0FBFB064632460B46A1
:101E300016A001F0B5F9C1E72C0000203000002009
:101E4000340000203A00002033382C36352C313550
:101E5000372E392C313530302E3600004C00002022
:101E600028000020CEC2B6C8A3BA25640A0000002C
:101E7000CAAAB6C8A3BA25640A000000B7DBB3BE7D
:101E8000A3BA25302E31660A00000000B9E2D5D58C
:101E9000A3BA25302E31660A00000000704700BF4B
:101EA000FEE700BFFEE700BFFEE700BFFEE77047AA
:101EB00070477047704770B540F225511548FFF7DD
:101EC000DDFEB8B11348FFF759FEC5B2124800F065
:101ED00081F904466CB1A18820684554A088401C53
:101EE00080B2A080B0F5006F04DB0B4800F08CF9E5
:101EF00000E070BD40F224410648FFF7BFFE012814
:101F000006D1054800F080F90248FFF737FEC5B258
:101F100000BFEEE700480040C000002008B54FF4C5
:101F2000A060FEF7EFF925208DF8000001208DF864
:101F3000010002208DF8020001208DF803006846A0
:101F4000FEF7E5F908BD00B585B001210420FEF7D4
:101F500063FD01218803FEF75FFD4FF40070ADF8CB
:101F6000100018208DF8130003208DF8120004A92A
:101F70008448FEF795FA4FF48060ADF81000042015
:101F80008DF8130004A97F48FEF78AFA4FF4E13078
:101F900000900020ADF80400ADF80600ADF8080090
:101FA000ADF80C000C20ADF80A0069467648FFF742
:101FB000E8FCFFF7B3FF012240F225517248FFF71A
:101FC00078FD012240F224416F48FFF772FD0121A4
:101FD0006D48FFF762FD05B000BD08B54FF4A06085
:101FE000FEF790F927208DF8000001208DF8010000
:101FF0008DF802008DF803006846FEF788F908BDE9
:1020000000B585B001210820FEF706FD01218804F6
:10201000FEF70FFD4FF48060ADF8100018208DF82A
:10202000130003208DF8120004A95848FEF738FA6F
:102030004FF40060ADF8100004208DF8130004A9DF
:102040005248FEF72DFA4FF4E13000900020ADF831
:102050000400ADF80600ADF80800ADF80C000C2047
:10206000ADF80A0069464A48FFF78BFCFFF7B5FF59
:10207000012240F225514648FFF71BFD012240F2A4
:1020800024414348FFF715FD01214148FFF705FDB5
:1020900005B000BD70B504460D4629462046FFF741
:1020A00069FD00BF80212046FFF7D2FD0028F9D04E
:1020B00070BD2DE9F04107460D461646002405E0A7
:1020C000295D3846FFF7E6FF601CC4B2B442F7DB77
:1020D00000BF40213846FFF7BBFD0028F9D0BDE81E
:1020E000F08170B506460C46002500BF615D3046A4
:1020F000FFF7D0FF6D1C605D0028F7D100BF4021C5
:102100003046FFF7A5FD0028F9D070BD2DE9F0415C
:1021100005460C46260AE7B231462846FFF72AFD57
:1021200000BF80212846FFF793FD0028F9D03946EB
:102130002846FFF71FFD00BF80212846FFF788FDD6
:102140000028F9D0BDE8F08170B504460D46E1B233
:102150000D48FFF70FFD00BF80210B48FFF778FD0A
:102160000028F9D0204670BD10B5044600BF2021DC
:102170000548FFF76DFD0028F9D00348FFF7FEFC86
:1021800010BD00000008014000380140000C014073
:1021900000480040016000224260826070470146B2
:1021A000D1E9002050408A68904201D10120704757
:1021B0000020FCE70146D1E90120904201D1012035
:1021C00070470020FCE7024610684000401E4B1C90
:1021D0001840704710B504462046FFF7E0FF08B1ED
:1021E000002010BD2169A068884204D12046A16862
:1021F000FFF7E9FF20612168491E2069084004F1CA
:10220000140151F82000ECE701698160704710B5B6
:1022100004462046FFF7CEFF08B1002010BDE1685C
:102220006068884204D120466168FFF7CCFFE06017
:102230002168491EE068084004F1140151F82000AB
:10224000ECE700230268521EC168114000F114023D
:1022500052F821108B80C16841607047002000BF98
:1022600008E06E4951F8301019B100216B4A42F86C
:102270003010401C0228F4D3704738B5002467485A
:102280000021016041608160C16002216448FFF764
:1022900081FF00BF20E0634800EBC4205F4941F8A4
:1022A0003400084600EBC4015D48143040F82410A7
:1022B00000BF50F824000368584850F83420C82163
:1022C000594800F06DFF00BF544951F834004FF4F5
:1022D000006100F084F9641C022CDCD300BF50487C
:1022E000806800904E484368CD2102684FA000F0FE
:1022F00057FF00BF00BF4A48006900904848C368C4
:10230000CD210268574800F04BFF00BF38BDF8B53B
:1023100006460F4600252AE04148FFF75BFF0446CA
:1023200054B1705D21684855A088401CA080A188E8
:102330004DA000F035FF00E0F8BD00BF38488068D0
:10234000009037484368E721026838A000F028FF72
:1023500000BF00BF3248006900903148C368E721E0
:102360000268404800F01CFF00BF681CC5B2BD42B7
:10237000D2DB2B48FFF748FF00BF29488068009058
:1023800027484368ED21026828A000F009FF00BF3C
:1023900000BF2348006900902148C368ED2102680E
:1023A000304800F0FDFE00BF00BFC5E770B51C4817
:1023B000FFF72DFF0446002C2FD00020A2882168B3
:1023C000885400BF40F201112CA0226800F0E8FE02
:1023D00000BF00BF266833A000F0E2FE00250EE03B
:1023E000715D37A000F0DCFE681C0A2190FBF1F261
:1023F00001FB120010B931A000F0D2FE6D1CA088C4
:10240000A842EDDC2DA000F0CBFE00BF2E482168D5
:1024100000F0F0F80248FFF714FF70BDB000002094
:10242000C0000020DC000020983B00083C3C2D51FF
:10243000554555452D44454255472D3E3E205B258B
:10244000645D73697A653D307825782C207265610A
:10245000643D25642C2077726974653D25640A0A01
:1024600000000000543B00080D0A646174615F7055
:102470002D3E6C656E203D25640000003C3C2D51D6
:10248000554555452D44454255472D3E3E205B253B
:10249000645DBDD3CAD5B5BDB5C4CAFDBEDDA3BAA2
:1024A00025730A000A3C3C2D51554555452D4445A0
:1024B0004255472D41525241592D3E3E0A000000DF
:1024C00025303278202020004C0000207FB50546C2
:1024D0000C4601210420FEF7ACFAADF80450ADF82B
:1024E00000400020ADF80600ADF8020069462C4817
:1024F000FEF7CAFB012211462948FEF73CFF0121E5
:102500002748FEF71DFF1E208DF80C0000208DF8D7
:102510000D0002208DF80E0001208DF80F0003A899
:10252000FDF7F5FE7FBD7FB505460C460121022073
:10253000FEF77FFAADF80850ADF804400020ADF882
:102540000A00ADF8060001A91648FEF79DFB01221E
:1025500011461448FEF70FFF1D208DF800000020E3
:102560008DF8010001208DF802008DF80300684607
:10257000FDF7CDFE01210B48FEF7E2FE7FBD10B551
:1025800001210848FFF7A5F940B107480068401C41
:102590000549086001210348FFF7ACF910BD0000B0
:1025A00000080040000400402800002040EA010329
:1025B0009B0703D009E008C9121F08C0042AFAD2F9
:1025C00003E011F8013B00F8013B521EF9D27047BD
:1025D000D2B201E000F8012B491EFBD27047002265
:1025E000F6E710B513460A4604461946FFF7F0FF12
:1025F000204610BD034611F8012B00F8012B002ADC
:10260000F9D11846704770B5064600F0D9FD046848
:1026100005460A220021304600F0C6F82C6070BD45
:1026200000F0004230F000400AD0C10D01F56071A9
:10263000C0F3160042EA0151C20840071143704737
:1026400000200146704701F0004330B421F0004102
:1026500050EA010206D00A0DA2F56072C1F313011F
:10266000002A02DC30BC00207047440F44EAC10459
:10267000C100E01830BC00EBC25000F0CDB830B55E
:102680000B46014600202022012409E021FA02F530
:102690009D4205D303FA02F5491B04FA02F52844CA
:1026A000151EA2F10102F1DC30BD2DE9F05F0546F7
:1026B000002092469B4688460646814640241BE001
:1026C000284641464746224600F0B7FA53465A4646
:1026D000C01A914110D311461846224600F09EFAC6
:1026E0002D1A67EB01084F4622460120002100F019
:1026F00095FA17EB00094E41201EA4F10104DFDC1E
:10270000484631462A464346BDE8F09F0FB40023B1
:1027100000B589B00CA900910B996FF00042CB6015
:102720001E4B06931E4B07930423CDE901321D4A2D
:10273000089202466B46002000F030FB09B05DF8BD
:1027400014FB70B586B006464FF0FF300091CDE91E
:102750000101002015460C4604903246694604A843
:10276000FFF7D4FF03460498211825B108B10A46A3
:1027700000E022462A6000280DD0002B02DD0098E0
:10278000884208D0081B0094CDE90104324669460E
:1027900004A8FFF7BBFF06B070BD0000D52F0008EE
:1027A000F32F0008892C00082DE9F04791460F46C9
:1027B00080460446002614F8015B2DB100F060FA53
:1027C0000068405DC007F6D12B2D02D02D2D18D00A
:1027D000641E4A463946204600F01CFC27B1396881
:1027E000A14201D1C7F8008071054FF002040BD55A
:1027F0004042002803DD00F0E3FC0460A007BDE8D0
:10280000F08746F48066E4E70028F8DA00F0D8FCA8
:1028100004606FF00040F2E70029A8BF7047401C39
:10282000490008BF20F00100704710B4B0FA80FCE6
:1028300000FA0CF050EA010404BF10BC704749B123
:10284000CCF1200421FA04F411FA0CF118BF012193
:1028500021430843A3EB0C01CB1D4FEA00614FEA73
:10286000102042BF002010BC704700EBC350104442
:102870000029A4BF10BC7047401C490008BF20F0CD
:10288000010010BC70472DE9FE4F804681EA03002D
:10289000C00F0C46009021F0004123F00045B8EB3A
:1028A0000200A94105D24046214690461C460B46EF
:1028B000024623F00040104347D0270DC7F30A001B
:1028C000C3F30A510290401A019040286BDAC3F317
:1028D000130040F4801B0098924620B10023D2EBF5
:1028E000030A63EB0B0B01985946C0F140025046B6
:1028F00000F094F906460D4650465946019A00F0FC
:10290000ACF910EB08006141002487EA115284EA17
:10291000E7731A4340D0009A62B3019A012A4FEA42
:10292000075215DC001B61EB02014FF0004202EA86
:102930000752CDE90042001C41F5801132462B467A
:1029400000F0C6FB03B0BDE8F08F40462146F9E732
:10295000001B61EB0201001C41F5801300185B4174
:102960002018A2F5001747EB030140EAD570B6190D
:102970006D4111E06D084FEA360645EAC0754FEA31
:102980000752001B61EB0201001C41F58011490850
:102990004FEA30000019514132462B4603B0BDE8E2
:1029A000F04F00F086BB0098012240000023D0EBDE
:1029B000020263EBE073009821464FEAE074B8EB43
:1029C000000061EB0401E9E783F000435BE781F07D
:1029D000004158E72DE9FE4F81EA030404F000446A
:1029E00021F0004100944FF0000B23F0004350EA27
:1029F00001045ED052EA03045BD0C3F30A54C1F36E
:102A00000A552C44A4F2F3340194A0FB0254C1F300
:102A1000130141F48011C3F3130343F4801301FB4A
:102A2000024400FB034E840A970A44EA815447EAB1
:102A30008357A4FB076802958D0A05FB07854FEABB
:102A4000932C04FB0C542705029D4FEA065847EAD5
:102A50001637B5EB08056EEB070C870E920E47EAAA
:102A6000811742EA8312A7FB0201B6EB0B0164EB6C
:102A700000042B0D43EA0C335E1844EB1C50DA467D
:102A80005146E7FB0201C5F313044FEA0B3343EA57
:102A900014534FEA0432019C43EA0603A4F10C04E8
:102AA0000294009CCDE900B400F012FB03B0BDE835
:102AB000F08F00200146F9E72DE9F04D81EA03048B
:102AC00004F0004B21F0004514464FF0000A23F0BB
:102AD000004150EA050220D054EA01021DD0C5F39E
:102AE0000A570246C5F31303C1F31300C1F30A5694
:102AF00040F4801543F48013A7EB0608101BD6465C
:102B000008F2FD3873EB050002D308F1010801E07B
:102B100092185B41B8F1000F03DA00200146BDE8CE
:102B2000F08D00204FF48011064684460EE0171BFE
:102B300073EB050705D3121B63EB050306434CEA51
:102B4000010C49084FEA300092185B4150EA010736
:102B5000EDD152EA030012D082EA040083EA0501B3
:102B6000084305D0101BAB4106D20122002306E02A
:102B700000224FF0004302E06FF0010253101AEB05
:102B800006004CEB085110EB0A0041EB0B01BDE8CD
:102B9000F04D00F08EBAC1F30A52C1F3130140F2B6
:102BA000FF3341F480119A4202DA00200146704757
:102BB00040F233439A42A2F2334202DC524200F026
:102BC0003CB800F02BB8000030B5041E71F10004D1
:102BD00004DB4FF00044404264EB0101141E73F12A
:102BE000000405DB1C464FF00043524263EB040334
:102BF000994208BF904230BD064C074D06E0E068A0
:102C000040F0010394E8070098471034AC42F6D333
:102C1000FDF770FAE03B0008003C0008202A04DBC6
:102C2000203A00FA02F1002070479140C2F12003DF
:102C300020FA03F3194390407047202A04DB203A1E
:102C400021FA02F00021704721FA02F3D040C2F1CC
:102C500020029140084319467047202A06DBCB1713
:102C6000203A41FA02F043EAE07306E041FA02F347
:102C7000D040C2F12002914008431946704700003D
:102C800000487047503B000810B50446FFF7F8FFB6
:102C90000068005D00F0010010BD00002DE9FF4F4D
:102CA000087881B09946FF2805D0491C2D2804D00A
:102CB0000024002308E000230BE00124F9E703EBE4
:102CC000830300EB4303491C0878FF28F7D104B1C4
:102CD0005B4200200090147801462D2C01D02B2C53
:102CE00004D1521C2D2C12D00024009400251678FB
:102CF000FF2E0ED00A24A0FB04C801FB048100278C
:102D000000FB0711521C16EB0C006941EFE7012490
:102D1000EBE7994450EA01020ED00024AA4D264662
:102D2000DFF8A88200F030FA82468B46B9F1000045
:102D300009DAC9F100071BE001980021C0E9001180
:102D400005B0BDE8F08F074612E0F80707D022462D
:102D50002B4630464146FFF73DFE06468846224652
:102D60002B4610461946FFF735FE04460D467F10E8
:102D7000002FEAD1B9F1000F32464346504659467A
:102D800002DAFFF799FE01E0FFF724FE009A0AB18C
:102D900081F00041019AC2E90001D1E72DE9FF4F1E
:102DA0001F468DB0D7E901464FF0FF382E2045462B
:102DB0004FF000090B90B9696D1C0E988847396A6D
:102DC000824688470028F6D1BAF1FF3F0AD024F4A2
:102DD000D064002E11DDBAF12B0F08D0BAF12D0FFF
:102DE0000BD102E0404611B0ABE744F48064B9690E
:102DF0006D1C0E9888478246761E6946600501D58F
:102E00002D2000E02B208DF8000001F1010B0DF1C9
:102E1000200809E0B9696D1C0E98884782460F9812
:102E200044F40074761E0560002E02DDBAF1300F06
:102E3000F0D00B998A453ED144F0800406E00F990A
:102E4000681CA9F1010944F400740860B9696D1C9B
:102E5000761E0E98884782463028F0D02BE00B99DA
:102E60008A4505D1200603D444F08004761E18E07C
:102E7000504600F077FA08B30DF11301761E44F4C2
:102E800000748B4508D2AAF130000BF8010B200624
:102E900007D5A9F1010003E0200602D409F10100E1
:102EA0008146A00502D50F99681C0860B9696D1CA0
:102EB0000E9888478246002ED1DC53E0002E51DD6B
:102EC000BAF1650F02D0BAF1450F4BD1A00549D533
:102ED000B9696D1C24F44074761E0E9888478246AA
:102EE000002E0CDD2B2804D0BAF12D0F07D144F4AD
:102EF0008074B9696D1C0E9888478246761EE0057D
:102F000001D52D2100E02B2108F8011BCDF82C80E4
:102F100021E00DF12901761E44F4007488450CD29D
:102F2000AAF1300010F0FF0088F8000002D10B99E0
:102F3000884509D908F1010806E0E00501D52448D3
:102F400001E042F20F708146B9696D1C0E98884706
:102F500082460F980560002E04DD504600F002FA0C
:102F60000028D6D1F9690E988847FF208BF8000019
:102F700088F800000020069007904B466A4608A992
:102F800006A8FFF78BFEA00502D46FF001002AE728
:102F900014F0240F0AD0E00714D1DDE906123868D6
:102FA000031D3B600068C0E900120BE0DDE906018B
:102FB000FFF749FB0146E00704D13868021D3A607B
:102FC0000068016028460EE7000024400000F03F42
:102FD000F1D8FFFF426842B1016811F8013B23B10B
:102FE000521EC0E90012184670470121C160881EB8
:102FF000704742685AB1C368016843B983688B421D
:1030000005D0491E521CC0E90012002070474FF045
:10301000FF3070472DE9F05F8246007800271546A3
:103020008B460AF10104B946302801D09DB113E066
:1030300014F8010B0127782803D0582801D045B196
:103040000AE00DB1102D07D10027102514F8010B4F
:1030500002E0082500E00A250026B0460EE005FB48
:10306000080005FB06F1012701EB10461FFA80F866
:10307000B6F5803F00D3B94614F8010B294600F09D
:1030800075F80028EBDABBF1000F05D00FB1641E14
:1030900000E05446CBF80040B9F1000F06D000F034
:1030A0008FF802210160C81EBDE8F09F48EA064083
:1030B000FAE710B5141E73F1000408DA401C41F160
:1030C000000192185B411A4301D120F0010010BDAC
:1030D0002DE9F04D92469B4611B1B1FA81F202E022
:1030E000B0FA80F220329046FFF798FD04460F4672
:1030F00040EA0A0041EA0B0153465A46084313D0FE
:10310000114653EA010019D0C8F140025046FFF7BA
:1031100094FD05460E46504659464246FFF77EFD51
:10312000084305D0012004E020463946BDE8F08D73
:103130000020054346EAE0762C4337430A986305AE
:10314000E40AA0EB08000022FD0A44EA47540A30D2
:1031500002D500200146E9E7010510196941DDE9C2
:10316000084500196941BDE8F04DA2E73A2800D2B0
:10317000303820F02002412A01D3A2F137008842E2
:1031800001D34FF0FF3070470EB540F23342029248
:103190000022CDE900221346FFF79AFF03B000BDDD
:1031A0000FB4054B10B503A9044A029800F0E2F8E9
:1031B00010BC5DF814FB0000492100084400002009
:1031C0000048704748000020014800687047000030
:1031D0004800002002E008C8121F08C1002AFAD1E6
:1031E00070477047002001E001C1121F002AFBD187
:1031F0007047000001490860704700004800002047
:103200002DE9FF5FDDE90220010DDDF838B0024352
:1032100018D044F61050A1F2FF3141430D140F981D
:10322000012820D0A5EB0B00401C5FEA000A4FF0FC
:103230000004474EDFF81C91A046504616D5CAF14F
:10324000000728E00F98012443A2012808D000219C
:1032500000980F9BC0E90021C0E90243BDE8FF9F31
:103260006FEA0B01F4E7CBF10000DEE7074612E05E
:10327000F80707D02246334640464946FFF7AAFBE7
:10328000804689462246334610461946FFF7A2FB80
:1032900004460E467F10002FEAD1DDE90201BAF1A3
:1032A000000F42464B4602DAFFF794FB01E0FFF7BE
:1032B00003FC04460E460022284BFFF785FC03D88A
:1032C0004FF0FF30014607E00022254B20463146F3
:1032D000FFF7D9FAFFF75FFC102409E0002C0ADBA6
:1032E0000A220023FFF7E1F9019B30321A55641ED0
:1032F00050EA0102F2D1641C019AC4F11103144492
:103300000F9A012A03D0012208430DD10AE0084395
:1033100004D000204FF0110B0F9080E7A3EB0B05BA
:103320006D1E0DE05B4504DD4FF0000205F1010567
:1033300004E003DA4FF00002A5F10105002AECD009
:1033400000980F99C0E90231C0E9004586E7000006
:10335000000024400000F03F300000000000F04377
:103360000000E03F30380A2801D2012070470020D9
:10337000704700002DE9FF4F95B09B4689460646F1
:1033800000250FE2252877D100242746F84A01219D
:10339000059400E0044316F8013F203B01FA03F0D6
:1033A0001042F7D130782A2811D06FF02F033078EF
:1033B000A0F13002092A16D8059A44F0020402EB63
:1033C000820203EB42021044761C0590EFE759F8A5
:1033D000042B0592002A03DA504244F4005405906D
:1033E00044F00204761C30782E2816D116F8010F0E
:1033F00044F004042A280DD06FF02F023078A0F199
:103400003003092B09D807EB870302EB4303C718E6
:10341000761CF3E759F8047B761C30786C280FD0C3
:1034200006DC4C2817D068280DD06A2814D104E097
:10343000742810D07A280FD10DE044F400140AE06B
:1034400044F4801401E044F440147278824202D1C2
:1034500004F58014761C761C307866280BD013DCBB
:10346000582877D009DC002875D04528F6D04628A2
:10347000F4D047281AD19DE118E0632835D064289C
:1034800079D0652812D195E1702873D008DC6728BF
:10349000F1D069286FD06E280DD06F2806D1B5E025
:1034A00073282CD0752875D0782874D05A4617996F
:1034B00090476D1C75E1C4F30250022809D003281F
:1034C0000DD0D9F8001004280DD00D6009F10409C1
:1034D00067E1D9F80010EA17C1E90052F6E7D9F818
:1034E00000100D80F2E70D70F0E719F8041B8DF85D
:1034F000001000208DF80100EA46012003E059F891
:1035000004AB4FF0FF3061074FF0000102D40DE033
:1035100008F101018846B9420FDA8045F8DB1AF854
:1035200008100029F4D108E008F101018846814221
:10353000FADB1AF808100029F6D105985B46A0EBD3
:10354000080721463846179A00F094FA284400EB01
:10355000080507E04DE029E10DE01AF8010B5A4695
:1035600017999047B8F10108F7D25B4621463846D3
:10357000179A13E142E00A220092C4F302524FF07C
:10358000000A022A08D059F804CB032A4FEAEC714A
:103590000AD00DE029E02AE009F1070121F0070235
:1035A000F2E802C1914609E00FFA8CFC4FEAEC7197
:1035B000042A03D14FFA8CFC4FEAEC71002907DA98
:1035C0000A460021DCF1000C61EB02012D2202E031
:1035D000220504D52B228DF80420012203E0E20706
:1035E00001D02022F7E7904659E00A2102E010229C
:1035F0000DE010214FF0000A00910BE010224FF077
:10360000000A44F004040827009203E008224FF067
:10361000000A0092C4F30252022A05D059F804CBE2
:103620000021032A08D009E009F1070121F007026F
:10363000F2E802C1914605E01FFA8CFC042A01D190
:103640000CF0FF0C4FF00008220728D5702806D098
:10365000009B83F0100353EA0A0305D00EE04022DA
:103660008DF80420012208E05CEA010206D0302235
:103670008DF804208DF8050002229046009B83F00F
:10368000080353EA0A030AD15CEA010201D1620786
:1036900005D530228DF804204FF001087F1E5828F0
:1036A00004D034A003900EA802900DE036A0F9E7F4
:1036B00053466046009AFEF7F8FF84460398825C02
:1036C0000298401E029002705CEA0100F0D102985C
:1036D00006A9081A00F1200A600702D524F48034F4
:1036E00000E00127574502DDA7EB0A0000E00020BB
:1036F00000EB0A01009005984144401A0590E00350
:1037000006D45B462146179A059800F0B3F90544A4
:10371000002706E001A85A46C05D179990476D1C26
:103720007F1C4745F6DBE0030CD55B462146179A24
:10373000059800F09FF9054404E030205A46179997
:1037400090476D1C0099481E00900029F5DC08E0A8
:10375000029802995A460078491C0291179990479D
:103760006D1CBAF10001AAF1010AF1DC65E100006B
:103770000928010030313233343536373839616247
:10378000636465660000000030313233343536370B
:1037900038394142434445460000000000F058F9E2
:1037A0000544761C307800287FF4ECAD19B028462B
:1037B000BDE8F08F620700D4062709F1070222F066
:1037C000070CFCE80223E14603F000485FEA080C1E
:1037D00002D00FF2702C0DE05FEA045C02D50FF20C
:1037E000682C07E05FEAC47C02D00FF2602C01E095
:1037F000AFF2700C4FF0FF3823F00043CDF850C00B
:1038000065280CD006DC452809D046281DD047285D
:103810003DD13DE0662818D067287ED138E00021F0
:10382000112F01DB112000E0781CCDE9000106A971
:103830000EA8FFF7E5FCDDE90F010E9A03910021C8
:10384000009207F1010A04914DE04FF0004000970B
:10385000CDE9011006A90EA8FFF7D2FCDDE90F02A1
:1038600003920E9B11990022DDF80CA000930492A4
:1038700011B9791C00EB010AB7EB0A0004D4C0F1BE
:10388000FF3007F1010A0490AAEB0700019044E021
:10389000012F00DA01270021112F01DD112000E0A6
:1038A0003846CDE9000106A90EA8FFF7A9FCDDE91D
:1038B0000F010E9A0391002104910092BA4621074C
:1038C0000CD40399514500DA8A46BAF1010F05DD9F
:1038D000009AAAF10101515C302908D0B84202DAFD
:1038E00010F1040F06DA0121CDE9011015E0AAF16B
:1038F0000101E9E7002805DC049901440491AAEBE1
:10390000000102E0411C514500DD8A460499401A3D
:10391000401C01904FF000400290200704D4019811
:10392000504501DBCDF8048000208DF84F0002984F
:103930000DF14F07B0F1004F25D02B200E900298CB
:103940004FF0020800280CDA404202902D200E9021
:1039500007E00A210298FEF792FE3031029007F844
:10396000011DB8F10001A8F10108F2DC029800285D
:10397000EFD1791E0E980870307800F0200040F0EA
:10398000450007F8020D12A8C01B00F107081498A3
:10399000007800B1012000EB0A01019801EBE07111
:1039A00005984144401A401E0590E00306D45B464A
:1039B0002146179A059800F05DF8054414980078A0
:1039C00018B15A46179990476D1CE00324D55B4601
:1039D0002146179A059800F04DF805441CE004981C
:1039E000002807DBDDE90301884203DD0098405C25
:1039F000179901E0179930205A469047049805F12D
:103A00000105401C04900198401E019004D12E2015
:103A10005A46179990476D1CBAF10001AAF1010AA4
:103A2000DDDC05E017F8010B5A46179990476D1C2D
:103A3000B8F10001A8F10108F4DC5B462146179AB1
:103A40000598ABE62D0000002B00000020000000D0
:103A50002DE9F041044600251E461746880404D48B
:103A600005E039462020B0476D1C641EF9D5284674
:103A7000BDE8F0812DE9F041044600251E46904640
:103A8000C80301D5302700E02027880404D505E0CD
:103A900041463846B0476D1C641EF9D52846BDE83E
:103AA000F08130B583B00446FFF78EFB0546002059
:103AB000CDE90000024621466846FEF742FE284650
:103AC000FFF798FBDDE9000103B030BD0040404046
:103AD00040404040404041414141414040404040E1
:103AE000404040404040404040404040400502028D
:103AF000020202020202020202020202022020204C
:103B000020202020202020020202020202029090A7
:103B100090909090101010101010101010101010A5
:103B200010101010101010100202020202028888F9
:103B30008888888808080808080808080808080805
:103B400008080808080808080202020240000000ED
:103B5000CD3A00083C3C2D51554555452D44454234
:103B600055472D3E3E205B25645D73697A653D3087
:103B70007825782C20726561645F7573696E673D86
:103B800025642C2077726974655F7573696E673D73
:103B900025640A0A000000003C3C2D51554555455E
:103BA0002D44454255472D3E3E205B25645D6E6F9A
:103BB00064655F646174615B695D2E686561643D25
:103BC000307825782C0D0A72785F71756575652ED1
:103BD000656C656D735B695D203D307825780A0002
:103BE000003C0008000000204C000000D431000818
:103BF0004C3C00084C00002094140000E431000804
:103C000000A24A04000000000000000001020304BA
:103C10000607080900000000010203040102030472
:103C20000607080902040608000000000000000062
:103C30000000000000000000000000000000000084
:0C3C400000000000000000000000000078
:04000005080000ED02
:00000001FF
