:020000040800F2
:10000000D817002001010008350E0008F10C000887
:10001000310E0008F50A0008DF1700080000000094
:100020000000000000000000000000003D1000087B
:10003000F90A000800000000E50E00085111000850
:100040001B0100081B0100081B0100081B01000820
:100050001B0100081B0100081B0100081B01000810
:100060001B0100081B0100081B0100081B01000800
:100070001B0100081B0100081B0100081B010008F0
:100080001B0100081B0100081B0100081B010008E0
:100090001B0100081B0100081B0100081B010008D0
:1000A0001B0100081B0100081B0100081B010008C0
:1000B0001B010008B5110008311200081B010008DF
:1000C0001B0100081B0100081B0100081B010008A0
:1000D0001B010008B1130008D114000839150008ED
:1000E0001B0100081B0100081B010008DFF80CD0F1
:1000F00000F03EFA00480047F13E0008D817002003
:100100000648804706480047FEE7FEE7FEE7FEE7B1
:10011000FEE7FEE7FEE7FEE7FEE7FEE75511000813
:10012000ED00000840EA01039B0703D009E008C97D
:10013000121F08C0042AFAD203E011F8013B00F8AC
:10014000013B521EF9D27047D2B201E000F8012BF8
:10015000491EFBD270470022F6E710B513460A4647
:1001600004461946FFF7F0FF204610BD034611F87C
:10017000012B00F8012B002AF9D11846704770B501
:10018000064601F03FFB046805460A22002130467E
:1001900000F09EF82C6070BD01F0004330B421F0F7
:1001A000004150EA010206D00A0DA2F56072C1F3C7
:1001B0001301002A02DC30BC00207047440F44EADF
:1001C000C104C100E01830BC00EBC25000F0B8B868
:1001D0002DE9F05F0546002092469B46884606467C
:1001E000814640241BE0284641464746224600F00F
:1001F000E0F953465A46C01A914110D311461846A9
:10020000224600F0C7F92D1A67EB01084F46224637
:100210000120002100F0BEF917EB00094E41201E1D
:10022000A4F10104DFDC484631462A464346BDE8D6
:10023000F09F00000FB4002300B589B00CA9009115
:100240000B996FF00042CB601E4B06931E4B079339
:100250000423CDE901321D4A089202466B46002074
:1002600000F046FA09B05DF814FB70B586B006469A
:100270004FF0FF300091CDE90101002015460C46FA
:1002800004903246694604A8FFF7D4FF0346049859
:10029000211825B108B10A4600E022462A6000284C
:1002A0000DD0002B02DD0098884208D0081B009476
:1002B000CDE901043246694604A8FFF7BBFF06B04A
:1002C00070BD00002909000847090008DD05000885
:1002D0002DE9F04791460F4680460446002614F863
:1002E000015B2DB100F076F90068405DC007F6D1E2
:1002F0002B2D02D02D2D18D0641E4A46394620469B
:1003000000F032FB27B13968A14201D1C7F8008063
:1003100071054FF002040BD54042002803DD01F0C7
:1003200071FA0460A007BDE8F08746F48066E4E750
:100330000028F8DA01F066FA04606FF00040F2E796
:100340000029A8BF7047401C490008BF20F00100E9
:10035000704710B4B0FA80FC00FA0CF050EA0104C7
:1003600004BF10BC704749B1CCF1200421FA04F459
:1003700011FA0CF118BF012121430843A3EB0C0132
:10038000CB1D4FEA00614FEA102042BF002010BC95
:10039000704700EBC35010440029A4BF10BC704745
:1003A000401C490008BF20F0010010BC70472DE937
:1003B000FE4F81EA030404F0004421F00041009460
:1003C0004FF0000B23F0004350EA01045ED052EAE4
:1003D00003045BD0C3F30A54C1F30A552C44A4F2BE
:1003E000F3340194A0FB0254C1F3130141F48011D2
:1003F000C3F3130343F4801301FB024400FB034ED9
:10040000840A970A44EA815447EA8357A4FB0768A1
:1004100002958D0A05FB07854FEA932C04FB0C54CB
:100420002705029D4FEA065847EA1637B5EB08053F
:100430006EEB070C870E920E47EA811742EA831291
:10044000A7FB0201B6EB0B0164EB00042B0D43EAA2
:100450000C335E1844EB1C50DA465146E7FB0201B0
:10046000C5F313044FEA0B3343EA14534FEA043243
:10047000019C43EA0603A4F10C040294009CCDE91C
:1004800000B400F0CFFA03B0BDE8F08F00200146C1
:10049000F9E72DE9F04D81EA030404F0004B21F067
:1004A000004514464FF0000A23F0004150EA0502CF
:1004B00020D054EA01021DD0C5F30A570246C5F305
:1004C0001303C1F31300C1F30A5640F4801543F43B
:1004D0008013A7EB0608101BD64608F2FD3873EB15
:1004E000050002D308F1010801E092185B41B8F160
:1004F000000F03DA00200146BDE8F08D00204FF424
:100500008011064684460EE0171B73EB050705D3E2
:10051000121B63EB050306434CEA010C49084FEA42
:10052000300092185B4150EA0107EDD152EA030016
:1005300012D082EA040083EA0501084305D0101BAB
:10054000AB4106D20122002306E000224FF0004317
:1005500002E06FF0010253101AEB06004CEB085159
:1005600010EB0A0041EB0B01BDE8F04D00F04BBA77
:10057000064C074D06E0E06840F0010394E80700F0
:1005800098471034AC42F6D3FFF7B4FD9445000809
:10059000B4450008202A04DB203A00FA02F10020CA
:1005A00070479140C2F1200320FA03F319439040B1
:1005B0007047202A04DB203A21FA02F0002170471C
:1005C00021FA02F3D040C2F12002914008431946BB
:1005D00070470000004870470445000810B5044605
:1005E000FFF7F8FF0068005D00F0010010BD00009B
:1005F0002DE9FF4F087881B09946FF2805D0491CA6
:100600002D2804D00024002308E000230BE001245F
:10061000F9E703EB830300EB4303491C0878FF2849
:10062000F7D104B15B4200200090147801462D2CD4
:1006300001D02B2C04D1521C2D2C12D0002400945C
:1006400000251678FF2E0ED00A24A0FB04C801FB5B
:100650000481002700FB0711521C16EB0C006941B6
:10066000EFE70124EBE7994450EA01020ED00024A1
:10067000AA4D2646DFF8A88200F030FA82468B4663
:10068000B9F1000009DAC9F100071BE00198002167
:10069000C0E9001105B0BDE8F08F074612E0F80789
:1006A00007D022462B4630464146FFF780FE0646DD
:1006B000884622462B4610461946FFF778FE044628
:1006C0000D467F10002FEAD1B9F1000F32464346A4
:1006D0005046594602DAFFF7DCFE01E0FFF767FEFD
:1006E000009A0AB181F00041019AC2E90001D1E704
:1006F0002DE9FF4F1F468DB0D7E901464FF0FF3877
:100700002E2045464FF000090B90B9696D1C0E98DC
:100710008847396A824688470028F6D1BAF1FF3FF8
:100720000AD024F4D064002E11DDBAF12B0F08D0CA
:10073000BAF12D0F0BD102E0404611B0ABE744F403
:100740008064B9696D1C0E9888478246761E69469A
:10075000600501D52D2000E02B208DF8000001F16F
:10076000010B0DF1200809E0B9696D1C0E9888474E
:1007700082460F9844F40074761E0560002E02DD58
:10078000BAF1300FF0D00B998A453ED144F0800485
:1007900006E00F99681CA9F1010944F4007408608F
:1007A000B9696D1C761E0E98884782463028F0D0B5
:1007B0002BE00B998A4505D1200603D444F0800430
:1007C000761E18E0504601F03DF808B30DF1130114
:1007D000761E44F400748B4508D2AAF130000BF861
:1007E000010B200607D5A9F1010003E0200602D481
:1007F00009F101008146A00502D50F99681C086027
:10080000B9696D1C0E9888478246002ED1DC53E0F2
:10081000002E51DDBAF1650F02D0BAF1450F4BD170
:10082000A00549D5B9696D1C24F44074761E0E9854
:1008300088478246002E0CDD2B2804D0BAF12D0FFC
:1008400007D144F48074B9696D1C0E9888478246BC
:10085000761EE00501D52D2100E02B2108F8011BB3
:10086000CDF82C8021E00DF12901761E44F40074AE
:1008700088450CD2AAF1300010F0FF0088F8000083
:1008800002D10B99884509D908F1010806E0E00575
:1008900001D5244801E042F20F708146B9696D1C10
:1008A0000E98884782460F980560002E04DD50465A
:1008B00000F0C8FF0028D6D1F9690E988847FF20BC
:1008C0008BF8000088F800000020069007904B4647
:1008D0006A4608A906A8FFF78BFEA00502D46FF0B0
:1008E00001002AE714F0240F0AD0E00714D1DDE953
:1008F00006123868031D3B600068C0E900120BE077
:10090000DDE90601FFF748FC0146E00704D138683D
:10091000021D3A600068016028460EE7000024408E
:100920000000F03FF1D8FFFF426842B1016811F8C2
:10093000013B23B1521EC0E9001218467047012145
:10094000C160881E704742685AB1C368016843B9E4
:1009500083688B4205D0491E521CC0E9001200205A
:1009600070474FF0FF3070472DE9F05F8246007806
:10097000002715468B460AF10104B946302801D0FC
:100980009DB113E014F8010B0127782803D05828F3
:1009900001D045B10AE00DB1102D07D10027102577
:1009A00014F8010B02E0082500E00A250026B046F5
:1009B0000EE005FB080005FB06F1012701EB1046E0
:1009C0001FFA80F8B6F5803F00D3B94614F8010B42
:1009D000294600F075F80028EBDABBF1000F05D0CE
:1009E0000FB1641E00E05446CBF80040B9F1000F8F
:1009F00006D000F007FF02210160C81EBDE8F09F8D
:100A000048EA0640FAE710B5141E73F1000408DA4C
:100A1000401C41F1000192185B411A4301D120F0C2
:100A2000010010BD2DE9F04D92469B4611B1B1FA7F
:100A300081F202E0B0FA80F220329046FFF7AAFD80
:100A400004460F4640EA0A0041EA0B0153465A4663
:100A5000084313D0114653EA010019D0C8F14002EF
:100A60005046FFF7A6FD05460E46504659464246FB
:100A7000FFF790FD084305D0012004E020463946E9
:100A8000BDE8F08D0020054346EAE0762C4337436D
:100A90000A986305E40AA0EB08000022FD0A44EA74
:100AA00047540A3002D500200146E9E70105101934
:100AB0006941DDE9084500196941BDE8F04DA2E74B
:100AC0003A2800D2303820F02002412A01D3A2F186
:100AD0003700884201D34FF0FF3070470EB540F227
:100AE000334202920022CDE900221346FFF79AFF1B
:100AF00003B000BD00BFFEE77047F0B504460D46E9
:100B00001646059F0020002100224FE08AB914F804
:100B100000C0BCF12C0F07D1521C4FF0000C05F89F
:100B200001C00021401C04E014F800C005F801C019
:100B3000491C012A11D114F800C0BCF12C0F07D1B7
:100B4000521C4FF0000C06F801C00021401C04E0CC
:100B500014F800C006F801C0491C022A11D114F88B
:100B600000C0BCF12C0F07D1521C4FF0000C03F851
:100B700001C00021401C04E014F800C003F801C0CB
:100B8000491C032A11D114F800C0BCF12C0F07D165
:100B9000521C4FF0000C07F801C00021401C04E07B
:100BA00014F800C007F801C0491C401C14F800C02C
:100BB000BCF1000FAAD1F0BD2DE9F041024600259D
:100BC0000026002000230024002791F803C00CF029
:100BD0000F0591F803C00CF0100CBCF1000F03D00E
:100BE00091F802C04CEA050591F800C0BCF1000F75
:100BF00031D0146800202BE04FF0010C0CFA00F308
:100C0000B1F800C00CEA03069E4220D183004FF0E9
:100C10000F0C0CFA03F7BC4305FA03FC4CEA04047E
:100C200091F803C0BCF1280F06D14FF0010C0CFA6B
:100C300000FCC2F814C00AE091F803C0BCF1480FF0
:100C400005D14FF0010C0CFA00FCC2F810C0401C9A
:100C50000828D1D31460B1F800C0BCF1FF0F34DD17
:100C6000546800202EE000F1080C4FF0010808FA4B
:100C70000CF3B1F800C00CEA03069E4221D18300B8
:100C80004FF00F0C0CFA03F7BC4305FA03FC4CEAD7
:100C9000040491F803C0BCF1280F05D100F1080C41
:100CA00008FA0CF8C2F8148091F803C0BCF1480FA0
:100CB00007D100F1080C4FF0010808FA0CF8C2F84F
:100CC0001080401C0828CED35460BDE8F08100009D
:100CD00010B541F61F41092000F07CFA2621034897
:100CE000FFF739FA02F08EFF10BD00007C000020F3
:100CF00000BFFEE708B501210C2000F015F9102017
:100D0000ADF8000048208DF8030069461648FFF74B
:100D100053FF2020ADF8000048208DF803006946FD
:100D20001148FFF749FF4020ADF8000048208DF83A
:100D3000030069460C48FFF73FFF8020ADF8000034
:100D400048208DF8030069460748FFF735FF4FF448
:100D50008050ADF8000048208DF803006946034834
:100D6000FFF72AFF08BD000000080140000C014009
:100D700010B5044614B101202A49087029480078AA
:100D8000002833D02848006870B12748001D00684B
:100D900050B125480830006830B123480C30006855
:100DA00010B12248006808BB0A2001F01FF800209B
:100DB0001C4908701C48006808B9012010BD1A4879
:100DC000001D006808B90220F8E7174808300068DD
:100DD00008B90320F2E714480C30006808B9042071
:100DE000ECE712480068D0B90520E7E70E48006834
:100DF000012814D10C48001D006801280FD10A48B1
:100E00000830006801280AD107480C300068012822
:100E100005D106480068012801D102490870002068
:100E2000CCE700005E000020100121423081214209
:100E300000BFFEE7704708B54FF4A06000F048F827
:100E400026208DF8000003208DF801008DF80200A7
:100E500001208DF80300684600F002F808BD00008C
:100E600070B5002100230F22C47804B3154C246808
:100E700004F4E064C4F5E064210AC1F10403CA404B
:100E8000447804FA03F184781440214309010E4C9C
:100E90000678A155047804F01F050124AC400578BC
:100EA0006D11AD0005F1E025C5F8004109E00478B9
:100EB00004F01F050124AC40044D0678761145F876
:100EC000264070BD0CED00E000E400E080E100E0B1
:100ED00002490143024A1160704700000000FA0510
:100EE0000CED00E07047000029B1064AD2690243C8
:100EF000044BDA6104E0034AD2698243014BDA61B0
:100F0000704700000010024029B1064A12690243EE
:100F1000044B1A6104E0034A12698243014B1A61CF
:100F2000704700000010024029B1064A926902434E
:100F3000044B9A6104E0034A92698243014B9A612F
:100F4000704700000010024029B1064AD2680243EF
:100F5000044BDA6004E0034AD2688243014BDA6052
:100F6000704700000010024030B50021002200242C
:100F700000232D4D6D6805F00C0121B1042905D029
:100F8000082923D105E0294D056022E0274D0560A1
:100F90001FE0254D6D6805F47012234D6D6805F452
:100FA0008034022505EB92421CB9214D5543056062
:100FB0000BE01D4D6D6805F400351DB11C4D55430A
:100FC000056002E0194D5543056002E0174D0560CC
:100FD00000BF00BF144D6D6805F0F0010909154D03
:100FE0006B5C0568DD4045600F4D6D6805F4E061A0
:100FF000090A104D6B5C4568DD4085600A4D6D68DF
:1010000005F46051C90A0B4D6B5C4568DD40C56055
:10101000054D6D6805F44041890B074D6B5CC56853
:10102000B5FBF3F5056130BD0010024000127A00F7
:1010300000093D004A0000205A000020704710B50A
:1010400000F002F810BD00000CB5002001900090E7
:101050003348006840F480303149086000BF3048B0
:10106000006800F4003000900198401C0190009846
:1010700018B90198B0F5A06FF1D12948006800F4C3
:10108000003010B10120009001E000200090009895
:10109000012843D12348006840F01000214908602E
:1010A0000846006820F0030008600846006840F029
:1010B000020008601A4840681949486008464068BC
:1010C00048600846406840F48060486008464068D0
:1010D00020F47C1048600846406840F4E8104860FE
:1010E0000846006840F08070086000BF0C48006847
:1010F00000F000700028F9D00948406820F0030093
:10110000074948600846406840F00200486000BF58
:101110000348406800F00C000828F9D10CBD00001D
:101120000010024000200240042808D14FF0E021C6
:10113000096941F004014FF0E022116107E04FF02E
:10114000E021096921F004014FF0E02211617047AC
:101150007047000010B51348006840F001001149C5
:10116000086008464068104908400E494860084633
:1011700000680E4908400B4908600846006820F4E2
:10118000802008600846406820F4FE0048604FF464
:101190001F008860FFF753FF4FF0006004490860AC
:1011A00010BD0000001002400000FFF8FFFFF6FE37
:1011B00008ED00E010B50121054800F08CF828B1D9
:1011C0000121034800F078F802F06AFA10BD00002F
:1011D000000400407FB505460C4601210220FFF7C0
:1011E00083FEADF80850ADF804400020ADF80A00C9
:1011F000ADF8060001A90D4800F088F8012211465B
:101200000A4800F079F81D208DF8000000208DF8C4
:10121000010001208DF802008DF803006846FFF7F9
:101220001FFE0121014800F04AF87FBD0004004084
:1012300010B50121064800F04EF840B1054800689D
:10124000401C044908600121014800F035F810BD38
:1012500000080040000000207FB505460C46012133
:101260000420FFF741FEADF80450ADF80040002027
:10127000ADF80600ADF8020069460E4800F046F8E9
:10128000012211460B4800F037F80121094800F00F
:1012900016F81E208DF80C0000208DF80D0002209D
:1012A0008DF80E0001208DF80F0003A8FFF7D8FD80
:1012B0007FBD000000080040CA430282704721B190
:1012C000028842F00102028004E002884FF6FE73B9
:1012D0001A400280704730B50246002000230024E7
:1012E000158A05EA0103958905EA010413B10CB1D9
:1012F000012000E0002030BD1AB183890B438381B7
:1013000002E083898B4383817047000000220288BA
:101310001D4B98420ED01D4B98420BD0B0F1804F20
:1013200008D01B4B984205D01A4B984202D01A4B5A
:10133000984204D14FF68F731A404B881A43174BCB
:10134000984207D0164B984204D04FF6FF431A40FC
:10135000CB881A4302808B8883850B8803850A4BD0
:1013600098420BD0094B984208D00E4B984205D0BA
:101370000D4B984202D00D4B984201D10B7A038657
:101380000123838270470000002C0140003401409B
:101390000004004000080040000C00400010004025
:1013A000001400400040014000440140004801405A
:1013B00010B540F225511D4800F04DF910B31B48FF
:1013C00000F004FAC4B21A48008800F40040C8B91A
:1013D0001748008800F4804060B10A2C03D0002038
:1013E0001349088020E01248008840F4004010496A
:1013F000088019E00D2C06D10D48008840F480408B
:101400000B49088010E00A480088C0F30D00094924
:101410000C5407480088401C05490880084600888D
:10142000C72801DD0020088010BD00000038014001
:1014300048000020A200002000B585B00121042052
:10144000FFF772FD01214804FFF74EFD0420ADF8BF
:10145000100018208DF8130003208DF8120004A945
:101460001948FFF7A9FB0820ADF8100004208DF8FB
:10147000130004A91448FFF79FFB4FF4E1300090DC
:101480000020ADF80400ADF80600ADF80800ADF896
:101490000C000C20ADF80A0069460C4800F02AF94F
:1014A000FFF7C9FC012240F22551084800F0FDF881
:1014B000012240F22441054800F0F7F801210348D9
:1014C00000F061F805B000BD000801400044004094
:1014D00070B540F22551164800F0BDF8B8B1144877
:1014E00000F074F9C5B2134800F041FC04466CB139
:1014F000A18820684554A088401C80B2A080B0F527
:10150000006F04DB0B4800F04CFC00E070BD40F2C3
:101510002441074800F09FF8012806D1054800F053
:1015200040FC034800F052F9C5B200BFEEE70000EE
:1015300000440040E001002008B540F22551094870
:1015400000F089F868B140F22551064800F00CF827
:10155000044800F03BF9C0B200900121684601F058
:1015600059FF08BD0048004010B50022002340F696
:101570006A14A14200D100BF0A1201249440A3B210
:10158000DC43048010BD21B1828942F40052828183
:1015900004E082894DF6FF731A4082817047000093
:1015A00010B504462048844209D101218803FFF781
:1015B000CBFC00214FF48040FFF7C6FC32E01B4813
:1015C000844209D101214804FFF79EFC00214FF419
:1015D0000030FFF799FC25E01548844209D101212C
:1015E0008804FFF791FC00214FF48020FFF78CFC6A
:1015F00018E01048844209D10121C804FFF784FC97
:1016000000214FF40020FFF77FFC0BE00A488442E2
:1016100008D101210805FFF777FC00214FF4801065
:10162000FFF772FC10BD000000380140004400408C
:1016300000480040004C004000500040024600209E
:10164000B1F5007F00D100BF13880B400BB1012022
:1016500000E00020704770B50246002400230025FA
:10166000002040F66A16B14200D100BFC1F3421516
:1016700001F01F03012606FA03F3012D02D196891A
:10168000334006E0022D02D1168A334001E0968AEB
:1016900033400C12012606FA04F41688344013B1C4
:1016A0000CB1012000E0002070BDF0B5034600241D
:1016B00000260025002040F66A17B94200D100BF7D
:1016C0001846C1F3421401F01F06012707FA06F578
:1016D000012C01D10C3004E0022C01D1103000E0CB
:1016E00014301AB107682F43076002E00768AF4360
:1016F0000760F0BD2DE9F04786B005460E46002490
:10170000A24600BFA1460027B08900B100BF2F4606
:101710002C8A4CF6FF700440F08804432C82AC897C
:101720004EF6F3100440B0883189084371890843AC
:101730000443AC81AC8A4FF6FF400440B0890443B7
:10174000AC8201A8FFF710FC1F48874202D1DDF8E8
:1017500010A001E0DDF80CA0A88900F4004040B121
:101760000AEBCA0000EB0A1031684900B0FBF1F83F
:1017700007E00AEBCA0000EB0A1031688900B0FBF1
:10178000F1F86420B8FBF0F004012009642101FBAA
:101790001089A88900F4004040B1322000EBC90054
:1017A000B0FBF1F000F00700044308E0322000EB4A
:1017B00009106421B0FBF1F000F00F0004432C810C
:1017C00006B0BDE8F0870000003801400146888877
:1017D000C0F308007047C1F308028280704700BF61
:1017E000FEE700000FB4054B10B503A9044A0298A8
:1017F00000F030F810BC5DF814FB00006D1E00080E
:10180000440000200048704778000020014800682C
:10181000704700007800002002E008C8121F08C1CD
:10182000002AFAD170477047002001E001C1121F61
:10183000002AFBD170470000014908607047000092
:101840007800002030380A2801D20120704700209B
:10185000704700002DE9FF4F8DB00F46054600266A
:1018600006E025280BD0DDE90F1290476D1C761C91
:1018700028780028F5D111B03046BDE8F08F00245B
:10188000A246A1460122EC4900E0044315F8013FBD
:10189000203B02FA03F00842F7D128782A2810D01A
:1018A0006FF02F022878A0F13001092914D80AEB33
:1018B0008A0102EB410144F0020400EB010A6D1CB5
:1018C000F0E701CF5FEA000A03D544F40054CAF1FF
:1018D000000A44F002046D1C28782E2817D115F850
:1018E000010F44F004042A280ED06FF02F0228784C
:1018F000A0F1300109290AD809EB890102EB410165
:1019000000EB01096D1CF2E757F8049B6D1C287869
:101910006C280FD006DC4C2817D068280DD06A2818
:1019200014D104E0742810D07A280FD10DE044F4CB
:1019300000140AE044F4801401E044F4401469788F
:10194000814202D104F580146D1C6D1C2A786E2A28
:101950001FD00CDC632A31D004DC002A8BD0582A3B
:1019600011D1A3E0642A68D0692A0CD165E0732AFA
:101970002ED004DC6F2A73D0702A04D19BE0752A24
:101980006FD0782A6ED01046DDE90F129047761C92
:1019900050E1C4F30250022806D0032809D00428DD
:1019A00001CF09D0066045E101CFF117C0E9006120
:1019B00040E101CF06803DE106703BE117F8040BE2
:1019C0008DF8000000208DF80100EB46012003E0B7
:1019D00057F804BB4FF0FF3061074FF0000102D40D
:1019E0000DE008F10101884649450FDA8045F8DB32
:1019F0001BF808100029F4D108E008F1010188461D
:101A00008142FADB1BF808100029F6D1DDE90F232B
:101A1000AAEB08008146214600F036F9304400EB7D
:101A2000080604E0DDE90F121BF8010B9047B8F13E
:101A30000108F7D221464846F7E00A21C4F30253D1
:101A40004FF0000B0891022B04D001CFC117032BDC
:101A500009D00AE0FF1D27F00707F7E8020108E0B8
:101A600032E01FE020E000B2C117042B01D140B2E8
:101A7000C117031E71F1000307DA4FF0000CD0EB21
:101A80000C006CEB01012D2302E0230504D52B2370
:101A90008DF82430012303E0E30701D02023F7E78A
:101AA000984658E00A2110E010210EE010204FF077
:101AB000000B08900CE010214FF0000B44F00404E0
:101AC0004FF00809089103E008214FF0000B08913E
:101AD000C4F30253022B04D001CF0021032B06D004
:101AE00006E0FF1D27F00707F7E8020103E080B2D8
:101AF000042B00D1C0B24FF0000823072BD5702A69
:101B000007D0DDF820C08CF0100C5CEA0B0C05D07F
:101B10000EE040238DF82430012308E050EA010351
:101B200006D030238DF824308DF8252002239846E6
:101B3000DDF820C08CF0080C5CEA0B0C0BD150EAED
:101B4000010301D1630706D530238DF824304FF00F
:101B50000108A9F10109582A04D038A20B9208AA59
:101B60000A920BE03AA2F9E75B46089AFEF730FBCF
:101B70000B9B9B5C0A9A521E0A92137050EA010258
:101B8000F2D10A98ADEB000000F1200B600702D5FE
:101B900024F4803401E04FF00109D94502DDA9EBBE
:101BA0000B0000E0002000EB0B0141440890AAEB81
:101BB000010AE00306D4DDE90F232146504600F078
:101BC00063F806444FF0000908E009A911F809007C
:101BD000DDE90F12904709F10109761CC145F4DBDC
:101BE000E0030CD5DDE90F232146504600F04CF808
:101BF000064404E0DDE90F1230209047761C089976
:101C0000481E08900029F5DC08E00A980A99007837
:101C1000491C0A91DDE90F129047761CBBF10001C7
:101C2000ABF1010BF1DC21465046DDE90F2300F05A
:101C300019F806446D1C1BE60928010030313233C7
:101C400034353637383961626364656600000000F8
:101C500030313233343536373839414243444546E2
:101C6000000000002DE9F041044600251E461746FD
:101C7000880404D405E039462020B0476D1C641E5A
:101C8000F9D52846BDE8F0812DE9F041044600254C
:101C90001E469046C80301D5302700E0202788045F
:101CA00004D505E041463846B0476D1C641EF9D5A1
:101CB0002846BDE8F08130B583B00446FFF7A6FDA5
:101CC00005460020CDE90000024621466846FEF7A1
:101CD000CCFA2846FFF7B0FDDDE9000103B030BDC6
:101CE000024610684000401E4B1C184070470160BF
:101CF00000224260826070470146D1E90120904293
:101D000001D1012070470020FCE70146D1E9002005
:101D100050408A68904201D1012070470020FCE7C2
:101D200010B504462046FFF7E7FF08B1002010BDBC
:101D3000E1686068884204D120466168FFF7D0FFFF
:101D4000E0602168491EE068084004F1140151F880
:101D50002000ECE700230268521EC168114000F128
:101D6000140252F821108B80C1684160704710B591
:101D700004462046FFF7C9FF08B1002010BD2169C5
:101D8000A068884204D12046A168FFF7A9FF20611E
:101D90002168491E2069084004F1140151F820000F
:101DA000ECE701698160704710B56FF00400FFF740
:101DB000BBF90A4800680A49B0FBF1F0094908700C
:101DC0000846007800EB4001C1EBC0104FF6FF71F0
:101DD00001EAC0000449088010BD00002C0000206A
:101DE00000127A0040000020420000200146114A03
:101DF00012884A434FF0E0235A6100229A611A4642
:101E0000126942F001021A6100BF4FF0E02210692E
:101E100000F001021AB100F48032002AF5D04FF030
:101E2000E022126922F001024FF0E0231A61002241
:101E30009A6170474200002001B581B000200090F7
:101E4000694601AA5078087010784870BDF8000003
:101E50000CBD0146080601F47F4240EA022001F46D
:101E60007F0240EA122040EA1160704700BF054A35
:101E7000128802F04002002AF9D0C2B2014B1B1DA9
:101E80001A80704700380140024612B102F0070084
:101E900028B9082901D8002070470120FCE702F08A
:101EA0000700C0F10800884201D30020F4E70120B8
:101EB000F2E730B502460B460021002400250AB99E
:101EC000481E30BD002108E0545C581A401E155CC5
:101ED0005554581A401E1454491CB1EB530FF3D3F8
:101EE0000020EEE72DE9F04104460D4600270026CC
:101EF00004B135B964A0FFF775FC4FF0FF30BDE8C1
:101F0000F08100F013FB064628782178884203D040
:101F100067A0FFF767FC012728792179884203D061
:101F200069A0FFF75FFC012768786178884203D0D9
:101F30006BA0FFF757FC0127A878A178884203D04F
:101F40006DA0FFF74FFC0127E878E178884203D0C5
:101F50006FA0FFF747FC012768796179884203D0B9
:101F600071A0FFF73FFC0127D5F80600D4F8061052
:101F700088420AD072480068301A41F27071884273
:101F800003D370A0FFF72EFC0127D5F80A00D4F880
:101F90000A1088420AD06A480068301A41F270710B
:101FA000884203D36CA0FFF71DFC0127D5F816006B
:101FB000D4F8161088420AD061480068301A41F2FD
:101FC0007071884203D369A0FFF70CFC0127D5F894
:101FD0001A00D4F81A1088420AD059480068301AFA
:101FE00041F27071884203D365A0FFF7FBFB012724
:101FF000D5F80E00D4F80E1088420AD05048006878
:10200000301A41F27071884203D362A0FFF7EAFBF5
:102010000127D5F81200D4F8121088420AD0484897
:102020000068301A41F27071884203D35EA0FFF756
:10203000D9FB0127D5F81E00D4F81E1088420AD01B
:102040003F480068301A41F27071884203D35CA0A7
:10205000FFF7C8FB0127D5F82200D4F822108842E8
:102060000AD037480068301A41F27071884203D3B1
:1020700058A0FFF7B7FB0127012F03D100F056FA54
:102080002F49086038463AE767697A436865636BA9
:102090005265706F7274204572726F72202C2049E5
:1020A0006C6C6567616C20506172616D0A000000A4
:1020B00076616C7565736572766F31204368616E09
:1020C0006765640A0000000076616C75654C4544E4
:1020D000315F31204368616E6765640A000000006B
:1020E00076616C7565736572766F32204368616ED8
:1020F0006765640A0000000076616C75654C4544B4
:10210000325F31204368616E6765640A0000000039
:1021100076616C75654C4544325F32204368616E70
:102120006765640A0000000076616C75654C454483
:10213000315F32204368616E6765640A0000000009
:102140006800002076616C756574656D70312043A0
:1021500068616E6765640A0076616C756568756DA7
:102160006931204368616E6765640A0076616C7549
:102170006574656D7032204368616E6765640A003E
:1021800076616C756568756D6932204368616E674C
:1021900065640A0076616C756564757374312043FB
:1021A00068616E6765640A0076616C75656C696765
:1021B000687431204368616E6765640A000000003E
:1021C00076616C75656475737432204368616E67FF
:1021D00065640A0076616C75656C696768743220A5
:1021E0004368616E6765640A00000000F8B5054643
:1021F0000C4616460DB104B12EB940A0FFF7F2FA15
:102200004FF0FF30F8BD287800F0010098B111219F
:102210002278601C81542078401C207001206B1CA7
:10222000024600210090084601F0D8F908B10120CB
:1022300000E0002030702878C0F3400098B11221EF
:102240002278601C81542078401C207001206B1C77
:10225000024601460090002001F0C0F908B10120BB
:1022600000E0002030712878C0F3800098B113217D
:102270002278601C81542078401C207001206B1C47
:10228000024602210090002001F0A8F908B10120C7
:1022900000E0002070702878C0F3C00098B11421CD
:1022A0002278601C81542078401C207001206B1C17
:1022B000024603210090002001F090F908B10120AE
:1022C00000E00020B0702878C0F3001098B115210C
:1022D0002278601C81542078401C207001206B1CE7
:1022E000024604210090002001F078F908B1012095
:1022F00000E00020F070002084E7000067697A4465
:10230000617461506F696E74324576656E742045F4
:1023100072726F72202C20496C6C6567616C205062
:102320006172616D0A000000F8B504460D4604B103
:102330002DB943A0FFF756FA4FF0FF30F8BD00204B
:1023400028706870A41C14F8020C2B46012200218E
:102350000090084601F002F9A0782B4601221146B0
:102360000090002001F0FAF814F8010C2B4601222D
:1023700002210090002001F0F1F820782B46012284
:1023800003210090002001F0E9F860782B4601223B
:1023900004210090002001F0E1F8E0782B460122B2
:1023A00000210090104601F0D9F801212846FFF7DE
:1023B00080FD0121681CFFF77CFD6268002101207F
:1023C00001F076F9A870A2680021012001F070F9EF
:1023D000E87062690021012001F06AF92871A269A0
:1023E0000021012001F064F96871E26800210120F8
:1023F00001F05EF986B23046FFF71EFDE8802269E3
:102400000021012001F054F986B23046FFF714FD97
:102410002881E2690021012001F04AF986B23046A4
:10242000FFF70AFD6881226AA41E0021012001F045
:102430003FF986B23046FFF7FFFCA88100207DE718
:1024400067697A44617461506F696E747332526562
:10245000706F727444617461204572726F72202CC7
:1024600020496C6C6567616C20506172616D0A0077
:1024700070B5054600F05AF804461D492846FFF796
:1024800031FD012813D11BA0FFF7ACF918493439ED
:102490002846FFF749FF28B90E2215493439042090
:1024A00000F0F2FF262229461148FDF73BFE1748AF
:1024B000B4FBF0F100FB1140C8B915480068A04218
:1024C00015D014A0FFF78EF9094934392846FFF7D3
:1024D0002BFF28B90E2206493439042000F0D4FF1E
:1024E000262229460248FDF71DFE0948046070BDFA
:1024F0000A1300206368616E6765642C2072657042
:102500006F727420646174610A000000C0270900C2
:102510006C000020496E666F3A20363030532072CE
:1025200065706F727420646174610A00014800680C
:10253000704700006000002010B5174890F8540064
:10254000012827D1144890F8530002281DDAFFF71C
:10255000EDFF1149D1F87A10401AC8281AD9FFF7AF
:10256000E5FF04460C4890F85330D0F87A20214615
:102570000AA0FFF737F900F0A5FE074890F85300CE
:10258000401C054981F8530004E02B2102485330D8
:10259000FDF7E1FD10BD0000FC1100205761726ED7
:1025A000696E673A67697A50726F746F636F6C52C5
:1025B0006573656E64446174612025642025642020
:1025C00025640A003EB50446002524B913A0FFF790
:1025D00009F9681E3EBD20680090606801909DF872
:1025E0000400401CC0B28DF804000520FFF724FC55
:1025F000ADF802000921684600F0A2FE8DF808003F
:102600000921684601F068FE0546002D03DA2946D7
:102610000DA0FFF7E7F82846DCE700004552523AE4
:102620002067697A50726F746F636F6C436F6D6D62
:102630006F6E41636B206461746120697320656D06
:10264000707479200A0000004552523A2075617278
:1026500074207772697465206572726F72202564C8
:10266000200A0000FEB504460E46002524B914A039
:10267000FFF7B8F8681EFEBD684600F0D7F91220D3
:102680008DF8040060798DF805000620FFF7D4FB73
:10269000ADF802008DF808600A21684600F050FE8F
:1026A0008DF809000A21684601F016FE0546002D46
:1026B00003DA29460DA0FFF795F82846DBE700006E
:1026C00067697A50726F746F636F6C4572726F7264
:1026D000436D64204572726F72202C20496C6C65CA
:1026E00067616C20506172616D0A00004552523A78
:1026F0002075617274207772697465206572726FDB
:1027000072202564200A000030B59DB004460025E3
:102710002CB92BA0FFF766F8681E1DB030BD6846C7
:1027200000F084F902208DF8040060798DF805002E
:102730002FA103C9CDE9020130A103C9CDE90401EC
:1027400031A103C9CDE9080132A103C9CDE90601D0
:10275000202233A10AA8FDF7E5FC202239A10DF1C2
:102760005200FDF7DFFC0020CDF84A00CDF84E0006
:102770009DF851008DF851009DF8510040F0020184
:102780008DF851100020FFF757FBADF848006F207F
:10279000FFF752FBADF802007321684600F0D0FD50
:1027A0008DF872007321684601F096FD0546002DF4
:1027B00003DA29462CA0FFF715F82846ADE70000FC
:1027C00067697A50726F746F636F6C4765744465A4
:1027D00076696365496E666F204572726F72202C50
:1027E00020496C6C6567616C20506172616D0A00F4
:1027F0003030303030303034000000003030303095
:102800003030303200000000303330333030303080
:102810000000000030333031303130300000000033
:102820003965303237653735323731343432303804
:10283000383465343531623361613462386333630F
:102840000000000037653166356231356462393821
:10285000346431323866643432373561636137331A
:1028600033333265000000004552523A20756172E0
:1028700074207772697465206572726F72202564A6
:10288000200A00002DE9FE4F80460E4617464FF005
:10289000000B0020029081468246002534460090BD
:1028A000B8F1000F01D006B137B950A0FEF79AFF7A
:1028B0004FF0FF30BDE8FE8F404601F0C1FB00F055
:1028C000FF0ABAF1000F02D14FF0FF30F2E74FF0EC
:1028D00000095DE0012201A9404601F0EEFB8346BC
:1028E000BBF1000F52D04D480078FF281FD19DF852
:1028F0000400FF281BD14A48007848B9FF20207007
:10290000607002204749088001204549087034E082
:1029100044480088042830DD42480088A8422CD072
:10292000FF202070607002203E49088025E03B486F
:102930000078FF2803D19DF8040055281DD03848A1
:102940000078012819D19DF804003649098860549F
:1029500034480088401C3349088008460088042811
:102960000BDD0094009C6088FFF766FA001D85B2BD
:102970002C480088A84200D10CE09DF804002749AB
:10298000087029480078401C2749087009F101099E
:10299000D1459FDB00BF23480088042823DD214860
:1029A0000088A8421FD11F480188204600F0C8FCBB
:1029B00002901C480088401E215C029881420FD181
:1029C0002A4621463046FDF7ADFB3D8000201449E4
:1029D000087014490880144908701049087069E7A4
:1029E0006FF0010066E7012064E7000067697A5034
:1029F000726F746F636F6C4765744F6E655061637F
:102A00006B6574204572726F72202C20496C6C6566
:102A100067616C20506172616D0A000074000020D3
:102A200070000020720000207500002010B50446E0
:102A30002CB907A0FEF7D6FE4FF0FF3010BD0020E6
:102A400020606060FF20207060700020F6E70000CA
:102A50004552523A2067697A50726F746F636F6C97
:102A600048656164496E69742068656164206973B2
:102A700020656D707479200A000000002DE9F04F88
:102A800093B006468B461746994600201290824620
:102A9000804600256C46BBF1000F06D130A0FEF742
:102AA000A1FE681E13B0BDE8F08FB9F1010F06D189
:102AB00096F8088008F10600384485B201E0781DD8
:102AC00085B22B46424639462BA0FEF78BFEFF20EF
:102AD00004F8010B04F8010B281204F8010B04F8A8
:102AE000015B3079401C04F8010B707904F8010B8C
:102AF000002004F8010B04F8019B4FF0080AB9F11B
:102B0000010F0CD104F8018B0AF1010A0DEB0A0048
:102B1000424606F10901FDF705FBC24444442FB1CA
:102B20000DEB0A003A465946FDF7FCFA291D6846A6
:102B300000F006FC0146E81C0DF80010291D68464F
:102B400001F0CAFB12901298002806DA14A012991C
:102B5000FEF748FE6FF00100A4E70020A2E70000A6
:102B60005B4552525D202064617461204973204EA0
:102B7000756C6C200A0000006C656E203D20256499
:102B8000202C20734469644C656E203D2025642010
:102B90002C646174615F6C656E203D2025640A00C1
:102BA00075617274207772697465206572726F72D4
:102BB000202564200A0000002DE9F04780460C46DD
:102BC00017461D46089E94F800900CB105B136B921
:102BD0002FA0FEF707FE4FF0FF30BDE8F087B8F1F9
:102BE000000F53D117213648FDF7B5FAB9F1010F9F
:102BF00006D0B9F1020F11D0B9F1050F44D123E08D
:102C00002F4A6A322E49601CFFF7F0FA01202C4946
:102C10007E39087000250020306036E028495C319C
:102C200001F13400FFF780FB50B90E2224495C31DA
:102C3000681CFDF777FA032028700F20306002E04F
:102C40004FF0FF30C9E720E07A1E611C1C485A385B
:102C5000FDF768FA781E1A497E39C1F8470010213D
:102C600017487E3890F87E207F3081547F3890F866
:102C70007E00401C12497E3981F87E0003200870D6
:102C800000250020306000E000BF00BF0020A4E766
:102C900067697A50726F746F636F6C49737375658F
:102CA0006450726F63657373204572726F72202C6B
:102CB00020496C6C6567616C20506172616D0A001F
:102CC0007A12002070B5044625462CB90EA0FEF7F6
:102CD00089FD4FF0FF3070BD412205F108010E481B
:102CE000FDF720FA0F210D4890F8C320C43081541D
:102CF000C43890F8C300401C084981F8C30005207F
:102D000008700020E7E700004E54502069732065EA
:102D10006D707479200A00003D130020FC11002022
:102D200010B504462CB9CAA0FEF75CFD4FF0FF3089
:102D300010BD2089FFF780F82081D1480078C0F3CA
:102D40008000217AC1F38001884256D0207AC0F3F6
:102D50008000002829D0207A00F0010078B10021FD
:102D6000C84890F8952096308154963890F8950090
:102D7000401CC44981F89500C3A0FEF733FD207ABA
:102D8000C0F34000002838D00121BE4890F89520BB
:102D900096308154963890F89500401CB94981F8D6
:102DA0009500C1A0FEF71EFD27E0207A00F001008B
:102DB00078B10021B34890F8952096308154963828
:102DC00090F89500401CAF4981F89500AEA0FEF741
:102DD00009FD207AC0F3400078B10221A94890F89B
:102DE000952096308154963890F89500401CA5495E
:102DF00081F89500B3A0FEF7F5FCA1480078C0F378
:102E0000C000217AC1F3C00188422CD0207AC108C9
:102E10009B48007861F3C30099490870207AC0F399
:102E2000C00080B10321974890F8952096308154D6
:102E3000963890F89500401C924981F89500A8A01A
:102E4000FEF7D0FC0FE004218E4890F895209630D4
:102E50008154963890F89500401C8A4981F8950075
:102E6000A7A0FEF7BFFC86480078C0F30010217AC7
:102E7000C1F3001188422CD0207A010980480078E3
:102E800061F304107E490870207AC0F3001080B10D
:102E900005217C4890F8952096308154963890F81A
:102EA0009500401C774981F895009DA0FEF79AFC9B
:102EB0000FE00621734890F895209630815496389B
:102EC00090F89500401C6F4981F895009CA0FEF792
:102ED00089FC6B480078C0F34010217AC1F340119F
:102EE00088422CD0207A41096548007861F345106A
:102EF00063490870207AC0F3401080B1072161480F
:102F000090F8952096308154963890F89500401CA2
:102F10005C4981F8950093A0FEF764FC0FE008215E
:102F2000584890F8952096308154963890F895003E
:102F3000401C544981F8950091A0FEF753FC50487D
:102F40004078C0F3C001607AC0F3C00081422CD049
:102F5000607AC1084A48407861F3C3004849487024
:102F6000607AC0F3C00080B10B21464890F89520EC
:102F700096308154963890F89500401C414981F86C
:102F8000950087A0FEF72EFC0FE00C213D4890F83D
:102F9000952096308154963890F89500401C394918
:102FA00081F8950085A0FEF71DFC35484078C0F3F8
:102FB0000011607AC0F3001081422CD0607A0109C0
:102FC0002F48407861F304102D494870607AC0F3AF
:102FD000001080B109212B4890F89520963081543B
:102FE000963890F89500401C264981F895007BA002
:102FF000FEF7F8FB0FE00A21224890F89520963062
:103000008154963890F89500401C1E4981F895002F
:1030100079A0FEF7E7FB0D211A4890F8952096302D
:103020008154963890F89500401C164981F8950017
:10303000607A00F0070081F83401084690F83411F6
:1030400074A0FEF7CFFB02200E49087000206FE647
:1030500067697A50726F746F636F6C4D6F64756CD3
:1030600065537461747573204572726F72202C20E1
:10307000496C6C6567616C20506172616D0A00007B
:1030800076000020FC1100204F6E426F617264696F
:103090006E673A20536F66744150206F72205765F7
:1030A00062206D6F64650A004F6E426F61726469E1
:1030B0006E673A204169724C696E6B206D6F646572
:1030C0000A0000004F6E426F617264696E673A20B9
:1030D00053746174696F6E206D6F64650A0000003F
:1030E00057694669207374617475733A20696E205C
:1030F00062696E64696E67206D6F64650A00000026
:1031000057694669207374617475733A206F7574DA
:103110002062696E64696E67206D6F64650A0000E5
:1031200057694669207374617475733A20636F6ED2
:103130006E656374656420726F757465720A000051
:1031400057694669207374617475733A20646973B2
:10315000636F6E6E656374656420726F75746572FB
:103160000A00000057694669207374617475733AE8
:1031700020636F6E6E6563746564206D326D0A0046
:1031800057694669207374617475733A2064697372
:10319000636F6E6E6563746564206D326D0A000046
:1031A00057694669207374617475733A2061707051
:1031B00020636F6E6E6563740A000000576946698C
:1031C000207374617475733A206E6F206170702083
:1031D000636F6E6E6563740A00000000576946698C
:1031E000207374617475733A20696E20746573740A
:1031F000206D6F64650A0000576946692073746129
:103200007475733A206F75742074657374206D6FD4
:1032100064650A0052535349206973202564200ACB
:103220000000000070B5044625462CB917A0FEF733
:10323000D9FA4FF0FF3070BD1948A9680160E968FC
:103240004160298A0181A97C8172A0F23511B1F80F
:103250003501FEF7F1FD1349A1F83501D1F83D0123
:10326000FEF7F7FD0F49C1F83D010E210D4890F81A
:10327000AC20AD308154AD3890F8AC00401C094909
:1032800081F8AC00042008700020D4E74552523A7F
:10329000204E545020697320656D707479200A00A7
:1032A00031130020FC11002010B5FFF73FF9044650
:1032B00000BFFFF73BF9001BB0F5167FF9D900F00E
:1032C00091FE10BD10B500240E4890F8540000B9CE
:1032D00010BD0DA0FEF786FA0A48B0F878105530F8
:1032E00000F0FAFF04460748B0F87800A04202D088
:1032F0000DA0FEF777FAFFF719F90249C1F87A0035
:1033000000BFE5E7FC1100205761726E696E673AF5
:103310002074696D656F75742C20726573656E64B9
:103320002064617461200A004552523A207265732C
:10333000656E642064617461206572726F720A0048
:1033400010B502460024002302B109B9002010BDC7
:10335000022303E0D05C2044C4B25B1C481E9842A8
:10336000F8D82046F3E7000070B504460D462CB9A6
:103370000FA0FEF737FA4FF0FF3070BD2B21124837
:10338000FCF7E9FE2A4621460F48801CFCF7CAFEDE
:103390000D485338A0F87850012180F85410FFF7F9
:1033A000C5F809495339C1F87A000020E5E7000063
:1033B0004552523A206461746120697320656D70D2
:1033C0007479200A000000004F12002070B50446F6
:1033D000094D2CB909A0FEF705FA4FF0FF3070BD7A
:1033E0002879401C2179884204D12B210248801E73
:1033F000FCF7B1FE0020F2E7511200204552523A8C
:10340000206461746120697320656D707479200A8D
:103410000000000070B504460D46002624B90AA03D
:10342000FEF7E0F9701E70BD2A4621460E4800F0F6
:1034300095FE0646AE4205D00CA0FEF7D3F94FF03C
:10344000FF30F0E73046EEE74552523A2067697A9E
:1034500050757444617461206275662069732065DB
:103460006D707479200A00007E1300204552523A94
:10347000204661696C656420746F207262577269BE
:103480007465200A00000000F0B587B005460E46BE
:10349000174600242EB91FA0FEF7A4F9601E07B03E
:1034A000F0BD01A8FFF7C2FA05208DF808002348F7
:1034B00090F84B10D0F84B00401C204AC2F84B004B
:1034C000C8B28DF809008DF80C501420FEF7B4FC3A
:1034D000ADF806003A4631460DF10D00FCF722FE2C
:1034E000182101A8FFF72CFF8DF81B00182101A857
:1034F00000F0F2FE0446002C06DA214610A0FEF78A
:1035000071F96FF00100CAE7182101A8FFF72CFF3D
:103510002046C4E767697A5265706F7274446174BB
:1035200061204572726F72202C20496C6C65676156
:103530006C20506172616D0A00000000FC110020D7
:103540004552523A20756172742077726974652011
:103550006572726F72202564200A00002DE9F04721
:1035600004460D461746089E4FF00009CA46C84655
:103570001BB94FF0FF30BDE8F08739462846FEF70B
:1035800083FC8046B8F1000F07D1185D05F00701F4
:1035900006FA01F1084318551EE0B8F1010F1BD1DE
:1035A000F0B205F00701C1F1080140FA01F905F098
:1035B0000700C0F10801FF20084100EA060A601C6C
:1035C000185C40EA0900611C5854185D05F00701B9
:1035D0000AFA01F1084318550020CCE72DE9F04F15
:1035E0008FB005460C4616469946189F4FF0000AC4
:1035F000D34600200E908046B9F1000F00D027B9C5
:103600004FF0FF300FB0BDE8F08F3A46494601A8B1
:10361000FCF788FD012F09D9394601A8FEF749FCBE
:10362000B0F1FF3F02D14FF0FF30EBE731462046CB
:10363000FEF72AFC8246BAF1000F0CD101A8405DCA
:1036400004F007010841C6F10802FF2111410840BA
:1036500040EA080821E0BAF1010F1ED101A9681C57
:10366000085C04F00701C1F10801711AC1F10802F8
:10367000FF21114100EA010B01A8405D04F00701A0
:1036800008410E9004F00700C0F108010BFA01F0A8
:1036900040EA08080E9848EA00084046B2E70000F1
:1036A00002480068401C0149086070476000002023
:1036B00010B503460020541AB4FBF3F010BD00000F
:1036C0002DE9FF5F07460E4693464FF0000834464B
:1036D000B1463546B24607B126B94FF0FF3004B0C7
:1036E000BDE8F09F4FF0000876E0781C10F8080065
:1036F00016286BD2DFE800F038393A6A6A3B3C3D65
:10370000416A6A6A6A454F5E4B0B141D262F20786A
:10371000344908700846017833A0FEF763F856E094
:103720002079304908710846017935A0FEF75AF82A
:103730004DE060782B4948700846417836A0FEF786
:1037400051F844E0A078274988700846817838A06D
:10375000FEF748F83BE0E0782249C8700846C17897
:1037600039A0FEF73FF832E031E030E02FE02EE004
:103770002DE001203A49087029E0002038490870FE
:1037800025E099F8001037A0FEF72CF81FE038A0CC
:10379000FEF728F81BE0A9796A792B79A868CDE9AA
:1037A0000032CDE90210EB78AA78298835A0FEF71F
:1037B00019F80CE03EA0FEF715F842A0FEF712F84B
:1037C0009AF8001043A0FEF70DF800E000BF00BF1C
:1037D00008F1010000F0FF083878404585DC002042
:1037E0007DE700007C0000204576743A2045564570
:1037F0004E545F736572766F31202564200A000095
:103800004576743A204556454E545F4C4544315FE9
:1038100031202564200A00004576743A204556453B
:103820004E545F736572766F32202564200A000063
:103830004576743A204556454E545F4C4544325FB8
:1038400031202564200A00004576743A204556450B
:103850004E545F4C4544325F32202564200A0000FC
:1038600064000020525353492025640A00000000E0
:103870005452414E53504152454E545F444154417D
:10388000200A0000574946495F4E5450203A205BB9
:1038900025642D25642D256420253032643A253099
:1038A00032643A253032645D5B25645D200A000095
:1038B0004D4F44554C4520494E464F202E2E2E0A42
:1038C00000000000574946204D4F44554C45202EDE
:1038D0002E2E0A006D6F64756C6554797065203A00
:1038E000205B25645D200A002DE9F04196B0054675
:1038F000002600200390029000248046002735B95E
:1039000082A0FDF76FFF601E16B0BDE8F081FEF7E4
:1039100013FE03AA87498848FEF7B4FF0646002E27
:1039200071D186A0FDF75EFF824C20790F284FD021
:103930000ADC0E2873D2DFE800F07216721A727277
:10394000433872724472453C182852D006DC112864
:1039500047D0142846D0162861D134E0222854D00C
:103960002A285CD130E02046FEF7CEFE5FE0E27907
:10397000A17977A0FDF736FF02A8009007F10900B2
:10398000BDF80C301A1A6B480830C11904AB404618
:10399000FFF712F940B9E37904A92046029AFFF72C
:1039A0006DF86FA0FDF71EFF41E02046FEF70AFE0E
:1039B0003DE02046FEF706FE2046FFF7B1F936E06F
:1039C00000BF00BF00BF00BF2046FFF7FFFC2EE096
:1039D0002046FEF7F7FD65A0FDF704FFFFF764FC46
:1039E00025E024E02046FFF7F1FC65A0FDF7FAFE94
:1039F0001DE02046FFF7EAFC2046FFF713FC68A015
:103A0000FDF7F0FE13E013E009E02046FFF7DEFCCF
:103A10002046FFF757F968A0FDF7E4FE07E0022112
:103A20002046FEF71FFE6BA0FDF7DCFE00BF0DE099
:103A300016F1020F0AD13F4C01212046FEF712FE7B
:103A40006AA0FDF7CFFE6FF001005DE73948401E28
:103A50000078062853D2DFE800F0520313243041E7
:103A600000203449491E08702622E831A1F16A007D
:103A7000FFF726FE17212F487D30FCF76CFB3FE057
:103A800000202C49491E0870012201F59A71A1F10C
:103A90009F00FFF715FE172126489430FCF75BFBCB
:103AA0002EE000202349491E08700846D0F8472020
:103AB00024317E30FFF704FE22E000201D49491E1C
:103AC00008700C2201F23511A1F18900FFF7F8FD11
:103AD00017211848AB30FCF73EFB11E000201549D8
:103AE000491E0870412201F24111A1F17E00FFF749
:103AF000E7FD41210F48C230FCF72DFB00E000BF7D
:103B000000BF2846FEF7B4FC0020FDE647697A773F
:103B100069747348616E646C65204572726F7220BF
:103B20002C20496C6C6567616C20506172616D0A74
:103B300000000000FD1100207E1300204765742066
:103B40004F6E65205061636B6574210A00000000B0
:103B5000666C6167202578202578200A0000000027
:103B600041636B44617461203A200A007265706F92
:103B700072743A4D4355207265626F6F74210A006A
:103B800041636B2050524F44554354494F4E5F4D53
:103B90004F44452073756363657373200A0000000A
:103BA00041636B204745545F5554542073756363DC
:103BB000657373200A00000041636B204745545F22
:103BC0004D6F64756C652073756363657373200A4C
:103BD000000000004552523A20636D6420636F6418
:103BE00065206572726F72210A0000004552523AD8
:103BF00020636865636B2073756D206572726F72E8
:103C0000210A000010B546200A4908600A48C86029
:103C1000084600F047FA18B908A0FDF7E3FD02E0F6
:103C20000BA0FDF7DFFD4FF4C1710E48FCF793FACE
:103C300010BD00007E1300208E13002072624372BC
:103C4000656174652053756363657373200A0000B2
:103C50007262437265617465204661696C64200A12
:103C600000000000FC11002030B587B0054600249C
:103C7000062D7CD2DFE805F003305F90BDEA01A895
:103C8000FEF7D4FE0B208DF808008B4890F84B10FF
:103C9000D0F84B00401C884AC2F84B00C8B28DF8DF
:103CA00009000520FEF7C8F8ADF80600092101A8B3
:103CB000FFF746FB8DF80C00092101A800F00CFB72
:103CC0000446002C03DA21467CA0FDF78BFD092178
:103CD00001A8FFF749FBEAE004A8FEF7A7FE0920C8
:103CE0008DF81400744890F84B10D0F84B00401C2D
:103CF000714AC2F84B00C8B28DF815008DF8185003
:103D00000620FEF799F8ADF812000A2104A8FFF783
:103D100017FB8DF819000A2104A800F0DDFA04460B
:103D2000002C03DA214665A0FDF75CFD0A2104A8FA
:103D3000FFF71AFBBBE004A8FEF778FE09208DF818
:103D400014005D4890F84B10D0F84B00401C5A4AC4
:103D5000C2F84B00C8B28DF815008DF81850062037
:103D6000FEF76AF8ADF812000A2104A800E09AE014
:103D7000FFF7E6FA8DF819000A2104A800F0ACFA62
:103D80000446002C03DA21464CA0FDF72BFD0A2146
:103D900004A8FFF7E9FA8AE001A8FEF747FE13201E
:103DA0008DF80800444890F84B10D0F84B00401CA8
:103DB000414AC2F84B00C8B28DF809000520FEF751
:103DC0003BF8ADF80600092101A8FFF7B9FA8DF814
:103DD0000C00092101A800F07FFA0446002C03DA48
:103DE000214636A0FDF7FEFC092101A8FFF7BCFA29
:103DF0005DE001A8FEF71AFE15208DF808002E4898
:103E000090F84B10D0F84B00401C2B4AC2F84B00E6
:103E1000C8B28DF809000520FEF70EF8ADF80600CF
:103E2000092101A8FFF78CFA8DF80C00092101A8DF
:103E300000F052FA0446002C03DA21461FA0FDF7D9
:103E4000D1FC092101A8FFF78FFA30E001A8FEF7A5
:103E5000EDFD29208DF80800174890F84B10D0F898
:103E60004B00401C144AC2F84B00C8B28DF8090040
:103E70000520FDF7E1FFADF80600092101A8FFF7D5
:103E80005FFA8DF80C00092101A800F025FA04461C
:103E9000002C03DA214609A0FDF7A4FC092101A8A2
:103EA000FFF762FA03E00CA0FDF79CFC00BF00BF27
:103EB000204607B030BD0000FC1100204552523AA8
:103EC0002075617274207772697465206572726FF3
:103ED00072202564200A00004552523A204366674A
:103EE0004D6F6465206572726F72210A00000000D8
:103EF00008B5FDF7A1FA4FF4A060FCF7E9FFFDF764
:103F000053FF4FF4E13000F013FA472140F2E7305D
:103F1000FDF7A2F94FF4165000F05AFA00F06CF9D0
:103F2000FCF7E8FEFCF7D4FE1DA0FDF75BFC35E0D6
:103F300000F070F81E481F4B1F4A2049009020488F
:103F4000FCF7DBFD1D48FCF71AF91E4908601A480A
:103F5000FCF715F91C4908601648FDF7ACFE05464C
:103F6000FCF71AF9194908601148FDF7A4FE054647
:103F7000FCF712F9164908600020FCF7F9FE044628
:103F8000052C06D100240220FFF76EFE11A0FDF7DC
:103F900029FC00F075FA1248FFF7A6FCC8E70000FC
:103FA000B3F5CABCBBAFCDEAB3C90D0A000000002F
:103FB000120000200C000020080000200400002057
:103FC0006C0100201C0000202000002024000020A4
:103FD00028000020C5E4CDF8CDEAB3C90D0A0000E1
:103FE0007C000020012080F3138800BF00BF074839
:103FF000006800F4E06006490843001D03490860BA
:10400000BFF34F8F00BF00BFFEE700000CED00E0E4
:104010000000FA0510B50848FDF782FE044654B1C9
:104020000020A2882168885404482168FCF79EF883
:104030000148FDF78FFE10BDE00100206C0100205B
:1040400000B5024612B94FF0FF3000BD50689168CC
:10405000884201D10020F8E750689168884203D275
:1040600090685168401AF0E7104600F014F8516863
:104070009368C91A401AE8E730B5044614B94FF0FE
:10408000FF3030BD204600F006F805462046FFF719
:10409000D7FF281AF5E7014611B94FF0FF307047F6
:1040A0000868FCE7014611B94FF0FF307047C86857
:1040B0004860C86888600020F8E72DE9F0410446B0
:1040C0000F461646002514B9681EBDE8F08117B9E1
:1040D0004FF0FF30F9E76068A168884214D22046AB
:1040E000FFF7AEFFB04201D9304602E02046FFF7AD
:1040F000A7FF054661682A463846FCF713F8606852
:10410000284460602846E0E72046FFF7C4FF616866
:10411000E268891A401AB0420AD9354661682A46CF
:104120003846FBF7FFFF6068284460602846CCE70C
:104130002046FFF7B0FF6168E268891A451A616896
:104140002A463846FBF7EEFFE0686060721B79197B
:104150002046FFF7B2FF05442846B6E72DE9F041B7
:1041600004460F461546002604B11FB94FF0FF3034
:10417000BDE8F0812046FFF77FFFA84202D86FF02C
:104180000100F5E76068A16888422AD82046FFF759
:1041900082FFA168E268891A461AB54213D8A0685E
:1041A0002A463946FBF7BEFFA0682844A060204697
:1041B000FFF771FFE1680844A168884201D1E06817
:1041C000A0602846D4E7A06832463946FBF7AAFF2C
:1041D000E068A060AA1BB9192046FFF7BFFF304472
:1041E000C6E7A0682A463946FBF79CFFA06828442A
:1041F000A0602846BCE7000038B500242348002111
:10420000016041608160C16002212148FDF76FFDBE
:1042100000BF20E01F4800EBC4201C4941F83400D7
:10422000084600EBC4011A48143040F8241000BFBF
:1042300050F824000368154850F83420C821164867
:10424000FDF7D0FA00BF114951F834004FF4006176
:10425000FBF781FF641C022CDCD300BF0C48806894
:1042600000900B484368CD2102680CA0FDF7BAFA14
:1042700000BF00BF0648006900900548C368CD2113
:1042800002681448FDF7AEFA00BF38BDD001002027
:10429000E0010020FC0100204C4500083C3C2D5171
:1042A000554555452D44454255472D3E3E205B25FD
:1042B000645D73697A653D307825782C207265617C
:1042C000643D25642C2077726974653D25640A0A73
:1042D000000000000845000870B505460E460024A1
:1042E0000DB9601E70BD00241BE0295D0F48FDF76D
:1042F00072FA00BF80210D48FDF7A0F90028F9D01F
:10430000022C0DD3285DFF280AD155210748FDF75F
:1043100062FA00BF80210548FDF790F90028F9D026
:10432000641CB442E1D33046DCE7000000480040A2
:1043300010B586B00446012144F20400FCF7F4FDF8
:104340004FF40070ADF8140003208DF8160018200B
:104350008DF8170005A91C48FCF72EFC4FF480606F
:10436000ADF8140004208DF8170005A91648FCF7D5
:1043700023FC25208DF8000003208DF8010001208A
:104380008DF802008DF803006846FCF769FD019482
:104390000020ADF80800ADF80A00ADF80C00ADF84B
:1043A00010000C20ADF80E0001A90848FDF7A2F995
:1043B000012240F225510548FDF777F90121034814
:1043C000FDF7E1F806B010BD0008014000380140DB
:1043D00010B586B0044601210820FCF7A5FD012197
:1043E0008804FCF781FD2448FDF7DAF84FF480607B
:1043F000ADF8100003208DF8120018208DF813007E
:1044000004A91E48FCF7D8FB4FF40060ADF810007B
:1044100004208DF8130004A91848FCF7CDFB009484
:104420000020ADF80400ADF80600ADF80800ADF8C6
:104430000C000C20ADF80A0069460F48FDF75AF948
:1044400001210D48FDF79FF8012240F225510A484D
:10445000FDF72BF927208DF8140002208DF81500A8
:1044600003208DF8160001208DF8170005A8FCF731
:10447000F7FC06B010BD000000480040000C0140F1
:104480007047004040404040404040404141414131
:10449000414040404040404040404040404040401B
:1044A000404040050202020202020202020202022F
:1044B00002020220202020202020202020020202B0
:1044C0000202020290909090909010101010101024
:1044D00010101010101010101010101010100202F8
:1044E0000202020288888888888808080808080864
:1044F0000808080808080808080808080808020248
:1045000002024000834400083C3C2D51554555456E
:104510002D44454255472D3E3E205B25645D736921
:104520007A653D307825782C20726561645F7573FB
:10453000696E673D25642C2077726974655F7573B9
:10454000696E673D25640A0A000000003C3C2D515D
:10455000554555452D44454255472D3E3E205B254A
:10456000645D6E6F64655F646174615B695D2E6834
:104570006561643D307825782C0D0A72785F71751D
:104580006575652E656C656D735B695D203D307882
:1045900025780A00B4450008000000207C000000D7
:1045A00018180008304600087C0000205C17000046
:1045B00028180008000000000000000000000000B3
:1045C00000000000000000000000000000000000EB
:1045D00000000000000000000000000000000000DB
:1045E00000A24A04000000000000000001020304D1
:1045F000060708090000000000000000000000009D
:104600000000010203040102030406070809020472
:10461000060801000000000000000000000000008B
:10462000000000000000000000000000000000008A
:0400000508000101ED
:00000001FF
